:020000040800F2
:1000000000000220453F0208FD090208FF0902081E
:10001000010A0208030A0208050A0208000000009B
:100020000000000000000000000000000DD30108E7
:10003000070A020800000000C1D30108090A0208EB
:10004000953F0208953F0208953F0208953F020838
:10005000953F0208953F0208953F0208953F020828
:10006000953F0208953F0208953F0208953F020818
:10007000953F0208953F0208953F0208953F020808
:10008000953F0208953F0208953F020800000000D6
:10009000000000000000000000000000953F020882
:1000A000953F0208953F0208953F0208953F0208D8
:1000B000953F0208953F0208953F0208953F0208C8
:1000C000953F0208953F0208953F0208953F0208B8
:1000D000953F0208210A0208953F0208000000002F
:1000E000953F0208953F0208953F02080000000076
:1000F000000000000000000000000000953F020822
:10010000000000002D0A0208953F0208953F0208F2
:1001100000000000000000000000000000000000DF
:10012000953F0208953F0208390A0208450A02086D
:10013000953F0208000000000000000000000000E1
:10014000000000000000000000000000510A02084A
:100150005D0A0208953F0208690A0208953F0208F5
:10016000953F0208953F02080000000000000000D3
:10017000000000000000000000000000000000007F
:1001800000000000953F0208000000000000000091
:08019000953F0208953F0208AB
:1001A00038B5124C236800255D622946204617F0B9
:1001B000B5FC2946204616F047FB226813699907CB
:1001C000FCD50A48002116F03FFB2268054613695A
:1001D0009B07FCD50021054816F036FB002104469C
:1001E000024817F001FD601B38BD00BFB46F01204D
:1001F00010B5144B1A689403FCD59A6822F00302D8
:1002000042F001029A60104A002414661A689201B2
:10021000FCD45A6822F48002104358605A6822F0D5
:100220003F0211435960084B01221A66054A1368C0
:100230009B01FCD5936823F0030343F00203936012
:1002400010BD00BF00380240000047427FB51021BA
:100250000020FFF7CDFFFFF7A3FF134B134A1B68E6
:1002600003EB4303B3FBF2F383421AD214220021BF
:1002700001A826F0CAFC0223009368460C4B0493A5
:1002800012F03EFD08B120F023F90A4B0122C3F819
:100290003C2E08214FF4800007B05DF804EBFFF717
:1002A000A7BF1921F6E700BFDC00002080841E00F4
:1002B000000308000000474270B510210020FFF73E
:1002C00097FF0F4D0F4E1F24FFF76AFF2B68326810
:1002D0000D49B2FBF1F28242C3F3C4030BD243B126
:1002E000013B2A6822F0F80242EAC302013C2A607C
:1002F000EAD1184670BDFCD91F2BFAD00133F0E7C4
:1003000000380240DC00002040420F0013B5FFF728
:10031000D3FF044612F03AFE0DF044FA114A136876
:1003200023F0F80343EAC40313604FF0E0230022F4
:100330001A615A619A610C4B0193019B596862B62C
:100340000A4B1A6822F003021A601A6842F001028E
:100350001A60019B1B6883F3088802B0BDE8104057
:10036000084700BF003802400000FF1F003801406E
:1003700010B5FFF76BFF194821F08BFF08B1FFF7AD
:10038000C5FF05F0A1FB164905F0BEFB08F07EF89D
:10039000144A02F1200108F09DF80CF057FD0368A3
:1003A00011491C6A114B0022A04704F02EFE10498F
:1003B000002204F095FE0F4821F06BFF30B107F0EA
:1003C00069FC0368BDE810401B68184702F00AFF8B
:1003D000094902F0C1FF00F097F8F2E71803002086
:1003E0002803002040030020FC6F01208C03002024
:1003F0006C6F01209C030020AC03002000BEFEE7D0
:10040000704700BF00F5005090F86C01003818BF2D
:10041000012080007047F8B500F500550446D5F876
:10042000640190F8701302F0B4FF0022014604F654
:1004300028500BF051F8D5F8640190F8F11302F050
:10044000B0FF0022014604F556600BF045F8D5F8E0
:10045000641191F8E923134623F0400381F8E9334E
:10046000C2F3801201F2F23104F698500BF034F826
:1004700004F55D670026F1B2D5F8640102F0CFFF04
:1004800001360146384601F010F9062E07F590773F
:10049000F1D1D5F8643193F8521304F6384631B3EC
:1004A000012130460DF02CF9D5F8643193F8E3338F
:1004B000002B0CBFFF214FF47F4130460DF036F882
:1004C000D5F86431002683F80F64D4F8903004EB3B
:1004D00083041421E06C03685B699847D5F85C01DC
:1004E00000F5C15004300CF066FA3046F8BD3046D5
:1004F0000DF006F9D5F8643193F8E333002B0CBF07
:100500006FF07F41FF21D8E708B50D480368BFF3BE
:100510005B8FDB070DD424F00CF950B1094822F0B1
:100520008BFC094A0949074823F035FD044824F0AB
:100530000FF9044808BD024824F007F923F0A6FD8E
:10054000940400209804002044010020752D020826
:100550002DE9F04F00F5005785B0D7F85C3105461E
:10056000D3F888400E46002972D0083C032294FB41
:10057000F2F4D3F88CB008F0B3FD0368DB68984759
:10058000804608F0ADFD0368DB68984705F5B15972
:1005900009F1180908EB480800EB40004FF0010A88
:1005A000ABEB08032D49CDF808A00022CDE90040AF
:1005B00048460CF06BFE21F0E5FF002301461A4689
:1005C00048460DF0A8F848460DF062F805F5805849
:1005D000E6B1B8F94026CDF808A0B8F946361F496B
:1005E000CDE9004305F5B7561836B8F93E36053261
:1005F00030460CF04BFE21F0C5FF002301461A46A1
:1006000030460DF088F830460DF042F8D7F85C31EE
:100610001249D3F8882001230293B8F94636CDE970
:10062000004305F5BD551835B8F93E36121B28466E
:100630000CF02CFE21F0A6FF002301461A462846A6
:100640000DF069F8284605B0BDE8F04F0DF020B870
:1006500004EBD4746410043C8BE700BFC73C030870
:1006600000F5005300F5B150D3F8643193F87033BE
:10067000022B0CBF0249034918300CF014BF00BF15
:10068000B02E0308B52E030800F50052D2F86421FD
:1006900092F87023012A05D821B100F5B150183025
:1006A0000CF001BFFFF7DCBF00F5005300F5BD50B3
:1006B000D3F8642192F87033052B00F1180008D1AB
:1006C00092F8F1334F2B02D105490CF0ECBE0549ED
:1006D000FBE7002BF8D0092BF6D00349F5E700BF64
:1006E00047380308B92E03086835030800F500529F
:1006F000D2F8642192F87023012A05D121B100F5C6
:10070000BD5018300CF0CFBEFFF7CEBF70B500F172
:1007100048030446002553F8042F8A4218D1D4F820
:10072000903004EB8303D86C03681B69984704F18D
:100730009400C4F89050294604F06DFBD4F8903032
:1007400004EB8303BDE87040D86C0368DB6818478E
:100750000135102DDFD170BD70B504468AB004F5A7
:10076000B055183503A81DF024F804F5AF56049BC6
:10077000144A2021284626F079F9294630460122DC
:100780000AF0AAFE04F5005304F58054D3F85C3156
:10079000D3F88820B4F9EC3503EBD37302EBD272B3
:1007A0005C10C4EB620408F06DFC6FF07F430190B5
:1007B000009322461E23294630460AF015FD0AB052
:1007C00070BD00BFC02E030810B50446943004F07D
:1007D00072F904F6F8400BF000FA04F628500BF01A
:1007E000FCF904F556600BF0F8F904F698500BF09C
:1007F000F4F904F638400BF0F0F904F5B150183074
:100800000BF0EBF904F5BD501830BDE810400BF0CB
:10081000E4B910B54FF4FA610446943004F00BF9D2
:100820004FF47A7104F6F8400BF0C7F940F2E93161
:1008300004F628500BF0C1F940F2EA3104F5566095
:100840000BF0BBF940F2EB3104F698500BF0B5F920
:100850004FF47A7104F638400BF0AFF904F5B1505B
:10086000662118300BF0A9F904F5BD506621BDE8EA
:10087000104018300BF0A1B938B568B30B784D783B
:10088000DBB900F5B154A36918345B692046984779
:1008900088B1236820465B6C984760B129462046A2
:1008A0000CF02EFF3DB9236820465B6C984710B1D1
:1008B00020460CF034FF002038BD012B02D100F59A
:1008C000BD54E0E7062BF6D1002DF4D0036800F606
:1008D00038419B699847EEE70220EDE7D0F8903069
:1008E00000EB830370B50446D86C03680D461B69A2
:1008F0009847C4F8905004F19400294604F08BFA0C
:10090000D4F8903004EB8304E06C0368BDE87040D9
:10091000DB68184700F63843994237B504460D4660
:100920000CD190F8483C4BB100F50054D4F8640168
:1009300090F8523363B902F049FE0BE004F19403DE
:100940009D420BD194F8C0102046FFF7C7FF01E08D
:1009500002F074FE4FF0000003B030BDD4F89030C8
:1009600004EB83032946D86C03689B699847C0B29F
:100970000928EFD104F5B15318339D420CD104F589
:100980000054D4F8640190F87033022B14BF812115
:10099000822102F00CFEDDE704F5BD5318339D42C1
:1009A000D8D104F50054D4F8640190F87013D0F84D
:1009B0006823052913D190F8F133C0F86C234F2B2D
:1009C0004FF0000380F8F13380F8553301D118213E
:1009D000DFE70B49019301AA03F026FBBAE70023E6
:1009E00039B1092905D080F85533C0F86C23192195
:1009F000CFE780F8F13380F85533C0F86C23E6E791
:100A0000D62E0308D0F89010D0F88C300131B1FB0D
:100A1000F3F203FB1211C9B2FFF760BFD0E9232143
:100A200011440139B1FBF2F302FB1311C9B2FFF714
:100A300055BF2DE9F743044600F1940504F500582D
:100A4000284604F038F828270822D8F85C31CDE988
:100A50000072002200261146D3F88830284604F0A0
:100A6000EFF9C4F88C6008F0B1FA3146284A034621
:100A7000284604F062F902F019F8D4F88C3003F13A
:100A8000010904EB8303C4F88C90D86408F09EFA43
:100A90004946204A0346284604F04FF905F08CFEEB
:100AA000D4F88C3003F1010904EB8303C4F88C9073
:100AB000D86408F08BFA49460346174A284604F0E2
:100AC0003CF906F055FDD4F88C305A1C04EB830336
:100AD000C4F88C20D864D8F85C31CDE90072314676
:100AE0003246D3F88830284604F0AAF9284604F0A4
:100AF00057FA214628463346324604F04DFA4FF461
:100B0000FA61284603B0BDE8F04303F094BF00BF8C
:100B1000DA2E0308E42E0308ED2E03082DE9F04F2A
:100B20008BB0044604F0D0FF04F0F2FF04F500554A
:100B30008DF81B00D5F85C6104F0C6FFC168003970
:100B400018BF0121304607F0E4FC95F85811D5F89C
:100B50005C0108F08BF8D5F85C31AF4AC3F880200F
:100B6000D3F88C7008F0BCFA0368DB689847064637
:100B700008F02CFA0368DB689847D5F85C31D3F8A5
:100B800088300593824608F021FA026892689047FF
:100B9000834608F01BFA0268D268904706EB4606C7
:100BA0009E49059BBA1E4FF0060804F6F849921BB1
:100BB0004000002608FB1B33A2EB4A02CDE90116D8
:100BC00000903146484609F03CFF4FF47A714846A0
:100BD0000AF0F3FF04F5C357914A18371146022370
:100BE000384604F0CBFD214633463246384604F001
:100BF000C1FDD5F8640102F021FDD5F85C31D3F8D0
:100C00008820059208F0E2F903689B689847B4F9D8
:100C1000FEBC824608F0DAF903689B689847059A9B
:100C200080490123029304F63849B4F9063D019343
:100C300008FB00F0013A08FB1A225B460090484688
:100C40000CF024FB32463346484621460CF063FD47
:100C5000314648460CF054FD4FF47A7148460AF08C
:100C6000ACFFB4F9063DB4F9FE9C03EBD37309EB7A
:100C7000630908F0ABF90368DB689847804608F021
:100C8000A5F96FF07F4B04F6285A0422A9EB58030C
:100C900063490190CDF800B050460AF0A5FAB4F9C6
:100CA0002C1D099108F092F903689B6898478046CB
:100CB00008F016FA03689B689847B4F9023D05935B
:100CC000089008F00DFA0368DB689847079008F071
:100CD00007FADDE90821059BA3F1020C079B04F547
:100CE000566908EB88080A44ACEB03034C49CDE98C
:100CF00000B0424448460AF077FAB4F93C2C079217
:100D000008F01CFA03689B689847B4F9FEBC05908C
:100D100008F014FA0599079A019004F69858FF23F1
:100D20000B200BF1040B00FB1122009340465B46A5
:100D30003B490AF059FA40F2E93150460AF03DFFCA
:100D400040F2EA3148460AF038FF40F2EB314046C3
:100D50000AF033FF31462046FFF7FAFB2046FFF743
:100D600068FE04F5A45804F55D6608F110083046E5
:100D7000002106F5907600F098FC4645F7D108F082
:100D800081F96FF07F43009304F5B0510023019087
:100D90001A46183104F5AF500AF026FA04F1480853
:100DA0000026D4F88C30B3422AD89DF81B100023BB
:100DB000C4F8903079B11C4A1C490223384604F02B
:100DC000DDFC42F21071384604F0D0FDD4F88C10EE
:100DD0000139C4F8901004F1940004F01CF8D4F820
:100DE000903004EB8304E06C0368DB689847D5F827
:100DF000640102F0EBFB4FF000000BB0BDE8F08F98
:100E000058F8040FB4F9FE2C0368283A9B6828218F
:100E100098470136C5E700BF404040008080800011
:100E2000C73C0308F62E0308FA2E0308432F0308D5
:100E300038B50446B8B109B9002038BDD0F8203122
:100E4000426900F1D40501FB0231284600F02DFC77
:100E5000A369002BF0D0D4F82021284653F82210A3
:100E600000F067FCE8E70220E7E7C0E900128360D2
:100E7000704741694B1E10B559420446594100F56F
:100E8000FA700CF03DFC6169A1F10A025142514136
:100E900004F52D700CF034FC6169A1F1640041424D
:100EA000414104F55D70BDE810400CF029BC32B939
:100EB00001207047484301339342FBD170470846F5
:100EC0000123F9E737B504460D467C300AF075FE7C
:100ED000691C04F120000AF070FEA91C04F58E6064
:100EE0000AF06BFEE91C04F5A6600AF066FE04F049
:100EF0008CF8054621F046FB04F2F45301460D4AF6
:100F000000932846234604F038F904F07EF805469D
:100F100021F038FB04F20C6301937F230146009318
:100F20002846054A234604F0FCF84FF0000003B0C1
:100F300030BD00BF310E0008471300082DE9F04F07
:100F40008BB01F460023C84D079204468846836134
:100F50002B68BFF35B8FDB070BD4284623F0E9FB3C
:100F600038B1D4F8F0352846D3F888306B6023F0D8
:100F7000EFFB08F02BF86FF07F4304F19C06009321
:100F800000231A464146019030460AF02DF93046BA
:100F90009DF85C100AF065FAB4F9A8306968C91ABE
:100FA000082200234908304604F1200A0AF058FEBE
:100FB000514630460AF0C4FD012130460AF0FDFDDD
:100FC0006B68B4F9A680A3F1100908F089F80368EA
:100FD000DB689847169B029304F1D40608F10808D1
:100FE0000D2300EB80004246019300904B46082100
:100FF000304600F08CFA4FF47F420421304600F076
:1010000047FB08F06DF802220146304600F082FCF2
:10101000DDE91412304600F087FB3946304600F017
:1010200044FB08F05DF80027034605220799304687
:1010300000F086FC514684F8E47030460AF080FDEA
:10104000012130460AF0B9FD04F58663069304F5E4
:101050008868A346B4F9E0300322083BB3FBF2F3FF
:10106000059302F0BFF8169A06460A212046FFF7BC
:101070001EFF069A009052F8043F06924146102245
:10108000304602F039FB404621F032F8079B774AA0
:10109000C0F11001404425F0E9FC059BB4F9D820CB
:1010A000043307FB0322B4F9DE30099208330893B6
:1010B00008F016F80168C96888470BF5FA79059BAE
:1010C0000093012600EB8000DDE9083241460190E3
:1010D000029648460CF0DAF821F054FA644A2346A6
:1010E000014648460CF017FB002148460CF008FB6F
:1010F000032148460CF097FADBF8F43151469B681F
:1011000048469847DBF8F4313146DB6848463744B7
:101110009847032F08F110080BF1C00B9AD1169ACB
:10112000022A28BF02220A212046FFF7C0FE606182
:10113000C02000FB02400027314600F5FA700CF099
:10114000DFFA02960197B4F9FE31083304F14C0836
:1011500000936B683A463946404609F072FC4046B7
:10116000042109F0C7FC40464FF6FF7109F0F2FC7C
:101170003946404609F005FD514640460AF0E0FC7C
:10118000394640460AF019FDD4F8F025B4F95A3032
:10119000D2F88C200093D21A02EBD2726B683241E3
:1011A000394650460AF025FCD4F8F035D3F88C20A7
:1011B000009239463A4604F17C00D3F8883009F0B1
:1011C000F4FCD4F8F03584F88C60D3F88CA007F0E8
:1011D00087FF0368DB689847D4F8F035D3F8882098
:1011E00002EBD27242FA06F5814607F079FF0368F6
:1011F000DB68984704F58E68043D09EB490900EB6C
:101200004000CDE90050AAEB09033A46194902967D
:1012100040460CF03BF821F0B5F923460146144A4C
:1012200040460CF078FAD4F8F035B4F97C24D3F8C1
:1012300088100296B4F97E34CDE9002304F5A66542
:10124000B4F976348A1A28460B490CF01FF821F0BD
:1012500099F9074A0146234628460CF05CFA3846BD
:101260000BB0BDE8F08F00BF242600204D2F0308EF
:1012700047130008512F0308542F0308F0B585B019
:101280001E460A9F9DF82C30039315460023721EBC
:10129000CDE9003204461A4A02933B46FFF74EFE60
:1012A000C4E9065655F8271004F1D40000F041FABD
:1012B0004FF4FA7540F23446635960191B69C03522
:1012C0009847B542F8D100250123CDE90153B4F97F
:1012D000DE30083304F14C060093B4F958302A4646
:1012E0002946304609F0ADFB3046042109F002FCE6
:1012F00030464FF6FF7109F02DFC284605B0F0BDD1
:10130000C73C030810B5044603F07FFE04F2F45115
:1013100003F048FF03F079FE04F20C6103F019FFBB
:1013200004F120000AF059FC04F17C000AF055FC9D
:1013300004F58E600AF051FC04F5A6600AF04DFC3D
:101340004FF0000010BDF8B5044600284CD000F561
:101350008E658D4203D000F5A6678F4219D16B1AB6
:101360005D425D4125742046FFF7CCFFD4E90005BE
:1013700048B1A268234629460BF047F82046FFF7FC
:1013800078FD0020F8BD002DF8D0A0682146A847C0
:10139000F4E700F5FA73994202D101236361EDE7A6
:1013A00000F52D73994201D10A23F7E700F55D732B
:1013B000994201D16423F1E70B784E7853B9314655
:1013C00028460CF09DF9002ED8D129462046FFF77B
:1013D000BAFFD3E7012BD1D1314638460CF090F952
:1013E000002ECBD13946F1E70220CBE72DE9F341BE
:1013F000089E04461D46B0F90630B0F90400301AC4
:101400000090EB1A04F1500090460F4609F0AAF83C
:10141000B4F90420B4F90630B21A0092EB1A42462D
:10142000394604F1B80009F06CFE94F818317BB12C
:10143000B4F90420B4F90630B61AEB1A424639461C
:1014400004F18000089602B0BDE8F04109F059BEF1
:1014500002B0BDE8F0812DE9F341089E04461D4627
:10146000B0F90430B0F90600301A0090EB1A04F11C
:10147000500090460F4609F0CAF8B4F90620B4F9B6
:101480000430B21A0092EB1A4246394604F1B80011
:1014900009F0D1FD94F818317BB1B4F90620B4F904
:1014A0000430B61AEB1A4246394604F18000089619
:1014B00002B0BDE8F04109F0BEBD02B0BDE8F08168
:1014C00010B50446052919D8DFE801F0030F1818F4
:1014D00003160B4904F1500009F053FB2368204622
:1014E000DB6CBDE8104000211847006A20B1D4E948
:1014F000091223460AF089FF0021EBE710BD00BF67
:101500008080800010B103689B68184770472DE900
:10151000FF470446DDE90C651F464FF0FF30E064ED
:101520003818A18001440E9B2181711EE2800A447B
:101530006281EA1AC4E90E23A781E6810121002015
:101540004FF00A0C83426BDC216404F58470002B9D
:101550006AD0009310211346364A25F087FA0135E8
:1015600004F1F009484620F0C3FDA8420CD004F174
:10157000EF0100239D4294BF00220122013352015A
:10158000182B01F8012FF5D1002501232A46294601
:10159000CDE9015300963B4604F1500009F051FAA1
:1015A00007F09EFD04F1B8086FF07F4749460190AF
:1015B0002B462A464046009709F016FED4E90E3223
:1015C00003EB0209D4F8E800B4F90CA009F1010911
:1015D000AA4218BF09F10109FFF794FFB4F9C63018
:1015E0005FFA89F9F61A00FB19A106EBD6762B46AD
:1015F0007210490840460AF033FB07F071FD2B4694
:10160000CDE900700C4904F180002A4609F0ECFD98
:101610002368DB6C2946204604B0BDE8F047184734
:101620000CFB01F101308DE713461021034A25F030
:101630001DFA95E75B2F0308C73C03086C2F0308CE
:10164000C36F994210B5044609D0503009F052FAE0
:1016500023682046DB6CBDE810400021184710BD10
:1016600010B5036FC0E90C12044690F82C00002856
:1016700018BF114699420AD004F1500009F06AFAE5
:1016800023682046DB6CBDE810400021184710BDE0
:1016900038B515460446FFF7D3FF294620464FF4D8
:1016A0007F42BDE83840FFF7DBBF436C99420A46F2
:1016B000B8BF1A46836C9A42A8BF1A46C36C9342BD
:1016C00073B504462ED0C56BC26400F5847300F177
:1016D000F001B8305DB90092182209F02CFF2368A0
:1016E0002046DB6C00219847012002B070BD266CBB
:1016F00092FBF6F506FB1522002AB8BF5242CDE94F
:101700000052182209F017FFE36C002BE7DA226C75
:1017100093FBF2F3002BE2D1A36B23442D2283F839
:10172000EE20DCE70020E0E7C0E91112C16CFFF712
:10173000BCBF37B5044600F1B80500910D4B00F170
:10174000F0011822284609F0F6FEB4F9C630B4F9C3
:101750000E20B4F90C10D21AB4F9C43002EBD272D4
:10176000C91A521000234908284603B0BDE830408A
:101770000AF076BA4E2F03082DE9F041D0E90E5356
:101780001D44002B18BF013590F81831013B044669
:10179000042B00F2AA80DFE803F03A3303618600ED
:1017A000B0F90C60D0F8E800FFF7ACFEB4F9C63031
:1017B000B4F90E20D21AB4F98C30B11EC91A94F8BB
:1017C000E4306B4300FB131102EBD2720023521082
:1017D000490804F1B8000AF043FAB4F9C050D4F84B
:1017E000B000B4F9C27004F18006023510B103688C
:1017F000DB6898473A1A0023294630460AF030FA47
:1018000023682046DB6CBDE8F04100211847B0F9A1
:10181000C630B0F90E20B0F90C10D21AB0F98E30E3
:10182000D21AB0F98C3002EBD272C91A52100023CE
:10183000490880300AF014FAD4F8E800B4F90C60D2
:10184000FFF760FE94F8E430B4F98A206B4300FBA4
:1018500013610023490804F1B800CFE7B0F90C6028
:10186000D0F8E800FFF74EFEB4F9C630B4F90E2008
:10187000D21A94F8E4306B4300FB136102EBD2728E
:1018800000235210490804F1B8000AF0E9F9B4F94C
:101890008C30B4F90C10B4F9C220C91A49080023DD
:1018A00004F18000AAE7B0F90C60D0F8E800FFF777
:1018B00029FEB4F9C630B4F90E20D21A94F8E430F7
:1018C0006B4300FB136102EBD272002352104908F4
:1018D00004F1B8000AF0C4F9B4F9C000B4F98C10EE
:1018E000B4F9C2200023411ADAE7B0F90C60D0F84D
:1018F000E800FFF707FEB4F9C630B4F90E20D21A9B
:1019000094F8E43002EBD2726B4300FB1361521087
:1019100000239FE770B500F1B8060446154630462F
:1019200009F062FDE9B2304609F09BFD2046FFF761
:1019300023FF23682046DB6CBDE870400021184778
:1019400070B500F1800604460D4680F8182119464E
:10195000304609F049FD29463046002209F0BCFD19
:101960002046FFF709FF23682046DB6CBDE8704086
:101970000021184790F82C308B4210B5044611D046
:10198000D0E90C2380F82C1000290CBF1146194611
:10199000503009F0DFF823682046DB6CBDE81040CA
:1019A0000021184710BDC0E908128362704700BFCC
:1019B00058B190F83430052B01D90020704700EB66
:1019C0008300436819444160F7E7022070472DE91E
:1019D000F041044603F019FB04F5AF51143103F054
:1019E000E1FB04F5805304F13C07D3F8E805FFF769
:1019F00089FC04F5815014300AF0EFF804F58750A3
:101A000014300AF0EAF804F58D5014300AF0E5F8C5
:101A100004F58F500C300AF0E0F804F64C064FF451
:101A2000C67540F64C08635960191B6998473B68B6
:101A300038461B699847336830461B6905F5907531
:101A40009847454507F1380706F1C006EBD140F647
:101A5000C45541F20406635960191B69C0359847A3
:101A6000B542F8D104F6CC400AF0B7F804F68C5031
:101A70000AF0B3F804F5915004300AF0AEF804F51A
:101A8000975004300AF0A9F804F59D5004300AF08C
:101A9000A4F804F5A35008300AF09FF804F5A95003
:101AA00008300AF09AF8FEF72FFDFEF7B2FE4FF06D
:101AB0000000BDE8F0812DE9F34700F580550446AC
:101AC00000F58D59D5F8F00590F8701301F061FC20
:101AD00009F1140901460022484609F0FDFCD5F839
:101AE000F00590F8F11301F05CFC04F58F5808F153
:101AF0000C0801460022404609F0EEFCB5F93C70A6
:101B0000B5F9F860B5F9C011B5F9BA210437043E4A
:101B1000F61B711A01EBD17107EB610100234846F6
:101B20000AF09EF8B5F9F831B5F9F221F61A06EB8C
:101B3000D67607EB6601002340460AF091F804F5DB
:101B4000C6770026D5F8F005D0F81034062B28BF4C
:101B500006239E42C0F0B5802346002753F8046F49
:101B6000002E00F0C880A36B94F8341004EB8708B3
:101B70005E4301F0FEFB774AD8F81C104EF6602356
:101B8000002818BF13460029D8F8042080F2A4804A
:101B9000002A80F2A88003F038FA036FA26B142B9E
:101BA00038BF142353433C2253430A22B3FBF2F3BE
:101BB0004FF00009CDF800903246D5F8F005F9B2A3
:101BC00002F002FBC8F80490C6B2D5F8F03593F8DD
:101BD0000C3404F59158002B08F104080CBF6FF089
:101BE0007F414FF47F4140460BF0A0FC95F86434F0
:101BF00004F59757002B07F1040738460CBF6FF028
:101C00007F41FF210BF092FCD5F8F02592F8E333E9
:101C100092F8522304F59D500430002A70D0002B16
:101C20000CBFFF214FF47F410BF080FCD5F8F0355D
:101C3000494A93F87013494B04F5A350022908BF91
:101C40001A46114608300BF02EFCD5F8F02592F814
:101C5000703304F5A950052B00F1080056D192F815
:101C6000F1133F4B3F4A4F2908BF1A4611460BF06C
:101C70001AFCD5F8F03593F8E33304F6CC4A04F6B1
:101C80004C09002B49D0D5F8F03593F8703303F0A8
:101C9000FD03012B46D150460BF0FAFC04F6CC4470
:101CA000484609F1C0090BF0F3FC4C45F8D1404619
:101CB0000BF0EEFC38460BF0EBFC304602B0BDE812
:101CC000F087F1B201F0ABFB01463846FFF7EDFCBF
:101CD000013607F5907735E705D0002A3FF75BAF6F
:101CE0004FF0FF3204E0002ACCBF01224FF0FF3258
:101CF000C8F81C205CE70137062F7FF42FAF64E79C
:101D0000002B0CBF6FF07F41FF218DE70BB1092B3A
:101D100001D11349ABE71449A9E703F0D5FE836865
:101D2000032BB0D0D5F8E805FFF7ECFA50460BF0DE
:101D3000CAFC04F6CC44484609F1C0090BF0C3FCC8
:101D40004C45F8D140460BF0BEFC38460BF0BBFCCE
:101D5000B3E700BF80F52000792F0308742F030834
:101D60007D2F0308832F03088A2F03082DE9F04FE6
:101D700000F5805A91B0DAF8EC35D3F88820D3F822
:101D80008C500592044607F0ABF90368DB6898476E
:101D900000EB800BCBEBCB032433EB1A03EBD373B9
:101DA0005A100BEB63030A930992059B062293FBDF
:101DB000F2F30B93059B083B9B0093FBF2F30C9310
:101DC0000BF104030E930A9B0C33079304F64C03A8
:101DD0000893002304F13C0625460693DAF8F00543
:101DE000069AD0F81034062B28BF06239A4205F530
:101DF000907706F13808C0F08F8101250295B4F97B
:101E00009A310193B4F99031BA49083B04F6CC46B3
:101E10000093B4F99231042230460BF037FA20F0E7
:101E2000B1FB002301461A4630460BF074FCB4F9AE
:101E30009061B4F9927107F053F9083608376FF0E2
:101E40007F433246AB490190009304F68C503B46E9
:101E500009F0CAF9DAF8F035D3F81034062B28BFA8
:101E600006234FF49072013B534303F5C67023449D
:101E70002044D3F88C319B6B984700F108030793FB
:101E8000059B04F58058A3F1100604F5815903233E
:101E9000B6FBF3F6331D04F6C45708F104080693A5
:101EA00009F108094FF0040A52464146079B009683
:101EB0003846CDE901B50BF0E9F920F063FB0023CA
:101EC0001A46014638460BF026FC384603210BF033
:101ED000AAFB384600210BF013FC38466FF07F4117
:101EE0000BF024FB08F10C08069BC14507F1C00765
:101EF0009A44D9D104F6846001210BF001FCB4F9B5
:101F00009471059B7C49DF1B04F58158A7F10809F2
:101F100008F11408099BCDF8009004224046CDE951
:101F200001B50BF0B3F920F02DFB002301461A4652
:101F300040460BF0F0FB059B7049CDF8009004F58E
:101F4000875808F114081A1FA2EB0902099B4046A2
:101F5000CDE901B50BF09AF920F014FB00230146FE
:101F60001A4640460BF0D7FB07F030F80368DB68F1
:101F70009847804607F02AF8099A0190ABEB0803CE
:101F800004F58D5007F104086FF07F475C49009716
:101F900002EB53031430424609F026F907F016F815
:101FA00003689B689847814607F09AF803689B6826
:101FB0009847069007F094F80368DB6898478246D4
:101FC00007F08EF80A9B069A4A49CDE90070424410
:101FD00009EB890904F58F50023BA3EB0A034A443D
:101FE0000C3009F001F9B4F9CE7D4649009604F5AC
:101FF0009158043708F104083B4604224046CDE9D5
:1020000001B50BF043F920F0BDFA0023014640462C
:1020100004F597581A4608F104080BF07CFB3B4680
:1020200006F10802384900964046CDE901B50BF0AB
:102030002DF920F0A7FA002301461A46404604F580
:102040009D580BF068FB08F10408B21D3B462F4970
:10205000009652004046CDE901B50BF017F920F08B
:1020600091FA002301461A4640460BF054FB059BAB
:102070002749A3F10C065F4404F5A35806EBD67676
:10208000761008F1080804373B4604224046CDE9A3
:1020900001B500960BF0FAF806F098FF01464046AD
:1020A0000BF057FA20F06EFA04F5A9540023083417
:1020B00001461A4640460BF02EFB3B4606F108024D
:1020C000144900962046CDE901B50BF0DFF806F083
:1020D0007DFF014620460BF03CFA20F053FA002326
:1020E00001461A4620460BF016FB4FF0000011B0D7
:1020F000BDE8F08FC73C0308932F0308912F030816
:10210000952F03089B2F03089F2F0308F62E030823
:10211000792F03088A2F03089DF81890494620F06C
:10212000C9FF05F5C6750823CDE900B3079A0C9BD6
:102130000B9902902846FFF7EAF9FF22042128466E
:10214000FFF7A6FA06F0CCFF022201462846FFF769
:10215000E1FB00212846FFF7A8FA4946DAF8F00526
:1021600020F0B6FF0D9006F0BBFF0D990346032249
:102170002846FFF7E5FB20F005FA00231A46014642
:102180002846FFF710FCFB6E28469B6C0121984700
:102190004946DAF8F00501F0E2F8814606F016FF4C
:1021A0006FF07F43009300231A4649460190304662
:1021B00009F01AF80221304609F053F958F8383C72
:1021C000DB690D93FB6E2846DB6A984758F8382C7C
:1021D0008146D26B3046904700EBD07009EBD97343
:1021E0004110C1EB6301FB6E0F911B6B28469847B2
:1021F000FA6E8146126C2846904758F8383C00EB3E
:10220000D0701B6C09EB60093046984700EBD0702A
:10221000A9EB60020F99002330460D9EB047FB6E7C
:1022200028465B6B9847FB6E06465B6B28469847D3
:102230000123CDE901B3059B0E491B1A083B321D52
:1022400008980093079B0BF021F820F09BF90023DE
:102250001A46014608980BF05EFA069B0E9A013367
:102260000693079B13440793089BC0330893464685
:102270003D46B3E58F2F030838B500F5805400F6CE
:10228000C4550434284600210BF03AFA28466FF072
:102290007F41C0350BF04AF9A542F3D138BD2DE995
:1022A000F04F89B0334B069300F5805400F5815808
:1022B00000270546043408F1040800F6C456B94660
:1022C00000F5805B069BC4F80090C4F80490C4F845
:1022D0000890DBF8F0A553F8042B48F8042F0021F0
:1022E0005046CDE9052301F044F8234B002838D0AF
:1022F0009B68DBF8F0050793002120F0E9FE079BBF
:102300000093CDE90109059B0C222146504601F0BE
:1023100063FA631E002213F8011F202926D10C2323
:1023200003FB0753134441F204020A219954336812
:102330006421DB683046984796F834303BB14FF45F
:102340007F4130460BF0F2F8D8F80030AB6301372C
:10235000032F04F10C0406F1C006B3D109B0BDE8A7
:10236000F08F9AF81C2453F82230C2E701320C2A6D
:10237000D1D1DCE748900208749902082DE9F74FA3
:102380000446FEF7C1F8FEF71FFA04F581506421F8
:10239000143009F012FC04F587506421143009F060
:1023A0000CFC04F58D506521143009F006FC04F591
:1023B0008F5065210C3009F000FC2046FFF76FFFBD
:1023C00004F5C67504F64C0604F13C082F464FF0A0
:1023D000000BB24604F58059D9F8F035D3F8103423
:1023E000062B28BF06239B4548D3062384F83430A8
:1023F0002846002105F59075FFF7BCFA5545F7D141
:1024000004F5915004F5975504356421043009F022
:10241000D4FB284625490BF046F8002628466FF0E5
:102420007F410BF083F889F864646421284609F041
:10243000C4FB04F59D506421043009F0BEFB04F593
:10244000A3506421083009F0B8FB04F5A9506421B9
:10245000083009F0B2FB02F0D8FD054620F092F8F2
:1024600004F5AF531433014600932846104A23461F
:1024700002F083FE304603B0BDE8F08F3B68642174
:10248000DB6838469847D8F800306421DB6840465E
:10249000984733683046DB68642198470BF1010B9D
:1024A00007F5907708F13808C03695E79F2F0308A5
:1024B000B11900082DE9F04F00F58153143399420A
:1024C0008BB004460E4608D1FEF71EF8FEF7A6FABA
:1024D0004FF000000BB0BDE8F08F00F587531433C8
:1024E000994204D1FEF710F8FEF78CFAF0E700F5F8
:1024F0009D530433994200F580550AD1D5F8F00573
:1025000090F8523313B101F099F8E1E701F05EF869
:10251000DEE700F5A353083399420AD1D5F8F00558
:1025200090F87033022B14BF8121822101F03FF813
:10253000CEE700F5A953083399422CD1D5F8F00520
:1025400090F87013D0F86823052913D190F8F1336F
:10255000C0F86C234F2B4FF0000380F8F13380F864
:10256000553301D11821E1E76F49099309AA01F018
:102570005BFDADE7002309B1092906D180F8F133ED
:1025800080F85533C0F86C23ECE780F85533C0F879
:102590006C231921CAE700F59753043399421FD1E0
:1025A000D5F8F00590F8526396B195F86434D5F8F3
:1025B000F0050024099473B95C4909AA01F034FDBF
:1025C000012485F86444002E82D1D5F8F0059AE7FD
:1025D00000F0FCFFE9E7564909AA01F025FDF0E704
:1025E000D5F8E8358B420BD11A7C002A3FF470AF46
:1025F000D3F82021197BD5F8F00501F0DBFF67E760
:1026000000F59153043399420DD000F6C457B942F6
:102610000DD000F68467B9421CD000F64477B94269
:102620001AD1022504E0D5F8F005A0217EE70025A7
:102630002046FFF721FE05F20A45012138460BF03E
:102640005FF84FF47F4138460AF070FF54F82530A8
:10265000A3633DE70125EBE700F5C67900F64C0AD8
:10266000C8460027B04556D198F82C305FFA87FB52
:10267000002B3CD0D5F8E835D5F8F0050493594641
:1026800000F06DFE0590D5F8F0052A4B90F81C245B
:10269000594653F82220D8F84C300792069320F080
:1026A00009FD0221CDE90201234B2449CDE90013A4
:1026B000DDE90632DDE90401FEF740FCD5F8E8B5B6
:1026C0001FF060FF002301461A465846FEF7CDFB77
:1026D000D5F8E80542F21071C760FEF7F3FB013749
:1026E000062F08F590780AF1C00ABBD1F0E604F68F
:1026F0004C054846002109F59079FFF73BF9A945BB
:10270000F7D140460121FFF735F984F834B020466F
:10271000FFF7C5FDDCE65645E1D1D5F8F005F9B285
:1027200001F01AFFDBE700BFD62E03085490020821
:102730005F900208A899020880969800806967FF58
:102740002DE9F04FCC4B05468DB0182240F8043BE4
:10275000002124F05AFA1822002105F11C0024F06F
:1027600054FA062385F834300123AB6305F13C03AA
:1027700001931E46052430461FF01CFF013C06F164
:102780003806F8D205F5C67BDFF8F4825C460526EC
:10279000204609F02EFAB94B23604FF000090123BF
:1027A0004FF47F42C4E90D23C4E90F934FF0004179
:1027B0006FF00043C4E9111304F150074FF0FF33E9
:1027C000C4E90899C4F8289084F82C90C4F8309093
:1027D000E364384609F00DFAC4E91C9984F878904E
:1027E000C4F87C9004F18009C4F8508048461FF07A
:1027F000E1FE04F1B80A50461FF0DCFE1822002169
:1028000004F1F00024F001FA1022002104F5847094
:1028100024F0FBF9002384F8183105F037FE013E5F
:10282000C4F81C0104F59074B2D205F64C04274696
:10283000052638461FF000FF1FE050461FF036FF08
:1028400048461FF033FFC4F85080384609F0E4F9D9
:10285000204609F0E1F9C6F105064FF4907303FB39
:1028600006B65E4500F0FC80A6F59076304620F076
:102870008FF8F6E7E4E7E6E7EAE7013E07F1C0078D
:10288000D7D205F6CC4630461FF0D6FE05F68C535F
:10289000184608931FF08EFE05F6C453184602939F
:1028A0001FF0CAFE0FE00225029AC5F10205C023FF
:1028B00003FB0525029B9D4200F0B580C03D2846E4
:1028C0001FF05EFFF6E705F68463184609931FF0D4
:1028D000B3FE01E00125E7E705F6447318460A93C5
:1028E0001FF0AAFE05F5805724220021381D24F090
:1028F0008CF90023C7E90A333B6305F58153143390
:10290000184603931FF098FE05F5875314331846B5
:1029100004931FF091FE05F58D531433184605936B
:102920001FF048FE05F58F530C33184606931FF031
:1029300041FE05F591530433184607931FF07CFEC2
:1029400005F59757043738461FF076FE05F59D5874
:1029500008F1040840461FF06FFE05F5805305F5A9
:10296000A359002209F1080983F8642448461FF09E
:1029700063FE05F5A95A0AF1080A50461FF05CFEED
:10298000FDF7C2FD05F5805300F5D9501430C3F8AA
:10299000E8050B9305F07AFD0B9BC3F8EC0500F0FE
:1029A00021FC6FE0019AC4F10504382303FB0424E1
:1029B000019B9C425DD0383C20461FF077FEF7E734
:1029C00049E7C6F10506C02303FB0646A6423FD0F1
:1029D000C03E30461FF0D4FEF8E7002564E75046BD
:1029E0001FF0CEFE48461FF0CBFE40461FF0C8FE4B
:1029F00038461FF0C5FE07981FF0C2FE06981FF06C
:102A000055FE05981FF052FE04981FF0B9FE03987A
:102A10001FF0B6FE0A981FF0B3FE09981FF0B0FE33
:102A200002981FF0ADFE08981FF040FE30461FF0E0
:102A3000A7FE09E0D6E7D8E7DAE7DCE7DEE7E0E77C
:102A4000E2E7E4E7E6E7F1E7A64201D0C03EEDE7C2
:102A50005C4505D0A4F5907420461FF099FFF7E778
:102A6000019B9B4505D0ABF1380B58461FF01EFE6D
:102A7000F6E721F00BFB00BF2C900208B88F02088C
:102A8000302A03080B9B0022C3F8F0052846C3F840
:102A9000F425C3F8F825C3F8FC2583F80026C3F80D
:102AA0000426C3F808260DB0BDE8F08F08B50D4820
:102AB0000368BFF35B8FDB070DD421F03AFE50B102
:102AC0000948FFF73DFE094A0949074821F063FA22
:102AD000044821F03DFE044808BD024821F035FEBF
:102AE00021F0D4FA2C2600203026002044010020BA
:102AF000F130020808B5C06C032106F0B7F84FF0BA
:102B0000000008BD59B990F8313083F0010380F816
:102B1000313013B1024906F083BF0249FBE7704729
:102B20003C3C0020503C002070B5284CA36ABFF309
:102B30005B8F13F0010504F12C0637D104F1280056
:102B400021F0F7FD90B3224BE36210222B460221C5
:102B500004F1300009F09AFD00231A46194604F1E9
:102B6000400009F093FD0023C4E91433A36584F801
:102B70005C3084F86830E3664FF4C063A4F87030CA
:102B80000223144A84F87230134B6367134BE362D9
:102B9000C4E9182605F07AFCA067114A11493046AD
:102BA00021F0F9F904F1280021F0D2FD0E4870BDA2
:102BB0000E4809F073FD0E4821F0C7FD21F066FABA
:102BC00009481FF0C1FCF6E7F5E700BF3C3C0020D8
:102BD000E03D0308AFC40008A72F03088C9002084B
:102BE0004401002095340208683C00206C3C002021
:102BF000643C002038B50023016083808371044663
:102C000005F044FCA06022F095FF062590FBF5F34B
:102C100003FB15000130207122F08CFF90FBF5F3CF
:102C200003FB1500013001236071A371204638BDFC
:102C30002DE9F0410446006803685B6B984706463F
:102C400020680368DB6A98470746206803689B6B27
:102C500098470546206803681B6B984794F9042041
:102C60002B18F01900EBD07003EBD37312EB60005C
:102C70004FEA6303114604D4A568D5F88850A842EA
:102C800002DB52422271002194F90500C31802466A
:102C900004D4A568D5F88C50AB4202DB4042607189
:102CA000002220680368DC690123A446BDE8F041E6
:102CB00060472DE9F043ADF5177D43AC0022114686
:102CC000AD4B0646204606F085FEAC4B2360012343
:102CD00084F831302374F36CB4F90E10D3F88C20DF
:102CE000B4F90C00521AD3F88810091A02EBD27208
:102CF00001EBD171002352104910204608F0B0FFBB
:102D00004FF40041204608F058FF01234FF0000C1B
:102D1000CDE9013C4FF0FF13009396221E2378214A
:102D200017A808F011F8282117A808F046FF00237B
:102D3000CDE901334FF47F03009378221E239621BF
:102D400021A808F001F8322121A808F036FF7823E5
:102D50004FF47F47CDE90037222260232E2105A8BA
:102D600007F09EFF1E2105A808F027FF844D4C2385
:102D7000CDE9003522226E232E210EA807F090FF08
:102D80001E210EA808F019FF06F04EF94FF0FF13B0
:102D9000019000937B490A23002250A808F06EFAA4
:102DA000462150A808F009FF06F06CF9744B019019
:102DB00000937449142300225EA808F05FFA5021A2
:102DC0005EA808F0FAFE06F0B9F94FF6FF7301901D
:102DD00000936C491E2300226CA808F04FFA5A2178
:102DE0006CA808F0EAFE06F04DF94FF47F4302901C
:102DF0004FF0FF10CDE900306249322300227AA85B
:102E000008F0AEFA64217AA808F0D7FE06F0B0F810
:102E1000FF23019000935B494623002288A808F015
:102E20002DFA6E2188A808F0C8FEFF230121CDE904
:102E3000013100220A230093114664232BA807F0D6
:102E400030FE0A212BA808F0B8FE4FF6FF730122CE
:102E5000CDE901320A23009346221423642137A8C6
:102E600007F01FFE142137A808F0A7FE0C2005F07C
:102E7000FFFA17A90546FFF7BDFE3F4F0C20FD677F
:102E800005F0F6FA21A90546FFF7B4FE0C20C7F8B5
:102E9000805005F0EDFA05A90546FFF7ABFE0C20C2
:102EA000C7F8845005F0E4FA0EA90546FFF7A2FE24
:102EB0000C20C7F8885005F0DBFA50A90546FFF74B
:102EC00099FE0C20C7F88C5005F0D2FA5EA9054691
:102ED000FFF790FE0C20C7F8905005F0C9FA6CA9D6
:102EE0000546FFF787FE0C20C7F8945005F0C0FA9E
:102EF0007AA90546FFF77EFE0C20C7F8985005F02A
:102F0000B7FA88A90546FFF775FE0C20C7F89C5054
:102F100005F0AEFA2BA90546FFF76CFE0C20C7F8AA
:102F2000A05005F0A5FA37A90546FFF763FEC7F8DC
:102F3000A45041F6240941F67407F06C4FF0FF31BC
:102F4000384409F0DFFCC5B2002DF6D1DFF8388037
:102F500058F8040BFFF76CFE01350B2DF8D1F06C1F
:102F6000384409F0E0FCF06C484409F024FD0120ED
:102F700009F06FFDE1E700BF3C3C0020B49002087F
:102F800000FFFF00B12F0308B83C00200C212846A9
:102F900021F07AF8294B379337A808F03DFE274BEC
:102FA0002B932BA808F038FE254B889388A808F0AF
:102FB00033FE234B7A937AA808F02EFE204B6C93B5
:102FC0006CA808F029FE1E4B5E935EA808F024FE54
:102FD0001B4B509350A808F01FFE1A4B0E930EA8DF
:102FE00008F01AFE174B059305A808F015FE164BBE
:102FF000219321A808F010FE134B179317A808F08F
:103000000BFE124B2360204608F006FE21F03EF82E
:10301000BCE7BBE7BAE7B9E7B8E7B7E7B6E7B5E7B4
:10302000B4E7B3E7B6E7BAE7BEE7C2E7C6E7CAE781
:10303000CEE7D2E7D6E7DAE7DEE7E2E7302A0308B1
:10304000F42A03088029030828290308981B030889
:1030500038B504461D460C4B06F0BCFC0B4B2360F8
:1030600084F831505DB90849204606F0D9FC06E0E5
:10307000074B2360204608F0CFFD21F007F801231D
:103080002374204638BD00BF3C3C0020B4900208A9
:10309000981B030813B5044641F288301BF04CFF1F
:1030A000E06C03689B68984700238DF80730E06C5C
:1030B00003680DF107011B699847C0B20028F6D0DC
:1030C0004FF0000002B010BD08B528B902F0FCFCBA
:1030D0008068C31E5842584108BDF8B50446C06C0C
:1030E00003681B6A984770B9D4F82434002B6BD05E
:1030F00094F8E303FFF7E8FF002865D1D4F82434FF
:10310000C4F86C3327E0D4F824743FBB264616F885
:10311000503F3F2B47D194F8545365B109F095FCCB
:10312000C4F85803E06C84F854730368DB69012227
:1031300031469847C5B230461EF0DAFF31460246A6
:10314000274818F032FF10B9254818F048FF072D1E
:10315000CAD0242DC8D000242046F8BD94F8E3033B
:10316000FFF7B2FF0028BFD094F85533002BBBD136
:1031700094F8F133002BC1D104F595654FF0FF3180
:10318000284609F02FFA09F060FC012384F8553332
:10319000D4F82434C4F86003C4F86C33284609F02A
:1031A00046FA04F150064FF4807204F5856130460A
:1031B00023F052FDE56C30461EF09AFF2B68024664
:1031C000DB6931462846B4E704F22441002301229A
:1031D000204609F047F9C4B2012009F03CFCBBE7E6
:1031E0004C71012070B54F4C254655F8043BBFF398
:1031F0005B8F13F0010640F08D80204621F099FA94
:10320000002800F08780484B63601022334622215B
:10321000281D09F03BFA00238422202104F1180024
:1032200009F034FA4149C4E90E154FF4C061A4F81D
:103230004810022184F84A103D49E164002301222C
:103240003C4984F8402004F58560C4E90B32C4E9A8
:10325000DB23A0626160A4F858234FF07C51A4F8EE
:10326000122404F2AC400322C4E9D733C4E9D933B1
:1032700084F8343063642365C4F8541384F8E73366
:1032800084F8E933C4F8142484F81834C4F81C34DE
:10329000C4F82034C4F8243409F092F907E0264831
:1032A00009F0FCF91F4821F050FA20F0EFFE234B03
:1032B000234A03F1080518685968144603C4083303
:1032C000AB422246F7D11F4D18689B882060A3802F
:1032D0000FCD1D4C0FC40FCD0FC495E8070084E837
:1032E0000700502205F10C0104F10C0023F041FE0F
:1032F0004FF4B27205F15C0104F15C0023F039FE79
:10330000124A1349A4F2DC4020F045FEA4F59C606B
:1033100021F01EFA0F4870BD0E481FF015F9C1E7E5
:10332000C0E700BFA83D0020E03D0308AFC400088F
:10333000BE2F030864970208B03D0020849702085E
:10334000584200209497020868420020440100205F
:1033500021350208AC3D0020C16408F0D7BFD0F889
:1033600010349942A8BF062101F2562100EB41001A
:10337000704702290BD9D0F81034994207DA90F837
:1033800014040339C9B2C84000F00100704700209E
:1033900070470B2928BF002100EB8100D0F8BC0446
:1033A0007047582928BF582101F5A77150F821000E
:1033B00070472DE9F041D0F8103499422DED028B81
:1033C00004460D4629DA00F595664FF0FF31304688
:1033D00009F008F92946204620F0BEF894F8E08369
:1033E00007EE900A04EB850797EDDD8AF8EEE77AA1
:1033F000B8F1000F03D097EDE37A38EE078A68EE54
:10340000277A3046FDEEE77A17EE904A09F00FF979
:10341000BDEC028B2046BDE8F0810024F8E72DE9E1
:10342000F041D0F8103499422DED028B04460D4640
:103430002ADA00F595664FF0FF31304609F0D2F8F0
:103440002946204620F088F894F8E08307EE900A99
:1034500004EB850797EDDD8AF8EEE77AB8F1000F07
:103460000DD068EE277A3046FDEEE77A17EE904AE7
:1034700009F0DDF8BDEC028B2046BDE8F08197ED48
:10348000E37A38EE478AECE70024F3E72DE9F041D0
:10349000D0F8103499422DED028B04460D4629DAFE
:1034A00000F595664FF0FF31304609F09BF829464C
:1034B000204620F051F894F8E08307EE900A04EBE0
:1034C000850797EDE98AF8EEE77AB8F1000F03D0A7
:1034D00097EDE37A38EE078A68EE277A3046FDEEFC
:1034E000E77A17EE904A09F0A2F8BDEC028B20466D
:1034F000BDE8F0810024F8E72DE9F041D0F8103460
:1035000099422DED028B04460D462ADA00F59566A8
:103510004FF0FF31304609F065F82946204620F08B
:103520001BF894F8E08307EE900A04EB850797ED0B
:10353000E98AF8EEE77AB8F1000F0DD068EE277A45
:103540003046FDEEE77A17EE904A09F070F8BDECD0
:10355000028B2046BDE8F08197EDE37A38EE478A8A
:10356000ECE70024F3E790F85523D0F86C3322B948
:10357000994202D190F8F1037047994234BF542028
:103580005520704710B50446FFF7EDFF40B9D4F859
:103590006403D4F85C3398422CBF0020012010BD96
:1035A000542802D1D4F86003F3E70020F7E700B510
:1035B000A3B000238DF80810012201A901938DF812
:1035C000093008F04FFF23B05DF804FB38B504461E
:1035D00002F07AFA027A7AB917484FF400510AF0E9
:1035E000B7FF94F8EC3323F0010384F8EC3348F28E
:1035F0000173A4F8523338BD02F066FA037A012B46
:103600000ED194F85253002DEBD18B212046FFF7B9
:10361000CEFF09F01AFA84F85453C4F85803E0E7CF
:1036200002F052FA037A022BDBD1034800224FF456
:1036300000510AF08DFFE4E70008024038B5044667
:1036400002F042FA057ABDB91E4801224FF400513A
:103650000AF07EFF84F85253D4F86823C4F86C2330
:1036600094F8EC23002363F3000284F8553384F8C4
:10367000F13384F8EC2324E002F026FA037A012BDC
:103680000DD194F8523333B194F8E3331BB18B214D
:103690002046FFF78CFF002384F85233DCE702F06A
:1036A00013FA037A022B06D1064801224FF4005187
:1036B0000AF04EFFE5E702F007FA94F85233002BC8
:1036C000CAD038BD0008024038B5044694F85433D7
:1036D00053B13F212046D4F85C53FFF768FFD4F87C
:1036E0005C33AB4204D038BD012009F0B4F9EDE7FA
:1036F000012009F0B0F9F2E773B5069D0E461146B8
:1037000042F2107283EAE3749542A4EBE37413D19E
:10371000B4FBF5F205FB1244CDE900242748284A02
:1037200030EA230028BF1046264A0346304623F0DD
:103730009DF9304602B070BDB5F57A7F0ED1B4FB6D
:10374000F5F205FB1244CDE900241C481C4A30EA7E
:10375000230028BF104603461B4AE7E7642D0ED11D
:10376000B4FBF5F205FB1244CDE900241348144ADA
:1037700030EA230028BF10460346144AD6E70A2D34
:103780000ED1B4FBF5F205FB1244CDE900240B4841
:103790000B4A30EA230028BF104603460C4AC5E70F
:1037A000074A0648009430EA230028BF1046034623
:1037B000084A304623F05AF9BBE700BFC73C03086C
:1037C000992F0308C72F0308D32F0308DF2F0308FF
:1037D000EB2F0308F72F03082DE9F341DDE9087605
:1037E0009DF8288000970C461546FFF785FFB8F135
:1037F000000F04D1B6B9204602B0BDE8F081012F18
:10380000F8DD20461EF074FC621C2044002190422A
:10381000F0D010F8013C302B01D02E2BEAD100F86B
:10382000011DF4E720461EF063FC044B044A009699
:10383000291A204423F01AF9DDE700BF983D030858
:10384000FD2F03082DE9F0410F4605463A21384681
:1038500023F0E3F938B3002300F8013B22F034F9F8
:10386000C4B205F59768002658F8041F38461EF0C4
:1038700035FC08B9F6B203E001360B2EF4D1002670
:1038800095F87033B34203D195F87123A2420CD05E
:1038900013B9012385F80E3485F8706385F87143F8
:1038A0000120BDE8F0810446DBE70020F9E710B510
:1038B00010460C4622F005F951EC100B1EF0CEFA22
:1038C00094ED007A07EE900AB4EE677AF1EE10FA02
:1038D00016BF01200020C4ED007A10BD10B51046BF
:1038E0000C4622F0F1F822680346824216BF0120FE
:1038F0000020236010BD70B50E4604463D213046C1
:1039000023F08BF9054668B1002305F8013B701CD4
:1039100022F0DAF8202823DC152804DC0A282FD02E
:103920000D283DD070BD16380A28FBD801A353F8E6
:1039300020F000BFBB3900082539000825390008F0
:1039400025390008253900082539000825390008DF
:1039500025390008D5390008EF390008093A000870
:10396000B0F5BC7FDED1284694F8146422F0ACF8A0
:103970008642D7D0284622F0A7F884F814040BE03A
:103980002846D4F8186422F0A3F88642CAD0284604
:1039900022F09EF8C4F81804012384F80F34C1E71C
:1039A000284694F81C6422F08FF88642BAD0284644
:1039B00022F08AF884F81C04EEE72846B4F81E6466
:1039C00022F082F88642ADD0284622F07DF8A4F895
:1039D0001E04E1E72846B4F8206422F079F8864214
:1039E000A0D0284622F074F8A4F82004D4E7284692
:1039F000B4F8226422F06CF8864293D0284622F074
:103A000067F8A4F82204C7E7284694F81D6422F05A
:103A10005BF8864286D0284622F056F884F81D04CA
:103A2000BAE72DE9F041002506460C4690462F46A0
:103A3000D6F81034AB4202DC3846BDE8F08108EB22
:103A4000850122463046FFF732FF3843C7B22C21AA
:103A5000204623F0E2F80028EED0441C0135E7E7C9
:103A600010B500F563720446FFF7DBFF94F8E1231D
:103A7000C30043EA421394F8E82303F0280322F03A
:103A80002802134384F8E83310BD70B50E4604468F
:103A90002C21304623F0C1F80546002305F8013BF0
:103AA000324604F575712046FFF718FF28B194F8E7
:103AB000EA3343F0010384F8EA332C21284623F04B
:103AC000ACF80646002306F8013B2A4604F5767159
:103AD0002046FFF703FF28B194F8EA3343F00203CE
:103AE00084F8EA33324604F581612046FFF7F6FE9A
:103AF00028B194F8EA3343F0040384F8EA3370BD44
:103B000070B50D4604462C21284623F086F806465B
:103B1000002306F8013B2A4604F577712046FFF79B
:103B2000C6FE28B194F8E93343F0020384F8E93380
:103B30002C21304623F071F80546F0B1002305F83A
:103B4000013B324604F57F712046FFF7B0FE28B1F5
:103B500094F8E93343F0040384F8E93365B12A4665
:103B600004F580612046FFF7A2FE28B194F8E933FE
:103B700043F0040384F8E93370BD04F58063002248
:103B80001A60DEE7F8B500F5A876BF49044630466E
:103B90001EF0A4FA054640B908F057FF84F85553C3
:103BA000C4F8640384F8F153F8BD94F850313C2B09
:103BB00040F02A81012384F8543308F046FFB349CA
:103BC000C4F85C0304F2511023F05AF80546F8B12A
:103BD00001462046FFF736FE28B194F8E83343F05B
:103BE000020384F8E83394F8F03363B194F8703347
:103BF000052B08D094F8E933002262F3C30384F85C
:103C0000F02384F8E933A149002023F039F8054670
:103C1000002622E09E490522284623F00BF890BB9F
:103C200094F8E03343B9012384F8E03394F8E8339F
:103C300043F0080384F8E83304F55D72691D2046FB
:103C4000FFF7EFFE94F8E83360F3820384F8E8337B
:103C50008E49002023F014F80546002DDAD1002EFD
:103C6000A2D194F8F233002B94F8E9331ABF84F808
:103C7000F2630122002262F3861384F8E933002301
:103C800084F8E53390E783490522284622F0D2FFE5
:103C900030B994F8E033002BCED084F8E003C5E7C8
:103CA0007D490322284622F0C5FF20B9E91C2046A1
:103CB000FFF726FFCCE779490422284622F0BAFF15
:103CC00020B9291D2046FFF7CBFEC1E77449032226
:103CD000284622F0AFFF40BB04F2F133023504F274
:103CE000FB31064615F8012F13F8017F97421EBFDE
:103CF00094F8E92342F0400284F8E9231E702A7800
:103D000052B13E2A08D0502A1A700CD0702A08BF2F
:103D100040F001008B42E5D1002384F8FB3384F8A6
:103D2000E503012694E70120F4E75E4902222846D4
:103D300022F080FF68B9AB78A3F1310043424341E0
:103D400084F8E43394F8E93343F0200384F8E9334A
:103D50007EE755490222284622F06CFF38BB94F8D2
:103D6000E833A4F80C0443F04003023584F804045B
:103D700084F8E833012240F2011115F8013B002BD1
:103D80003FF466AF4D2B0CD006D8432B0CD0462BFE
:103D9000F3D184F80C24F0E7532BEED1A4F80424DB
:103DA000EBE784F80D24E8E7A4F80414E5E73F49BD
:103DB0000322284622F03EFF20B9E91C2046FFF7E7
:103DC00064FE45E73A490422284622F033FF0028E2
:103DD0007FF43EAF2A7994F8E333A2F131014A42ED
:103DE0004A419A4209D083F0010384F8E33394F8FE
:103DF000E83343F0010384F8E83394F8EC3343F0FC
:103E0000010384F8EC3323E75B2B6AD104F25115EC
:103E100028490422284622F00DFF00284ED104F53F
:103E2000697204F255112046FFF7FBFD94F8EA335E
:103E300060F3C30384F8EA3328461F49042222F0C2
:103E4000F9FE054600287FF4AFAE04F2551704F5DD
:103E500082613A462046FFF741FDD4F81064052EF2
:103E6000C4BF0526C4F810643A21384622F0D5FEB6
:103E700004F2AC44B542BFF697AE10F8013F04F827
:103E800015300135F6E700BF02300308053003089E
:103E9000073003080D3003081330030817300308F8
:103EA0001C3003086039030820300308233003085E
:103EB000273003082C300308363003082249042237
:103EC000284622F0B7FE0028B6D104F56F7204F23E
:103ED00055112046FFF7A5FD94F8EA3360F304136B
:103EE000A8E7242B05D131462046BDE8F840FFF76E
:103EF00002BD16490622304622F09CFE054670B9E6
:103F000004F5AB7021F0E0FD94F8E93384F8F10397
:103F100043F0100384F8E93384F8555344E60C4920
:103F20000622304622F086FE00287FF43DAE04F5DE
:103F3000AB7021F0C9FD94F8E93384F8F00343F045
:103F4000080384F8E9332FE6313003083B300308D7
:103F500042300308F7B5002405468DF80740274690
:103F6000E86C03680DF107011B699847C0B258B1AE
:103F700044B11F491F48224618F017F810B91D48D0
:103F800018F02DF803B0F0BD9DF80720182A04D0D2
:103F9000B5F85033B3F5FE7F0CD9A5F85073202C3B
:103FA000DED0154B9DF807102344621C83F8A01641
:103FB00094B2D5E70A2A01D00D2A12D1002BECD0F9
:103FC0002B4405F5956683F850714FF0FF3130466C
:103FD00008F008FB2846FFF7D5FD304608F027FB20
:103FE000DBE7591C2B44A5F8501383F85021D6E782
:103FF000484400204C710120A83D002070B50446C3
:1040000000F595664FF0FF31304608F0EBFAD4F832
:1040100068536B1C012B38BF0123C4F8683330464A
:1040200008F005FB284670BD70B50446A2B090F8B4
:10403000E3030D461646FFF747F888B194F870334E
:1040400073B12046FFF7DAFF6A1E01900DF10701F8
:104050007F3512F8013F01F8013F23B1AA42F8D1A0
:104060000D2022B070BD1A4601A9204608F0FAF9C9
:10407000019B3360C0B2F4E713B50446FFF76AFF53
:1040800008F0E3FCD4F85C33C01AB0F5967F81BF2A
:10409000002384F87033012384F8543394F8E30345
:1040A000FFF712F810B194F8703363B994F85533F0
:1040B0004BB1002384F85533D4F86833C4F86C331B
:1040C000562384F8F13301F0FFFC037A012B1DD154
:1040D00094F85233FBB194F8E303FEF7F5FFD0B93F
:1040E00094F8EC33DB075DD58B212046FFF75FFAB0
:1040F00008F0ABFC94F8EC33C4F85803002262F3E8
:10410000000384F8542384F8EC3304E001F0DCFC71
:10411000037A022BDCD094F8E303FEF7D5FF78B1E5
:1041200094F80E3463B1244901AA2046FFF77CFFBE
:10413000224901AA2046FFF777FF002384F80E34B6
:1041400094F8E303FEF7C0FF40B394F854332BB365
:1041500008F07BFCD4F85833C01A64281ED9E06CF0
:1041600003681B6A9847C8B108F06FFCC4F858038D
:10417000E06C002384F8543303680122DB6904F205
:10418000533198473F230E490E4884F85333012298
:1041900017F00BFF10B90B4817F021FF4FF000008C
:1041A00002B010BD08F051FCD4F85833C01AB0F575
:1041B000967F99D8AFE700BF493003084D30030818
:1041C000513003084C7101202DE9F0411E46D0F812
:1041D00010349942AEB004460D4617464ADA90F8BC
:1041E000E303FEF771FF002846D094F8703303F024
:1041F000FD03012B40D12046FFF700FF29460D901B
:1042000020461FF0A9F90DF114083B46009010223A
:1042100041462046FFF770FA09AF6423009310224D
:10422000334639462046FFF767FA9DF8D000134B16
:10423000134A94F81C1405F25625002818BF1A4694
:1042400004EB4505CDE900250E4B0F4ACDE9028769
:10425000002918BF13460EA80C4A802122F006FC44
:1042600000231A460DA9204608F0FCF8C0B22EB073
:10427000BDE8F0810320FAE70D20F8E75B30030882
:104280005F300308533003085730030863300308D6
:104290002DE9F0411E46D0F810349942AAB00446E8
:1042A0000D46174639DA90F8E303FEF70DFF0028B4
:1042B00035D094F8703303F0FD03012B2FD1204645
:1042C000FFF79CFE2946099020461FF045F90DF1A5
:1042D000140800903B46102241462046FFF70CFA96
:1042E00005F2562594F81C240E490F4B04EB4505A6
:1042F000002A18BF0B46CDE901860C4A00958021A3
:104300000AA822F0B3FB00231A4609A9204608F0A8
:10431000A9F8C0B22AB0BDE8F0810320FAE70D2069
:10432000F8E700BF57300308533003087330030821
:104330002DE9F0430446BBB090F8E3030F469046E6
:104340009946FEF7C1FE002869D094F8703303F057
:10435000FD03012B63D12046FFF750FE314D94F849
:104360001C34199005EB830309AED3F8183200937F
:1043700010223B4631462046FFF7BEF994F81C3424
:1043800005EB83030DAFD3F8183200931022434698
:1043900039462046FFF7B0F994F81C3405EB830545
:1043A0000DF14408D5F81832009310224B464146CF
:1043B0002046FFF7A1F915AD642300931022429B1C
:1043C00029462046FFF798F99DF80C01164B174A2D
:1043D00094F81C14002818BF1A4604F59663CDE91A
:1043E000047304F2AE43CDE9026304F2AC43CDE9B9
:1043F00000230F4A0F4BCDE90685002918BF13464D
:104400001AA80D4A802122F031FB00231A4619A96F
:10441000204608F027F8C0B23BB0BDE8F0830D207D
:10442000FAE700BF5C9702085B3003085F300308BF
:104430005730030853300308883003082DE9F04350
:104440000446BBB090F8E3030F4690469946FEF74A
:104450003BFE00286ED094F87033013B022B69D8E4
:104460002046FFF7CBFD344D94F81C34199005EB32
:10447000830309AED3F81832009310223B4631462D
:104480002046FFF739F994F81C3405EB83030DAF90
:10449000D3F8183200931022434639462046FFF7DE
:1044A0002BF994F81C3405EB83050DF14408D5F87D
:1044B0001832009310224B4641462046FFF71CF964
:1044C00015AD642300931022429B29462046FFF736
:1044D00013F99DF81001194B194A9DF80CC194F875
:1044E0001C140597002818BF1A46164B1648009250
:1044F000BCF1000F18BF184604F2AE43CDE90363C8
:1045000004F2AC43CDE90103104A114BCDE9068515
:10451000002918BF13461AA80E4A802122F0A6FAD5
:1045200000231A4619A9204607F09CFFC0B23BB0F1
:10453000BDE8F0830D20FAE75C9702085B300308C2
:104540005F300308A0300308A43003085730030885
:1045500053300308A830030830B5D0F8103499421E
:10456000A3B004460D461EDA90F8E303FEF7ACFD57
:10457000D8B194F87033012B17D12046FFF73EFDD8
:1045800005F256230A4A019004EB4303802102A856
:1045900022F06CFA00231A4601A9204607F062FFB8
:1045A000C0B223B030BD0320FBE70D20F9E700BF08
:1045B000C1300308F0B5D0F810349942A9B00446D0
:1045C0000D46164633DA90F8E303FEF77DFD80B31F
:1045D00094F87033012B2CD12046FFF70FFD2946AC
:1045E000079020461EF0B8FF03AF0090334610221C
:1045F00039462046FFF780F805F2562594F81C242A
:104600000D490E4B019704EB4505002A18BF0B46D8
:1046100000950B4A802108A822F028FA00231A46A8
:1046200007A9204607F01EFFC0B229B0F0BD032045
:10463000FBE70D20F9E700BF5730030853300308AC
:10464000D13003082DE9F0431E46D0F81034AFB046
:1046500099429DF8DC7004460D4691465CDA90F86C
:10466000E303FEF731FD002858D094F87033012B96
:1046700054D12046FFF7C2FC29460D9020461EF07B
:104680006BFF0DF114084B46009010224146204666
:10469000FFF732F80DF1240964230093102233460A
:1046A00049462046FFF728F894F81C241C4B1D4966
:1046B00005F25625002A08BF0B46E6B104EB450576
:1046C000194ACDE90035194BCDE90289002F08BF01
:1046D00013468021164A0EA822F0C8F900231A4674
:1046E0000DA9204607F0BEFE369B0D9A1A60C0B297
:1046F0002FB0BDE8F08304EB4505CDE900350A4A4B
:104700000A4BCDF80880002F08BF13468021094AC4
:104710000EA822F0ABF9E1E70320E9E70D20E7E777
:1047200057300308533003085F3003085B30030839
:10473000E4300308F33003082DE9F0431E46D0F8B7
:104740001034ABB099429DF8CC9004460D4690468B
:104750003FDA90F8E303FEF7B7FC00283BD094F86B
:104760007033012B37D12046FFF748FC29460990CA
:1047700020461EF0F1FE05AF009043461022394658
:104780002046FEF7B9FF94F81C34144A144905F288
:10479000562504EB4505002B08BF1146CDE90176EF
:1047A00000950B46B9F1000F11D00E4A80210AA8DE
:1047B00022F05CF900231A4609A9204607F052FEB0
:1047C000329B099A1A60C0B22BB0BDE8F083064A4A
:1047D000ECE70320F8E70D20F6E700BF53300308AD
:1047E00057300308FF300308133103082DE9F04167
:1047F0001E46D0F810349942AAB004460D4617461A
:104800003ADA90F8E303FEF75FFC002836D094F81C
:104810007033012B32D12046FFF7F0FB2946099077
:1048200020461EF099FE0DF1140800903B46102220
:1048300041462046FEF760FF05F2562594F81C24F9
:104840000F49104B04EB4505002A18BF0B46CDE974
:1048500001860D4A009580210AA822F007F900235D
:104860001A4609A9204607F0FDFD309B099A1A60F7
:10487000C0B22AB0BDE8F0810320FAE70D20F8E7C6
:1048800057300308533003082731030870B5044636
:10489000A8B090F8E3030D46FEF716FC60B394F859
:1048A0007033012B28D12046FFF7A8FB94F81C2475
:1048B000124B079003EB820303AED3F81832009338
:1048C00010222B4631462046FEF716FF94F81C2492
:1048D0000B490C4B0096002A18BF0B4608A80A4A41
:1048E000802122F0C3F800231A4607A9204607F0CA
:1048F000B9FDC0B228B070BD0D20FBE75C9702087F
:1049000057300308533003083B31030810B5044601
:10491000A2B090F8E303FEF7D7FBA0B194F8703390
:10492000012B10D12046FFF769FB0849019002A82E
:1049300022F017FB00231A4601A9204607F092FD3A
:10494000C0B222B010BD0D20FBE700BF4731030805
:1049500070B50446A4B090F8E3030E461546FEF782
:10496000B3FBD8B194F87033012B17D12046FFF771
:1049700045FB0B4A0B4B0390002D08BF13468021CB
:10498000094A009604A822F071F800231A4603A9E8
:10499000204607F067FDC0B224B070BD0D20FBE7D4
:1049A0004F3103084C3103085231030838B504462F
:1049B00090F8E3030D46FEF787FBB8B194F8703327
:1049C000012B13D194F8043463B1D4EDFF7AFCEEDB
:1049D000E77A2A4617EE903A204699B2FFF7B8FFD9
:1049E000C0B238BD84F805540320FAE70D20F8E77B
:1049F00010B50446A2B090F8E303FEF765FBA0B142
:104A000094F87033012B10D12046FFF7F7FA0849CC
:104A1000019002A822F0A5FA00231A4601A9204617
:104A200007F020FDC0B222B010BD0D20FBE700BF93
:104A30005A31030870472DE9F04704460D4607F048
:104A4000BCF86E1C2946074604F6941007F0B5F82A
:104A5000314604F6B81007F0B0F8314604F6782075
:104A600007F0ABF8264600234FF03408226B9A4239
:104A700002D83846BDE8F08703FB0882A018A15889
:104A8000E26A9A4203F1010A06F5EA790BD1CB6892
:104A900029469847D6F8D4312946DB6848469847D6
:104AA00038365346E2E70B699847D6F8D431484682
:104AB0001B699847F4E7F8B5044607F08EF80646F8
:104AC00004F6941007F089F804F6B81007F085F89A
:104AD00004F6782007F081F8E36A342203FB022011
:104AE00002FB034320445B6B1B699847E36A38224F
:104AF000534303F5EA7023442044D3F8D4311B69AF
:104B0000984704F6383007F068F804F56575002713
:104B1000236BBB4201D83046F8BD2B6828461B6981
:104B200098470137C035F3E72DE9F0410E460446BA
:104B300000283ED000F6B8139942C56A18D10DB1CD
:104B40006B1EE36204F6383007F009F818B12368E9
:104B500020461B6998472368618ADB68204698478E
:104B6000E36AAB4201D0206AE8B90020BDE8F081D9
:104B700000F67823994210D000F565780027236B62
:104B8000BB42DFD9464504D12368E7621B69204652
:104B90009847013708F1C008F1E7036B013BAB42CE
:104BA000D0D96B1CCDE7D4E90912234607F02DFCC0
:104BB000DBE70220DAE770B50446D8B10B78022BA8
:104BC00011D100F6B81504F668304E7806F0C7FF2C
:104BD00058B93146284608F093FD36B92946204693
:104BE000FFF7A2FF01E0042B01D0002070BD00F60A
:104BF0007825E8E70220F9E7012970B5044626D1B7
:104C0000B0F90E10B0F904300B4493421FDAB0F93A
:104C100008305B1A93421ADD00F63836304606F04B
:104C20009EFF054650B1236820461B6998472368BC
:104C3000618ADB682046BDE8704018473046618ACB
:104C400006F0BBFF04F56576236B9D4200D370BD73
:104C50003368618ADB683046013198470135C036D8
:104C6000F2E710B103689B68184770472DE9F04FD1
:104C70000C46072C85B0054611465BD84FF034082A
:104C800004FB0887074408FB0458384604F0C8FEB4
:104C9000D8F83430B5F90EB0DA690192DB6BB5F9AA
:104CA0000C903846984738235C4304F5EA762C4448
:104CB0002E44D4F8D4318246DB6B304698470390BB
:104CC000306BFFF7CEFFD8F834200290126CB5F9A4
:104CD0000E5038469047039B0299A9EB4B099A4422
:104CE0002D1AA9EB010105EBD575A1EB0A016A109C
:104CF0000BEB5101019D00233846A847D4F8D4316D
:104D0000D3F81C90D8F8343038465B6B9847074688
:104D1000306BFFF7A6FFD4F8D43105461B6B304645
:104D200098470023024679193046CC4605B0BDE8C5
:104D3000F04F604705B0BDE8F08F2DE9F04F07292F
:104D400087B004460D46174698465ED8002A5CD0C8
:104D50004FF0380B0BFB01FB01930BF5EA766FF07C
:104D60007F4306440093A344002339461A46304645
:104D700006F03AFADBF8D421B4F90E90B4F90C003D
:104D8000D3690593A0EB490AD26B30469047DBF814
:104D9000D431AAEB000000EBD07009EB600A1B6C69
:104DA000B4F90E9030469847A9EB000000EBD070A4
:104DB0004210514600233046059EB047B4F90E20FC
:104DC00001230293A2F108030193B4F90C30C02629
:104DD00006FB0546A3EB420305FB022506F56576B7
:104DE000009339462B1D304608F050FA41463046B4
:104DF00008F0AFFB1DF0C6FB054A014623463046CE
:104E000007B0BDE8F04F08F086BC07B0BDE8F08FF2
:104E1000294B00087047C36A8B4210B504460ED078
:104E2000036B8B420BD90368C1625B69984730B151
:104E30002368618ADB682046BDE81040184710BD32
:104E40002DE9F04F85B0DDE90E981D4603680E464A
:104E50009B6C012104461746984709F1FF306B1EF1
:104E600002B231B21BB26FF07F40A1802381628118
:104E7000E780A581A4F80E90CDE9002004F69410F7
:104E800005F0D4FEB4F90E303E495A1ECDE9003289
:104E90004FF0010A04F6B81BCDF808A0B4F90630AB
:104EA000B4F90420584608F0F1F904F08FF80146EF
:104EB000584608F04EFB1DF065FB23460146324A7A
:104EC000584608F028FCB4F90E20B4F90810CDF8C3
:104ED00008A0531ECDE9002304F6782BB4F9063060
:104EE0008A1A5846294908F0D1F904F06FF80146AA
:104EF000584608F02EFB1DF045FB23460146224A8A
:104F0000584608F008FC00F080F883461DF03AFB94
:104F100004F6883301931423014600935846234630
:104F20001B4A00F0FEF81B4BB4F90A20CDF808A08C
:104F30000193D4F8A03BB4F90E10D3F88C305B1A6F
:104F40000093B4F90C30B4F90410524404F638302C
:104F500005F077FD2B46314604F66830CDF8009019
:104F60003A4605F022FE4346082B28BF08230021BD
:104F7000204684F878AB236305B0BDE8F04FFFF717
:104F80004ABF00BF932F0308294B0008912F030845
:104F9000B74B000840404000C0E9081283627047E8
:104FA0002DE9F7430026B0F9465B036BB5FBF3F53B
:104FB000044600F565783746A5F10809236BBB4226
:104FC00002D803B0BDE8F083B4F93E2BB4F90E105B
:104FD000B4F90C30CDF80090043232444046A3EBD3
:104FE000410308F00FFA01372E4408F1C008E5E745
:104FF00010B50446C06C10B1216D11F070F807F0C7
:1050000004FDE0654FF0000010BD70B52B4C254647
:1050100055F8043BBFF35B8F13F0010642D12046E5
:105020001FF087FB00283DD0254B636010223346DC
:105030000221281D07F02AFB00231A46194604F115
:10504000180007F023FB1F4A1F496160C4E90E25C1
:105050008022A4F84820022284F84A201B4AE264F5
:1050600000235422203104F17800C4E91833C4E944
:105070000A33C4E91433C4E91633C4E91B33236388
:1050800084F8343084F840306364C4F86730636770
:1050900021F06FFF0E4A0F49201D1EF07CFF2046B5
:1050A0001FF056FB0C4870BD0C4807F0F7FA034898
:1050B0001FF04BFB1EF0EAFFF9E700BF6844002039
:1050C000E03D0308AFC4000880A602082A3903089F
:1050D00044010020953502086C44002070440020F3
:1050E000C0E9131207F012B910B50C468988206880
:1050F00009F028FAA3791B1A58425841237A8342AF
:105100000AD0627A824209D1E379082B02D1227255
:10511000012010BD0133E3710020FAE76072002323
:10512000F9E710B5039CA3609DF808302373436D25
:10513000C4E900121BB9C4E90433446510BD1A4622
:105140009442FBD01269002AFAD15C61C4E90432AE
:10515000F3E7436D8B4207D11B69436500225A6117
:1051600070478B4203D01B69002BFAD17047D3E9FB
:1051700004321361002BF2D1704710B5029CA3607A
:10518000836DC4E900121BB9C4E90433846510BD02
:105190001A469442FBD01269002AFAD15C61C4E934
:1051A0000432F3E7836D8B4207D11B6983650022CC
:1051B0005A6170478B4203D01B69002BFAD17047AC
:1051C000D3E904321361002BF2D170470C2303FBA7
:1051D000010090F87C0070470C2303FB0103084496
:1051E00093F87C3090F860209A421ABF80F86030C3
:1051F0000120002070470C2303FB0100117890F878
:105200007C3099421ABF0120137000207047C36C94
:105210001B68586A0B6800EBD07042100A60C3EB41
:10522000600070472DE9F041044600F17406002546
:105230004FF0010831462046FFF756FF98B1636DE5
:1052400008FA05F27BB1197B114244D0D3E900077B
:10525000317A9A68234B01EB450103EB4103B0BB64
:1052600019461046B8470135072D06F10C06E1D165
:1052700004F168012046FFF7CAFF0646F0B107F0C7
:10528000E4FBE36E86EAE677C51AA7EBE67707F05C
:10529000DCFBBD4238BF01254FF47A7328BFB5FB54
:1052A000F7F5B3FBF5F32367A36DE06633B1D3E9FC
:1052B00000059A6888B931461046A84704F15C0099
:1052C000012107F0CCFB4FF00000BDE8F08139462A
:1052D00007F09BF8C7E71B69B4E73346294607F098
:1052E00094F8EBE7280000201FB518B3436F19446A
:1052F000036C21EAE1718B424167D8BF03F1FF31B2
:10530000C36BD8BF416703EB81134FF0010C4FF41F
:105310007F04B3F90E20B3F90C10CDE9014CB3F9B9
:1053200016300093B0F91C30443005F08AFB0020A1
:1053300004B010BD0220FBE7F8B50446002848D0B1
:1053400000F178078F420BD1436F002B06DB00681A
:10535000A56878B16268294607F057F80020F8BDC3
:1053600000F59C768E420BD1436F002BF6DB006874
:10537000E568EEE7002DF1D060681946A847EDE733
:105380000B784D78A3B93846294608F0B9F904F1ED
:10539000440025B14FF47F4105F0DCFBDEE74FF41C
:1053A0007F0105F0D7FB39462046FFF7C5FFD5E75B
:1053B000012BD3D13046294608F0A2F904F144006C
:1053C0000DB1FF21E8E74FF47F0105F0C3FB314643
:1053D000EAE70220C3E78360009BC360C0E90012D4
:1053E0007047F0B5044687B015460E4610220021DE
:1053F00002A81F4621F009FCB4F91C4003F0B8FDD7
:1054000003689B689847B4FBF0F428461CF070FED4
:10541000231A002B14DD0D4A102102A821F026FBCF
:1054200072683046944250F8081B38BF621CCDE9C0
:10543000005702AB06F07FF84FF0000007B0F0BD58
:10544000034A102102A821F011FBE9E733390308D0
:105450003D390308002938B509DB056C8D4206DDAE
:10546000C46B04EB8111FFF7BCFFC0B238BD042050
:10547000FCE72DE9F04F85B0044600F110070E98C7
:10548000009038461E4606F0B4FAE36B002B40F05D
:105490008D800227D4F8F831D3F88CA0D3F8885047
:1054A00003F01EFE0368DB689847064603F018FE0B
:1054B0000368DB68984705EBD5756D10043D04F172
:1054C00078084FF0010906EB460600EB4000AAEB16
:1054D0000603CDE900503749CDF808900022404638
:1054E00007F0D4FE1DF04EF823460146324A4046EE
:1054F00008F011F9D4F8F8313049D3F88820CDF804
:105500000890B4F98630CDE9005304F59C76B4F9DF
:105510007E30521B304607F0B9FE1DF033F8264AA4
:1055200001462346304608F0F6F8384605B0BDE897
:10553000F08FE06B00EB85103946083006F000FB79
:105540004FEA8518E36B53F808B003EB080A03F041
:105550000FFD0368DB689847804603F009FD05FBF3
:1055600008F3CDE90090002259460AF1080005F041
:105570003BFE0135236CAB42DBDC04F144053946CC
:10558000284606F0DDFAE36B4FF47F000127B3F9FC
:105590000E20B3F90C10CDE90107B3F916300093D2
:1055A0002846334605F04DFA002773E700256FF0D3
:1055B0007F49DFE74139030839530008542F0308B6
:1055C00037B50D461946089BC0E90F520093DDE937
:1055D0000623FFF74EFF03B030BD38B5C36B04465A
:1055E0004BB3FFF712FD04F5FE71FFF7DBFDFFF78C
:1055F0000CFD04F50571FFF7ACFD04F1440006F065
:10560000ECFA0025236CAB420DDC04F1100006F02F
:10561000E4FA04F1780006F0E0FA04F59C7006F074
:10562000DCFA002038BDE06B00EB8510083006F096
:10563000D4FA0135E6E70220F4E77FB504460D46CB
:105640000E46236CB3421EDC636F2564AB4214DB51
:1056500000236367E36B4FF47F000125B3F90E204D
:10566000B3F90C10CDE90105B3F916300093B4F984
:105670001C3004F1440005F0E4F90025236CAB4232
:1056800009DC04B070BDE06B00EB8610083006F05A
:10569000A4FA0136D5E7E06B00EB85100121083054
:1056A00006F08BFA0135E9E7F0B5C36B85B0044627
:1056B0000D46002B57D000F144070021384606F074
:1056C0007CFA0026236CB34244DC294604F1100026
:1056D00006F073FA626FE36B03EB82134FF47F0003
:1056E0000126B3F90E20B3F90C10CDE90106B3F988
:1056F00016300093B4F91C30384605F0A2F929465B
:1057000004F1780006F059FA294604F59C7006F079
:1057100054FAFFF77AFC05461CF034FF04F5FE73DB
:105720000146124A009328462346FFF726FDFFF75D
:105730006CFC05461CF026FF04F50573019303235A
:105740000146009328460A4A2346FFF7EAFC002058
:1057500005B0F0BDE06B00EB86100121083006F0CB
:105760002CFA0136AEE70220F2E700BFE95200084A
:1057700039530008C0E90012836070472DE9FF47E4
:10578000764E04468A46174698463368BFF35B8FC9
:10579000DB070BD430461EF0CCFF38B1D4F888328A
:1057A0003046D3F8883073601EF0D2FF03F00EFC51
:1057B00004F18C0500236FF07F491A460190CDF863
:1057C00000905146284605F00FFD4146284605F059
:1057D00048FEB4F998307168C91A04F11008002322
:1057E00008224908284606F03BFA4146284606F0BA
:1057F000A7F90121284606F0E0F903F0B9FB04F10E
:10580000C4050023CDE900901A463946284604F025
:1058100054FCB4F99620002308320821284606F0EB
:105820001FFA41462846012706F08AF90121284639
:10583000002506F0C2F9CDE90157B4F9CE3008339E
:1058400004F13C09009373682A462946484605F04E
:10585000F8F84846042105F04DF948464FF6FF7127
:1058600005F078F92946484605F08BF94146484647
:1058700006F066F92946484606F09FF9D4F88822D2
:10588000B4F94A30D2F88C200093D21A02EBD272CB
:1058900073683A412946404606F0ABF8D4F888329E
:1058A000D3F88C20009229462A4604F16C00D3F8E4
:1058B000883005F07AF9D4F8883284F87C70D3F80F
:1058C0008CA003F00DFC0368DB689847D4F888329D
:1058D000D3F8882002EBD27242FA07F6814603F031
:1058E000FFFB0368DB68984704F58478043E09EB06
:1058F000490900EB4000CDE90060AAEB09032A4604
:1059000017490297404607F0C1FC1CF03BFE2346B6
:105910000146144A404607F0FEFED4F88832B4F936
:105920001421D3F888100297B4F91631CDE9002379
:1059300004F5E476B4F90E318A1A30460A4907F0C4
:10594000A5FC1CF01FFE074A01462346304607F01F
:10595000E2FE284604B0BDE8F08700BF34450020D1
:1059600048390308275A0008542F030837B504465E
:105970000D466C3006F021F9691C04F1100006F0A8
:105980001CF9A91C04F5847006F017F9E91C04F54C
:10599000E47006F012F9FFF738FB05461CF0F2FD43
:1059A00004F5237301460D4A009328462346FFF76A
:1059B000E4FBFFF72AFB05461CF0E4FD04F5297320
:1059C00001937F23014600932846054A2346FFF7AB
:1059D000A8FB4FF0000003B030BD00BFBD3502088A
:1059E000275A000810B50446FFF70FFB04F5237192
:1059F000FFF7D8FBFFF709FB04F52971FFF7A9FBB7
:105A000004F1100006F0E9F804F16C0006F0E5F886
:105A100004F5847006F0E1F804F5E47006F0DDF8B2
:105A20004FF0000010BDF8B50446002836D000F550
:105A300084778F4212D000F5E4768E4216D101238E
:105A400023732046FFF7CEFFD4E9000540B1A268DA
:105A50002346294606F0D9FC0020F8BD0023EFE7D5
:105A6000002DF9D0A0682146A847F5E70B784D78BE
:105A700053B92946384607F043FE002DECD139468C
:105A80002046FFF7D0FFE7E7012BE5D12946304656
:105A900007F036FE002DDFD13146F1E70220DCE7CA
:105AA00010B5084C01444FF0FF32884201D1D04379
:105AB00010BD10F8013B5340DBB254F8233083EAA9
:105AC0001222F2E70CA7020838B50C4C2568BFF388
:105AD0005B8F15F001050FD120461EF02AFE58B14C
