:020000040800F2
:100000000000022059E6020845A5020847A502089B
:1000100049A502084BA502084DA5020800000000F2
:100020000000000000000000000000002D68020831
:100030004FA5020800000000E968020851A5020867
:10004000A9E60208A9E60208A9E60208A9E602084C
:10005000A9E60208A9E60208A9E60208A9E602083C
:10006000A9E60208A9E60208A9E60208A9E602082C
:10007000A9E60208A9E60208A9E60208A9E602081C
:10008000A9E60208A9E60208A9E6020800000000A5
:10009000000000000000000000000000A9E60208C7
:1000A000A9E60208A9E60208A9E60208A9E60208EC
:1000B000A9E60208A9E60208A9E60208A9E60208DC
:1000C000A9E60208A9E60208A9E60208A9E60208CC
:1000D000A9E6020867A50208A9E6020800000000D8
:1000E000A9E60208A9E60208A9E602080000000045
:1000F000000000000000000000000000A9E6020867
:100100000000000075A50208A9E60208A9E6020899
:1001100000000000000000000000000000000000DF
:10012000A9E60208A9E6020885A5020895A5020825
:10013000A9E6020800000000000000000000000026
:10014000000000000000000000000000A5A502085B
:10015000B5A50208A9E60208C5A50208A9E6020895
:10016000A9E60208A9E6020800000000000000005D
:10017000000000000000000000000000000000007F
:1001800000000000A9E602080000000000000000D6
:08019000A9E60208A9E6020835
:1001A0002DE9F84F914CDFF89892C4F800904FF089
:1001B000010A84F804A000256571DFF88882C4F87C
:1001C0000080DFF884B2C4F808B01023E360884EE2
:1001D000884F3246394620462EF067FAC4F8109010
:1001E00084F814A06575C4F81080834BA361C4F82B
:1001F0001CA03246394604F110002EF056FAC4F81D
:10020000209084F824A084F82550C4F82080C4F8F5
:1002100028B00823E3623246394604F120002EF06C
:1002200044FAC4F8309084F8345084F83550C4F857
:100230003080714BA3634FF48063E36332463946E9
:1002400004F130002EF031FAC4F8409084F84450A4
:1002500084F84550C4F84080674BA3640223E364EC
:100260003246394604F140002EF01FFAC4F850908F
:1002700084F8545084F85550C4F85080C4F858B0ED
:10028000C4F85CA03246394604F150002EF00DFA55
:10029000C4F8609084F864A084F86550C4F8608065
:1002A000C4F868B04FF48073E3663246394604F10F
:1002B00060002EF0FAF9514B23676423A4F87430E0
:1002C000A4F876304E4B23674E4BA36704F1700BB6
:1002D00032464D4958462EF0E8F904F17C074B4967
:1002E00038462BF0EBFE3246494938462EF0DDF910
:1002F000484BC4F88C30484BC4F88C30474BC4F89A
:100300001031A4F814513246454904F18C002EF006
:10031000CCF9444BC4F818310323C4F81C314FF412
:10032000F078C4F820814FF4A079C4F82491C4F87F
:100330002881C4F82C9184F830513B4BC4F8183113
:10034000C4F834B1C4F8384104F11003C4F83C31A6
:100350001033C4F840313246344904F58C702EF025
:10036000A4F9334BC4F8443184F8485184F8495116
:10037000A4F84A51A4F84C512E4BC4F84431C4F8A7
:10038000507184F85451C4F85651C4F85A51C4F805
:100390005E5184F848A1A4F84A91A4F84C814FF02A
:1003A000030384F849313246234904F5A2702EF044
:1003B0007CF94FF40043C4F864314023C4F8683139
:1003C00084F86C51C4F87051C4F87471C4F8785151
:1003D000422009F056FFC4F870013246174904F56F
:1003E000B2702EF062F9BDE8F88F00BF180300204C
:1003F0004401002019C002080004024020DB030869
:1004000094D403081086012021BF0208D48401205F
:100410007DC00208B8DB0308FCD40308A4870120D0
:100420002DC0020804DC0308CCC1030841C0020847
:1004300054DC0308905B030855C0020869C0020839
:10044000E4DB0308F0D303080000024070B5144C4D
:10045000236800255D62294620461BF011FD2946D0
:10046000204619F0EBFE0E4B1B681B6913F0020FC0
:10047000F9D000210A4819F0E1FE0446084B1B6838
:100480001B6913F0020FF9D0054E0021304619F018
:10049000D5FE0546002130461BF078FD281B70BDB7
:1004A00014870120174B1B6813F4003FFAD0154A3C
:1004B000936823F0030343F001039360124B00227F
:1004C0001A66104B1B6813F0007FFAD10D4A53686F
:1004D00023F4800318435060536823F03F0319430B
:1004E0005160094B01221A66064B1B6813F0007F0E
:1004F000FAD0044A936823F0030343F002039360A5
:10050000704700BF003802400000474200B587B086
:1005100010210020FFF7C6FFFFF798FF144B1B6860
:1005200003EB4303134AA2FB0323B0EBD34F07D8DB
:1005300019214FF48000FFF7B5FF07B05DF804FB09
:100540006846002300930193029303930493059359
:1005500002230093084B049315F0B4FE28B9074B0F
:100560000122C3F83C2E0821E3E729F09DFCF6E7C1
:10057000DC00002083DE1B4300030800000047422C
:1005800010B510210020FFF78DFF002423460CE05A
:1005900081421ED91E2B1CD801330F490A6822F054
:1005A000F80242EAC3020A6001341E2C11D8FFF798
:1005B0004DFF094B1B68C3F3C403084A126808497E
:1005C000A1FB0212910CB0EB924FE1D90BB1013BB0
:1005D000E3E7184610BD00BF00380240DC000020F1
:1005E00083DE1B4310B582B0FFF7CAFF044615F047
:1005F000E3FF0FF091FA114A136823F0F80343EA7E
:10060000C40313604FF0E02300221A615A619A611B
:100610000B4B0193019B596862B60A4B1A6822F092
:1006200003021A601A6842F001021A60019B1B68FB
:1006300083F30888884702B010BD00BF003802402D
:100640000000FF1F0038014038B5FFF75FFF254C61
:10065000236D1B6904F15000984794F85530003B16
:1006600018BF0123984234D005F096FF1D4C04F5C5
:10067000B27105F0B1FF09F091FF04F5A27204F523
:100680008C7109F011FE0EF0D6FD03681D6A04F1AD
:10069000600300221449A84705F0CDF90022134950
:1006A00005F0F4F9236B1B6904F13000984794F8C6
:1006B0003530003B18BF012398420DD003F0CAF932
:1006C0000B4903F0F1F900F0F8F803681B6898474C
:1006D00038BDFFF787FFC7E708F038FF03681B68DE
:1006E0009847F5E7180300205C870120CC8601209D
:1006F000A403002000BEFEE7704708B5FFF750FDD9
:1007000008BD00BF00F5005090F86C3113B94FF0F0
:10071000000070474FF00400704770B5064600F5C2
:100720000054D4F8640190F8701303F0DFF9014627
:10073000002206F628500CF049FFD4F8640190F826
:10074000F11303F0DCF90146002206F556600CF0C7
:100750003DFFD4F8641191F8E923134623F04003D8
:1007600081F8E933C2F3801201F2F23106F69850B3
:100770000CF02CFF002511E005EBC504640104F525
:100780005D64344406F50053E9B2D3F8640103F024
:100790000BFA0146204601F0F6F90135052DEBD99B
:1007A00006F50053D3F8643193F852336BB306F671
:1007B0003844012120460FF05BF906F50053D3F8C9
:1007C000643193F8E333F3B14FF47F4120460FF0E7
:1007D00070F806F50055D5F86431002483F80F440D
:1007E000D6F89030123306EB8306706803685B69B5
:1007F00014219847D5F85C0100F5C15004300EF083
:100800007EFA204670BDFF21E0E706F6384400215D
:1008100020460FF02DF906F50053D3F8643193F814
:10082000E33323B1FF2120460FF043F8D1E76FF007
:100830007F41F8E703464FF00200002B3CD0F0B5B3
:1008400083B01E460B88ADF804309DF80450E5B91E
:1008500006F5B154183423685B6920469847B0B157
:1008600023685B6C2046984788B19DF8057039462F
:1008700020460FF0FDF857B923685B6C2046984777
:1008800028B120460FF004F901E0012D05D0062D16
:1008900007D04FF0000003B0F0BD06F5BD5418348A
:1008A000D9E79DF80530002BF3D033689B6906F635
:1008B000384130469847ECE7704708B50F4B1B6846
:1008C000BFF35B8F13F0010F01D00D4808BD0B483B
:1008D0002EF0B9FA0028F8D009482CF0AFF9094AEF
:1008E000094907482DF0E1FE04482EF0BBFAECE779
:1008F00002482EF0B4FA2DF053FF00BF94040020FC
:10090000980400204401002045CB02082DE9F04165
:1009100084B004460F46002960D000F50053D3F898
:100920005C31D3F88830083B424D85FB0325A5EBAD
:10093000E37504F5B156183604F50053D3F85C316D
:10094000D3F88C800AF006FB0368DB68984700EB5D
:100950004000A8EB00080AF0FDFA0368DB6898473E
:1009600000EB4000012302930190009543460022D2
:10097000314930460EF064FE2BF03CFC014600236A
:100980001A4630460FF080F830460FF03DF887BB2E
:1009900004F5BD56183604F50053D3F85C31D3F88E
:1009A000882004F58054B4F9463601210291019360
:1009B0000095B4F93E36521B1F4930460EF040FEFA
:1009C0002BF018FC014600231A4630460FF05CF865
:1009D00030460FF019F804B0BDE8F08100F500537F
:1009E000D3F85C31D3F8885005EBD5756D10043D14
:1009F0009FE704F5B756183604F58053B3F940263F
:100A0000B3F946160120029001910095B3F93E36E4
:100A10000532094930460EF013FE2BF0EBFB014680
:100A200000231A4630460FF02FF830460EF0ECFF48
:100A3000AEE700BF5655555590DF030808B500F5E1
:100A40000053D3F8643193F87033022B06D0074972
:100A500000F5B15018300EF0E8FE08BD044900F56D
:100A6000B15018300EF0E1FEF7E700BF8CDC030850
:100A700084DC030808B500F50053D3F8643193F81B
:100A80007033012B00D033B929B100F5B1501830C3
:100A90000EF0CBFE01E0FFF7D1FF08BD08B500F571
:100AA0000053D3F8642192F87033052B09D00BB1B1
:100AB000092B18D10F4900F5BD5018300EF0B5FEC6
:100AC00008BD92F8F1334F2B06D00B4900F5BD500D
:100AD00018300EF0AAFEF3E7064900F5BD501830B5
:100AE0000EF0A3FEECE7054900F5BD5018300EF0FE
:100AF0009CFEE5E710E7030890DC030898DC030898
:100B000008B500F50053D3F8643193F87033012B26
:100B100006D129B100F5BD5018300EF086FE01E077
:100B2000FFF7BCFF08BD38B5054600240F2C21D8BF
:100B300004F1120305EB83035B688B4201D001349F
:100B4000F4E7D5F89030123305EB83035868036857
:100B50001B699847C5F89040214605F1940004F0C0
:100B600060FED5F89030123305EB830568680368A2
:100B7000DB68984738BD70B58AB0044603A826F0F4
:100B8000E8F804F5B0551835049B154A202128468D
:100B900030F0FEFA04F5AF560122294630460CF03B
:100BA00015FD04F50053D3F85C31D3F8882002EB2F
:100BB000D27204F58054B4F9EC3503EBD3735C10B6
:100BC000C4EB62040AF088F901906FF07F43009350
:100BD0001E232246294630460CF071FB0AB070BD38
:100BE000A0DC030810B50446943004F031FC04F690
:100BF000F8400DF08AF804F628500DF086F804F558
:100C000056600DF082F804F698500DF07EF804F668
:100C100038400DF07AF804F5B15018300DF075F841
:100C200004F5BD5018300DF070F810BD10B5044635
:100C30004FF4FA61943004F0B3FB4FF47A7104F688
:100C4000F8400DF053F840F2E93104F628500DF069
:100C50004DF840F2EA3104F556600DF047F840F2E5
:100C6000EB3104F698500DF041F84FF47A7104F628
:100C700038400DF03BF8662104F5B15018300DF006
:100C800035F8662104F5BD5018300DF02FF810BD71
:100C900038B504460D46D0F89030123300EB83038C
:100CA000586803681B699847C4F89050294604F1B6
:100CB000940004F0B6FDD4F89030123304EB8304B2
:100CC00060680368DB68984738BD70B504460D4618
:100CD0004FF0000600F638438B4214D004F1940321
:100CE000AB4221D0D4F89030123304EB8303586820
:100CF00003689B69294698470646F6B2092E19D023
:100D00004FF0000070BD90F8483C002BE6D000F595
:100D10000053D3F8640190F8523313B903F067F825
:100D2000EBE703F0AFF8E8E794F8C0102046FFF7D0
:100D3000AFFFE2E704F5B1531833AB421CD004F522
:100D4000BD531833AB42DBD104F50054D4F8640131
:100D500090F87033052B1FD00BB1092B30D1002335
:100D600080F8F13380F85533D0F86833C0F86C332D
:100D7000182103F02DF8C3E704F50054D4F86401FA
:100D800090F87033022B03D0812103F021F8B7E7EC
:100D9000822103F01DF8B3E790F8F1334F2B02D016
:100DA0002BF066FCACE7002380F8F13380F8553374
:100DB000D0F86833C0F86C33182103F009F89FE7C6
:100DC000002380F85533D0F86833C0F86C3319210C
:100DD00002F0FEFF94E708B5D0F890100131D0F88A
:100DE0008C30B1FBF3F203FB1211C9B2FFF750FFD5
:100DF00008BD08B5D0F89010D0F88C3019440139EE
:100E0000B1FBF3F203FB1211C9B2FFF741FF08BDBA
:100E10002DE9F04383B0044600F19405284604F020
:100E200017FB04F50058D8F85C31D3F88830082255
:100E300001922827009700221146284604F005FD5C
:100E40000026C4F88C6009F0CBFF0346334A3146D4
:100E5000284604F06EFC02F0FCF9D4F88C3003F163
:100E60000109C4F88C90123304EB8303586009F035
:100E7000B7FF03462A4A4946284604F05AFC06F0C2
:100E80009FF8D4F88C3003F10109C4F88C90123328
:100E900004EB8303586009F0A3FF0346214A494647
:100EA000284604F046FC07F049F9D4F88C3003F1E9
:100EB0000109C4F88C90123304EB8303586009F0E5
:100EC0008FFF0346184A4946284604F032FC07F0D3
:100ED0001BFFD4F88C305A1CC4F88C20123304EB5E
:100EE00083035860D8F85C31D3F8883001920097BA
:100EF00032463146284604F0A8FC284604F056FD48
:100F0000334632462146284604F04CFD4FF4FA6140
:100F1000284604F045FA03B0BDE8F083B8DC0308C6
:100F2000C4DC0308D0DC0308E0DC03082DE9F04F43
:100F300089B0044605F030FB05F052FB8DF81F0028
:100F400004F50056D6F85C5105F026FBC16800395F
:100F500018BF0121284609F0C8F996F85811D6F8AB
:100F60005C0109F055FDD6F85C31B94AC3F8802020
:100F7000D6F85C31D3F88C7009F0ECFF0368DB68BD
:100F8000984700EB40003F1A09F02AFF0368DB682E
:100F90009847A7EB4007023FD6F85C31D3F888505A
:100FA00009F01EFF03689B68984700EB4000A5EB23
:100FB000400809F015FF0368DB689847400004F615
:100FC000F84900250295A34B0193009043463A4609
:100FD000294648460BF083FD4FF47A7148460CF0E1
:100FE00085FE04F5C35909F118099B4F02233A46BF
:100FF0003946484605F004F92B462A46214648461C
:1010000005F0FAF8D6F8640102F03CFF04F6384A1D
:10101000D6F85C31D3F8888009F0E2FE03689B685B
:10102000984700EB4000A8EB400808F1FF38B4F9FE
:10103000FEBC09F0D5FE03689B68984700EB4000B2
:101040004000B4F9063D01220292019300905B46F4
:101050004246824950460EF0F3FA2B462A46214674
:1010600050460EF011FD294650460EF001FD4FF49A
:101070007A7150460CF03AFEB4F9FE8CB4F9063D94
:1010800003EBD37308EB630809F0AAFE0368DB687F
:101090009847A8EB500809F0A3FE04F6285B0190DE
:1010A0006FF07F43009343460422394658460CF0C4
:1010B00006F9B4F92CAD09F093FE03689B689847D4
:1010C00000EB8000824409F045FF03689B68984765
:1010D0000AEB00020592B4F9028D09F03BFF0368A8
:1010E000DB689847A8EB0008A8F1020809F032FF76
:1010F00004F5566A01906FF07F4300934346059ACA
:10110000394650460CF0DBF8B4F93C8C09F05EFF30
:1011100003689B68984700EB800300EB4300A8EB53
:1011200000030593B4F9FE1C069109F04FFF04F685
:1011300098580190FF23009306990B1D059A394694
:1011400040460CF0BCF840F2E93158460CF0CEFDB8
:1011500040F2EA3150460CF0C9FD40F2EB31404616
:101160000CF0C4FD04F5055334330193432300937D
:1011700023463B4A2146D6F8600104F0B1FC2946DB
:101180002046FFF7C3FB2046FFF742FE09E005EBD0
:10119000C500400100F55D600021204400F0F3FC33
:1011A0000135052DF3D904F5B055183509F094FE35
:1011B00001906FF07F43009300231A46294604F5FF
:1011C000AF500CF07CF800250CE005F1120304EBA5
:1011D00083035868B4F9FE2C03689B68283A2821D9
:1011E00098470135D4F88C30AB42EED80023C4F8D0
:1011F00090309DF81F30CBB9D4F8901004F19400D2
:1012000004F00FFBD4F89030123304EB83035868DA
:101210000368DB68984704F50054D4F8640102F0D1
:10122000E6FD4FF0000009B0BDE8F08F02230D4A43
:101230000D49484604F0E4FF42F21071484605F0BB
:10124000E5F8D4F88C30013BC4F89030D4E700BF07
:10125000404040008080800090DF0308ECDC030801
:1012600035080008F0DC03083CDD030838B5034608
:101270004FF00200B3B11C4691B103F1D405D3F88D
:101280002031626901FB0231284600F07CFCA36931
:1012900033B1D4F8202153F82210284600F0C1FCC5
:1012A0004FF0000038BD016042608360704710B5A8
:1012B00004464169012914BF0021012100F5FA709B
:1012C0000EF0D6FB61690A2914BF0021012104F543
:1012D0002D700EF0CDFB6169642914BF002101213E
:1012E00004F55D700EF0C4FB10BD94463AB90120C0
:1012F000704701FB00F001336345FAD3704708469D
:101300000123F9E72DE9F04F89B004460F46069214
:101310001E4600238361D44B1B68BFF35B8F13F021
:10132000010F6CD004F19C0509F05AFD01906FF09B
:101330007F43009300231A46394628460BF0BFFF2F
:101340009DF8541028460CF004F9C74F7968B4F999
:10135000A830C91A00230822490828460CF01EFDAF
:1013600004F1200B594628460CF080FC0121284648
:101370000CF0BCFC04F1D405B4F9A6807F68103FE2
:1013800009F0E8FD0368DB68984700EB8000149BD8
:1013900002930D23019300903B4608F108020821B7
:1013A000284600F017FB4FF47F420421284600F046
:1013B000DEFB09F0CFFD01460222284600F031FD98
:1013C000139A1299284600F025FC3146284600F071
:1013D000DAFB09F0BFFD034605220699284600F016
:1013E00035FD002684F8E460594628460CF03EFCA2
:1013F000012128460CF07AFCCDF81CB07DE09A481B
:101400002DF021FD00288DD0D4F8F035D3F88830A8
:10141000954843602DF026FD84E7B4F9E070083F5D
:10142000924BA3FB07377F0802F014FB054606F139
:10143000440804EB081806F5867304EB8303D3F81D
:101440000490149A0A212046FFF74FFF00904B4664
:1014500010224146284602F082FD40462AF092FCC6
:10146000069B834AC0F1100140442FF091FE4FEAE1
:10147000460B06EB4605AD0105F5F8752544043528
:10148000B4F9D8303A1D06FB02330593B4F9DEA057
:1014900009F060FD0368DB68984700EB80004FF0BF
:1014A0000109CDF80890019000970AF10803059A08
:1014B000414628460EF0C4F82AF09CFE0146234619
:1014C0006C4A28460EF0E0FA002128460EF0D0FAC9
:1014D000032128460EF065FA0BEB060704EB87178D
:1014E000D7F8F4319B68079928469847D7F8F43124
:1014F000DB684946284698474E44022E8DD9DDF8D0
:101500001CB0149B022B01D902231493149A0A21B4
:101510002046FFF7EAFE6061149B03EB4300800165
:1015200000F5F8702044012104300EF0A1FA04F116
:101530004C084D4FD7F80490D4F8F4319B6B04F568
:10154000FA70984701260296002501950830009010
:101550004B462A46294640460BF0C1FA0421404634
:101560000BF01CFB4FF6FF7140460BF047FB294682
:1015700040460BF059FB594640460CF077FB294694
:1015800040460CF0B3FBD4F8F035D3F88C20B4F916
:101590005A30D21A02EBD27200937B68324129464C
:1015A00058460CF0B0FAD4F8F025D2F88830D2F8CA
:1015B0008C2000922A46294604F17C000BF047FB60
:1015C00084F88C6004F58E68D4F8F035D3F88C700C
:1015D00009F0C0FC0368DB68984700EB40003F1A45
:1015E000D4F8F035D3F8882002EBD27242FA06F92B
:1015F00009F0B0FC0368DB68984700EB40000296F6
:101600000190A9F1040200923B462A461A4940463D
:101610000EF016F82AF0EEFD0146DFF8589023464A
:101620004A4640460EF030FA04F5A667D4F8F03585
:10163000D3F88810B4F97C24B4F97E34029601936F
:101640000092B4F976348A1A0C4938460DF0F8FF46
:101650002AF0D0FD014623464A4638460EF014FAD9
:10166000284609B0BDE8F08F24260020ABAAAAAA1C
:1016700048DD0308DB1700084CDD030850DD0308D4
:101680002DE9F04184B0054616461F46DDF8288056
:101690009DF82C300393002402947B1E0193009448
:1016A00043461E4AFFF72EFEAE61EF6156F8281042
:1016B00005F1D40000F0B5FA0FE004EB440080011E
:1016C00000F5F870284404EB440305EB8313D3F8CA
:1016D000F4311B69043098470134022CEDD905F12F
:1016E0004C06B5F9DE300122029200240194083341
:1016F0000093B5F958302246214630460BF0EFF9F9
:10170000042130460BF04AFA4FF6FF7130460BF0D9
:1017100075FA204604B0BDE8F08100BF90DF0308F1
:1017200030B583B004460D467C300CF0DFFA691CFE
:1017300004F120000CF0DAFAA91C04F58E600CF01C
:10174000D5FAE91C04F5A6600CF0D0FA04F073F9A0
:1017500005462AF04FFD014604F2F4530093234658
:101760000B4A284604F0F4F904F065F905462AF01E
:1017700041FD014604F20C6301937F23009323464D
:10178000044A284604F0ACF94FF0000003B030BD25
:101790006D120008DB17000810B5044604F04BF981
:1017A00004F2F45104F0F1F904F045F904F20C618B
:1017B00004F0B6F904F120000CF0A7FA04F17C0063
:1017C0000CF0A3FA04F58E600CF09FFA04F5A66005
:1017D0000CF09BFA4FF0000010BD03464FF00200E2
:1017E000002B5ED070B582B01C4603F58E658D422D
:1017F00024D003F5A6668E4220D003F5FA738B42FF
:1018000039D004F52D738B4238D004F55D738B42CB
:1018100037D00B88ADF804309DF80430002B33D05E
:10182000012B1AD19DF80550294630460EF020F9BB
:101830009DB931462046FFF7D0FF0EE08D4214BF20
:101840000021012121742046FFF7A6FF206858B12E
:101850002346A26861680CF019FF2046FFF727FDB8
:101860004FF0000002B070BD6368002BF5D0214638
:10187000A0689847F1E701236361EEE70A236361FB
:10188000EBE764236361E8E79DF80560314628468D
:101890000EF0EEF8002EE0D129462046FFF79DFF1E
:1018A000DBE770472DE9F04182B004460E4617464B
:1018B0001D46DDF82080B0F90630B0F90400A8EB31
:1018C00000000090EB1A04F150000AF06BFEB4F92E
:1018D0000630B4F90420A8EB02020092EB1A3A4653
:1018E000314604F1B8000BF015FC94F8183113B927
:1018F00002B0BDE8F081B4F90630B4F90420A8EBD9
:1019000002020092EB1A3A46314604F180000BF0D5
:1019100001FCEDE72DE9F04182B004460E46174682
:101920001D46DDF82080B0F90430B0F90600A8EBC0
:1019300000000090EB1A04F150000AF08CFEB4F99C
:101940000430B4F90620A8EB02020092EB1A3A46E2
:10195000314604F1B8000BF052FC94F8183113B979
:1019600002B0BDE8F081B4F90430B4F90620A8EB68
:1019700002020092EB1A3A46314604F180000BF065
:101980003EFCEDE710B5044605290DD8DFE801F06F
:10199000030D0C0C03140E4950300BF045F923686D
:1019A000DB6C00212046984710BD006A20B1234619
:1019B000A26A616A0CF06AFE002104F150000BF08B
:1019C00033F92368DB6C002120469847ECE700BF21
:1019D000808080002DE9F04184B004461F460A9EB5
:1019E0000B9DDDF830804FF0FF33C3648180C280EF
:1019F000CB199BB2013B038193199BB2013B4381FD
:101A00008781C681A5EB08038363C0F83C8001226F
:101A10000264002105E0226C02EB82025200226483
:101A200001318845F7DCB8F1000F14D0CDF8008003
:101A3000394A102104F584702FF0AAFBB8F1000F89
:101A400000D0013504F1F00840462AF09BF9A84285
:101A500013D000220BE0314A102104F584702FF0DE
:101A600097FBEBE70021A31883F8F0100132172A47
:101A700003D89542F6D92021F5E7012302930025EA
:101A8000019500963B462A46294604F150000BF08A
:101A900026F804F1B80709F05DFA01906FF07F4372
:101AA00000932B462A46414638460BF008FC94F832
:101AB0003850E36B73B30122154453FA85F5EDB248
:101AC0000135EDB2B4F90C8038462BF013FA00FB67
:101AD0001581B4F9C630F61A06EBD67600237210DB
:101AE000490804F1B8000CF059F909F033FA0190F3
:101AF0006FF07F43009300231A46094904F18000E8
:101B00000BF0DDFB2368DB6C00212046984704B016
:101B1000BDE8F0810022CFE758DD03086CDD030843
:101B200090DF0308C36F994200D1704710B5044697
:101B300050300BF033F82368DB6C002120469847C7
:101B400010BD10B5044601634263036F90F82C008A
:101B500000B11146994200D110BD04F150000BF0C4
:101B60004DF82368DB6C002120469847F4E738B530
:101B700004461546FFF7D6FF4FF47F42294620461C
:101B8000FFF7DFFF38BD10B582B00446426C8A42D1
:101B900000DC0A46A36C934200DB1346E26C9A42D7
:101BA00036D0E364E26B8AB9009304F5847318229B
:101BB00004F1F00104F1B8000BF03BFD2368DB6C8D
:101BC000002120469847012002B010BD216C93FBF4
:101BD000F1F201FB1233002BB8BF5B42019300927C
:101BE00004F58473182204F1F00104F1B8000BF03D
:101BF00020FDE36C002BE1DA226C93FBF2F3002B67
:101C0000DCD1A36B023B23442D2283F8F020D5E7DF
:101C10000020D9E708B541648264C16CFFF7B3FFC7
:101C200008BD30B583B0044600F1B80500910D4BF6
:101C3000182200F1F00128460BF0FBFCB4F90C105F
:101C4000B4F9C430C91AB4F90E20B4F9C630D21AA6
:101C500002EBD27200235210490828460CF09EF87D
:101C600003B030BD74DD0308F8B50446836BC56B63
:101C70006DB101210B441D4494F81831013B042B34
:101C800000F2B480DFE803F0383205638B000021F6
:101C9000F0E7B4F90C6004F1B80738462BF02AF9E4
:101CA00094F8E43000FB03F303FB1561B4F98C30C6
:101CB000C91A0239B4F90E20B4F9C630D21A02EBAF
:101CC000D27200235210490838460CF067F8B4F974
:101CD000C060B4F9C27004F1800528462BF013F9F6
:101CE00000233A1AB11C28460CF058F82368DB6C24
:101CF000002120469847F8BDB4F90C10B4F98C3097
:101D0000C91AB4F90E20B4F9C630D21AB4F98E301B
:101D1000D21A02EBD27200235210490804F180005B
:101D20000CF03CF8B4F90C6004F1B80738462BF01D
:101D3000E1F894F8E43000FB03F303FB15610023A2
:101D4000B4F98A20490838460CF028F8CEE7B4F9EF
:101D50000C6004F1B80738462BF0CCF894F8E43066
:101D600000FB03F303FB1561B4F90E20B4F9C63090
:101D7000D21A02EBD27200235210490838460CF0F6
:101D80000DF8B4F90C10B4F98C30C91A0023B4F969
:101D9000C220490804F180000CF000F8A6E7B4F96D
:101DA0000C6004F1B80738462BF0A4F894F8E4303E
:101DB00000FB03F303FB1561B4F90E20B4F9C63040
:101DC000D21A02EBD27200235210490838460BF0A7
:101DD000E5FFB4F9C000B4F98C100023B4F9C220B7
:101DE000411A04F180000BF0D9FF7FE7B4F90C60D1
:101DF00004F1B80738462BF07DF894F8E43000FB86
:101E000003F303FB1561B4F90E20B4F9C630D21AFE
:101E100002EBD27200235210490838460BF0BEFF85
:101E200064E770B50446154600F1B80630460BF07D
:101E300050FBE9B230460BF08CFB2046FFF714FF55
:101E40002368DB6C00212046984770BD70B50446BE
:101E50000D4680F8182100F18006194630460BF037
:101E600038FB0022294630460BF0B0FB2046FFF736
:101E7000FBFE2368DB6C00212046984770BD90F87C
:101E80002C308B4210D010B5044680F82C10503006
:101E900041B1616B0AF0B2FE2368DB6C0021204681
:101EA000984710BD216BF5E770470162426283627B
:101EB000704700BF02464FF00200134652B192F83D
:101EC0003420052A04D803EB82035A681144596070
:101ED0004FF00000704770B5054603F0ACFD05F506
:101EE000BC51043103F051FE05F58053D3F8780757
:101EF000FFF752FC05F5885004300BF006FF05F59E
:101F00008E5004300BF001FF05F5945004300BF0B7
:101F1000FCFE05F595501C300BF0F7FE002427E081
:101F200004EBC400400100F5C470284404EBC40372
:101F300005EB4313D3F88C311B6904309847661CBA
:101F4000C6EBC60005EBC00043681B690430984728
:101F500004EB4400800100F64800284404EB4404EC
:101F600005EB8414D4F84C381B6904309847344688
:101F7000052CD5D900240FE004EB4400800100F5C6
:101F80005C60284404EB440305EB8313D3F8C43DA1
:101F90001B69043098470134032CEDD905F6CC4079
:101FA0000BF0B3FE05F68C500BF0AFFE05F5975025
:101FB00014300BF0AAFE05F59D5014300BF0A5FE71
:101FC00005F5A35014300BF0A0FE05F5A950143010
:101FD0000BF09BFE05F5AF5018300BF096FE05F5A3
:101FE000B55018300BF091FEFEF767FCFEF71EFEB1
:101FF0004FF0000070BD2DE9F04F83B0064600257C
:102000002F4600F58058D8F8800790F8701301F03B
:102010006DFD014606F5945B0BF1040B2A4658460C
:102020000BF0D4FAD8F8800790F8F11301F067FDAF
:10203000014606F5955A0AF11C0A2A4650460BF04D
:10204000C5FAB8F90C9109F10409B8F9C841043C82
:10205000A4EB0904B8F99012611A01EBD1712B4677
:10206000B8F98A2209EB610158460BF097FEB8F9DE
:10207000C832E41A04EBD4742B46B8F9C22209EB37
:10208000640150460BF08AFE10E09D4218D205EB29
:10209000C504640104F5C47434440434E9B201F0A5
:1020A00083FD01462046FFF76EFD013506F580539E
:1020B000D3F88007D0F81034052BE6D90623E4E7DF
:1020C0000024052C51D806EB84035D680DB901345A
:1020D000F7E7B26B02FB05F596F8341001F0F4FC5B
:1020E000F0B1954BA21D06EB82025268002A1ADB62
:1020F000002A1EDD06EB84025268002A19DD03F077
:102100009AFC026F132A00D81422B36B02FB03F36C
:10211000C3EB03139B00894AA2FB0323DB0813E0F4
:102120004EF66023DEE706EB840149680029DFDA1A
:10213000E5E706EB84025268002A40F39280012111
:10214000A21D06EB8202516006F580504FF0000898
:10215000CDF800802A46E1B2D0F8800702F0C8FC32
:10216000074606EB8404C4F8048006F5975808F186
:10217000140806F58053D3F8803793F80C34002BFD
:1021800072D04FF47F4140460DF093FB06F59D550C
:10219000143506F58053D3F8803793F80D34002BAF
:1021A00065D04FF47F4128460DF083FB06F5A35020
:1021B000143006F5805393F8F435002B5AD0FF21E4
:1021C0000DF077FB06F58053D3F8803793F8522350
:1021D000002A54D006F5A950143093F8E333002BAD
:1021E0004BD04FF47F410DF064FB06F58053D3F8DC
:1021F000803793F87033022B4ED0514906F5AF501B
:1022000018300DF012FB06F58053D3F8802792F8B2
:102210007033052B47D00BB1092B56D1494906F530
:10222000B55018300DF001FB06F58053D3F8800748
:102230002AF082FE48B106F58053D3F8803793F830
:102240007033012B48D0032B46D006F58053D3F8CA
:102250007807FFF7A1FA06F6CC400DF0EEFB00245C
:102260005DE04FF0FF316BE76FF07F418BE76FF080
:102270007F4198E76FF07F41A2E7FF21B3E706F5C2
:10228000A950143093F8E3331BB1FF210DF011FB7B
:10229000ABE76FF07F41F9E72B4906F5AF501830F7
:1022A0000DF0C3FAAFE792F8F1334F2B06D0274970
:1022B00006F5B55018300DF0B8FAB5E7214906F526
:1022C000B55018300DF0B1FAAEE7214906F5B5501A
:1022D00018300DF0AAFAA7E706F6CC400DF094FBF3
:1022E000002409E004EB4400800100F6480030447B
:1022F00004300DF089FB0134052CF3D940460DF074
:1023000083FB28460DF080FB11E004EB44008001C4
:1023100000F64800304404300DF08FFB0134052CEA
:10232000F3D940460DF089FB28460DF086FB384670
:1023300003B0BDE8F08F00BF80F52000CDCCCCCC41
:102340008CDC030810E7030884DC030890DC030836
:1023500098DC03082DE9F04F8DB0824600F58053DC
:10236000D3F87C37D3F888200692D3F88C4008F055
:10237000F1FD0368DB68984700EB80020592C2EB31
:10238000C2032433E31A03EBD37359100B9102EB0E
:1023900063030A930C3309934FF0000BE7E09B456E
:1023A00080F0F080059B043309990BFB0311079122
:1023B0004FEACB050BEBCB04640104F5C474544421
:1023C0000434069FA7F10806B6005FFA8BF9494668
:1023D0002AF0A2FD9F4981FB062381FB0721029081
:1023E00008220192059A0092A3EBE673079A0697DA
:1023F000A1EBE7712046FFF7EDFAFF22042120460A
:10240000FFF7B5FB08F0A6FD014602222046FFF7C4
:1024100008FD00212046FFF7B6FB0AF58058494623
:10242000D8F880072AF0A6FD064608F093FD03467B
:10243000032231462046FFF709FD29F0DBFE014665
:1024400000231A462046FFF730FD5D440AEB451590
:10245000D5F88C319B6C0121204698470BF1010681
:10246000F0000490C6EBC6070AEBC70704374946DD
:10247000D8F8800701F01DFB804608F0B1FC019000
:102480006FF07F43009300231A46414638460AF016
:1024900016FF022138460BF05CF80498871B0AEB04
:1024A000C7070437831B0AEBC3035B68DB69089328
:1024B000D5F88C31DB6A2046984700EBD0704FEAA4
:1024C00060090498831B0AEBC3035B68DB6B384627
:1024D000984700EBD070A9EB6009D5F88C311B6BE5
:1024E000204698478046D5F88C311B6C204698478B
:1024F00000EBD07008EB60080498831B0AEBC30361
:102500005B681B6C3846984700EBD0700023A8EB43
:10251000600249463846089FB8470BEB4B07BF019E
:1025200007F6480757440437D5F88C315B6B2046D3
:1025300098478046D5F88C315B6B204698470699C2
:10254000081A012302930599019108380090079B0E
:1025500008F10402404938460DF072F829F04AFEAD
:10256000014600231A4638460DF08EFAB3460AF5A6
:102570008053D3F88007D0F81034052B7FF60FAFC7
:1025800006230CE70AF6CC450AF5C678DAF88C3152
:102590001B6B404698470646DAF88C31DB6A4046AA
:1025A00098470446DAF88C311B6C404698472B4F0D
:1025B000012302930190083C0094334604223946DB
:1025C00028460DF03DF829F015FE014600231A4675
:1025D00028460DF059FADAF88C31DB6A4046984704
:1025E0000446DAF88C311B6B40469847054608F0E4
:1025F000B1FC01906FF07F43009305F1080304F1F3
:10260000080239460AF68C500AF059FE069BA3F1DF
:102610001406B6080AF58053D3F88037D3F810347F
:10262000052B00D90623013B03EBC300400100F555
:10263000C470504403EBC3030AEB4313D3F88C314B
:102640009B6B0430984700F108070025B946059FA9
:1026500031E000BFABAAAA2A78DD030890DF0308A7
:1026600005EB4504A40104F55C645444043405EB13
:102670004501890001F586515144321D05FB02F2E6
:1026800001230293019700964B4604320431204601
:102690000CF0D6FF29F0AEFD014600231A46204675
:1026A0000DF0F2F9032120460DF07BF900212046C0
:1026B0000DF0DEF90135032DD2D901210AF5805044
:1026C00004300DF0D5F9DAF88C315B6B4046984751
:1026D000069B1F1AA7F108081C1FA4EB08040AF5A3
:1026E000885909F1040901250295059B0193CDF84C
:1026F0000080DDF82CB05B460422794948460CF096
:102700009FFF29F077FD014600231A4648460DF049
:10271000BBF90AF58E5909F104090295059A01924F
:10272000CDF800805B4622466E4948460CF088FF93
:1027300029F060FD014600231A4648460DF0A4F931
:1027400008F04EFB0368DB689847059A141A0BEBF8
:10275000540408F045FB01906FF07F48CDF80080ED
:1027600023463A1D60490AF5945004300AF0A7FD4B
:1027700008F036FB03689B68984700EB80003C1824
:1027800008F0E8FB03689B6898470444043408F0A9
:10279000E1FB0368DB6898470A990B1A9F1E08F053
:1027A000D9FB0190CDF800803B4622464F490AF5FF
:1027B00095501C300AF083FDDAF8C43D9B6B0AF695
:1027C000C4509847041D0AF5975714370295059A87
:1027D0000192009623460422454938460CF030FF0A
:1027E00029F008FD014600231A4638460DF04CF941
:1027F0000AF59D5714370295059A019200962346D3
:1028000006F108023B4938460CF01AFF29F0F2FCA9
:10281000014600231A4638460DF036F90AF5A3574B
:102820001437B21D0295059B019300962346AA40DA
:10283000314938460CF004FF29F0DCFC0146002346
:102840001A4638460DF020F90AF5A9571437321DFB
:1028500002EB42020295059B019300962346043247
:10286000264938460CF0ECFE29F0C4FC0146002352
:102870001A4638460DF008F90236AE40059B1C4456
:10288000271D0AF5AF5418340295019300963B4674
:1028900004221B4920460CF0D3FE29F0ABFC014674
:1028A00000231A4620460DF0EFF80AF5B554183407
:1028B0000295059B019300963B4606F108021149DB
:1028C00020460CF0BDFE29F095FC014600231A4677
:1028D00020460DF0D9F84FF000000DB0BDE8F08FA4
:1028E0007CDD030880DD030884DD030890DF030836
:1028F0008CDD030890DD030898DD0308ECDC030899
:102900008CDC030898DC030870B50646002510E04F
:1029100005EB4504A40104F55C643444043400214F
:1029200020460DF0A5F86FF07F4120460CF0C1FF66
:102930000135032DECD970BD2DE9F04F85B0064669
:1029400000251BE005EB450306EB83030B440A213E
:10295000995405EB4500800100F55C60304405EBBF
:10296000450406EB8414D4F8C43DDB6864210430CC
:10297000984794F8F83D002B40D10135032D4FD8EE
:1029800005EB45039B0003F58653334403F104082C
:1029900000245C609C60DC60234B03EB8503D3F870
:1029A000249005F23C4306EB8303C3F8049006F53C
:1029B000805BDBF880A7214650462AF0CBFA074619
:1029C0002146DBF880072AF0D5FA0294019000979F
:1029D0004B460C224146504601F030FB21460B2964
:1029E000B7D805EB450306EB83030B4441F2C40261
:1029F0009B5C202BA6D00131C9B2F0E705EB450066
:102A0000800100F55C6030444FF47F4104300CF0ED
:102A100050FF05F23C4306EB83035B68B363ACE70E
:102A200005B0BDE8F08F00BF3C37030870B582B039
:102A30000546FDF742FFFEF7D5F8642105F58850FD
:102A400004300BF053F9642105F58E5004300BF07F
:102A50004DF9652105F5945004300BF047F96521D7
:102A600005F595501C300BF041F92846FFF764FF3F
:102A700000242CE09C4234D204EBC400400100F559
:102A8000C470284404EBC40305EB4313D3F88C3122
:102A9000DB68642104309847661CC6EBC60005EB72
:102AA000C0004368DB6864210430984704EB4400AD
:102AB000800100F64800284404EB440405EB84142C
:102AC000D4F84C38DB68642104309847344605F567
:102AD0008053D3F88037D3F81034052BCAD9062396
:102AE000C8E7062385F8343000240AE004EBC4006C
:102AF000400100F5C470284400210430FFF7BFF9FD
:102B00000134052CF2D9642105F5975014300BF0EF
:102B1000EDF8642105F59D5014300BF0E7F805F54C
:102B2000A35414341A4920460CF07FFE6FF07F4105
:102B300020460CF0BEFE05F58053002683F8F465B0
:102B4000642120460BF0D2F8642105F5A950143019
:102B50000BF0CCF8642105F5AF5018300BF0C6F837
:102B6000642105F5B55018300BF0C0F802F063FF92
:102B7000044629F03FFB014605F5BC53043300939E
:102B80002B46044A204602F0E3FF304602B070BDF7
:102B900098DD0308B51E00082DE9F04F89B000F557
:102BA000885304338B423ED004460D4600F58E53C5
:102BB00004338B4240D000F5A95314338B4240D0EC
:102BC00000F5AF5318338B4248D000F5B553183396
:102BD0008B4253D000F5A35314338B4200F0858011
:102BE00000F58053D3F878378B4200F0D28000F59F
:102BF000975314338B4200F0DA8000F59D53143361
:102C00008B4200F0DC800027032F00F2F28007EBFC
:102C10004706B60106F55C6626440436AE4200F06F
:102C2000D6800137F0E7FDF748FEFEF7E2F84FF0F7
:102C3000000009B0BDE8F08FFDF73FFEFEF7CBF8CE
:102C4000F5E700F58054D4F8800790F8523313B1BB
:102C500001F018F9EBE701F0CAF8E8E700F5805455
:102C6000D4F8800790F87033022B03D0812101F053
:102C7000AFF8DCE7822101F0ABF8D8E700F580542B
:102C8000D4F8800790F87033052B0FD00BB1092BC7
:102C900020D1002380F8F13380F85533D0F8683321
:102CA000C0F86C33182101F093F8C0E790F8F133C5
:102CB0004F2B02D029F0DCFCB9E7002380F8F13378
:102CC00080F85533D0F86833C0F86C33182101F020
:102CD0007FF8ACE7002380F85533D0F86833C0F8AC
:102CE0006C33192101F074F8A1E700F58053D3F893
:102CF000800790F8526366B30023079304F580536E
:102D000093F8F43543BB04F58055A021D5F880072E
:102D100001F05EF8A121D5F8800701F059F807AF5E
:102D20003A467549D5F8800701F00FFE3A467349D7
:102D3000D5F8800701F009FE012385F8F435002E4F
:102D40007FF475AF04F58054D4F8800701F09AF849
:102D50006DE701F04CF8CFE704F5805507AF3A4630
:102D60006749D5F8800701F0F0FD3A466549D5F886
:102D7000800701F0EAFDA021D5F8800701F028F8CE
:102D8000A121D5F8800701F023F8002385F8F43558
:102D9000D5E71A7C002A3FF44AAF00F58054D3F8F7
:102DA0002021197BD4F8800702F0A8F83FE700F54E
:102DB0008054A021D4F8800701F00AF837E700F525
:102DC0008054A121D4F8800701F002F82FE72046B3
:102DD000FFF79AFD012130460CF04AFE4FF47F4187
:102DE00030460CF066FD07F23C4304EB83035B685E
:102DF000A363042F7FF41BAF00260BE0AF425AD031
:102E000006EB46039B0103F6480323440433AB421D
:102E10006AD00136052E3FF60AAF06EBC6077F01E2
:102E200007F5C47727440437AF42E7D106EBC60362
:102E300004EB431393F8B831002BDFD004F580572F
:102E4000D7F878975FFA86F84146D7F8800700F000
:102E500030FE0590D7F8800790F81C242A4B53F8D1
:102E600022A006EBC60304EB4313D3F8D8B14146C6
:102E70002AF052F8022303930290244B0193244B2F
:102E800000935B46524605994846FEF73BFAD7F851
:102E9000788729F0AFF9014600231A464046FEF72D
:102EA00002FAD7F87837DE6042F21071D7F8780767
:102EB000FEF736FCADE70025052D0BD805EBC50068
:102EC000400100F5C470204400210430FEF7D7FF14
:102ED0000135F1E701213846FEF7D1FF84F834606F
:102EE0002046FFF729FDA2E604F58053F1B2D3F89E
:102EF000800701F0D5FF8CE7A0DD0308A8DD0308FB
:102F0000B0DD0308B4DD0308B440030880969800E0
:102F1000806967FF2DE9F04F87B00446BF4B03601F
:102F20000246BF4B42F8043B00234360536093606A
:102F3000D36013615361C361036243628362C362FE
:102F40000363062380F834300123836300F13C03DC
:102F500000931E46052501E0013D3836002D03DBB8
:102F6000304629F08BF9F7E704F5C67301931E4646
:102F7000052502E0013D06F59076002D03DB304685
:102F800029F0DEF9F6E704F64C0302931E46052508
:102F900001E0013DC036002D03DB304629F0A2F9E7
:102FA000F7E704F6CC430493184629F09BF904F69E
:102FB0008C5029F063F904F6C45303931E4603258D
:102FC00001E0013DC036002D03DB304629F08AF9CF
:102FD000F7E704F580553022002105F1C4002EF0FA
:102FE0008DF90023C5F8F430C5F8F830C5F8FC3089
:102FF000C5F8003104F5885304330593184629F0C9
:1030000071F904F58E550435284629F06BF904F55D
:103010009450043029F032F904F595501C3029F011
:103020002DF904F597561436304629F05BF904F56E
:103030009D571437384629F055F904F5A35808F17F
:103040001408404629F04EF904F5A95909F114096C
:10305000484629F047F904F58053002283F8F42507
:1030600004F5AF5A0AF1180A504629F03BF904F565
:10307000B55B0BF1180B584629F034F9FDF71DFC30
:1030800000F5D950143004F58053C3F8780707F0E1
:1030900085FA04F58053C3F87C0700F0DBFCC3E03D
:1030A000009B002B00F0B680C5F105053823009A7F
:1030B00003FB0525009B9D4200F0AC80594B45F871
:1030C000383D28460AF042FEF4E7019B002B00F051
:1030D0009580C5F105054FF49073019A03FB052512
:1030E000019B9D4200F08A80A5F59075284629F045
:1030F000D5FAF5E7029B002B75D0C5F10505C02375
:10310000029A03FB0525029B9D426CD0C03D2846D8
:1031100029F086F9F7E7039B002B4ED0C5F1030594
:10312000C023039A03FB0525039B9D4245D0C03D68
:10313000284629F075F9F7E7584629F071F9504605
:1031400029F06EF9484629F06BF9404629F068F9F4
:10315000384629F065F9304629F062F904F58053C4
:10316000304AC3F8BC2204F595501C300AF0EEFD3D
:1031700004F580532B4AC3F8842204F5945004309C
:103180000AF0E4FD284629F04BF9059829F048F9A2
:1031900004F586550435039B9D420ED0C03D28465C
:1031A00029F03EF9F7E7CAE7CCE7CEE7D0E7D2E768
:1031B000D4E7DDE7E6E7E8E7EAE71A4BC4F88C3D39
:1031C00004F68C500AF0C2FD049829F029F904F69F
:1031D000CC45029B9D4206D0C03D284629F020F9EF
:1031E000F7E7F1E7F3E704F64C05019B9D4205D0B4
:1031F000A5F59075284629F051FAF6E704F5C6754D
:10320000009B9D4206D0074B45F8383D28460AF002
:103210009DFDF5E7014B23602BF0C2FA44EC030857
:1032200044370308A4D2030804F58053C3F8800789
:103230000022C3F88427C3F88827C3F88C2783F8B3
:103240009027C3F89427C3F89827204607B0BDE815
:10325000F08F08B50F4B1B68BFF35B8F13F0010FA6
:1032600001D00D4808BD0B482BF0EDFD0028F8D02B
:103270000948FFF74FFE094A094907482BF015FA9C
:1032800004482BF0EFFDECE702482BF0E8FD2BF0B3
:1032900087FA00BF2C2600203026002044010020A1
:1032A00095CF020810B40D4B1C21198059804FF0A6
:1032B000080C83F804C00A4A9A600A48D860D0F81B
:1032C0005C431C619982D98283F818C002F544726C
:1032D000DA6118625C625DF8044B7047CC3D0020F7
:1032E0009037030800C4030808B50321C06C07F039
:1032F0008FFB4FF0000008BD79B908B590F8313068
:1033000083F0010380F831301BB1044908F068FBF9
:1033100008BD034908F064FBFAE77047CC3D002084
:10332000E03D0020114B9B6ABFF35B8F13F0010F50
:1033300001D00F48704710B50E482BF084FD08B936
:103340000B4810BD0A482AF0DFF8084C0A4A0B491E
:1033500004F12C002BF0A9F904F128002BF082FDD8
:10336000EEE704482BF07BFD2BF01AFACC3D002051
:10337000F83D0020F43D00204401002099D40208CB
:1033800038B505460160002303714371837107F06E
:1033900005F9A8602CF058FF0D4C84FB0023A3EB2B
:1033A000E07303EB4303A0EB430301332B712CF0D9
:1033B0004BFF84FB0023A3EBE07303EB4303A0EB81
:1033C000430301336B710123AB71284638BD00BF45
:1033D000ABAAAA2A70B50646006803685B6B9847DB
:1033E000054630680368DB6A9847284400EBD070D4
:1033F0004510306803689B6B984704463068036843
:103400001B6B9847231803EBD3735B1096F90420CA
:10341000551905D41146B068D0F88800854203DB01
:10342000D2B252423271002196F905000246C31809
:1034300004D4B468D4F88C40A34203DBC0B2404249
:103440007071002230680368DC690123A04770BDF9
:1034500038B504461D460D4B08F090FA0C4B23601E
:10346000002384F8313084F831501DB101232374D6
:10347000204638BD0549204608F0B2FAF6E7054B6C
:10348000236020460AF062FC2BF08AF9CC3D002034
:10349000E03D030848C3030830B5ADF5177D054688
:1034A00089AC0123002211462046FFF7D1FFEB6CC7
:1034B000D3F88810BDF93022891AD3F88C20BDF9D1
:1034C0003232D21A02EBD27201EBD17100235210C8
:1034D000491020460AF062FC4FF4004120460AF0F1
:1034E00005FC00230293012301934FF0FF13009387
:1034F0001E23962278217FA809F073FC28217FA83B
:103500000AF0F4FB0023029301934FF47F0300932E
:103510001E237822962175A809F063FC322175A834
:103520000AF0E4FB4FF47F43019378230093602378
:1035300022222E216CA809F003FC1E216CA80AF09F
:10354000D5FBBF4B01934C2300936E2322222E21E7
:1035500063A809F0F5FB1E2163A80AF0C7FB07F07A
:103560007DFC01904FF0FF1300930A230022B54920
:1035700055A809F0F4FE462155A80AF0B7FB07F05C
:10358000ABFC0190AE4B009314230022AD4947A839
:1035900009F0E5FE502147A80AF0A8FB07F016FD48
:1035A00001904FF6FF7300931E230022A54939A80E
:1035B00009F0D5FE5A2139A80AF098FB07F08CFCD7
:1035C00002904FF0FF1301934FF47F430093322397
:1035D00000229C492BA809F03BFF64212BA80AF08C
:1035E00085FB07F0BFFB0190FF23009346230022D9
:1035F00094491DA809F0B3FE6E211DA80AF076FBC0
:1036000001230293FF2301930A23009364230022E2
:10361000114611A809F09AFA0A2111A80AF066FBCE
:10362000012302934FF6FF7301930A23009314239F
:10363000462264210DEB030009F088FA14210DEBFA
:1036400001000AF053FB0C2006F017FE04467FA988
:10365000FFF796FE7C4BDC670C2006F00EFE04465E
:1036600075A9FFF78DFE784BC3F880400C2006F05B
:1036700004FE04466CA9FFF783FE734BC3F8844035
:103680000C2006F0FAFD044663A9FFF779FE6E4BA5
:10369000C3F888400C2006F0F0FD044655A9FFF75A
:1036A0006FFE694BC3F88C400C2006F0E6FD044623
:1036B00047A9FFF765FE644BC3F890400C2006F065
:1036C000DCFD044639A9FFF75BFE5F4BC3F894406D
:1036D0000C2006F0D2FD04462BA9FFF751FE5A4BF1
:1036E000C3F898400C2006F0C8FD04461DA9FFF75A
:1036F00047FE554BC3F89C400C2006F0BEFD044627
:1037000011A9FFF73DFE504BC3F8A0400C2006F076
:10371000B4FD044605A9FFF733FE4B4BC3F8A440A4
:1037200001E0C0B290B1E86C4FF0FF3100F5C3503A
:1037300014300BF082FAF4E701340A2C08D8424B1B
:1037400003EB8403D86FFFF745FEF5E70024F4E7A9
:10375000E86C00F5C35014300BF082FAE86C00F509
:10376000C15004300BF0CBFA01200BF015FBDAE767
:103770000C2120462BF012F805A8344B03600AF008
:10378000E5FA11A8314B03600AF0E0FA1DA8304BAE
:1037900003600AF0DBFA2BA82D4B03600AF0D6FA7F
:1037A00039A82B4B03600AF0D1FA47A8284B0360D5
:1037B0000AF0CCFA55A8264B03600AF0C7FA254B4D
:1037C000639363A80AF0C2FA224B6C936CA80AF0C8
:1037D000BDFA214B759375A80AF0B8FA1E4B7F937A
:1037E0007FA80AF0B3FA1D4B89931D4B899389A8D2
:1037F0000AF0ACFA2AF0D4FF0C2120462AF0CEFFC2
:10380000BAE70C2120462AF0C9FFB5E70C21204673
:103810002AF0C4FFB0E70C2120462AF0BFFFABE737
:103820000C2120462AF0BAFFA6E70C2120462AF0F8
:10383000B5FFA1E70C2120462AF0B0FF9CE700BFAE
:1038400000FFFF00C8DD0308CC3D0020E0D10308E5
:10385000A4D2030830D10308D8D00308E03D030800
:1038600048C303080C2120462AF098FF84E70C2166
:1038700020462AF093FF7FE70C2120462AF08EFF96
:103880007AE779E77DE781E785E789E78DE791E7E3
:1038900095E799E79DE7A1E7A5E708B5FFF702FDE2
:1038A00008BD00BF10B582B0044641F2883024F054
:1038B00057FFE06C03689B68984700238DF807303A
:1038C000E06C03681B690DF107019847C0B200283E
:1038D000F6D04FF0000002B010BD70B504464FF0B6
:1038E0000705C06C03681B6A984740B3D4F82434BA
:1038F000002B48D194F850303F2B29D03F2B2ED0AD
:1039000004F150054FF4807204F5856128462DF0CE
:103910001CFDE66C284628F035FA02463368DB6960
:10392000294630469847054604F15006304628F0AF
:1039300029FA0246314646481EF05AF9F8B1EDB26E
:10394000072D6AD0242D68D04FF00005284670BDA1
:1039500094F85423002AD1D14FF00005E4E70BF08E
:1039600035FAC4F85803002384F85433E06C036834
:10397000DB69012204F1500198470546D4E7344839
:103980001EF050F9DBE7204629F0D6FA0028D6D001
:1039900094F85533002BD2D194F8F13333B1D4F8E5
:1039A0002434C4F86C334FF00005C8E704F595657E
:1039B0004FF0FF3128460AF07BFF0BF007FAC4F8FE
:1039C0006003012384F85533D4F82434C4F86C33ED
:1039D00028460AF095FF04F150064FF4807204F572
:1039E000856130462DF0B1FCE56C304628F0CAF90F
:1039F00002462B68DB693146284698470546304623
:103A000028F0C0F90246314611481EF0F1F80028AE
:103A100095D10F481EF006F991E7D4F8243453B13C
:103A2000204629F089FA30B9D4F82434C4F86C332C
:103A30004FF000058AE70023012204F224412046CA
:103A40000AF057FE054601200BF0AFF97EE700BFF4
:103A5000AC880120104B1B68BFF35B8F13F0010F84
:103A600001D00E48704710B50B482BF0ECF908B99F
:103A70000A4810BD094829F085FD074C084A094944
:103A8000201D2AF012FE20462BF0ECF9F0E7024848
:103A90002BF0E5F92AF084FE383F00203C3F00205F
:103AA000440100204DD5020808B5C1640AF05AFD52
:103AB00008BDD0F81034994200DB062101F51571DC
:103AC00000EB41000430704702290BD9D0F81034C4
:103AD000994209DA0339C9B290F81404C84000F0D9
:103AE0000100704700207047002070470A2900D964
:103AF000002101F5977100EB81004068704757295C
:103B000000D9582101F5A77150F82100704770B510
:103B10002DED028BD0F81034994204DB00242046AE
:103B2000BDEC028B70BD04460D4600F595664FF066
:103B3000FF3130460AF0BCFE94F8E033FBB105F1EA
:103B4000DC0304EB830393ED018A05F1E20304EB4C
:103B50008303D3ED017A38EE278A2946204629F0DF
:103B6000F9F907EE900AF8EEE77A67EE887AFDEE4B
:103B7000E77A17EE904A30460AF0C2FECFE705F129
:103B8000DC0304EB830393ED018A2946204629F0E8
:103B9000E1F907EE900AF8EEE77A67EE887AFDEE33
:103BA000E77A17EE904AE6E770B52DED028BD0F874
:103BB0001034994204DB00242046BDEC028B70BD1A
:103BC00004460D4600F595664FF0FF3130460AF089
:103BD0006FFE94F8E033BBB105F1DC0304EB830323
:103BE00093ED018A2946204629F0B4F907EE900AA0
:103BF000F8EEE77A67EE887AFDEEE77A17EE904AFC
:103C000030460AF07DFED7E705F1DC0304EB8303C1
:103C100093ED018A05F1E20304EB8303D3ED017A0E
:103C200038EE678A2946204629F094F907EE900A73
:103C3000F8EEE77A67EE887AFDEEE77A17EE904ABB
:103C4000DEE770B52DED028BD0F81034994204DB1D
:103C500000242046BDEC028B70BD04460D4600F5E5
:103C600095664FF0FF3130460AF022FE94F8E033BB
:103C7000FBB105F1E80304EB830393ED018A05F141
:103C8000E20304EB8303D3ED017A38EE278A294659
:103C9000204629F05FF907EE900AF8EEE77A67EE22
:103CA000887AFDEEE77A17EE904A30460AF028FE51
:103CB000CFE705F1E80304EB830393ED018A29467E
:103CC000204629F047F907EE900AF8EEE77A67EE0A
:103CD000887AFDEEE77A17EE904AE6E770B52DEDAB
:103CE000028BD0F81034994204DB00242046BDEC4E
:103CF000028B70BD04460D4600F595664FF0FF310E
:103D000030460AF0D5FD94F8E033BBB105F1E80385
:103D100004EB830393ED018A2946204629F01AF922
:103D200007EE900AF8EEE77A67EE887AFDEEE77A1A
:103D300017EE904A30460AF0E3FDD7E705F1E803B5
:103D400004EB830393ED018A05F1E20304EB8303A3
:103D5000D3ED017A38EE678A2946204629F0FAF831
:103D600007EE900AF8EEE77A67EE887AFDEEE77ADA
:103D700017EE904ADEE790F855331BB9D0F86C3354
:103D80008B4205D0D0F86C338B4204D85520704755
:103D900090F8F10370475420704710B50446FFF7C0
:103DA000EAFF38B9D4F86423D4F85C339A4204D2D9
:103DB000012002E0542801D0002010BDD4F8602377
:103DC000D4F85C339A4201D30020F6E70120F4E7EF
:103DD00000B5A3B0002301938DF808108DF80930C9
:103DE000012201A90AF085FC23B05DF804FB10B59F
:103DF000044602F0D1FB037A93B900224FF400513C
:103E00001F480CF068FE94F8EC3323F0010384F8AB
:103E1000EC33012384F85233872384F8533310BDE5
:103E200002F0BAFB037A012B0FD194F85233002B26
:103E3000E9D18B212046FFF7CBFF0AF0C7FFC4F87A
:103E40005803002384F85433DDE702F0A5FB037A1E
:103E5000022BD8D100224FF4005109480CF03BFE50
:103E600094F85233002BCED18B212046FFF7B0FFC0
:103E70000AF0ACFFC4F85803002384F85433C2E7B7
:103E80000008024010B5044602F086FB037AD3B95D
:103E900001224FF4005124480CF01DFE002384F849
:103EA000523394F852336BB984F85533D4F86823FD
:103EB000C4F86C2384F8F13394F8EC2363F3000224
:103EC00084F8EC2310BD02F067FB037A012B0ED1BE
:103ED00094F8523313B194F8E3331BB9002384F8F8
:103EE0005233DEE78B212046FFF772FFF6E702F040
:103EF00053FB037A022B02D002F04EFBD1E70122E2
:103F00004FF4005108480CF0E6FD94F8523313B119
:103F100094F8E3331BB9002384F85233C1E78B21B3
:103F20002046FFF755FFF6E70008024038B5044683
:103F300002E001200AF039FF94F85433002BF8D046
:103F4000D4F85C533F212046FFF742FF02E00120F6
:103F50000AF02BFFD4F85C33AB42F8D038BD30B553
:103F600083B00D461146069C83EAE370A0EBE37034
:103F700042F2107C64450FD0B4F57A7F1ED0642CD9
:103F80002CD00A2C3AD0002B48DB254B0090254A38
:103F900028462DF0FDF80CE0002B0DDB204B90FBAC
:103FA000F4F204FB1204019400921F4A28462DF0FB
:103FB000EFF8284603B030BD1C4BF0E7002B0BDBBD
:103FC000174B90FBF4F204FB120401940092184A80
:103FD00028462DF0DDF8ECE7144BF2E7002B0BDB65
:103FE0000F4B90FBF4F204FB120401940092114A6F
:103FF00028462DF0CDF8DCE70C4BF2E7002B0BDB6D
:10400000074B90FBF4F204FB1204019400920A4A5D
:1040100028462DF0BDF8CCE7044BF2E7034BB5E79B
:1040200090DF030814DE0308E4DD030888DD0308DD
:10403000F0DD0308FCDD030808DE03082DE9F0418C
:1040400082B00C461546089F099E9DF8288000976F
:10405000FFF785FFB8F1000F12D0012F10DD2046C9
:1040600027F090FE431E03E000208CF80000013B87
:1040700033B104EB030CE05C3028F5D02E28F3D0EC
:104080004EB1204627F07EFE0096054B054A291AC0
:1040900020442DF07DF8204602B0BDE8F08100BF3D
:1040A0001CDE030820DE0308F8B505460E463A215B
:1040B00030462DF02BF930B3002300F8013B2CF0F3
:1040C0008DF8C7B2002401E00134E4B20A2C09D80B
:1040D00004F5977305EB83035968304627F048FED3
:1040E0000028F1D10A2C00D9002495F87033A3429E
:1040F0000BD013B9012385F80E3485F8704385F889
:1041000071730120F8BD0027DCE795F87123BA42EE
:10411000EFD10020F6E710B50C4610462CF05BF806
:1041200051EC100B27F0E4FC07EE900A94ED007AB6
:10413000B4EE677AF1EE10FA14BF0120002001D02E
:10414000C4ED007A10BD10B50C4610462CF046F8B0
:1041500003462268824214BF0120002000D0236061
:1041600010BD70B506460C463D2120462DF0CEF818
:1041700030B30546002305F8013B601C2CF02EF8F7
:10418000202813DC0A281BDBA0F10A03162B17D802
:10419000DFE803F01716162716161616161616164B
:1041A000371616161616161647576700B0F5BC7F59
:1041B00006D196F8144428462CF010F8844260D1B9
:1041C00070BDD6F8184428462CF00CF88442F7D07D
:1041D00028462CF007F8C6F81804012386F80F3497
:1041E000EEE796F81C4428462BF0F8FF8442E7D00F
:1041F00028462BF0F3FF86F81C04012386F80F34C1
:10420000DEE7B6F81E4428462BF0E8FF8442D7D0FC
:1042100028462BF0E3FFA6F81E04012386F80F348E
:10422000CEE7B6F8204428462BF0DCFF8442C7D006
:1042300028462BF0D7FFA6F82004012386F80F3478
:10424000BEE7B6F8224428462BF0CCFF8442B7D014
:1042500028462BF0C7FFA6F82204012386F80F3466
:10426000AEE796F81D4428462BF0B8FF8442A7D04D
:1042700028462BF0B3FF86F81D04012386F80F347F
:104280009EE728462BF0AAFF86F81404012386F83F
:104290000F3495E72DE9F04106460C4617460025F8
:1042A000A84607E02C2120462DF030F8044678B1CE
:1042B00001340135D6F81034AB4209DD224607EB54
:1042C00085013046FFF727FF0028EBD08046E9E75D
:1042D0004046BDE8F08110B5044600F56372FFF773
:1042E000D9FF94F8E83360F3C30384F8E83394F813
:1042F000E123DBB262F3451384F8E83310BD70B5F7
:1043000004460E462C2130462DF000F805460023C9
:1043100005F8013B324604F575712046FFF713FF9F
:1043200028B194F8EA3343F0010384F8EA332C21EE
:1043300028462CF0EBFF0646002306F8013B2A46F0
:1043400004F576712046FFF7FEFE28B194F8EA33B3
:1043500043F0020384F8EA33324604F581612046D3
:10436000FFF7F1FE28B194F8EA3343F0040384F830
:10437000EA3370BD70B504460E462C2130462CF051
:10438000C5FF0546002305F8013B324604F5777169
:104390002046FFF7C0FE28B194F8E93343F002034A
:1043A00084F8E9332C2128462CF0B0FF0646F0B102
:1043B000002306F8013B2A4604F57F712046FFF7EB
:1043C000AAFE28B194F8E93343F0040384F8E933F2
:1043D00066B1324604F580612046FFF79CFE28B1A5
:1043E00094F8E93343F0040384F8E93370BD04F52D
:1043F000806300221A60DEE770B5044600F5A875F8
:10440000C549284627F0B4FC20B394F850313C2B22
:104410002AD05B2B00F0B781242B00F00882062203
:10442000BE4928462CF07FFF002800F005820622B6
:10443000BB4928462CF077FFA8B904F5AB702BF0E8
:10444000CDFE84F8F00394F8E93343F0080384F8D0
:10445000E93308E00AF0BAFCC4F86403002384F8E6
:10446000553384F8F13370BD012384F854330AF0D6
:10447000ADFCC4F85C03AB4904F251102CF078FF9A
:104480000546F8B101462046FFF70EFE28B194F824
:10449000E83343F0020384F8E83394F8F03363B16F
:1044A00094F87033052B08D0002284F8F02394F898
:1044B000E93362F3C30384F8E9339A4900202CF00E
:1044C00057FF0546002610E004F55D72691D204681
:1044D000FFF7E0FE94F8E83360F3820384F8E833F2
:1044E000904900202CF044FF0546002D00F0338158
:1044F00005228D4928462CF016FF68B994F8E03360
:10450000002BE1D1012384F8E03394F8E83343F041
:10451000080384F8E833D7E70522844928462CF0BD
:1045200002FFC0B994F8E03343B1002384F8E033CC
:1045300094F8E83343F0080384F8E83304F55D7237
:10454000691D2046FFF7A6FE94F8E83360F3820366
:1045500084F8E833C4E70322754928462CF0E3FECB
:1045600008B30422734928462CF0DDFE00B3032271
:10457000714928462CF0D7FE002841D002226F490D
:1045800028462CF0D0FE002844D1AB78312B14BF44
:104590000023012384F8E43394F8E93343F0200343
:1045A00084F8E9339CE7E91C2046FFF7E3FE97E730
:1045B000291D2046FFF78FFE92E701260133092BC4
:1045C00021D8E21892F8F203DA1CA918AA5C9042EA
:1045D00005D094F8E92342F0400284F8E923E21878
:1045E000002082F8F2030A786AB13E2A0BD0E11863
:1045F00081F8F223502AE0D0702ADFD10126DDE7CE
:1046000000231E46DBE7002384F8FB3384F8E563D0
:10461000012665E702224A4928462CF084FE48B369
:104620000322484928462CF07EFE002800F08E80A8
:104630000422454928462CF076FE00287FF450AF2E
:1046400094F8E3232B79312B14BF002301239A42E2
:1046500009D082F0010284F8E32394F8E83343F0B0
:10466000010384F8E83394F8EC3343F0010384F851
:10467000EC3335E70235002384F80D3484F80C342C
:1046800084F8043494F8E83343F0400384F8E833C2
:1046900015F8013B002B3FF423AF433B102BF7D819
:1046A00001A252F823F000BF0B4700089146000812
:1046B00091460008F546000891460008914600081A
:1046C000914600089146000891460008914600086E
:1046D000ED46000891460008914600089146000802
:1046E0009146000891460008FD460008012384F821
:1046F0000D34CDE7012384F80C34C9E7002384F896
:104700000534012384F80434C2E7012384F8053416
:1047100084F80434BCE700BF28DE03087CDE03080D
:1047200084DE03082CDE030830DE030838DE0308CD
:1047300040DE030844DE03084CDE030850DE0308B5
:1047400054DE030858DE03085CDE0308E91C20463B
:10475000FFF7D5FDC4E67EB994F8F233002B14BF01
:104760000122002294F8E93362F3861384F8E933D6
:1047700002D0002384F8F233002E7FF474AE0023BD
:1047800084F8E5336FE604F25115042232492846D5
:104790002CF0C9FD10B30422304928462CF0C3FD8B
:1047A00050B304222E4928462CF0BDFD05460028B2
:1047B0007FF459AE04F25516324604F58261204664
:1047C000FFF7C1FCD4F81034052B02DD0523C4F833
:1047D00010343A2130462CF099FD23E004F569723B
:1047E00004F255112046FFF755FD94F8EA3360F3C3
:1047F000C30384F8EA33D4E704F56F7204F2551169
:104800002046FFF747FD94F8EA3360F3041384F879
:10481000EA33C6E743195A7805F5157304EB4303E9
:104820001A710135D4F81034AB42F3DC1BE629468B
:104830002046FFF796FC16E604F5AB702BF0CEFC95
:1048400084F8F10394F8E93343F0100384F8E93372
:10485000002384F8553306E664DE03086CDE0308A3
:1048600074DE030870B582B0044600258DF8075049
:1048700004E00023A4F850331F2D32D9E06C036804
:104880001B690DF107019847C0B298BB9DF807302E
:10489000182BEED0B4F85023B2F5FE7FE9D80A2BDE
:1048A00008D00D2B06D0511CA4F85013224482F8D6
:1048B0005031E1E71AB90023A4F85033DCE7224471
:1048C000002382F8503104F595664FF0FF313046F1
:1048D00009F0EEFF2046FFF78FFD30460AF010F892
:1048E000E9E76A1C0A4B2B449DF8071083F8A016D1
:1048F00095B2C3E70DB902B070BD2A460549064816
:104900001DF076F90028F6D103481DF08BF9F2E787
:10491000383F0020D8450020AC88012070B50446FF
:1049200000F595664FF0FF31304609F0C1FFD4F82D
:1049300068536B1CC4F8683313B9AB1CC4F86833F4
:10494000304609F0DDFF284670BD2DE9F041A2B0E8
:1049500006460D4690464FF00D0728F0EDFA10B1CF
:1049600096F870331BB9384622B0BDE8F081304666
:10497000FFF7D4FF019000237F2B0BD8EC5C03F1F1
:1049800088020DEB020101F8804C0CB10133F3E712
:104990004FF00007FBB2002BE5D11A4601A93046C3
:1049A00009F0A7FE0746019BC8F80030DBE710B509
:1049B0000446FFF757FF0AF009FAD4F85C33C01A2F
:1049C000B0F5967F05D9002384F87033012384F86D
:1049D0005433204628F0B0FA10B194F8703363B91C
:1049E00094F855334BB1002384F85533D4F8683329
:1049F000C4F86C33562384F8F13301F0CDFD037A0B
:104A0000012B13D194F85233B3B9204628F094FA0D
:104A100010B194F80E349BBB204628F08DFA10B1EB
:104A200094F85433B3BB4FF0000010BD01F0B4FD57
:104A3000037A022BE9D1E5E7204628F07DFA002829
:104A4000E3D194F8EC3313F0010F07D10AF0BEF96B
:104A5000D4F85833C01AB0F5967FD6D98B212046AA
:104A6000FFF7B6F90AF0B2F9C4F85803002284F847
:104A7000542394F8EC3362F3000384F8EC33C4E776
:104A8000204628F003FE204628F00EFE002384F87E
:104A90000E34C1E70AF09AF9D4F85833C01A6428E2
:104AA000C1D9E06C03681B6A98470028BBD00AF0A4
:104AB0008DF9C4F85803002384F85433E06C03687C
:104AC000DB69012204F2533198473F2384F85333C2
:104AD0000122054905481DF08BF80028A3D10348A1
:104AE0001DF0A0F89FE700BF8CDE0308AC88012012
:104AF0002DE9F041AEB004460D469DF8D0804FF050
:104B00000300D4F810148D4202DB2EB0BDE8F08112
:104B100017461E46204628F00FFA28B194F8703345
:104B2000012B04D0032B02D04FF00D00EDE72046FF
:104B3000FFF7F4FE0D902946204628F00BFA00906E
:104B40003B46102205A92046FFF709FA642300938B
:104B50003346102209A92046FFF701FA94F81C34C5
:104B6000DBB9104BB8F1000F19D00F4A05F51575D8
:104B700004EB4505043509A9039105A902910195A6
:104B800000920A4A80210EA82CF002FB00231A464C
:104B90000DA9204609F0ADFDB7E7054BE2E7054A50
:104BA000E4E700BF90DE030898DE0308A0DE0308F8
:104BB00094DE03089CDE0308F0B5ABB004460D4656
:104BC0004FF00300D4F810148D4201DB2BB0F0BD80
:104BD00017461E46204628F0AFF928B194F87033E6
:104BE000012B04D0032B02D04FF00D00EEE720463E
:104BF000FFF794FE09902946204628F0ABF9009073
:104C00003B46102205A92046FFF7A9F994F81C3469
:104C1000ABB90C4B05F5157504EB4505043502964B
:104C200005AA01920095084A80210AA82CF0B0FA42
:104C300000231A4609A9204609F05BFDC6E7034B8D
:104C4000E8E700BF90DE0308B0DE030894DE030847
:104C50002DE9F043BBB004460F4616461D469DF8AD
:104C60000C9128F069F928B194F87033012B06D023
:104C7000032B04D04FF00D003BB0BDE8F08320467D
:104C8000FFF74CFE199094F81C34DFF8C48008EB51
:104C90008303D3F8183200933B46102209A920461B
:104CA000FFF75DF994F81C3408EB8303D3F818324E
:104CB0000093334610220DA92046FFF750F994F8CF
:104CC0001C3408EB8308D8F8183200932B461022C6
:104CD00011A92046FFF743F964230093429B102259
:104CE00015A92046FFF73BF994F81C3413BB134B6E
:104CF000B9F1000F20D0124A04F2AC4104F2AE40E8
:104D000004F5966515AE079611AE069605950DADA0
:104D10000495039009A8029001910092094A80210C
:104D20001AA82CF035FA00231A4619A9204609F0D2
:104D3000E0FCA1E7044BDBE7044ADDE790DE030873
:104D400098DE0308C8DE030894DE03089CDE03082F
:104D5000683E03082DE9F047BAB004460D461646F2
:104D60001F469DF80C819DF81091444BD3F8C03636
:104D70008B4215D0414BC3F8C056C3F8C4662046D9
:104D800028F0DAF838B194F87033012B13D0032BE4
:104D900011D0022B0FD04FF00D003AB0BDE8F087D4
:104DA000364BD3F8C4369342E4D1344BC3F8C01623
:104DB000C3F8C426DEE72046FFF7B0FD199094F84B
:104DC0001C34DFF8D8A00AEB8303D3F81832009321
:104DD0002B46102209A92046FFF7C1F894F81C348D
:104DE0000AEB8303D3F818320093334610220DA93F
:104DF0002046FFF7B4F894F81C340AEB830ADAF87B
:104E0000183200933B46102211A92046FFF7A7F85D
:104E100064230093429B102215A92046FFF79FF8B8
:104E200094F81C3423BB164BB9F1000F22D0154A5D
:104E3000B8F1000F20D0144904F2AC4004F2AE45A2
:104E400015AE079611AE06960DAE0596049509AD02
:104E500003950290019100920C4A80211AA82CF02F
:104E600097F900231A4619A9204609F042FC94E755
:104E7000074BD9E7074ADBE70749DDE7383F002062
:104E800090DE030898DE0308E0DE0308E8DE03088E
:104E900094DE03089CDE0308E4DE0308683E030892
:104EA00030B5A3B004464FF00300D4F81034994253
:104EB00001DB23B030BD0D46204628F03DF818B187
:104EC00094F87033012B02D04FF00D00F1E720462B
:104ED000FFF724FD019005F5157304EB430304333C
:104EE000054A802102A82CF053F900231A4601A993
:104EF000204609F0FEFBDCE704DF030870B5A8B02C
:104F000004460D464FF00300D4F810148D4201DB27
:104F100028B070BD1646204628F00EF818B194F857
:104F20007033012B02D04FF00D00F1E72046FFF760
:104F3000F5FC07902946204628F00CF800903346EF
:104F4000102203A92046FFF70AF894F81C34A3B9ED
:104F50000B4B05F5157204EB4202043203A90191D3
:104F60000092084A802108A82CF012F900231A4662
:104F700007A9204609F0BDFBCAE7034BE9E700BFDC
:104F800090DE030814DF030894DE03082DE9F041E6
:104F9000AEB004460D469DF8D4804FF00300D4F81F
:104FA00010148D4202DB2EB0BDE8F08117461E467C
:104FB000204627F0C1FF18B194F87033012B02D0BE
:104FC0004FF00D00EFE72046FFF7A8FC0D902946B3
:104FD000204627F0BFFF00903B46102205A920463F
:104FE000FEF7BDFF642300933346102209A9204633
:104FF000FEF7B5FFBEB9B8F1000F3AD01F4B94F8D9
:105000001C24002A37D11E4905F5157204EB420213
:10501000043205A80290019200911A4A80210EA83C
:105020002CF0B6F817E0B8F1000F1ED0134B94F82F
:105030001C24E2B9124905F5157204EB4202043250
:1050400009A8039005A80290019200910E4A8021C0
:105050000EA82CF09DF800231A460DA9204609F051
:1050600048FB0D9A349B1A609DE7084BDFE708491F
:10507000E1E7064BC3E70649C6E700BF98DE030831
:1050800090DE030838DF030828DF03089CDE0308EE
:1050900094DE03082DE9F041AAB004460D469DF8C0
:1050A000C4804FF00300D4F810148D4202DB2AB004
:1050B000BDE8F08117461E46204627F03DFF18B197
:1050C00094F87033012B02D04FF00D00EFE720462B
:1050D000FFF724FC09902946204627F03BFF00906B
:1050E0003B46102205A92046FEF739FFB8F1000F14
:1050F00013D194F81C34002B2DD1184B05F51572E3
:1051000004EB42020432029605A901910092144A6E
:1051100080210AA82CF03CF811E094F81C34C3B9A3
:105120000E4B05F5157204EB42020432029605A9F6
:10513000019100920B4A80210AA82CF029F8002343
:105140001A4609A9204609F0D4FA099A309B1A6038
:10515000ADE7054BE5E7044BD0E700BF90DE030861
:1051600058DF030844DF030894DE0308F0B5ABB052
:1051700004460D464FF00300D4F810148D4201DBB5
:105180002BB0F0BD17461E46204627F0D5FE18B1BD
:1051900094F87033012B02D04FF00D00F0E7204659
:1051A000FFF7BCFB09902946204627F0D3FE00906C
:1051B0003B46102205A92046FEF7D1FE94F81C3488
:1051C000C3B90D4B05F5157204EB42020432029689
:1051D00005A901910092094A80210AA82BF0D8FF65
:1051E00000231A4609A9204609F083FA099A309B40
:1051F0001A60C5E7024BE5E790DE03086CDF0308A1
:1052000094DE030830B5A9B004460D4627F094FE9D
:1052100018B194F87033012B03D04FF00D0029B072
:1052200030BD2046FFF77AFB079094F81C24104B02
:1052300003EB8203D3F8183200932B46102203A904
:105240002046FEF78CFE94F81C3473B9094B03AA70
:105250000092094A802108A82BF09AFF00231A46E1
:1052600007A9204609F045FAD9E7044BEFE700BF4C
:10527000683E030890DE030880DF030894DE03081D
:1052800010B5A2B0044627F057FE18B194F8703359
:10529000012B03D04FF00D0022B010BD2046FFF7C8
:1052A0003DFB0190064B93E8030002908DF80C1033
:1052B00000231A4601A9204609F01BFAECE700BFBB
:1052C0008CDF030870B5A4B006460C46154627F0DF
:1052D00033FE18B196F87033012B03D04FF00D0058
:1052E00024B070BD3046FFF719FB03906DB1084B39
:1052F0000094084A802104A82BF04AFF00231A4694
:1053000003A9304609F0F5F9EAE7034BF0E700BFDF
:1053100094DF03089CDF030898DF030870B5044698
:105320000D4627F009FE28B14FF0030694F87033BC
:10533000012B03D04FF00D06304670BD94F80434B5
:1053400013B984F80554F7E7D4EDFF7AFCEEE77A59
:105350002A4617EE903A99B22046FFF7B3FF064669
:10536000EAE710B5A2B0044627F0E6FD18B194F8BC
:105370007033012B03D04FF00D0022B010BD20463A
:10538000FFF7CCFA0190044B029300231A4601A9BF
:10539000204609F0AEF9F0E74D350D007047704733
:1053A000F8B505460E4608F0A1FC0746314605F65D
:1053B000941008F09BFC741C214605F6B81008F008
:1053C00095FC214605F6782008F090FC00241CE0AE
:1053D000342304FB03F303F1300028442B445B6BBC
:1053E000DB68314604309847C4EBC400C00000F5C8
:1053F000E8702844C4EBC40305EBC303D3F8D431ED
:10540000DB6831460430984701342B6BA3421DD929
:10541000EB6AA342DCD0342304FB03F303F1300036
:1054200028442B445B6B1B6904309847C4EBC400D1
:10543000C00000F5E8702844C4EBC40305EBC303C7
:10544000D3F8D4311B6904309847DDE73846F8BDFE
:1054500070B5054608F059FC064605F6941008F0AC
:1054600054FC05F6B81008F050FC05F6782008F05A
:105470004CFCEB6A342202FB03F303F130002844B6
:105480002B445B6B1B6904309847EB6AC3EBC3008A
:10549000C00000F5E8702844C3EBC30305EBC30369
:1054A000D3F8D4311B690430984705F6383008F03A
:1054B0002CFC00240FE004EB4400800100F5647034
:1054C000284404EB440305EB8313D3F894331B699E
:1054D0000430984701342B6BA342ECD8304670BDA2
:1054E000012900D0704738B50446B0F90430B0F94E
:1054F0000E100B44934204DAB0F908305B1A934261
:1055000000DC38BD00F63835284608F0C1FB48B14C
:1055100023681B69204698472368DB68618A204618
:105520009847EEE7618A284608F0E0FB002511E085
:1055300005EB4500800100F564702044618A05EBAD
:10554000450304EB8313D3F89433DB680131043053
:1055500098470135236BAB42EAD8D2E7F8B503464A
:105560004FF002004BB30E461C46DF6A03F6B81339
:105570008B4205D004F678238B421FD000252AE009
:105580000FB17B1EE36204F6383008F081FB18B1DE
:1055900023681B69204698472368DB68618A204698
:1055A0009847E36ABB4206D0206A20B12346A26A2C
:1055B000616A09F06BF84FF00000F8BD236B013B06
:1055C000BB42E0D97B1CE362DDE7E56223681B692F
:1055D000204698470135236BAB42D4D905EB4503F0
:1055E0009B0103F5647323440433B342F2D1ECE727
:1055F00003464FF002003BB370B582B01C460B88E7
:10560000ADF804309DF80430022B05D0042B18D0DF
:105610004FF0000002B070BD04F6B81504F6683013
:1056200008F036FB0028F3D19DF805603146284686
:105630000AF01EFA002EEBD129462046FFF78EFF16
:10564000E6E704F67825E9E77047072900D97047AF
:105650002DE9F04F85B005460C464FF0340808FBA5
:1056600001F808F1300707443B1D1E461146184655
:1056700006F0B6F9A844D8F83430DA690292B5F9E0
:105680000EB0B5F90C20A2EB4B010F46DB6B019677
:10569000304698478146E3000393C4EBC406F60006
:1056A00006F5E8762E440436C4EBC40A05EBCA0AB4
:1056B000DAF8D431DB6B304698478144304627F026
:1056C00019FC8144A7EB09000BEB500BB5F90E90C8
:1056D000D8F834301B6C019F38469847A9EB000975
:1056E00009EBD97900234FEA69025946BB4638468F
:1056F000029FB847DAF8D431D3F81C90D8F8343088
:105700005B6B584698470746304627F0F3FB074443
:10571000039B1B1B05EBC305D5F8D4311B6B30462F
:1057200098470246002339463046C84705B0BDE8D1
:10573000F08F072970D82DE9F04F87B005460C4649
:105740001646002A65D04FEAC10AC1EBC1084FEAEC
:10575000C80808F5E878804408F104080593019327
:105760006FF07F43009300231A463146404607F00E
:10577000A6FDAAEB040A05EBCA0ADAF8D431DA6905
:105780001746B5F90EB0B5F90C90A9EB4B09DB6BD8
:1057900040469847A9EB000909EBD9790BEB690B57
:1057A000B5F90E90DAF8D4311B6C40469847A9EB56
:1057B000000909EBD97900234FEA690259464046AE
:1057C000B84704EB44084FEA881808F56478A84401
:1057D00008F10408B5F90E2004FB0223B5F90C10FA
:1057E000A1EB4201A2F10800012402940190009172
:1057F00004333146404609F023FF059940460AF03C
:105800006AF826F0F7FC01462B46044A40460AF0A7
:105810003BF907B0BDE8F08F704700BF5D55000849
:105820007047C36A8B420FD010B50446036B8B429E
:1058300009D9C16203685B69984720B12368DB68B6
:10584000618A2046984710BD70472DE9F04F87B018
:1058500004460E4690461D46DDF84090119F0368B1
:105860009B6C012198470596BDF91410A180A4F8FE
:1058700006806B1E1BB2238109F1FF3212B26281D6
:10588000A581A4F80E906FF07F400190009204F67D
:10589000941007F01FFA04F6B81AB4F90E305A1E25
:1058A0000126029601920093B4F90630B4F904205F
:1058B0003749504609F0C4FE05F092FA01465046B9
:1058C0000AF009F826F096FC0146DFF8D4B023462A
:1058D0005A4650460AF0D8F804F6782AB4F9081067
:1058E000B4F90E20531E029601930092B4F90630CB
:1058F0008A1A2849504609F0A3FE05F071FA0146BC
:10590000504609F0E8FF26F075FC014623465A464A
:1059100050460AF0B9F800F08EF8824626F06AFC8C
:10592000014604F6883301931423009323461A4A50
:10593000504600F0D5F8B4F90A20D4F8A03BD3F8CB
:105940008C30B4F90E100296144801905B1A009343
:10595000B4F90C303244B4F9041004F6383007F0CE
:10596000BEF8CDF800902B464246059904F6683003
:1059700007F06DF984F8786B082F00D908272763A2
:1059800000212046FFF74DFF07B0BDE8F08F00BFB4
:105990007CDD030880DD0308F1550008404040002D
:1059A0005D5500080162426283627047F0B583B0C2
:1059B0000546B0F9466B036BB6FBF3F6002417E01F
:1059C000B5F90E10B5F93E2B04FB0622B5F90C30E3
:1059D00004EB4400800100F564702844A6F1080738
:1059E0000097A3EB41030432043009F0C9FE0134EF
:1059F0002B6BA342E4D803B0F0BD00BF034BD3F838
:105A00001C23034B1A615A62704700BF00CC030885
:105A10000000002008B5FFF7F1FF08BD10B50446EF
:105A2000C06C10B1216D16F0AFFE09F096F9E0657B
:105A30004FF0000010BD114B1B68BFF35B8F13F0DC
:105A4000010F01D00E48704710B50C4829F0FBF942
:105A500008B90B4810BD0A4827F04CFE074C094A0C
:105A60000949201D28F021FE204629F0FBF9F0E726
:105A7000024829F0F4F928F093FE00BF0046002008
:105A80000446002044010020C5D6020808B5C164C0
:105A9000026508F067FD08BD10B50C4689882068CE
:105AA0000BF012F8A379834214BF00200120237A5F
:105AB000834213D0637A834205D0834209D0607257
:105AC0000020E07110BDE279082AF6D12072012091
:105AD000F8E7E3790133E3710020F3E70020F1E711
