:020000040800F2
:100000000000022021130308B5CF0208B7CF020871
:10001000B9CF0208BBCF0208BDCF02080000000024
:100020000000000000000000000000009D92020897
:10003000BFCF02080000000059930208C1CF020898
:100040007113030871130308711303087113030874
:100050007113030871130308711303087113030864
:100060007113030871130308711303087113030854
:100070007113030871130308711303087113030844
:1000800071130308711303087113030800000000C3
:1000900000000000000000000000000071130308D1
:1000A0007113030871130308711303087113030814
:1000B0007113030871130308711303087113030804
:1000C00071130308711303087113030871130308F4
:1000D00071130308D7CF0208711303080000000052
:1000E0007113030871130308711303080000000063
:1000F0000000000000000000000000007113030871
:1001000000000000E5CF0208711303087113030813
:1001100000000000000000000000000000000000DF
:100120007113030871130308F5CF020805D0020804
:100130007113030800000000000000000000000030
:1001400000000000000000000000000015D00208C0
:1001500025D002087113030835D002087113030873
:100160007113030871130308000000000000000071
:10017000000000000000000000000000000000007F
:1001800000000000711303080000000000000000E0
:08019000711303087113030849
:1001A0002DE9F84F914CDFF89892C4F800904FF089
:1001B000010A84F804A000256571DFF88882C4F87C
:1001C0000080DFF884B2C4F808B01023E360884EE2
:1001D000884F32463946204631F0CBF8C4F81090AB
:1001E00084F814A06575C4F81080834BA361C4F82B
:1001F0001CA03246394604F1100031F0BAF8C4F8B8
:10020000209084F824A084F82550C4F82080C4F8F5
:1002100028B00823E3623246394604F1200031F069
:10022000A8F8C4F8309084F8345084F83550C4F8F5
:100230003080714BA3634FF48063E36332463946E9
:1002400004F1300031F095F8C4F8409084F844503F
:1002500084F84550C4F84080674BA3640223E364EC
:100260003246394604F1400031F083F8C4F850902A
:1002700084F8545084F85550C4F85080C4F858B0ED
:10028000C4F85CA03246394604F1500031F071F8F0
:10029000C4F8609084F864A084F86550C4F8608065
:1002A000C4F868B04FF48073E3663246394604F10F
:1002B000600031F05EF8514B23676423A4F874307A
:1002C000A4F876304E4B23674E4BA36704F1700BB6
:1002D00032464D49584631F04CF804F17C074B4901
:1002E00038462EF05BFC32464949384631F041F839
:1002F000484BC4F88C30484BC4F88C30474BC4F89A
:100300001031A4F814513246454904F18C0031F003
:1003100030F8444BC4F818310323C4F81C314FF4AF
:10032000F078C4F820814FF4A079C4F82491C4F87F
:100330002881C4F82C9184F830513B4BC4F8183113
:10034000C4F834B1C4F8384104F11003C4F83C31A6
:100350001033C4F840313246344904F58C7031F022
:1003600008F8334BC4F8443184F8485184F84951B3
:10037000A4F84A51A4F84C512E4BC4F84431C4F8A7
:10038000507184F85451C4F85651C4F85A51C4F805
:100390005E5184F848A1A4F84A91A4F84C814FF02A
:1003A000030384F849313246234904F5A27030F042
:1003B000E0FF4FF40043C4F864314023C4F86831CF
:1003C00084F86C51C4F87051C4F87471C4F8785151
:1003D00042200CF08AFCC4F870013246174904F53B
:1003E000B27030F0C6FFBDE8F88F00BF18030020E0
:1003F00044010020F9EA020800040240B00B04089E
:100400002405040888A5012001EA02084CA4012063
:100410005DEB0208480C04088C0504081CA70120A9
:100420000DEB0208940C04085CF2030821EB0208AF
:10043000E40C0408208C030835EB020849EB0208A1
:10044000740C0408800404080000024070B5144CC9
:10045000236800255D62294620461EF045FA29469C
:1004600020461CF01FFC0E4B1B681B6913F0020F8B
:10047000F9D000210A481CF015FC0446084B1B6803
:100480001B6913F0020FF9D0054E002130461CF015
:1004900009FC0546002130461EF0ACFA281B70BD51
:1004A0008CA60120174B1B6813F4003FFAD0154AA5
:1004B000936823F0030343F001039360124B00227F
:1004C0001A66104B1B6813F0007FFAD10D4A53686F
:1004D00023F4800318435060536823F03F0319430B
:1004E0005160094B01221A66064B1B6813F0007F0E
:1004F000FAD0044A936823F0030343F002039360A5
:10050000704700BF003802400000474200B587B086
:1005100010210020FFF7C6FFFFF798FF144B1B6860
:1005200003EB4303134AA2FB0323B0EBD34F07D8DB
:1005300019214FF48000FFF7B5FF07B05DF804FB09
:100540006846002300930193029303930493059359
:1005500002230093084B049318F0E8FB28B9074BDB
:100560000122C3F83C2E0821E3E72CF0D5F9F6E789
:10057000DC00002083DE1B4300030800000047422C
:1005800010B510210020FFF78DFF002423460CE05A
:1005900081421ED91E2B1CD801330F490A6822F054
:1005A000F80242EAC3020A6001341E2C11D8FFF798
:1005B0004DFF094B1B68C3F3C403084A126808497E
:1005C000A1FB0212910CB0EB924FE1D90BB1013BB0
:1005D000E3E7184610BD00BF00380240DC000020F1
:1005E00083DE1B4310B582B0FFF7CAFF044618F044
:1005F00017FD11F0C5FF114A136823F0F80343EA11
:10060000C40313604FF0E02300221A615A619A611B
:100610000B4B0193019B596862B60A4B1A6822F092
:1006200003021A601A6842F001021A60019B1B68FB
:1006300083F30888884702B010BD00BF003802402D
:100640000000FF1F0038014038B5FFF75FFF254C61
:10065000236D1B6904F15000984794F85530003B16
:1006600018BF0123984234D008F080FD1D4C04F5DA
:10067000B27108F09BFD0CF0C5FC04F5A27204F504
:100680008C710CF045FB11F00AFB03681D6A04F144
:10069000600300221449A84705F0E5FE0022134933
:1006A00005F00CFF236B1B6904F13000984794F8A8
:1006B0003530003B18BF012398420DD003F0E2FE15
:1006C0000B4903F009FF00F0F8F803681B6898472E
:1006D00038BDFFF787FFC7E70BF06CFC03681B68AA
:1006E0009847F5E718030020D4A6012044A601206E
:1006F000A403002000BEFEE7704708B5FFF750FDD9
:1007000008BD00BF00F5005090F86C3113B94FF0F0
:10071000000070474FF00400704770B5064600F5C2
:100720000054D4F8640190F8701303F0F7FE01460A
:10073000002206F628500FF07DFCD4F8640190F8F2
:10074000F11303F0F4FE0146002206F556600FF0A7
:1007500071FCD4F8641191F8E923134623F04003A7
:1007600081F8E933C2F3801201F2F23106F69850B3
:100770000FF060FC002511E005EBC504640104F5F1
:100780005D64344406F50053E9B2D3F8640103F024
:1007900023FF0146204601F09EF90135052DEBD9D6
:1007A00006F50053D3F8643193F852336BB306F671
:1007B00038440121204611F08FFE06F50053D3F88E
:1007C000643193F8E333F3B14FF47F41204611F0E5
:1007D000A4FD06F50055D5F86431002483F80F44D4
:1007E000D6F89030123306EB8306706803685B69B5
:1007F00014219847D5F85C0100F5C150043010F081
:10080000B2FF204670BDFF21E0E706F63844002124
:10081000204611F061FE06F50053D3F8643193F8D9
:10082000E33323B1FF21204611F077FDD1E76FF0CC
:100830007F41F8E703464FF00200002B3CD0F0B5B3
:1008400083B01E460B88ADF804309DF80450E5B91E
:1008500006F5B154183423685B6920469847B0B157
:1008600023685B6C2046984788B19DF8057039462F
:10087000204611F031FE57B923685B6C204698473B
:1008800028B1204611F038FE01E0012D05D0062DDB
:1008900007D04FF0000003B0F0BD06F5BD5418348A
:1008A000D9E79DF80530002BF3D033689B6906F635
:1008B000384130469847ECE7704708B50F4B1B6846
:1008C000BFF35B8F13F0010F01D00D4808BD0B483B
:1008D00031F01DF90028F8D009482EF01FFF094A11
:1008E0000949074830F045FD044831F01FF9ECE7AD
:1008F000024831F018F930F0B7FD00BF9404002031
:10090000980400204401002025F602082DE9F0415A
:1009100084B004460F46002960D000F50053D3F898
:100920005C31D3F88830083B424D85FB0325A5EBAD
:10093000E37504F5B156183604F50053D3F85C316D
:10094000D3F88C800DF03AF80368DB68984700EB29
:100950004000A8EB00080DF031F80368DB68984709
:1009600000EB4000012302930190009543460022D2
:100970003149304611F098FB2EF0ACF901460023C6
:100980001A46304611F0B4FD304611F071FD87BBB8
:1009900004F5BD56183604F50053D3F85C31D3F88E
:1009A000882004F58054B4F9463601210291019360
:1009B0000095B4F93E36521B1F49304611F074FBC6
:1009C0002EF088F9014600231A46304611F090FDBA
:1009D000304611F04DFD04B0BDE8F08100F5005344
:1009E000D3F85C31D3F8885005EBD5756D10043D14
:1009F0009FE704F5B756183604F58053B3F940263F
:100A0000B3F946160120029001910095B3F93E36E4
:100A100005320949304611F047FB2EF05BF90146DB
:100A200000231A46304611F063FD304611F020FDD8
:100A3000AEE700BF56555555100F040808B500F530
:100A40000053D3F8643193F87033022B06D0074972
:100A500000F5B150183011F01CFC08BD044900F538
:100A6000B150183011F015FCF7E700BF1C0D040859
:100A7000140D040808B500F50053D3F8643193F859
:100A80007033012B00D033B929B100F5B1501830C3
:100A900011F0FFFB01E0FFF7D1FF08BD08B500F53D
:100AA0000053D3F8642192F87033052B09D00BB1B1
:100AB000092B18D10F4900F5BD50183011F0E9FB92
:100AC00008BD92F8F1334F2B06D00B4900F5BD500D
:100AD000183011F0DEFBF3E7064900F5BD50183081
:100AE00011F0D7FBECE7054900F5BD50183011F0C7
:100AF000D0FBE5E7D81A0408200D0408280D0408E7
:100B000008B500F50053D3F8643193F87033012B26
:100B100006D129B100F5BD50183011F0BAFB01E043
:100B2000FFF7BCFF08BD38B5054600240F2C21D8BF
:100B300004F1120305EB83035B688B4201D001349F
:100B4000F4E7D5F89030123305EB83035868036857
:100B50001B699847C5F89040214605F1940005F0BF
:100B600078FBD5F89030123305EB8305686803688D
:100B7000DB68984738BD70B58AB0044603A828F0F2
:100B800020FE04F5B0551835049B154A202128464F
:100B900033F096FA04F5AF560122294630460FF09D
:100BA00049FA04F50053D3F85C31D3F8882002EBFE
:100BB000D27204F58054B4F9EC3503EBD3735C10B6
:100BC000C4EB62040CF0BCFE01906FF07F43009315
:100BD0001E232246294630460FF0A5F80AB070BD04
:100BE000300D040838B504460D46D0F89030123365
:100BF00000EB8303586803681B699847C4F890505A
:100C0000294604F1940005F024FBD4F89030123307
:100C100004EB830460680368DB68984738BD70B5EF
:100C200004460D464FF0000600F638438B4214D0C0
:100C300004F19403AB4221D0D4F89030123304EB8A
:100C40008303586803689B69294698470646F6B2AD
:100C5000092E19D04FF0000070BD90F8483C002BD1
:100C6000E6D000F50053D3F8640190F8523313B97D
:100C700003F0D5FDEBE703F01DFEE8E794F8C010A4
:100C80002046FFF7AFFFE2E704F5B1531833AB425C
:100C90001CD004F5BD531833AB42DBD104F500542E
:100CA000D4F8640190F87033052B1FD00BB1092BD9
:100CB00030D1002380F8F13380F85533D0F8683311
:100CC000C0F86C33182103F09BFDC3E704F5005412
:100CD000D4F8640190F87033022B03D0812103F023
:100CE0008FFDB7E7822103F08BFDB3E790F8F13376
:100CF0004F2B02D02EF02CFAACE7002380F8F13312
:100D000080F85533D0F86833C0F86C33182103F0FD
:100D100077FD9FE7002380F85533D0F86833C0F89B
:100D20006C33192103F06CFD94E72DE9F04383B097
:100D3000044600F19405284605F0A2F804F5005891
:100D4000D8F85C31D3F88830082201922827009720
:100D500000221146284605F090FA0026C4F88C605F
:100D60000CF072FD03463E4A3146284605F0F9F97B
:100D700002F030F9D4F88C3003F10109C4F88C90FA
:100D8000123304EB830358600CF05EFD0346354AD2
:100D90004946284605F0E5F908F0FCFED4F88C3009
:100DA00003F10109C4F88C90123304EB83035860FB
:100DB0000CF04AFD03462C4A4946284605F0D1F975
:100DC00009F0A6FFD4F88C3003F10109C4F88C9027
:100DD000123304EB830358600CF036FD0346234ABC
:100DE0004946284605F0BDF902F04CFFD4F88C3096
:100DF00003F10109C4F88C90123304EB83035860AB
:100E00000CF022FD03461A4A4946284605F0A9F986
:100E10000AF0AEFCD4F88C305A1CC4F88C20123383
:100E200004EB83035860D8F85C31D3F88830019222
:100E3000009732463146284605F01FFA284605F04D
:100E4000CDFA334632462146284605F0C3FA4FF420
:100E5000FA61284604F0BCFF03B0BDE8F08300BF90
:100E6000480D0408540D0408600D0408700D0408B2
:100E7000800D04082DE9F04F89B0044608F076F99A
:100E800008F098F98DF81F0004F50056D6F85C516B
:100E900008F06CF9C168003918BF012128460BF031
:100EA00058FF96F85811D6F85C010CF0E5FAD6F820
:100EB0005C31BB4AC3F88020D6F85C31D3F88C7023
:100EC0000CF07CFD0368DB68984700EB40003F1A9C
:100ED0000CF0BAFC0368DB689847A7EB4007023FB9
:100EE000D6F85C31D3F888500CF0AEFC03689B68F0
:100EF000984700EB4000A5EB40080CF0A5FC036808
:100F0000DB689847400004F6F84900250295A54B98
:100F10000193009043463A46294648460EF013FB9B
:100F20004FF47A7148460FF015FC04F5C35909F1E6
:100F300018099D4F02233A463946484607F04AFFB2
:100F40002B462A462146484607F040FFD6F8640162
:100F500003F0B0FC04F6384AD6F85C31D3F8888048
:100F60000CF072FC03689B68984700EB4000A8EB0C
:100F7000400808F1FF38B4F9FEBC0CF065FC0368CA
:100F80009B68984700EB40004000B4F9063D012201
:100F90000292019300905B4642468449504611F00C
:100FA00083F82B462A462146504611F0A1FA2946DD
:100FB000504611F091FA4FF47A7150460FF0CAFB87
:100FC000B4F9FE8CB4F9063D03EBD37308EB630868
:100FD0000CF03AFC0368DB689847A8EB50080CF06B
:100FE00033FC04F6285B01906FF07F430093434687
:100FF0000422394658460EF096FEB4F92CAD0CF09A
:1010000023FC03689B68984700EB800082440CF047
:10101000D5FC03689B6898470AEB00020592B4F977
:10102000028D0CF0CBFC0368DB689847A8EB000846
:10103000A8F102080CF0C2FC04F5566A01906FF0AA
:101040007F4300934346059A394650460EF06BFEA7
:10105000B4F93C8C0CF0EEFC03689B68984700EBFD
:10106000800300EB4300A8EB00030593B4F9FE1CDA
:1010700006910CF0DFFC04F698580190FF230093D2
:1010800006990B1D059A394640460EF04CFE40F27B
:10109000E93158460FF05EFB40F2EA3150460FF05E
:1010A00059FB40F2EB3140460FF054FB04F5055379
:1010B000343301934323009323463D4A2146D6F817
:1010C000600105F025FA29462046FFF71FFC20465F
:1010D000FFF72BFE09E005EBC500400100F55D6060
:1010E0000021204400F0F7FC0135052DF3D904F56B
:1010F000B05518350CF024FC01906FF07F4300933D
:1011000000231A46294604F5AF500EF00CFE0025C8
:101110000CE005F1120304EB83035868B4F9FE2CCC
:1011200003689B68283A282198470135D4F88C3009
:10113000AB42EED80023C4F890309DF81F30BBB905
:10114000D4F8901004F1940005F083F8D4F89030AE
:10115000123304EB830358680368DB68984708F090
:1011600005F80369ABB94FF0000009B0BDE8F08F96
:101170000223104A1049484607F02CFE42F2107133
:10118000484607F02DFFD4F88C30013BC4F890306E
:10119000D6E704F50054D4F8640103F040FBE2E71D
:1011A0004040400080808000100F04088C0D04082F
:1011B00035080008900D0408DC0D040838B5034616
:1011C0004FF00200B3B11C4691B103F1D405D3F83E
:1011D0002031626901FB0231284600F07CFCA369E2
:1011E00033B1D4F8202153F82210284600F0C1FC76
:1011F0004FF0000038BD016042608360704710B559
:1012000004464169012914BF0021012100F5FA704B
:1012100011F062F961690A2914BF0021012104F566
:101220002D7011F059F96169642914BF0021012161
:1012300004F55D7011F050F910BD94463AB90120E3
:10124000704701FB00F001336345FAD3704708464D
:101250000123F9E72DE9F04F89B004460F460692C5
:101260001E4600238361D44B1B68BFF35B8F13F0D2
:10127000010F6CD004F19C050CF0E6FA01906FF0C0
:101280007F43009300231A46394628460EF04BFD53
:101290009DF8541028460EF090FEC74F7968B4F9B7
:1012A000A830C91A00230822490828460FF0AAFAD4
:1012B00004F1200B594628460FF00CFA012128466C
:1012C0000FF048FA04F1D405B4F9A6807F68103F06
:1012D0000CF074FB0368DB68984700EB8000149BFC
:1012E00002930D23019300903B4608F10802082168
:1012F000284600F017FB4FF47F420421284600F0F7
:10130000DEFB0CF05BFB01460222284600F031FDBB
:10131000139A1299284600F025FC3146284600F021
:10132000DAFB0CF04BFB034605220699284600F039
:1013300035FD002684F8E460594628460FF0CAF9C6
:10134000012128460FF006FACDF81CB07DE09A483E
:1013500030F0DDFB00288DD0D4F8F035D3F888309C
:101360009548436030F0E2FB84E7B4F9E070083F51
:10137000924BA3FB07377F0803F084F8054606F17C
:10138000440804EB081806F5867304EB8303D3F8CE
:101390000490149A0A212046FFF74FFF00904B4615
:1013A00010224146284603F0F2FA40462DF060FA3A
:1013B000069B834AC0F11001404432F081FE4FEA9F
:1013C000460B06EB4605AD0105F5F87525440435D9
:1013D000B4F9D8303A1D06FB02330593B4F9DEA008
:1013E0000CF0ECFA0368DB68984700EB80004FF0E4
:1013F0000109CDF80890019000970AF10803059AB9
:101400004146284610F050FE2DF064FC014623466C
:101410006C4A284611F06CF80021284611F05CF85F
:101420000321284610F0F1FF0BEB060704EB8717AA
:10143000D7F8F4319B68079928469847D7F8F431D4
:10144000DB684946284698474E44022E8DD9DDF880
:101450001CB0149B022B01D902231493149A0A2165
:101460002046FFF7EAFE6061149B03EB4300800116
:1014700000F5F87020440121043011F02DF804F13A
:101480004C084D4FD7F80490D4F8F4319B6B04F519
:10149000FA709847012602960025019508300090C1
:1014A0004B462A46294640460EF04DF80421404658
:1014B0000EF0A8F84FF6FF7140460EF0D3F829461B
:1014C00040460EF0E5F8594640460FF003F929462C
:1014D00040460FF03FF9D4F8F035D3F88C20B4F93A
:1014E0005A30D21A02EBD27200937B6832412946FD
:1014F00058460FF03CF8D4F8F025D2F88830D2F8EE
:101500008C2000922A46294604F17C000EF0D3F884
:1015100084F88C6004F58E68D4F8F035D3F88C70BC
:101520000CF04CFA0368DB68984700EB40003F1A68
:10153000D4F8F035D3F8882002EBD27242FA06F9DB
:101540000CF03CFA0368DB68984700EB4000029619
:101550000190A9F1040200923B462A461A494046EE
:1015600010F0A2FD2DF0B6FB0146DFF8589023469F
:101570004A46404610F0BCFF04F5A667D4F8F035A3
:10158000D3F88810B4F97C24B4F97E340296019320
:101590000092B4F976348A1A0C49384610F084FD6A
:1015A0002DF098FB014623464A46384610F0A0FF2E
:1015B000284609B0BDE8F08F24260020ABAAAAAACD
:1015C000E80D04082B170008EC0D0408F00D0408C2
:1015D0002DE9F04184B0054616461F46DDF8288007
:1015E0009DF82C300393002402947B1E01930094F9
:1015F00043461E4AFFF72EFEAE61EF6156F82810F3
:1016000005F1D40000F0B5FA0FE004EB44008001CE
:1016100000F5F870284404EB440305EB8313D3F87A
:10162000F4311B69043098470134022CEDD905F1DF
:101630004C06B5F9DE3001220292002401940833F1
:101640000093B5F958302246214630460DF07BFF15
:10165000042130460DF0D6FF4FF6FF7130460EF0F4
:1016600001F8204604B0BDE8F08100BF100F040867
:1016700030B583B004460D467C300FF06BF8691C22
:1016800004F120000FF066F8A91C04F58E600FF03D
:1016900061F8E91C04F5A6600FF05CF804F0E3FEC5
:1016A00005462DF017FB014604F2F4530093234640
:1016B0000B4A284604F064FF04F0D5FE05462DF0E1
:1016C00009FB014604F20C6301937F230093234638
:1016D000044A284604F01CFF4FF0000003B030BD60
:1016E000BD1100082B17000810B5044604F0BBFE1E
:1016F00004F2F45104F061FF04F0B5FE04F20C6151
:1017000004F026FF04F120000FF033F804F17C0010
:101710000FF02FF804F58E600FF02BF804F5A6609B
:101720000FF027F84FF0000010BD03464FF0020005
:10173000002B5ED070B582B01C4603F58E658D42DD
:1017400024D003F5A6668E4220D003F5FA738B42AF
:1017500039D004F52D738B4238D004F55D738B427C
:1017600037D00B88ADF804309DF80430002B33D00F
:10177000012B1AD19DF805502946304610F0ACFED9
:101780009DB931462046FFF7D0FF0EE08D4214BFD1
:101790000021012121742046FFF7A6FF206858B1DF
:1017A0002346A26861680FF0A5FC2046FFF727FDDD
:1017B0004FF0000002B070BD6368002BF5D02146E9
:1017C000A0689847F1E701236361EEE70A236361AC
:1017D000EBE764236361E8E79DF80560314628463E
:1017E00010F07AFE002EE0D129462046FFF79DFF3B
:1017F000DBE770472DE9F04182B004460E461746FC
:101800001D46DDF82080B0F90630B0F90400A8EBE1
:1018100000000090EB1A04F150000DF0F7FBB4F952
:101820000630B4F90420A8EB02020092EB1A3A4603
:10183000314604F1B8000EF0A1F994F8183113B94B
:1018400002B0BDE8F081B4F90630B4F90420A8EB89
:1018500002020092EB1A3A46314604F180000EF083
:101860008DF9EDE72DE9F04182B004460E461746AA
:101870001D46DDF82080B0F90430B0F90600A8EB71
:1018800000000090EB1A04F150000DF018FCB4F9C0
:101890000430B4F90620A8EB02020092EB1A3A4693
:1018A000314604F1B8000EF0DEF994F8183113B99E
:1018B00002B0BDE8F081B4F90430B4F90620A8EB19
:1018C00002020092EB1A3A46314604F180000EF013
:1018D000CAF9EDE710B5044605290DD8DFE801F097
:1018E000030D0C0C03140E4950300DF0D1FE23688B
:1018F000DB6C00212046984710BD006A20B12346CA
:10190000A26A616A0FF0F6FB002104F150000DF0AD
:10191000BFFE2368DB6C002120469847ECE700BF40
:10192000808080002DE9F04184B004461F460A9E65
:101930000B9DDDF830804FF0FF33C3648180C2809F
:10194000CB199BB2013B038193199BB2013B4381AD
:101950008781C681A5EB08038363C0F83C80012220
:101960000264002105E0226C02EB82025200226434
:1019700001318845F7DCB8F1000F14D0CDF80080B4
:10198000394A102104F5847032F09AFBB8F1000F47
:1019900000D0013504F1F00840462CF069FFA84260
:1019A00013D000220BE0314A102104F5847032F08C
:1019B00087FBEBE70021A31883F8F0100132172A08
:1019C00003D89542F6D92021F5E70123029300259B
:1019D000019500963B462A46294604F150000DF039
:1019E000B2FD04F1B8070BF0E9FF01906FF07F43FF
:1019F00000932B462A46414638460EF094F994F857
:101A00003850E36B73B30122154453FA85F5EDB2F8
:101A10000135EDB2B4F90C8038462DF0DBFF00FB48
:101A20001581B4F9C630F61A06EBD676002372108B
:101A3000490804F1B8000EF0E5FE0BF0BFFF01907D
:101A40006FF07F43009300231A46094904F1800098
:101A50000EF069F92368DB6C00212046984704B03A
:101A6000BDE8F0810022CFE7F80D04080C0E040851
:101A7000100F0408C36F994200D1704710B5044697
:101A800050300DF0BFFD2368DB6C002120469847E5
:101A900010BD10B5044601634263036F90F82C003B
:101AA00000B11146994200D110BD04F150000DF073
:101AB000D9FD2368DB6C002120469847F4E738B550
:101AC00004461546FFF7D6FF4FF47F4229462046CD
:101AD000FFF7DFFF38BD10B582B00446426C8A4282
:101AE00000DC0A46A36C934200DB1346E26C9A4288
:101AF00036D0E364E26B8AB9009304F5847318224C
:101B000004F1F00104F1B8000EF0C7FA2368DB6CB1
:101B1000002120469847012002B010BD216C93FBA4
:101B2000F1F201FB1233002BB8BF5B42019300922C
:101B300004F58473182204F1F00104F1B8000EF0EA
:101B4000ACFAE36C002BE1DA226C93FBF2F3002B8E
:101B5000DCD1A36B023B23442D2283F8F020D5E790
:101B60000020D9E708B541648264C16CFFF7B3FF78
:101B700008BD30B583B0044600F1B80500910D4BA7
:101B8000182200F1F00128460EF087FAB4F90C1083
:101B9000B4F9C430C91AB4F90E20B4F9C630D21A57
:101BA00002EBD27200235210490828460EF02AFE9A
:101BB00003B030BD140E0408F8B50446836BC56B42
:101BC0006DB101210B441D4494F81831013B042BE5
:101BD00000F2B480DFE803F0383205638B000021A7
:101BE000F0E7B4F90C6004F1B80738462DF0F2FEC6
:101BF00094F8E43000FB03F303FB1561B4F98C3077
:101C0000C91A0239B4F90E20B4F9C630D21A02EB5F
:101C1000D27200235210490838460EF0F3FDB4F991
:101C2000C060B4F9C27004F1800528462DF0DBFED7
:101C300000233A1AB11C28460EF0E4FD2368DB6C41
:101C4000002120469847F8BDB4F90C10B4F98C3047
:101C5000C91AB4F90E20B4F9C630D21AB4F98E30CC
:101C6000D21A02EBD27200235210490804F180000C
:101C70000EF0C8FDB4F90C6004F1B80738462DF039
:101C8000A9FE94F8E43000FB03F303FB1561002385
:101C9000B4F98A20490838460EF0B4FDCEE7B4F90D
:101CA0000C6004F1B80738462DF094FE94F8E43047
:101CB00000FB03F303FB1561B4F90E20B4F9C63041
:101CC000D21A02EBD27200235210490838460EF0A5
:101CD00099FDB4F90C10B4F98C30C91A0023B4F989
:101CE000C220490804F180000EF08CFDA6E7B4F98B
:101CF0000C6004F1B80738462DF06CFE94F8E4301F
:101D000000FB03F303FB1561B4F90E20B4F9C630F0
:101D1000D21A02EBD27200235210490838460EF054
:101D200071FDB4F9C000B4F98C100023B4F9C220DD
:101D3000411A04F180000EF065FD7FE7B4F90C60F4
:101D400004F1B80738462DF045FE94F8E43000FB66
:101D500003F303FB1561B4F90E20B4F9C630D21AAF
:101D600002EBD27200235210490838460EF04AFDA9
:101D700064E770B50446154600F1B80630460EF02B
:101D8000DCF8E9B230460EF018F92046FFF714FFF0
:101D90002368DB6C00212046984770BD70B504466F
:101DA0000D4680F8182100F18006194630460EF0E5
:101DB000C4F80022294630460EF03CF92046FFF7D1
:101DC000FBFE2368DB6C00212046984770BD90F82D
:101DD0002C308B4210D010B5044680F82C105030B7
:101DE00041B1616B0DF03EFC2368DB6C00212046A5
:101DF000984710BD216BF5E770470162426283622C
:101E0000704700BF02464FF0020013465AB192F8E5
:101E10009C20052A08D81A3203EB82035A68114421
:101E200059604FF0000070475A6E11445966F8E748
:101E300070B5054604F017FB05F5A2511C3104F0FE
:101E4000BCFB281D0EF095FC05F58053D3F850041B
:101E5000FFF74AFC00242BE0E60004EBC40040013D
:101E600000F5F870284404EBC40305EB4313D3F8E2
:101E7000F4311B6904309847301BC000A03028445F
:101E8000361B05EBC606D6F8A4301B69043098470C
:101E900004EB4400800100F50B60284404EB44038C
:101EA00005EB8313D3F8B4381B6904309847013429
:101EB000052CD1D900240FE004EB4400800100F68A
:101EC0002860284404EB440305EB8313D3F82C3E2D
:101ED0001B69043098470134032CEDD905F63450C2
:101EE0000EF047FC05F6F4500EF043FC05F58B5060
:101EF0000C300EF03EFC05F594500C300EF039FC21
:101F000005F5965004300EF034FC05F59C50043075
:101F10000EF02FFC05F58055D5F8440403681B69C5
:101F20009847D5F8480403681B699847D5F84C04CE
:101F300003681B699847FEF7C0FC0021FEF7E6FC2A
:101F40004FF0000070BD2DE9F04383B00646002538
:101F50002F46FEF7B2FCFEF771FDFEF7AEFCFEF772
:101F60009DFD10E09D4218D205EBC504640104F507
:101F7000F87434440434E9B202F02EFB01462046E2
:101F8000FFF7A9FD013506F58053D3F85804D0F8C2
:101F90001034052BE6D90623E4E70024052C5DD890
:101FA00004F11A0306EB83035D680DB90134F5E70C
:101FB000D6F8A02002FB05F596F89C1002F09CFADA
:101FC00010B3774B04F1200206EB82025268002A1C
:101FD0001DDB002A23DD04F11A0206EB820252689F
:101FE000002A1CDD04F03FFA026F132A00D81422E5
:101FF000D6F8A03002FB03F3C3EB03139B00694A3E
:10200000A2FB0323DB0817E04EF66023DAE704F1B6
:102010001A0106EB810149680029DADAE2E704F1E6
:102020001A0206EB82025268002A70DD012104F1D7
:10203000200206EB8202516006F580504FF0000846
:10204000CDF800802A46E1B2D0F8580403F068FACF
:1020500007461A3406EB8404C4F8048006F5965546
:10206000043506F58053D3F8583493F80D34002B1B
:1020700050D04FF47F41284610F04FF906F59C5898
:1020800008F1040806F58053D3F8583493F80C345B
:10209000002B42D04FF47F41404610F03EF906F548
:1020A0008B540C3406F58059D9F85834D3EDFF7AA7
:1020B000FCEEE77A17EE903A99B22046FFF70BFD57
:1020C000D9F8480496F8683053B3FF2110F025F989
:1020D000736E43BB06F58053D3F858042DF09CFC77
:1020E00048B106F58053D3F8583493F87033012B78
:1020F00027D0032B25D006F58053D3F85004FFF7E3
:10210000F3FA06F6345010F0CCF900243CE04FF01E
:10211000FF318CE76FF07F41ADE76FF07F41BBE7A8
:102120006FF07F41D2E706F58052D2F8B821D6F899
:10213000A01001FB03212046FFF7CDFC00237366AE
:10214000C8E706F6345010F093F9002409E004EBD8
:102150004400800100F50B603044043010F088F931
:102160000134052CF3D9404610F082F9284610F0CE
:102170007FF911E004EB4400800100F50B6030446E
:10218000043010F08EF90134052CF3D9404610F0DC
:1021900088F9284610F085F9384603B0BDE8F08389
:1021A00080F52000CDCCCCCC2DE9F04F8DB083460E
:1021B0008A4614460A92C34B5B6803F03F030993B7
:1021C0000B1D08930BF0FAFB0368DB689847231A92
:1021D000043B0BF58052D2F85824D2F81024052A7B
:1021E00000D906220232B3FBF2F3A3F108040594EE
:1021F0000BF0E4FB0368DB68984700EB8000A0422B
:1022000004D34FF00008CDF82CA0F6E00BF0D6FB7D
:102210000368DB68984700EB80030593F1E7984576
:1022200080F0F6804FEAC80508EBC804640104F5A5
:10223000F8745C4404340BF5805ADAF85434D3F85B
:102240008890059B0833089A08FB03220692A9F19F
:102250000806B6005FFA88F739462DF0CDFB9A499B
:1022600081FB062381FB0921029008220192059837
:102270000090A3EBE673069AA1EBE9712046FFF705
:1022800051FBFF2204212046FFF719FC0BF096FBBF
:10229000014602222046FFF76CFD00212046FFF791
:1022A0001AFC3946DAF858042DF0D4FB06460BF038
:1022B00085FB0346032231462046FFF76FFD2CF0D5
:1022C00009FD014600231A462046FFF796FD05EB5F
:1022D00008090BEB4919D9F8F4319B6C0121204610
:1022E0009847A5EB0806F600A0365E44043639464A
:1022F000DAF8580402F0F5F807460BF0A5FA019059
:102300006FF07F43009300231A46394630460DF0A4
:102310000AFD022130460DF050FEA5EB08050BEB3F
:10232000C505D5F8A430DB690693D9F8F431DB6A2A
:102330002046984700EBD0704710D5F8A430DB6BEF
:102340003046984700EBD070A7EB60020792D9F8AF
:10235000F4311B6B204698470746D9F8F4311B6CC3
:102360002046984700EBD07007EB6007D5F8A43003
:102370001B6C3046984700EBD0700023A7EB60023F
:1023800007993046069DA84708EB4805AD0105F5BD
:102390000B655D440435D9F8F4315B6B20469847F2
:1023A0000646D9F8F4311B6B204698470746DAF801
:1023B0005434D3F888A0D9F8F4315B6B20469847A1
:1023C000AAEB000AD9F8F4311B6C20469847012388
:1023D00002930190AAF1080300933B46321D3B494A
:1023E00028460FF061FE2CF075FC014600231A46CA
:1023F000284610F07DF808F101080BF58053D3F85A
:102400005804D0F81034052B7FF609AF062306E7F1
:10241000DDF82CA00025DDF814902CE0013B03EB47
:10242000C300400100F5F870584403EBC3030BEB05
:102430004313D3F8F4319B6B043098470123029384
:10244000CDF80490009700F108034246314620463B
:102450000FF02AFE2CF03EFC014600231A462046CF
:1024600010F046F8032120460FF0CFFF0021204650
:1024700010F032F80135032D2AD80BF58053D3F82C
:102480005424D2F88870143FBF0805EB4504A4011A
:1024900004F628645C44043405EB450241F2281636
:1024A00006EB82065E44043607F1040805FB08F8D3
:1024B00008F10408D3F85834D3F81034052BADD9FB
:1024C0000623ABE700380240ABAAAA2A180E04087C
:1024D00001210BF583500C300FF0FEFF0BF6345941
:1024E0000BF5FA75DBF8F4311B6B284698478046EC
:1024F000DBF8F431DB6A284698470646DBF8F4310E
:102500001B6C28469847814F012402940190083E95
:10251000009643460422394648460FF0C5FD2CF08C
:10252000D9FB014600231A4648460FF0E1FFDBF8CD
:10253000F431DB6A284698470646DBF8F4311B6B1A
:102540002846984780460BF039FA01906FF07F4596
:10255000009508F1080306F1080239460BF6F4501D
:102560000DF0E1FB0BF58B560C360A9B9A4405984F
:10257000AAEB00020BF58057D7F85434D3F8883013
:1025800003EBD37323414FF00008CDF808800521F9
:1025900001910090063B043A04213046FFF7C2F94E
:1025A000FF2204213046FFF78AFA0BF007FA0146B2
:1025B00002223046FFF7DDFBD7F85834B3F8221477
:1025C0003046FFF788FAD7F85834B3F82024B3F828
:1025D00022143046FFF7C6FA0BF0F0F90346032247
:1025E0004B493046FFF7DAFB2CF074FB01464346BB
:1025F00042463046FFF701FC87F87C4121463046D1
:10260000FFF7E5FB0BF0DAF90BF594560C36019069
:102610000095434642463F4930460DF084FBB7F9EA
:102620007011B7F9722143460832083130460EF076
:10263000E9F80BF596560436B7F97421B7F97831F5
:10264000043B02940598019003EBD373234100935C
:10265000B7F972310532304930460FF025FD2CF0C4
:1026600039FB01464346424630460FF041FF0BF529
:102670009C560436B7F9CC22B7F9D03202940598AB
:1026800001900093B7F9CA320532244930460FF061
:102690000BFD2CF01FFB01464346424630460FF02F
:1026A00027FF0BF13C06099B02930223019322238F
:1026B000009343461A4A2821304631F001FD0BF6BB
:1026C0002C6ADBF82C3E9B6B504698478146B7F945
:1026D0007241DBF82C3E9B6B50469847241A0BF056
:1026E0006DF90368DB689847241A09EB54040BF072
:1026F00065F9019000952346042231460BEB020058
:102700000DF011FB40460DB0BDE8F08F100F04082E
:102710001C0E0408200E0408280E0408300E0408BD
:10272000340E040838B5054600240AE004EB4400E2
:10273000800100F628602844002104300FF0CCFE10
:102740000134032CF2D938BD2DE9F04F85B0054690
:10275000002443E009265CE0DCB104F2554305EBBC
:1027600083035B6803EB83035B0004F2564205EBD3
:102770008202536005F5805000220292484A01927D
:10278000012200920C223946D0F8580402F06EF96A
:1027900073E00123E9E704EB440205EB82021344F2
:1027A0000A460A21995404EB4400800100F628608F
:1027B000284404EB440605EB8616D6F82C3EDB686D
:1027C00064210430984796F8603E33B104F25643D2
:1027D00005EB83035B68C5F8A0300134032C5CD89B
:1027E00004EB440241F2281303EB82032B441F1D28
:1027F00000225A609A60DA6095F89C100529ABD8DF
:1028000005F58053D3F8580490F81C34002BA1D15F
:10281000052601F071FE00B10D2606F0A7FC56FA60
:1028200084F6F6B200EB8600D0F804A004F256431A
:1028300005EB8303C3F804A005F58059D9F858B413
:1028400095F89C1058462DF0F5F8064695F89C1022
:10285000D9F858042DF0FEF8804695F89C10D9F868
:10286000580401F049FE0290CDF8048000965346CA
:102870000C223946584602F0F9F800230B2B92D867
:1028800004EB440205EB82021A4441F22C11525C23
:10289000202A80D00133DBB2F0E705B0BDE8F08F2D
:1028A0001C0E040870B582B00546012104300DF0FD
:1028B00051FF2846FFF748FF002430E09C4238D201
:1028C000E60004EBC400400100F5F870284404EB76
:1028D000C40305EB4313D3F8F431DB6864210430FF
:1028E0009847301BC000A0302844361B05EBC606B5
:1028F000D6F8A430DB6864210430984704EB440028
:10290000800100F50B60284404EB440305EB8313BE
:10291000D3F8B438DB68642104309847013405F5F6
:102920008053D3F85834D3F81034052BC6D9062376
:10293000C4E7062385F89C3000240AE004EBC400B9
:10294000400100F5F870284400210430FFF73FFAF9
:102950000134052CF2D905F58B540C346421204642
:102960000DF0F8FE00212046FFF731FA652105F54C
:1029700094500C300DF0EEFE642105F596500430B5
:102980000DF0E8FE642105F59C5004300DF0E2FEE8
:10299000FDF793FF0121FDF7B9FF05F580541549B7
:1029A000D4F848040FF075FCD4F848040368DB68D9
:1029B00066219847D4F844040368DB686621984789
:1029C000D4F84C040368DB686621984703F04BFD9C
:1029D00004462CF07FF9014605F5A2531C33009301
:1029E0002B46054A204603F0CBFD4FF0000002B015
:1029F00070BD00BF580E0408051E00082DE9F04FF9
:102A000089B000F58053D3F844348B4230D004466B
:102A10000D464FF0000600F58053D3F84C348B423E
:102A200026D000F58053D3F848348B4226D000F5E9
:102A30008053D3F850348B425FD000F59C5304335D
:102A40008B4267D000F5965304338B426AD04FF027
:102A50000008B8F1030F7BD808EB4807BF0107F661
:102A6000286727440437AF4264D008F10108F0E733
:102A70004FF00906304609B0BDE8F08F00F58053ED
:102A8000D3F8580490F8525305B30023079394F8F1
:102A90006830F3B904F580570DF11C0842468A49A5
:102AA000D7F8580402F069FC42468849D7F8580420
:102AB00002F063FC012384F86830002DDAD104F5BC
:102AC0008054D4F8580401F0F5FED3E701F0A7FED6
:102AD000DBE704F580570DF11C0842467C49D7F826
:102AE000580402F04AFC42467A49D7F8580402F0EA
:102AF00044FC002384F86830DFE71A7C002AB9D050
:102B000000F58054D3F82021197BD4F8580402F042
:102B10000DFFAFE700F58054A021D4F8580401F070
:102B20006FFEA7E700F58054A121D4F8580401F006
:102B300067FE9FE72046FFF7F5FD012138460FF0BD
:102B4000CBFC08F2564304EB83035B68C4F8A03067
:102B5000B8F1040F8ED100270DE0A84500F0938056
:102B600007EB47039B0103F50B6323440433AB429C
:102B700000F08C800137052F6ED807EBC7084FEAAD
:102B8000481808F5F878A04408F10408A845E4D1ED
:102B900007EBC70304EB431393F82032002BDCD080
:102BA00004F58058D8F850A45FFA87F94946D8F858
:102BB000580401F096FC0490D8F8580490F81C24AE
:102BC000454B53F82230059307EBC70304EB43133F
:102BD000D3F840B249462CF00FFF02230393029032
:102BE0003E4B01933E4B00935B46059A0499504639
:102BF000FEF730FBD8F850942CF06CF80146002317
:102C00001A464846FEF7F7FAD8F85034DF6042F229
:102C10001071D8F85004FEF72BFDABE709EBC900A3
:102C2000400100F5F870204400210430FFF7CFF890
:102C300009F10109B9F1050FF0D9002104F58B5014
:102C40000C30FFF7C4F801214046FFF7C0F884F8C4
:102C50009C702046FFF778FD04F58B570C37AF4288
:102C60007FF408AF04F58053D3F85804D0F8083443
:102C7000642B13D101213846FFF7A9F8062384F805
:102C80009C30002519E04FF00009D3E704F580538C
:102C9000F9B2D3F8580402F01BFE6BE7992101F05A
:102CA000AFFDE7E705EBC500400100F5F8702044F3
:102CB00000210430FFF78BF80135052DF2D92046AD
:102CC000FFF742FDD6E600BF600E0408680E040858
:102CD000700E0408740E0408907003088096980023
:102CE000806967FF2DE9F04F83B00446B64B03605F
:102CF000B64B40F8043B2CF031F82822002104F1B7
:102D00003C0031F093FA0023636684F86830E36690
:102D100023676367A367E367C4F88030C4F884302F
:102D2000C4F88830C4F88C30C4F89030C4F89430BB
:102D3000C4F89830062384F89C300123C4F8A030EE
:102D400004F1A40301931E46052501E0013D383638
:102D5000002D03DB30462CF001F8F7E704F5FA7894
:102D60004646052502E0013D06F59076002D03DB81
:102D700030462CF055F8F6E704F6B4094E46052522
:102D800001E0013DC036002D03DB30462CF01AF87F
:102D9000F7E704F6345B58462CF014F804F6F450C8
:102DA0002BF0DCFF04F62C6A5646032501E0013DBA
:102DB000C036002D03DB30462CF004F8F7E704F5AD
:102DC00080553022002105F5967031F02FFA00234E
:102DD000C5F85C31C5F86031C5F86431C5F86831B3
:102DE00004F58B550C3528462CF01AF804F5945050
:102DF0000C302BF0B3FF04F59656043630462BF01A
:102E0000E1FF04F59C57043738462BF0DBFFFDF754
:102E100054FD00F5B150183004F58053C3F8440454
:102E2000FDF74BFD00F5B750183004F58053C3F89B
:102E30004804FDF742FD00F5BD50183004F58053FD
:102E4000C3F84C04FDF739FD00F5D950143004F5F2
:102E50008053C3F850040AF0D5F804F58053C3F842
:102E6000540401F00FFB9AE0019B002B00F08C80D2
:102E7000C5F105053823019A03FB0525019B9D42F9
:102E800000F08280524B45F8383D28460DF092FC08
:102E9000F4E7B8F1000F6BD0C5F105054FF490735E
:102EA00003FB0585454563D0A5F5907528462CF0B4
:102EB00065F9F7E7B9F1000F50D0C5F10505C0235A
:102EC00003FB05954D4549D0C03D28462CF018F828
:102ED000F8E7BAF1000F2CD0C5F10305C02303FBBE
:102EE00005A5554525D0C03D28462CF009F8F8E742
:102EF00038462CF005F830462CF002F804F58053E3
:102F0000334AC3F88C2204F594500C300DF052FC77
:102F100028462CF033F904F589550C35554508D071
:102F2000C03D28462BF0ECFFF8E7E4E7E6E7EFE7E3
:102F3000F1E7274BC4F8F43D04F6F4500DF03AFCE9
:102F400058462BF0DDFF04F634554D4506D0C03D04
:102F500028462BF0D5FFF8E7F2E7F4E704F6B405CE
:102F6000454505D0A5F5907528462CF007F9F7E7FB
:102F700004F5FA75019B9D4206D0154B45F8383D86
:102F800028460DF017FCF5E72046114B40F8043FAA
:102F90000DF010FC0C4B23602EF066FAFAE704F5F6
:102FA0008053C3F858040022C3F85C24C3F860249B
:102FB000C3F8642483F86824C3F86C24C3F870242D
:102FC000204603B0BDE8F08FF420040874660308BF
:102FD0003403040808B50F4B1B68BFF35B8F13F075
:102FE000010F01D00C4808BD0A482EF090FD0028C2
:102FF000F8D00948FFF776FE084A094906482EF03E
:10300000B8F904482EF092FDECE702482EF08BFD53
:103010002EF02AFA2C260020302600204401002021
:1030200075FA02084FF00000704710B50446FDF72E
:1030300044FC00F5AF500DF09CFB04F50053D3F8B1
:103040002403FEF751FB04F50350343005F0ECFD8A
:1030500004F58B50143008F0C6FB4FF0000010BD93
:103060002DE9F04385B004460E46154600F58B5712
:10307000143709F0C7FFD0F88830022201922822C5
:10308000009232460021384608F0EAFB0AF09EFB27
:1030900000900023334A1946384608F0CFFD0AF065
:1030A00095FB00900023304A0121384608F0C6FD08
:1030B0002BF010FE014600231A46384608F0C7FEE2
:1030C0004FF0000C11E00CEB4C1303F5A65310333A
:1030D0002344043304EB8C1241F6F401535041F6BF
:1030E000F8032121D1500CF1010CBCF11F0FEAD9DA
:1030F00004F5035734372BF0EDFD01461B4B0093CD
:103100001B4B2246384605F087FC04F5C75808F1EA
:10311000140804F58059B9F982311E4404F50054AD
:10312000D4F85833D3F888400AF048FC0368DB68C9
:103130009847A5EB4003B9F982219B1A083B0293FB
:1031400001940096002320224146384605F05EFD9A
:103150000021384605F09AFD4FF0000005B0BDE8AB
:10316000F08300BF7C0E0408840E04084D3500086F
:10317000A137000838B50446FDF79FFB2CF05AFE36
:1031800004F58B5514354FF4FA61284608F01CFB02
:1031900063683BB123689B692946204698474FF0F6
:1031A000000038BD0121284608F02DFEF2E710B5D9
:1031B00082B00446406818B109F09FFD00236360A7
:1031C0000022114604F1080003F0ACFA0AF0FEFAFE
:1031D00000900023064A194604F58B50143008F07D
:1031E0002DFDFDF76AFBFDF7C6FC02B010BD00BF68
:1031F0007C0E040838B504460D46FFF7D8FF284674
:1032000009F073FD606008B100230370FDF755FB02
:10321000FDF7B1FC606838BDF0B583B016461D46B9
:10322000089F0023019301AA083003F039FB0246EE
:1032300090B9104603B0F0BD01340194019C21788F
:103240000A290ED00D290CD059B1BC4509D23B2911
:10325000F2D10CF1010CEFE74FF0000CEEE701307A
:10326000019001980178A1F10903172B32D801A42C
:1032700054F823F05F3200080F330008D5320008FD
:10328000D53200080F330008D5320008D5320008C7
:10329000D5320008D5320008D5320008D5320008F2
:1032A000D5320008D5320008D5320008D5320008E2
:1032B000D5320008D5320008D5320008D5320008D2
:1032C000D5320008D5320008D5320008D5320008C2
:1032D0005F320008C9B90022ABE73B2C0DD0745413
:1032E0000131A9420BD2019B5C5C0D2CF5D842F256
:1032F0000143E34013F0010FF1D000237354002D7C
:1033000097D0013D0023735593E70021E9E70022A0
:103310008FE72DE9F04182B004460D4616461F4660
:103320004FF0000CCDF800C0FFF776FF804618B1D3
:10333000404602B0BDE8F0813B463246294604F1E2
:10334000080003F079FAF3E730B583B0144602259C
:103350000095FFF761FF00B9207003B030BD30B5B4
:1033600083B01546069C02340094FFF755FF08B958
:1033700005B1287003B030BD70B582B006460D4669
:10338000002400E00134009400231A462946304608
:10339000FFF7E5FF0028F5D1204602B070BD70B5FB
:1033A00082B015461C460023019301AA083003F0A1
:1033B00077FA064690B9304602B070BD01300190F0
:1033C000019801780A290CD00D290AD049B1A445E9
:1033D00007D23B29F2D10CF1010CEFE74FF0000CC2
:1033E000EEE70A2908D00D2908D009B90026E2E73E
:1033F0002FF084FE2860DEE70026DCE70026DAE70F
:1034000010B514460123FFF7CAFF08B90123236052
:1034100010BD00B583B00023019301AAFFF7F0FFB0
:1034200010B1019B03B1002003B05DF804FB2DE94E
:10343000F04194B0054600240E940F94109411941A
:1034400012941394089409940A940B940C940D9478
:103450000694079401230593C76F2AE005AA214625
:103460002846FFF7CDFF0DF11808082342462146F4
:103470002846FFF769FF41F6F00606EB84162E4456
:10348000043605F5005000230293CDF80480059B17
:103490000093049B182208A9D0F85C0301F0E6FA17
:1034A00003460EAA314605F50350343005F0BAFA4A
:1034B0000134BC422CD21E2C2AD80023049304AA27
:1034C000214605F1080003F03FF918230EAA214612
:1034D0002846FFF71EFF21462846FFF79AFF0028DF
:1034E000BCD008AE049B00931823324621462846E0
:1034F000FFF735FF41F6F00101EB84112944334613
:103500000EAA043105F50350343005F08BFACFE7ED
:10351000BC4202D014B0BDE8F0811E2CFAD805F5EB
:103520000356343641F6F00303EB8413E918054BD8
:10353000054A0431304605F075FA791C304605F02D
:10354000A5FBE7E7100F04088C0E040803464FF0B4
:103550000200C3B110B51C4603F58053D3F8AC315B
:103560006BB9E36F8B4202D84FF0000010BD04F13D
:10357000080004F01FF82046FFF759FFF4E7204643
:10358000FFF715FEF0E7704770B59AB0054600F5F5
:103590008B5414348C4211D000F50053D3F82433EB
:1035A0008B4200F0C98000F50053D3F820338B42E2
:1035B00000F0D0804FF000001AB070BD00F58053CD
:1035C000D3F8AC31012B10D04368002B00F0AE8053
:1035D000FFF72DFF642105F50350343005F08FFB14
:1035E0000021204608F00FFCE4E72BF073FB0021DC
:1035F00028300EF0D3F928F0F4FF0022584959483A
:1036000023F02EFA10B1002633467BE056490DA870
:1036100023F0B3FF08B10026F6E7002639E0033CAB
:1036200000E0013C74B304F168036B4413F84A3CB6
:103630002E2BF6D104F16A036B4413F84A0C30F0D8
:1036400071FC7328EDD100F01DFF90F81D3443B9D3
:1036500004F169036B4413F84A0C30F063FC6D28E5
:103660002BD000F00FFF90F81D34022BD9D104F1BC
:1036700069036B4413F84A0C30F054FC6C28D0D129
:10368000012200E000229DF8103013F0100F00D14D
:10369000AAB902A90DA823F0D5FF38BB9DF81E30AA
:1036A00023B30024142CBAD804F168036B4413F834
:1036B0004A3C002BB3D00134F4E70122E3E705EBE9
:1036C000861141F6F803CA5841F6F400095803EB95
:1036D0008613E818029B01930DF11E030093234B00
:1036E00004300CF0DAFC0136202ED2D10DA823F0E4
:1036F00091FF89E703EB43122A4441F2D4410020B1
:10370000505401331F2BF5D92BF0E4FA0021283057
:103710000EF009F905F5035534353146284605F014
:10372000B5FA6421284605F0EAFA43E700F50350AC
:10373000343005F079FA3DE71A7C002A3FF43AAFBD
:10374000D3F82021D968083003F010F82846FFF795
:103750006EFE2FE707F0DCFA06F094FF2AE700BFC1
:10376000A8960120E0980120840E0408980E040811
:1037700010B514460323FFF712FE08B9014B23606E
:1037800010BD00BF806967FF10B514460423FFF722
:1037900006FE08B9014B236010BD00BF809698005B
:1037A00003464FF00200002B00F0E2812DE9F043C8
:1037B00091B00D461C4603F58053D3F8AC61002E42
:1037C00040F0FC806368002B00F03381E36F8B4294
:1037D0007BD104F50053D3F85C3393F87033012B9D
:1037E00000D023BB0023079307F092FA07A907F044
:1037F000C9F8054604F10806079A0146304602F06A
:1038000096FF002800F01581304604F09FFB002849
:103810004BD005F0ABFC4369CBB9FDF74EF804463D
:1038200007F076FA01462046FDF77DF901E104F53F
:1038300000540223BE4ABF49D4F8200305F0CAFA57
:1038400042F21071D4F8200305F0CAFBF1E02BF02E
:1038500041FA002128300EF0A1F80022B649B748FD
:1038600023F0FEF830B12BF035FA002128300EF0AD
:103870005AF8D2E70A22B249B24823F035F90028B3
:10388000F1D107F045FA046907F042FA00692AF01D
:10389000EFFF024608AB2146AA4823F02AFB002886
:1038A000E1D1A84823F0CCFCDDE704F50054022365
:1038B0002A46A049D4F8200305F08CFA42F2107190
:1038C000D4F8200305F08CFBB3E00023059301231B
:1038D000069304F1080805AA404602F035FF04F5F6
:1038E0000C57283720233A4629462046FFF711FD7A
:1038F00006AA29462046FFF783FD069BA3B9059B30
:103900000133059329462046FFF736FD059B834288
:1039100001DB00230593059A2946404602F026FF65
:103920002046FFF784FD84E000230793089307AA4D
:1039300029462046FFF71CFF08AA29462046FFF724
:1039400023FF04F50D5808F10808102342462946C4
:103950002046FFF7F9FC07E07B4A82FB0312DB17E6
:10396000C3EBA20306930136069B092BF4DC04F596
:103970000059012303930296089B0193079B009330
:10398000059B42463946D9F82403FDF763FCD9F874
:1039900024632BF09FF9014600231A463046FDF7B9
:1039A0002AFCD9F82433DD6042F21071D9F82403DF
:1039B000FDF75EFE2046FFF73AFD3AE008AE20270D
:1039C0003A460021304630F031FC3A465F493046F5
:1039D00030F053FC30462AF04BFF06EB000EA7EB0D
:1039E000000C002363450AD204EB851241F6F40172
:1039F0005258D25C0EF803200AB10133F2E71F23BC
:103A000073B103F140026A4412F8202C202A07D82F
:103A100003F140026A44002102F8201C013BEFE759
:103A2000012208A9474823F05FF838B1454823F040
:103A300007FC4FF0000011B0BDE8F083414BDE6899
:103A4000013607F065F906F01DFE31462046FFF706
:103A5000D1FB00287CD00027069706AB3246616870
:103A6000384823F05AF96268069BD75404F10803DA
:103A7000324661681E46184602F054FE079707F06A
:103A800047F907A906F07EFF0746079A0146304628
:103A900002F04DFE304604F0EAFDA8B300231F2BD0
:103AA0000ED804EB851241F6F4015258D15CE218AD
:103AB00041F2B440115419B12E2901D00133EEE77F
:103AC000234441F2B44200269E5404F58B5514352C
:103AD000A71809F07BFE009033463A463146284647
:103AE00008F0ACF82046FFF7A2FC642104F503506F
:103AF000343005F004F93146284608F084F907F01F
:103B000007F906F0BFFD91E72046FFF750FB04F5EB
:103B1000005402233A460749D4F8200305F05AF925
:103B200042F21071D4F8200305F05AFA7EE700BF84
:103B3000A40E040878180408A8960120E098012033
:103B4000D00E0408B096012067666666DC0E040895
:103B500004F500540223074A0749D4F8200305F06E
:103B600039F942F21071D4F8200305F039FA5DE713
:103B7000704700BFE80E0408781804082DE9F041EA
:103B800006463D4B03603D4B036000234360083015
:103B90002CF00EFA06F58B5808F1140840462BF06D
:103BA000E1FF4FF48462002106F5A650143030F096
:103BB0003DFB06F5C75714373C461F2501E0013D84
:103BC0004034002D07DB00232360636004F108000C
:103BD0002BF0C4F8F3E706F50354343420462CF0F8
:103BE000CBF8FCF76AFE00F5C350183006F5005319
:103BF000C3F82003FCF761FE00F5D950143006F538
:103C00000053C3F8240309F0FDF906F50053C3F887
:103C1000580300F037FC27E0F7B1C5F11F0407EBAC
:103C20008414BC4218D0403C2046154B40F8083F55
:103C30000CF0C0FDF5E720462CF068F906F50354BA
:103C40003434BC4208D0403C20460D4B40F8083F7D
:103C50000CF0B0FDF5E7F1E740462CF0F7F8064B25
:103C600033602DF001FCFAE706F50053C3F85C035E
:103C70003046BDE8F08100BFF4200408B8660308B0
:103C80003403040808B50F4B1B68BFF35B8F13F0B8
:103C9000010F01D00C4808BD0A482DF038FF00285C
:103CA000F8D00948FFF76AFF084A094906482DF08D
:103CB00060FB04482DF03AFFECE702482DF033FF9B
:103CC0002DF0D2FBA43A0020A83A002044010020A5
:103CD00045FF020810B40D4B1C21198059804FF08C
:103CE000080C83F804C00A4A9A600A48D860D0F8E1
:103CF0005C431C619982D98283F818C002F5447232
:103D0000DA6118625C625DF8044B7047085E00205F
:103D10006C67030890F4030808B50321C06C09F030
:103D2000ABFB4FF0000008BD79B908B590F8313011
:103D300083F0010380F831301BB104490AF084FBA1
:103D400008BD03490AF080FBFAE77047085E0020CF
:103D50001C5E0020114B9B6ABFF35B8F13F0010FB9
:103D600001D00F48704710B50E482DF0D0FE08B9AD
:103D70000B4810BD0A482CF02FFA084C0A4A0B4990
:103D800004F12C002DF0F5FA04F128002DF0CEFE00
:103D9000EEE704482DF0C7FE2DF066FB085E00201C
:103DA000345E0020305E00204401002069010308D9
:103DB00038B505460160002303714371837109F032
:103DC00021F9A8602FF0D0F90D4C84FB0023A3EB60
:103DD000E07303EB4303A0EB430301332B712FF09C
:103DE000C3F984FB0023A3EBE07303EB4303A0EBD5
:103DF000430301336B710123AB71284638BD00BF0B
:103E0000ABAAAA2A70B50646006803685B6B9847A0
:103E1000054630680368DB6A9847284400EBD07099
:103E20004510306803689B6B984704463068036808
:103E30001B6B9847231803EBD3735B1096F9042090
:103E4000551905D41146B068D0F88800854203DBC7
:103E5000D2B252423271002196F905000246C318CF
:103E600004D4B468D4F88C40A34203DBC0B240420F
:103E70007071002230680368DC690123A04770BDBF
:103E800038B504461D460D4B0AF0ACFA0C4B2360C6
:103E9000002384F8313084F831501DB1012323749C
:103EA000204638BD054920460AF0CEFAF6E7054B14
:103EB000236020460CF07EFC2DF0D6FA085E002030
:103EC000BC6D0308D8F3030830B5ADF5177D054682
:103ED00089AC0123002211462046FFF7D1FFEB6C8D
:103EE000D3F88810BDF93022891AD3F88C20BDF997
:103EF0003232D21A02EBD27201EBD171002352108E
:103F0000491020460CF07EFC4FF4004120460CF096
:103F100021FC00230293012301934FF0FF13009330
:103F20001E23962278217FA80BF08FFC28217FA8E2
:103F30000CF010FC0023029301934FF47F030093D5
:103F40001E237822962175A80BF07FFC322175A8DC
:103F50000CF000FC4FF47F4301937823009360231F
:103F600022222E216CA80BF01FFC1E216CA80CF045
:103F7000F1FBBF4B01934C2300936E2322222E2191
:103F800063A80BF011FC1E2163A80CF0E3FB09F001
:103F900099FC01904FF0FF1300930A230022B549CA
:103FA00055A80BF010FF462155A80CF0D3FB09F0E3
:103FB000C7FC0190AE4B009314230022AD4947A8E3
:103FC0000BF001FF502147A80CF0C4FB09F032FDB3
:103FD00001904FF6FF7300931E230022A54939A8D4
:103FE0000BF0F1FE5A2139A80CF0B4FB09F0A8FC43
:103FF00002904FF0FF1301934FF47F43009332235D
:1040000000229C492BA80BF057FF64212BA80CF031
:10401000A1FB09F0DBFB0190FF2300934623002264
:1040200094491DA80BF0CFFE6E211DA80CF092FB49
:1040300001230293FF2301930A23009364230022A8
:10404000114611A80BF0B6FA0A2111A80CF082FB58
:10405000012302934FF6FF7301930A230093142365
:10406000462264210DEB03000BF0A4FA14210DEBA2
:1040700001000CF06FFB0C2008F033FE04467FA912
:10408000FFF796FE7C4BDC670C2008F02AFE044606
:1040900075A9FFF78DFE784BC3F880400C2008F01F
:1040A00020FE04466CA9FFF783FE734BC3F88440DF
:1040B0000C2008F016FE044663A9FFF779FE6E4B4C
:1040C000C3F888400C2008F00CFE044655A9FFF701
:1040D0006FFE694BC3F88C400C2008F002FE0446CA
:1040E00047A9FFF765FE644BC3F890400C2008F029
:1040F000F8FD044639A9FFF75BFE5F4BC3F8944017
:104100000C2008F0EEFD04462BA9FFF751FE5A4B98
:10411000C3F898400C2008F0E4FD04461DA9FFF701
:1041200047FE554BC3F89C400C2008F0DAFD0446CE
:1041300011A9FFF73DFE504BC3F8A0400C2008F03A
:10414000D0FD044605A9FFF733FE4B4BC3F8A4404E
:1041500001E0C0B290B1E86C4FF0FF3100F5C35000
:1041600014300DF09EFAF4E701340A2C08D8424BC3
:1041700003EB8403D86FFFF745FEF5E70024F4E76F
:10418000E86C00F5C35014300DF09EFAE86C00F5B1
:10419000C15004300DF0E7FA01200DF031FBDAE7F1
:1041A0000C2120462DF05EF905A8344B03600CF07D
:1041B00001FB11A8314B03600CF0FCFA1DA8304B39
:1041C00003600CF0F7FA2BA82D4B03600CF0F2FA09
:1041D00039A82B4B03600CF0EDFA47A8284B03607D
:1041E0000CF0E8FA55A8264B03600CF0E3FA254BD7
:1041F000639363A80CF0DEFA224B6C936CA80CF06E
:10420000D9FA214B759375A80CF0D4FA1E4B7F9305
:104210007FA80CF0CFFA1D4B89931D4B899389A879
:104220000CF0C8FA2DF020F90C2120462DF01AF9D7
:10423000BAE70C2120462DF015F9B5E70C212046F0
:104240002DF010F9B0E70C2120462DF00BF9ABE76B
:104250000C2120462DF006F9A6E70C2120462DF072
:1042600001F9A1E70C2120462DF0FCF89CE700BFE6
:1042700000FFFF0090110408085E0020700204088F
:1042800034030408C001040868010408BC6D030875
:10429000D8F303080C2120462DF0E4F884E70C2124
:1042A00020462DF0DFF87FE70C2120462DF0DAF8CC
:1042B0007AE779E77DE781E785E789E78DE791E7A9
:1042C00095E799E79DE7A1E7A5E708B5FFF702FDA8
:1042D00008BD00BF10B582B0044641F2883026F018
:1042E00077FFE06C03689B68984700238DF80730E0
:1042F000E06C03681B690DF107019847C0B2002804
:10430000F6D04FF0000002B010BD70B504464FF07B
:104310000705C06C03681B6A984740B3D4F824347F
:10432000002B48D194F850303F2B29D03F2B2ED072
:1043300004F150054FF4807204F5856128462FF092
:104340009CFFE66C28462AF093FA02463368DB6944
:10435000294630469847054604F1500630462AF073
:1043600087FA02463146464820F076F9F8B1EDB2B8
:10437000072D6AD0242D68D04FF00005284670BD67
:1043800094F85423002AD1D14FF00005E4E70DF052
:1043900051FAC4F85803002384F85433E06C0368DE
:1043A000DB69012204F1500198470546D4E73448FF
:1043B00020F06CF9DBE720462BF02EFB0028D6D04E
:1043C00094F85533002BD2D194F8F13333B1D4F8AB
:1043D0002434C4F86C334FF00005C8E704F5956544
:1043E0004FF0FF3128460CF097FF0DF023FAC4F888
:1043F0006003012384F85533D4F82434C4F86C33B3
:1044000028460CF0B1FF04F150064FF4807204F519
:10441000856130462FF031FFE56C30462AF028FAEE
:1044200002462B68DB6931462846984705463046E8
:104430002AF01EFA02463146114820F00DF90028F4
:1044400095D10F4820F022F991E7D4F8243453B1E4
:1044500020462BF0E1FA30B9D4F82434C4F86C3398
:104460004FF000058AE70023012204F22441204690
:104470000CF073FE054601200DF0CBF97EE700BF7E
:1044800024A80120104B1B68BFF35B8F13F0010FB2
:1044900001D00E48704710B50B482DF038FB08B915
:1044A0000A4810BD09482BF0D5FE074C084A0949B7
:1044B000201D2CF05EFF20462DF038FBF0E702486F
:1044C0002DF031FB2CF0D0FF745F0020785F0020CE
:1044D000440100201D02030808B5C1640CF076FDFC
:1044E00008BDD0F81034994200DB062101F51571A2
:1044F00000EB41000430704702290BD9D0F810348A
:10450000994209DA0339C9B290F81404C84000F09E
:104510000100704700207047002070470A2900D929
:10452000002101F5977100EB810040687047572921
:1045300000D9582101F5A77150F82100704770B5D6
:104540002DED028BD0F81034994204DB0024204674
:10455000BDEC028B70BD04460D4600F595664FF02C
:10456000FF3130460CF0D8FE94F8E033FBB105F192
:10457000DC0304EB830393ED018A05F1E20304EB12
:104580008303D3ED017A38EE278A294620462BF0A3
:1045900051FA07EE900AF8EEE77A67EE887AFDEEB8
:1045A000E77A17EE904A30460CF0DEFECFE705F1D1
:1045B000DC0304EB830393ED018A294620462BF0AC
:1045C00039FA07EE900AF8EEE77A67EE887AFDEEA0
:1045D000E77A17EE904AE6E770B52DED028BD0F83A
:1045E0001034994204DB00242046BDEC028B70BDE0
:1045F00004460D4600F595664FF0FF3130460CF04D
:104600008BFE94F8E033BBB105F1DC0304EB8303CC
:1046100093ED018A294620462BF00CFA07EE900A0A
:10462000F8EEE77A67EE887AFDEEE77A17EE904AC1
:1046300030460CF099FED7E705F1DC0304EB830369
:1046400093ED018A05F1E20304EB8303D3ED017AD4
:1046500038EE678A294620462BF0ECF907EE900ADF
:10466000F8EEE77A67EE887AFDEEE77A17EE904A81
:10467000DEE770B52DED028BD0F81034994204DBE3
:1046800000242046BDEC028B70BD04460D4600F5AB
:1046900095664FF0FF3130460CF03EFE94F8E03363
:1046A000FBB105F1E80304EB830393ED018A05F107
:1046B000E20304EB8303D3ED017A38EE278A29461F
:1046C00020462BF0B7F907EE900AF8EEE77A67EE8E
:1046D000887AFDEEE77A17EE904A30460CF044FEF9
:1046E000CFE705F1E80304EB830393ED018A294644
:1046F00020462BF09FF907EE900AF8EEE77A67EE76
:10470000887AFDEEE77A17EE904AE6E770B52DED70
:10471000028BD0F81034994204DB00242046BDEC13
:10472000028B70BD04460D4600F595664FF0FF31D3
:1047300030460CF0F1FD94F8E033BBB105F1E8032D
:1047400004EB830393ED018A294620462BF072F98E
:1047500007EE900AF8EEE77A67EE887AFDEEE77AE0
:1047600017EE904A30460CF0FFFDD7E705F1E8035D
:1047700004EB830393ED018A05F1E20304EB830369
:10478000D3ED017A38EE678A294620462BF052F99C
:1047900007EE900AF8EEE77A67EE887AFDEEE77AA0
:1047A00017EE904ADEE790F855331BB9D0F86C331A
:1047B0008B4205D0D0F86C338B4204D8552070471B
:1047C00090F8F10370475420704710B50446FFF786
:1047D000EAFF38B9D4F86423D4F85C339A4204D29F
:1047E000012002E0542801D0002010BDD4F860233D
:1047F000D4F85C339A4201D30020F6E70120F4E7B5
:1048000000B5A3B0002301938DF808108DF809308E
:10481000012201A90CF0A1FC23B05DF804FB10B546
:10482000044604F0A3FC037A93B900224FF400512C
:104830001F480EF084FE94F8EC3323F0010384F853
:10484000EC33012384F85233872384F8533310BDAB
:1048500004F08CFC037A012B0FD194F85233002B17
:10486000E9D18B212046FFF7CBFF0CF0E3FFC4F822
:104870005803002384F85433DDE704F077FC037A0F
:10488000022BD8D100224FF4005109480EF057FEF8
:1048900094F85233002BCED18B212046FFF7B0FF86
:1048A0000CF0C8FFC4F85803002384F85433C2E75F
:1048B0000008024010B5044604F058FC037AD3B94E
:1048C00001224FF4005124480EF039FE002384F8F1
:1048D000523394F852336BB984F85533D4F86823C3
:1048E000C4F86C2384F8F13394F8EC2363F30002EA
:1048F00084F8EC2310BD04F039FC037A012B0ED1AF
:1049000094F8523313B194F8E3331BB9002384F8BD
:104910005233DEE78B212046FFF772FFF6E704F003
:1049200025FC037A022B02D004F020FCD1E70122FF
:104930004FF4005108480EF002FE94F8523313B1C0
:1049400094F8E3331BB9002384F85233C1E78B2179
:104950002046FFF755FFF6E70008024038B5044649
:1049600002E001200CF055FF94F85433002BF8D0EE
:10497000D4F85C533F212046FFF742FF02E00120BC
:104980000CF047FFD4F85C33AB42F8D038BD30B5FB
:1049900083B00D461146069C83EAE370A0EBE370FA
:1049A00042F2107C64450FD0B4F57A7F1ED0642C9F
:1049B0002CD00A2C3AD0002B48DB254B0090254AFE
:1049C00028462FF07DFB0CE0002B0DDB204B90FBED
:1049D000F4F204FB1204019400921F4A28462FF0BF
:1049E0006FFB284603B030BD1C4BF0E7002B0BDB00
:1049F000174B90FBF4F204FB120401940092184A46
:104A000028462FF05DFBECE7144BF2E7002B0BDBA5
:104A10000F4B90FBF4F204FB120401940092114A34
:104A200028462FF04DFBDCE70C4BF2E7002B0BDBAD
:104A3000074B90FBF4F204FB1204019400920A4A23
:104A400028462FF03DFBCCE7044BF2E7034BB5E7DC
:104A5000100F0408DC110408AC110408881B0408BA
:104A6000B8110408C4110408D01104082DE9F0415C
:104A700082B00C461546089F099E9DF82880009735
:104A8000FFF785FFB8F1000F12D0012F10DD20468F
:104A900029F0EEFE431E03E000208CF80000013BED
:104AA00033B104EB030CE05C3028F5D02E28F3D0B2
:104AB0004EB1204629F0DCFE0096054B054A291A26
:104AC00020442FF0FDFA204602B0BDE8F08100BF7F
:104AD000E4110408E8110408F8B505460E463A2129
:104AE00030462FF0ABFB30B3002300F8013B2EF033
:104AF00005FBC7B2002401E00134E4B20A2C09D856
:104B000004F5977305EB83035968304629F0A6FE38
:104B10000028F1D10A2C00D9002495F87033A34263
:104B20000BD013B9012385F80E3485F8704385F84E
:104B300071730120F8BD0027DCE795F87123BA42B4
:104B4000EFD10020F6E710B50C4610462EF0D3FA50
:104B500051EC100B29F042FD07EE900A94ED007A1B
:104B6000B4EE677AF1EE10FA14BF0120002001D0F4
:104B7000C4ED007A10BD10B50C4610462EF0BEFAFA
:104B800003462268824214BF0120002000D0236027
:104B900010BD70B506460C463D2120462FF04EFB59
:104BA00030B30546002305F8013B601C2EF0A6FA41
:104BB000202813DC0A281BDBA0F10A03162B17D8C8
:104BC000DFE803F017161627161616161616161611
:104BD000371616161616161647576700B0F5BC7F1F
:104BE00006D196F8144428462EF088FA844260D103
:104BF00070BDD6F8184428462EF084FA8442F7D0C7
:104C000028462EF07FFAC6F81804012386F80F34E0
:104C1000EEE796F81C4428462EF070FA8442E7D05E
:104C200028462EF06BFA86F81C04012386F80F3410
:104C3000DEE7B6F81E4428462EF060FA8442D7D04C
:104C400028462EF05BFAA6F81E04012386F80F34DE
:104C5000CEE7B6F8204428462EF054FA8442C7D056
:104C600028462EF04FFAA6F82004012386F80F34C8
:104C7000BEE7B6F8224428462EF044FA8442B7D064
:104C800028462EF03FFAA6F82204012386F80F34B6
:104C9000AEE796F81D4428462EF030FA8442A7D09D
:104CA00028462EF02BFA86F81D04012386F80F34CF
:104CB0009EE728462EF022FA86F81404012386F88F
:104CC0000F3495E72DE9F04106460C4617460025BE
:104CD000A84607E02C2120462FF0B0FA044678B110
:104CE00001340135D6F81034AB4209DD224607EB1A
:104CF00085013046FFF727FF0028EBD08046E9E723
:104D00004046BDE8F08110B5044600F56372FFF738
:104D1000D9FF94F8E83360F3C30384F8E83394F8D8
:104D2000E123DBB262F3451384F8E83310BD70B5BC
:104D300004460E462C2130462FF080FA054600230B
:104D400005F8013B324604F575712046FFF713FF65
:104D500028B194F8EA3343F0010384F8EA332C21B4
:104D600028462FF06BFA0646002306F8013B2A4638
:104D700004F576712046FFF7FEFE28B194F8EA3379
:104D800043F0020384F8EA33324604F58161204699
:104D9000FFF7F1FE28B194F8EA3343F0040384F8F6
:104DA000EA3370BD70B504460E462C2130462FF014
:104DB00045FA0546002305F8013B324604F57771B4
:104DC0002046FFF7C0FE28B194F8E93343F0020310
:104DD00084F8E9332C2128462FF030FA0646F0B14A
:104DE000002306F8013B2A4604F57F712046FFF7B1
:104DF000AAFE28B194F8E93343F0040384F8E933B8
:104E000066B1324604F580612046FFF79CFE28B16A
:104E100094F8E93343F0040384F8E93370BD04F5F2
:104E2000806300221A60DEE770B5044600F5A875BD
:104E3000C549284629F012FD20B394F850313C2B87
:104E40002AD05B2B00F0B781242B00F008820622C9
:104E5000BE4928462FF0FFF9002800F005820622FF
:104E6000BB4928462FF0F7F9A8B904F5AB702EF02E
:104E700045F984F8F00394F8E93343F0080384F823
:104E8000E93308E00CF0D6FCC4F86403002384F88E
:104E9000553384F8F13370BD012384F854330CF09A
:104EA000C9FCC4F85C03AB4904F251102FF0F8F9C7
:104EB0000546F8B101462046FFF70EFE28B194F8EA
:104EC000E83343F0020384F8E83394F8F03363B135
:104ED00094F87033052B08D0002284F8F02394F85E
:104EE000E93362F3C30384F8E9339A4900202FF0D1
:104EF000D7F90546002610E004F55D72691D2046CD
:104F0000FFF7E0FE94F8E83360F3820384F8E833B7
:104F1000904900202FF0C4F90546002D00F03381A0
:104F200005228D4928462FF096F968B994F8E033A8
:104F3000002BE1D1012384F8E03394F8E83343F007
:104F4000080384F8E833D7E70522844928462FF080
:104F500082F9C0B994F8E03343B1002384F8E03318
:104F600094F8E83343F0080384F8E83304F55D72FD
:104F7000691D2046FFF7A6FE94F8E83360F382032C
:104F800084F8E833C4E70322754928462FF063F913
:104F900008B30422734928462FF05DF900B30322B9
:104FA000714928462FF057F9002841D002226F4955
:104FB00028462FF050F9002844D1AB78312B14BF8C
:104FC0000023012384F8E43394F8E93343F0200309
:104FD00084F8E9339CE7E91C2046FFF7E3FE97E7F6
:104FE000291D2046FFF78FFE92E701260133092B8A
:104FF00021D8E21892F8F203DA1CA918AA5C9042B0
:1050000005D094F8E92342F0400284F8E923E2183D
:10501000002082F8F2030A786AB13E2A0BD0E11828
:1050200081F8F223502AE0D0702ADFD10126DDE793
:1050300000231E46DBE7002384F8FB3384F8E56396
:10504000012665E702224A4928462FF004F948B3B1
:105050000322484928462FF0FEF8002800F08E80F1
:105060000422454928462FF0F6F800287FF450AF77
:1050700094F8E3232B79312B14BF002301239A42A8
:1050800009D082F0010284F8E32394F8E83343F076
:10509000010384F8E83394F8EC3343F0010384F817
:1050A000EC3335E70235002384F80D3484F80C34F2
:1050B00084F8043494F8E83343F0400384F8E83388
:1050C00015F8013B002B3FF423AF433B102BF7D8DF
:1050D00001A252F823F000BF3B510008C150000864
:1050E000C150000825510008C1500008C1500008F7
:1050F000C1500008C1500008C1500008C15000084C
:105100001D510008C1500008C1500008C1500008DE
:10511000C1500008C15000082D510008012384F837
:105120000D34CDE7012384F80C34C9E7002384F85B
:105130000534012384F80434C2E7012384F80534DC
:1051400084F80434BCE700BFF011040844120408DA
:105150004C120408F4110408F811040800120408A1
:10516000081204080C120408141204081812040887
:105170001C1204082012040824120408E91C20460A
:10518000FFF7D5FDC4E67EB994F8F233002B14BFC7
:105190000122002294F8E93362F3861384F8E9339C
:1051A00002D0002384F8F233002E7FF474AE002383
:1051B00084F8E5336FE604F251150422324928469B
:1051C0002FF049F810B30422304928462FF043F855
:1051D00050B304222E4928462FF03DF805460028FA
:1051E0007FF459AE04F25516324604F5826120462A
:1051F000FFF7C1FCD4F81034052B02DD0523C4F8F9
:1052000010343A2130462FF019F823E004F5697282
:1052100004F255112046FFF755FD94F8EA3360F388
:10522000C30384F8EA33D4E704F56F7204F255112E
:105230002046FFF747FD94F8EA3360F3041384F83F
:10524000EA33C6E743195A7805F5157304EB4303AF
:105250001A710135D4F81034AB42F3DC1BE6294651
:105260002046FFF796FC16E604F5AB702DF046FFDE
:1052700084F8F10394F8E93343F0100384F8E93338
:10528000002384F8553306E62C120408341204086F
:105290003C12040870B582B0044600258DF8075012
:1052A00004E00023A4F850331F2D32D9E06C0368CA
:1052B0001B690DF107019847C0B298BB9DF80730F4
:1052C000182BEED0B4F85023B2F5FE7FE9D80A2BA4
:1052D00008D00D2B06D0511CA4F85013224482F89C
:1052E0005031E1E71AB90023A4F85033DCE7224437
:1052F000002382F8503104F595664FF0FF313046B7
:105300000CF00AF82046FFF78FFD30460CF02CF821
:10531000E9E76A1C0A4B2B449DF8071083F8A01696
:1053200095B2C3E70DB902B070BD2A4605490648DB
:105330001FF092F90028F6D103481FF0A7F9F2E711
:10534000745F00201466002024A8012070B5044674
:1053500000F595664FF0FF3130460BF0DDFFD4F8D5
:1053600068536B1CC4F8683313B9AB1CC4F86833BA
:1053700030460BF0F9FF284670BD2DE9F041A2B090
:1053800006460D4690464FF00D072AF045FB10B13A
:1053900096F870331BB9384622B0BDE8F08130462C
:1053A000FFF7D4FF019000237F2B0BD8EC5C03F1B7
:1053B00088020DEB020101F8804C0CB10133F3E7D8
:1053C0004FF00007FBB2002BE5D11A4601A9304689
:1053D0000BF0C3FE0746019BC8F80030DBE710B5B1
:1053E0000446FFF757FF0CF025FAD4F85C33C01AD7
:1053F000B0F5967F05D9002384F87033012384F833
:10540000543320462AF008FB10B194F8703363B986
:1054100094F855334BB1002384F85533D4F86833EE
:10542000C4F86C33562384F8F13303F09FFE037AFB
:10543000012B13D194F85233B3B920462AF0ECFA79
:1054400010B194F80E349BBB20462AF0E5FA10B157
:1054500094F85433B3BB4FF0000010BD03F086FE48
:10546000037A022BE9D1E5E720462AF0D5FA002895
:10547000E3D194F8EC3313F0010F07D10CF0DAF913
:10548000D4F85833C01AB0F5967FD6D98B21204670
:10549000FFF7B6F90CF0CEF9C4F85803002284F8EF
:1054A000542394F8EC3362F3000384F8EC33C4E73C
:1054B00020462AF053FF20462AF05EFF002384F89E
:1054C0000E34C1E70CF0B6F9D4F85833C01A64288A
:1054D000C1D9E06C03681B6A98470028BBD00CF068
:1054E000A9F9C4F85803002384F85433E06C036826
:1054F000DB69012204F2533198473F2384F8533388
:105500000122054905481FF0A7F80028A3D1034848
:105510001FF0BCF89FE700BF5412040824A8012024
:105520002DE9F041AEB004460D469DF8D0804FF015
:105530000300D4F810148D4202DB2EB0BDE8F081D8
:1055400017461E4620462AF067FA28B194F87033B1
:10555000012B04D0032B02D04FF00D00EDE72046C5
:10556000FFF7F4FE0D90294620462AF063FA0090DA
:105570003B46102205A92046FFF709FA6423009351
:105580003346102209A92046FFF701FA94F81C348B
:10559000DBB9104BB8F1000F19D00F4A05F515759E
:1055A00004EB4505043509A9039105A9029101956C
:1055B00000920A4A80210EA82EF082FD00231A468E
:1055C0000DA920460BF0C9FDB7E7054BE2E7054AF8
:1055D000E4E700BF581204086012040868120408C7
:1055E0005C12040864120408F0B5ABB004460D4622
:1055F0004FF00300D4F810148D4201DB2BB0F0BD46
:1056000017461E4620462AF007FA28B194F8703350
:10561000012B04D0032B02D04FF00D00EEE7204603
:10562000FFF794FE0990294620462AF003FA0090DD
:105630003B46102205A92046FFF7A9F994F81C342F
:10564000ABB90C4B05F5157504EB45050435029611
:1056500005AA01920095084A80210AA82EF030FD83
:1056600000231A4609A920460BF077FDC6E7034B35
:10567000E8E700BF58120408781204085C12040816
:105680002DE9F043BBB004460F4616461D469DF873
:105690000C912AF0C1F928B194F87033012B06D08F
:1056A000032B04D04FF00D003BB0BDE8F083204643
:1056B000FFF74CFE199094F81C34DFF8C48008EB17
:1056C0008303D3F8183200933B46102209A92046E1
:1056D000FFF75DF994F81C3408EB8303D3F8183214
:1056E0000093334610220DA92046FFF750F994F895
:1056F0001C3408EB8308D8F8183200932B4610228C
:1057000011A92046FFF743F964230093429B10221E
:1057100015A92046FFF73BF994F81C3413BB134B33
:10572000B9F1000F20D0124A04F2AC4104F2AE40AD
:1057300004F5966515AE079611AE069605950DAD66
:105740000495039009A8029001910092094A8021D2
:105750001AA82EF0B5FC00231A4619A920460BF012
:10576000FCFCA1E7044BDBE7044ADDE75812040820
:1057700060120408901204085C1204086412040801
:10578000446E03082DE9F047BAB004460D461646AC
:105790001F469DF80C819DF81091444BD3F8C036FC
:1057A0008B4215D0414BC3F8C056C3F8C46620469F
:1057B0002AF032F938B194F87033012B13D0032B4F
:1057C00011D0022B0FD04FF00D003AB0BDE8F0879A
:1057D000364BD3F8C4369342E4D1344BC3F8C016E9
:1057E000C3F8C426DEE72046FFF7B0FD199094F811
:1057F0001C34DFF8D8A00AEB8303D3F818320093E7
:105800002B46102209A92046FFF7C1F894F81C3452
:105810000AEB8303D3F818320093334610220DA904
:105820002046FFF7B4F894F81C340AEB830ADAF840
:10583000183200933B46102211A92046FFF7A7F823
:1058400064230093429B102215A92046FFF79FF87E
:1058500094F81C3423BB164BB9F1000F22D0154A23
:10586000B8F1000F20D0144904F2AC4004F2AE4568
:1058700015AE079611AE06960DAE0596049509ADC8
:1058800003950290019100920C4A80211AA82EF0F3
:1058900017FC00231A4619A920460BF05EFC94E77A
:1058A000074BD9E7074ADBE70749DDE7745F0020CC
:1058B0005812040860120408A8120408B012040860
:1058C0005C12040864120408AC120408446E030855
:1058D00030B5A3B004464FF00300D4F81034994219
:1058E00001DB23B030BD0D4620462AF095F818B1F3
:1058F00094F87033012B02D04FF00D00F1E72046F1
:10590000FFF724FD019005F5157304EB4303043301
:10591000054A802102A82EF0D3FB00231A4601A9D4
:1059200020460BF01AFCDCE7CC12040870B5A8B0D6
:1059300004460D464FF00300D4F810148D4201DBED
:1059400028B070BD164620462AF066F818B194F8C3
:105950007033012B02D04FF00D00F1E72046FFF726
:10596000F5FC0790294620462AF064F8009033465B
:10597000102203A92046FFF70AF894F81C34A3B9B3
:105980000B4B05F5157204EB4202043203A9019199
:105990000092084A802108A82EF092FB00231A46A4
:1059A00007A920460BF0D9FBCAE7034BE9E700BF84
:1059B00058120408DC1204085C1204082DE9F041B6
:1059C000AEB004460D469DF8D4804FF00300D4F8E5
:1059D00010148D4202DB2EB0BDE8F08117461E4642
:1059E00020462AF019F818B194F87033012B02D030
:1059F0004FF00D00EFE72046FFF7A8FC0D90294679
:105A000020462AF017F800903B46102205A92046B0
:105A1000FEF7BDFF642300933346102209A92046F8
:105A2000FEF7B5FFBEB9B8F1000F3AD01F4B94F89E
:105A30001C24002A37D11E4905F5157204EB4202D9
:105A4000043205A80290019200911A4A80210EA802
:105A50002EF036FB17E0B8F1000F1ED0134B94F870
:105A60001C24E2B9124905F5157204EB4202043216
:105A700009A8039005A80290019200910E4A802186
:105A80000EA82EF01DFB00231A460DA920460BF090
:105A900064FB0D9A349B1A609DE7084BDFE70849C9
:105AA000E1E7064BC3E70649C6E700BF60120408FA
:105AB0005812040800130408F012040864120408C1
:105AC0005C1204082DE9F041AAB004460D469DF889
:105AD000C4804FF00300D4F810148D4202DB2AB0CA
