:020000040800F2
:1000000000000220B914030845D1020847D10208B4
:1000100049D102084BD102084DD10208000000006E
:100020000000000000000000000000002D94020805
:100030004FD1020800000000E994020851D10208E3
:10004000091503080915030809150308091503080C
:1000500009150308091503080915030809150308FC
:1000600009150308091503080915030809150308EC
:1000700009150308091503080915030809150308DC
:1000800009150308091503080915030800000000F5
:100090000000000000000000000000000915030837
:1000A00009150308091503080915030809150308AC
:1000B000091503080915030809150308091503089C
:1000C000091503080915030809150308091503088C
:1000D0000915030867D1020809150308000000008C
:1000E0000915030809150308091503080000000095
:1000F00000000000000000000000000009150308D7
:100100000000000075D1020809150308091503084D
:1001100000000000000000000000000000000000DF
:10012000091503080915030885D1020895D10208AD
:100130000915030800000000000000000000000096
:10014000000000000000000000000000A5D102082F
:10015000B5D1020809150308C5D10208091503081D
:10016000091503080915030800000000000000003D
:10017000000000000000000000000000000000007F
:100180000000000009150308000000000000000046
:08019000091503080915030815
:1001A0002DE9F84F914CDFF89892C4F800904FF089
:1001B000010A84F804A000256571DFF88882C4F87C
:1001C0000080DFF884B2C4F808B01023E360884EE2
:1001D000884F32463946204631F097F9C4F81090DE
:1001E00084F814A06575C4F81080834BA361C4F82B
:1001F0001CA03246394604F1100031F086F9C4F8EB
:10020000209084F824A084F82550C4F82080C4F8F5
:1002100028B00823E3623246394604F1200031F069
:1002200074F9C4F8309084F8345084F83550C4F828
:100230003080714BA3634FF48063E36332463946E9
:1002400004F1300031F061F9C4F8409084F8445072
:1002500084F84550C4F84080674BA3640223E364EC
:100260003246394604F1400031F04FF9C4F850905D
:1002700084F8545084F85550C4F85080C4F858B0ED
:10028000C4F85CA03246394604F1500031F03DF923
:10029000C4F8609084F864A084F86550C4F8608065
:1002A000C4F868B04FF48073E3663246394604F10F
:1002B000600031F02AF9514B23676423A4F87430AD
:1002C000A4F876304E4B23674E4BA36704F1700BB6
:1002D00032464D49584631F018F904F17C074B4934
:1002E00038462EF023FD32464949384631F00DF9A3
:1002F000484BC4F88C30484BC4F88C30474BC4F89A
:100300001031A4F814513246454904F18C0031F003
:10031000FCF8444BC4F818310323C4F81C314FF4E3
:10032000F078C4F820814FF4A079C4F82491C4F87F
:100330002881C4F82C9184F830513B4BC4F8183113
:10034000C4F834B1C4F8384104F11003C4F83C31A6
:100350001033C4F840313246344904F58C7031F022
:10036000D4F8334BC4F8443184F8485184F84951E7
:10037000A4F84A51A4F84C512E4BC4F84431C4F8A7
:10038000507184F85451C4F85651C4F85A51C4F805
:100390005E5184F848A1A4F84A91A4F84C814FF02A
:1003A000030384F849313246234904F5A27031F041
:1003B000ACF84FF40043C4F864314023C4F868310A
:1003C00084F86C51C4F87051C4F87471C4F8785151
:1003D00042200CF052FDC4F870013246174904F572
:1003E000B27031F092F8BDE8F88F00BF180300201A
:1003F0004401002089EC020800040240480D040872
:10040000BC06040850A6012091EB020814A50120A7
:10041000EDEC0208E00D040824070408E4A701201D
:100420009DEC02082C0E0408F4F30308B1EC02085A
:100430007C0E0408B88D0308C5EC0208D9EC02084C
:100440000C0E0408180604080000024070B5144C95
:10045000236800255D62294620461EF00DFB2946D3
:1004600020461CF0E7FC0E4B1B681B6913F0020FC3
:10047000F9D000210A481CF0DDFC0446084B1B683B
:100480001B6913F0020FF9D0054E002130461CF015
:10049000D1FC0546002130461EF074FB281B70BDC0
:1004A00054A70120174B1B6813F4003FFAD0154ADC
:1004B000936823F0030343F001039360124B00227F
:1004C0001A66104B1B6813F0007FFAD10D4A53686F
:1004D00023F4800318435060536823F03F0319430B
:1004E0005160094B01221A66064B1B6813F0007F0E
:1004F000FAD0044A936823F0030343F002039360A5
:10050000704700BF003802400000474200B587B086
:1005100010210020FFF7C6FFFFF798FF144B1B6860
:1005200003EB4303134AA2FB0323B0EBD34F07D8DB
:1005300019214FF48000FFF7B5FF07B05DF804FB09
:100540006846002300930193029303930493059359
:1005500002230093084B049318F0B0FC28B9074B12
:100560000122C3F83C2E0821E3E72CF09DFAF6E7C0
:10057000DC00002083DE1B4300030800000047422C
:1005800010B510210020FFF78DFF002423460CE05A
:1005900081421ED91E2B1CD801330F490A6822F054
:1005A000F80242EAC3020A6001341E2C11D8FFF798
:1005B0004DFF094B1B68C3F3C403084A126808497E
:1005C000A1FB0212910CB0EB924FE1D90BB1013BB0
:1005D000E3E7184610BD00BF00380240DC000020F1
:1005E00083DE1B4310B582B0FFF7CAFF044618F044
:1005F000DFFD12F08DF8114A136823F0F80343EA87
:10060000C40313604FF0E02300221A615A619A611B
:100610000B4B0193019B596862B60A4B1A6822F092
:1006200003021A601A6842F001021A60019B1B68FB
:1006300083F30888884702B010BD00BF003802402D
:100640000000FF1F0038014038B5FFF75FFF254C61
:10065000236D1B6904F15000984794F85530003B16
:1006600018BF0123984234D008F092FD1D4C04F5C8
:10067000B27108F0ADFD0CF08DFD04F5A27204F529
:100680008C710CF00DFC11F0D2FB03681D6A04F1B3
:10069000600300221449A84705F0F7FE0022134921
:1006A00005F01EFF236B1B6904F13000984794F896
:1006B0003530003B18BF012398420DD003F0F4FE03
:1006C0000B4903F01BFF00F0F8F803681B6898471C
:1006D00038BDFFF787FFC7E70BF034FD03681B68E1
:1006E0009847F5E7180300209CA701200CA70120DC
:1006F000A403002000BEFEE7704708B5FFF750FDD9
:1007000008BD00BF00F5005090F86C3113B94FF0F0
:10071000000070474FF00400704770B5064600F5C2
:100720000054D4F8640190F8701303F009FF0146F7
:10073000002206F628500FF045FDD4F8640190F829
:10074000F11303F006FF0146002206F556600FF094
:1007500039FDD4F8641191F8E923134623F04003DE
:1007600081F8E933C2F3801201F2F23106F69850B3
:100770000FF028FD002511E005EBC504640104F528
:100780005D64344406F50053E9B2D3F8640103F024
:1007900035FF0146204601F09AF90135052DEBD9C8
:1007A00006F50053D3F8643193F852336BB306F671
:1007B00038440121204611F057FF06F50053D3F8C5
:1007C000643193F8E333F3B14FF47F41204611F0E5
:1007D0006CFE06F50055D5F86431002483F80F440B
:1007E000D6F89030123306EB8306706803685B69B5
:1007F00014219847D5F85C0100F5C150043011F080
:100800007AF8204670BDFF21E0E706F63844002163
:10081000204611F029FF06F50053D3F8643193F810
:10082000E33323B1FF21204611F03FFED1E76FF003
:100830007F41F8E703464FF00200002B3CD0F0B5B3
:1008400083B01E460B88ADF804309DF80450E5B91E
:1008500006F5B154183423685B6920469847B0B157
:1008600023685B6C2046984788B19DF8057039462F
:10087000204611F0F9FE57B923685B6C2046984773
:1008800028B1204611F000FF01E0012D05D0062D12
:1008900007D04FF0000003B0F0BD06F5BD5418348A
:1008A000D9E79DF80530002BF3D033689B6906F635
:1008B000384130469847ECE7704708B50F4B1B6846
:1008C000BFF35B8F13F0010F01D00D4808BD0B483B
:1008D00031F0E9F90028F8D009482EF0E7FF094A7D
:1008E0000949074830F011FE044831F0EBF9ECE714
:1008F000024831F0E4F930F083FE00BF9404002098
:100900009804002044010020B5F702082DE9F041C9
:1009100084B004460F46002960D000F50053D3F898
:100920005C31D3F88830083B424D85FB0325A5EBAD
:10093000E37504F5B156183604F50053D3F85C316D
:10094000D3F88C800DF002F90368DB68984700EB60
:100950004000A8EB00080DF0F9F80368DB68984741
:1009600000EB4000012302930190009543460022D2
:100970003149304611F060FC2EF074FA0146002334
:100980001A46304611F07CFE304611F039FE87BB26
:1009900004F5BD56183604F50053D3F85C31D3F88E
:1009A000882004F58054B4F9463601210291019360
:1009B0000095B4F93E36521B1F49304611F03CFCFD
:1009C0002EF050FA014600231A46304611F058FE28
:1009D000304611F015FE04B0BDE8F08100F500537B
:1009E000D3F85C31D3F8885005EBD5756D10043D14
:1009F0009FE704F5B756183604F58053B3F940263F
:100A0000B3F946160120029001910095B3F93E36E4
:100A100005320949304611F00FFC2EF023FA014649
:100A200000231A46304611F02BFE304611F0E8FD47
:100A3000AEE700BF56555555A810040808B500F597
:100A40000053D3F8643193F87033022B06D0074972
:100A500000F5B150183011F0E4FC08BD044900F570
:100A6000B150183011F0DDFCF7E700BFB40E0408F8
:100A7000AC0E040808B500F50053D3F8643193F8C0
:100A80007033012B00D033B929B100F5B1501830C3
:100A900011F0C7FC01E0FFF7D1FF08BD08B500F574
:100AA0000053D3F8642192F87033052B09D00BB1B1
:100AB000092B18D10F4900F5BD50183011F0B1FCC9
:100AC00008BD92F8F1334F2B06D00B4900F5BD500D
:100AD000183011F0A6FCF3E7064900F5BD501830B8
:100AE00011F09FFCECE7054900F5BD50183011F0FE
:100AF00098FCE5E7701C0408B80E0408C00E040852
:100B000008B500F50053D3F8643193F87033012B26
:100B100006D129B100F5BD50183011F082FC01E07A
:100B2000FFF7BCFF08BD38B5054600240F2C21D8BF
:100B300004F1120305EB83035B688B4201D001349F
:100B4000F4E7D5F89030123305EB83035868036857
:100B50001B699847C5F89040214605F1940005F0BF
:100B60008AFBD5F89030123305EB8305686803687B
:100B7000DB68984738BD70B58AB0044603A828F0F2
:100B8000E8FE04F5B0551835049B154A2021284687
:100B900033F062FB04F5AF560122294630460FF0D0
:100BA00011FB04F50053D3F85C31D3F8882002EB35
:100BB000D27204F58054B4F9EC3503EBD3735C10B6
:100BC000C4EB62040CF084FF01906FF07F4300934C
:100BD0001E232246294630460FF06DF90AB070BD3B
:100BE000C80E040838B504460D46D0F890301233CC
:100BF00000EB8303586803681B699847C4F890505A
:100C0000294604F1940005F036FBD4F890301233F5
:100C100004EB830460680368DB68984738BD70B5EF
:100C200004460D464FF0000600F638438B4214D0C0
:100C300004F19403AB4221D0D4F89030123304EB8A
:100C40008303586803689B69294698470646F6B2AD
:100C5000092E19D04FF0000070BD90F8483C002BD1
:100C6000E6D000F50053D3F8640190F8523313B97D
:100C700003F0E7FDEBE703F02FFEE8E794F8C01080
:100C80002046FFF7AFFFE2E704F5B1531833AB425C
:100C90001CD004F5BD531833AB42DBD104F500542E
:100CA000D4F8640190F87033052B1FD00BB1092BD9
:100CB00030D1002380F8F13380F85533D0F8683311
:100CC000C0F86C33182103F0ADFDC3E704F5005400
:100CD000D4F8640190F87033022B03D0812103F023
:100CE000A1FDB7E7822103F09DFDB3E790F8F13352
:100CF0004F2B02D02EF0F4FAACE7002380F8F1334A
:100D000080F85533D0F86833C0F86C33182103F0FD
:100D100089FD9FE7002380F85533D0F86833C0F889
:100D20006C33192103F07EFD94E72DE9F04383B085
:100D3000044600F19405284605F0B4F804F500587F
:100D4000D8F85C31D3F88830082201922827009720
:100D500000221146284605F0A2FA0026C4F88C604D
:100D60000CF03AFE03463E4A3146284605F00BFA9F
:100D700002F042F9D4F88C3003F10109C4F88C90E8
:100D8000123304EB830358600CF026FE0346354A09
:100D90004946284605F0F7F908F00EFFD4F88C30E4
:100DA00003F10109C4F88C90123304EB83035860FB
:100DB0000CF012FE03462C4A4946284605F0E3F99A
:100DC00009F0B8FFD4F88C3003F10109C4F88C9015
:100DD000123304EB830358600CF0FEFD0346234AF4
:100DE0004946284605F0CFF902F05EFFD4F88C3072
:100DF00003F10109C4F88C90123304EB83035860AB
:100E00000CF0EAFD03461A4A4946284605F0BBF9AC
:100E10000AF076FDD4F88C305A1CC4F88C201233BA
:100E200004EB83035860D8F85C31D3F88830019222
:100E3000009732463146284605F031FA284605F03B
:100E4000DFFA334632462146284605F0D5FA4FF4FC
:100E5000FA61284604F0CEFF03B0BDE8F08300BF7E
:100E6000E00E0408EC0E0408F80E0408080F04084D
:100E7000180F04082DE9F04F89B0044608F088F9EE
:100E800008F0AAF98DF81F0004F50056D6F85C5159
:100E900008F07EF9C168003918BF012128460CF01E
:100EA00020F896F85811D6F85C010CF0ADFBD6F896
:100EB0005C31B94AC3F88020D6F85C31D3F88C7025
:100EC0000CF044FE0368DB68984700EB40003F1AD3
:100ED0000CF082FD0368DB689847A7EB4007023FF0
:100EE000D6F85C31D3F888500CF076FD03689B6827
:100EF000984700EB4000A5EB40080CF06DFD03683F
:100F0000DB689847400004F6F84900250295A34B9A
:100F10000193009043463A46294648460EF0DBFBD3
:100F20004FF47A7148460FF0DDFC04F5C35909F11E
:100F300018099B4F02233A463946484607F05CFFA2
:100F40002B462A462146484607F052FFD6F8640150
:100F500003F0C2FC04F6384AD6F85C31D3F8888036
:100F60000CF03AFD03689B68984700EB4000A8EB43
:100F7000400808F1FF38B4F9FEBC0CF02DFD036801
:100F80009B68984700EB40004000B4F9063D012201
:100F90000292019300905B4642468249504611F00E
:100FA0004BF92B462A462146504611F069FB29464B
:100FB000504611F059FB4FF47A7150460FF092FCF5
:100FC000B4F9FE8CB4F9063D03EBD37308EB630868
:100FD0000CF002FD0368DB689847A8EB50080CF0A2
:100FE000FBFC04F6285B01906FF07F4300934346BF
:100FF0000422394658460EF05EFFB4F92CAD0CF0D1
:10100000EBFC03689B68984700EB800082440CF07F
:101010009DFD03689B6898470AEB00020592B4F9AE
:10102000028D0CF093FD0368DB689847A8EB00087D
:10103000A8F102080CF08AFD04F5566A01906FF0E1
:101040007F4300934346059A394650460EF033FFDE
:10105000B4F93C8C0CF0B6FD03689B68984700EB34
:10106000800300EB4300A8EB00030593B4F9FE1CDA
:1010700006910CF0A7FD04F698580190FF23009309
:1010800006990B1D059A394640460EF014FF40F2B2
:10109000E93158460FF026FC40F2EA3150460FF095
:1010A00021FC40F2EB3140460FF01CFC04F50553E7
:1010B000343301934323009323463B4A2146D6F819
:1010C000600105F037FA29462046FFF71FFC20464D
:1010D000FFF72BFE09E005EBC500400100F55D6060
:1010E0000021204400F0F3FC0135052DF3D904F56F
:1010F000B05518350CF0ECFC01906FF07F43009375
:1011000000231A46294604F5AF500EF0D4FE002500
:101110000CE005F1120304EB83035868B4F9FE2CCC
:1011200003689B68283A282198470135D4F88C3009
:10113000AB42EED80023C4F890309DF81F30CBB9F5
:10114000D4F8901004F1940005F095F8D4F890309C
:10115000123304EB830358680368DB68984704F58F
:101160000054D4F8640103F06CFB4FF0000009B0A8
:10117000BDE8F08F02230D4A0D49484607F03CFEBA
:1011800042F21071484607F03DFFD4F88C30013B25
:10119000C4F89030D4E700BF404040008080800019
:1011A000A8100408240F040835080008280F0408B4
:1011B000740F040838B503464FF00200B3B11C4663
:1011C00091B103F1D405D3F82031626901FB0231FA
:1011D000284600F07CFCA36933B1D4F8202153F8F1
:1011E0002210284600F0C1FC4FF0000038BD01601D
:1011F00042608360704710B504464169012914BFFD
:101200000021012100F5FA7011F02EFA61690A2916
:1012100014BF0021012104F52D7011F025FA616938
:10122000642914BF0021012104F55D7011F01CFA3E
:1012300010BD94463AB90120704701FB00F001331C
:101240006345FAD3704708460123F9E72DE9F04FCB
:1012500089B004460F4606921E4600238361D44B94
:101260001B68BFF35B8F13F0010F6CD004F19C057A
:101270000CF0B2FB01906FF07F43009300231A46FD
:10128000394628460EF017FE9DF8541028460EF0F9
:101290005CFFC74F7968B4F9A830C91A0023082247
:1012A000490828460FF076FB04F1200B59462846E2
:1012B0000FF0D8FA012128460FF014FB04F1D405F1
:1012C000B4F9A6807F68103F0CF040FC0368DB682F
:1012D000984700EB8000149B02930D23019300902C
:1012E0003B4608F108020821284600F017FB4FF49E
:1012F0007F420421284600F0DEFB0CF027FC01466B
:101300000222284600F031FD139A1299284600F077
:1013100025FC3146284600F0DAFB0CF017FC0346AA
:1013200005220699284600F035FD002684F8E46081
:10133000594628460FF096FA012128460FF0D2FAB6
:10134000CDF81CB07DE09A4830F0ADFC00288DD07F
:10135000D4F8F035D3F888309548436030F0B2FCCB
:1013600084E7B4F9E070083F924BA3FB07377F088E
:1013700003F09AF8054606F1440804EB081806F550
:10138000867304EB8303D3F80490149A0A21204651
:10139000FFF74FFF00904B4610224146284603F0CE
:1013A00008FB40462DF02CFB069B834AC0F1100140
:1013B000404432F051FF4FEA460B06EB4605AD01C3
:1013C00005F5F87525440435B4F9D8303A1D06FB07
:1013D00002330593B4F9DEA00CF0B8FB0368DB68B8
:1013E000984700EB80004FF00109CDF8089001907C
:1013F00000970AF10803059A4146284610F01CFFA1
:101400002DF030FD014623466C4A284611F038F98C
:101410000021284611F028F90321284611F0BDF8D3
:101420000BEB060704EB8717D7F8F4319B68079995
:1014300028469847D7F8F431DB684946284698474C
:101440004E44022E8DD9DDF81CB0149B022B01D91D
:1014500002231493149A0A212046FFF7EAFE6061E2
:10146000149B03EB4300800100F5F8702044012138
:10147000043011F0F9F804F14C084D4FD7F80490FE
:10148000D4F8F4319B6B04F5FA7098470126029664
:1014900000250195083000904B462A4629464046D3
:1014A0000EF019F9042140460EF074F94FF6FF7161
:1014B00040460EF09FF9294640460EF0B1F95946D4
:1014C00040460FF0CFF9294640460FF00BFAD4F80A
:1014D000F035D3F88C20B4F95A30D21A02EBD2721C
:1014E00000937B683241294658460FF008F9D4F83A
:1014F000F025D2F88830D2F88C2000922A4629466E
:1015000004F17C000EF09FF984F88C6004F58E687D
:10151000D4F8F035D3F88C700CF018FB0368DB6856
:10152000984700EB40003F1AD4F8F035D3F88820F4
:1015300002EBD27242FA06F90CF008FB0368DB6892
:10154000984700EB400002960190A9F10402009236
:101550003B462A461A49404610F06EFE2DF082FCAA
:101560000146DFF8589023464A46404611F088F875
:1015700004F5A667D4F8F035D3F88810B4F97C24C4
:10158000B4F97E34029601930092B4F976348A1A43
:101590000C49384610F050FE2DF064FC01462346FD
:1015A0004A46384611F06CF8284609B0BDE8F08F7D
:1015B00024260020ABAAAAAA800F0408231700083B
:1015C000840F0408880F04082DE9F04184B0054613
:1015D00016461F46DDF828809DF82C300393002422
:1015E00002947B1E0193009443461E4AFFF72EFE91
:1015F000AE61EF6156F8281005F1D40000F0B5FA9D
:101600000FE004EB4400800100F5F870284404EB7F
:10161000440305EB8313D3F8F4311B690430984776
:101620000134022CEDD905F14C06B5F9DE3001226A
:1016300002920024019408330093B5F958302246F1
:10164000214630460EF047F8042130460EF0A2F84D
:101650004FF6FF7130460EF0CDF8204604B0BDE8DD
:10166000F08100BFA810040830B583B004460D46D1
:101670007C300FF037F9691C04F120000FF032F9CB
:10168000A91C04F58E600FF02DF9E91C04F5A66085
:101690000FF028F904F0F9FE05462DF0E3FB0146B2
:1016A00004F2F453009323460B4A284604F07AFFD1
:1016B00004F0EBFE05462DF0D5FB014604F20C6369
:1016C00001937F2300932346044A284604F032FF07
:1016D0004FF0000003B030BDB5110008231700081B
:1016E00010B5044604F0D1FE04F2F45104F077FF83
:1016F00004F0CBFE04F20C6104F03CFF04F1200086
:101700000FF0FFF804F17C000FF0FBF804F58E6099
:101710000FF0F7F804F5A6600FF0F3F84FF00000B3
:1017200010BD03464FF00200002B5ED070B582B0B2
:101730001C4603F58E658D4224D003F5A6668E42C5
:1017400020D003F5FA738B4239D004F52D738B4208
:1017500038D004F55D738B4237D00B88ADF8043078
:101760009DF80430002B33D0012B1AD19DF8055081
:101770002946304610F078FF9DB931462046FFF7E4
:10178000D0FF0EE08D4214BF0021012121742046BC
:10179000FFF7A6FF206858B12346A26861680FF0E2
:1017A00071FD2046FFF727FD4FF0000002B070BD2D
:1017B0006368002BF5D02146A0689847F1E7012324
:1017C0006361EEE70A236361EBE764236361E8E7A3
:1017D0009DF805603146284610F046FF002EE0D106
:1017E00029462046FFF79DFFDBE770472DE9F041D2
:1017F00082B004460E4617461D46DDF82080B0F93B
:101800000630B0F90400A8EB00000090EB1A04F1D8
:1018100050000DF0C3FCB4F90630B4F90420A8EB75
:1018200002020092EB1A3A46314604F1B8000EF07B
:101830006DFA94F8183113B902B0BDE8F081B4F92B
:101840000630B4F90420A8EB02020092EB1A3A46E3
:10185000314604F180000EF059FAEDE72DE9F04130
:1018600082B004460E4617461D46DDF82080B0F9CA
:101870000430B0F90600A8EB00000090EB1A04F168
:1018800050000DF0E4FCB4F90430B4F90620A8EBE4
:1018900002020092EB1A3A46314604F1B8000EF00B
:1018A000AAFA94F8183113B902B0BDE8F081B4F97E
:1018B0000430B4F90620A8EB02020092EB1A3A4673
:1018C000314604F180000EF096FAEDE710B50446BB
:1018D00005290DD8DFE801F0030D0C0C03140E49A7
:1018E00050300DF09DFF2368DB6C002120469847A7
:1018F00010BD006A20B12346A26A616A0FF0C2FCE3
:10190000002104F150000DF08BFF2368DB6C0021F7
:1019100020469847ECE700BF808080002DE9F04129
:1019200084B004461F460A9E0B9DDDF830804FF0C0
:10193000FF33C3648180C280CB199BB2013B03811A
:1019400093199BB2013B43818781C681A5EB0803B4
:101950008363C0F83C8001220264002105E0226C10
:1019600002EB82025200226401318845F7DCB8F1B3
:10197000000F14D0CDF80080394A102104F584708E
:1019800032F06AFCB8F1000F00D0013504F1F00824
:1019900040462DF035F8A84213D000220BE0314A22
:1019A000102104F5847032F057FCEBE70021A318F6
:1019B00083F8F0100132172A03D89542F6D9202176
:1019C000F5E7012302930025019500963B462A4640
:1019D000294604F150000DF07EFE04F1B8070CF02A
:1019E000B5F801906FF07F4300932B462A4641469D
:1019F00038460EF060FA94F83850E36B73B3012266
:101A0000154453FA85F5EDB20135EDB2B4F90C8009
:101A100038462EF0A7F800FB1581B4F9C630F61A47
:101A200006EBD67600237210490804F1B8000EF0D8
:101A3000B1FF0CF08BF801906FF07F43009300230F
:101A40001A46094904F180000EF035FA2368DB6C70
:101A500000212046984704B0BDE8F0810022CFE77E
:101A6000900F0408A40F0408A8100408C36F99423B
:101A700000D1704710B5044650300DF08BFE23683E
:101A8000DB6C00212046984710BD10B50446016369
:101A90004263036F90F82C0000B11146994200D1C7
:101AA00010BD04F150000DF0A5FE2368DB6C002191
:101AB00020469847F4E738B504461546FFF7D6FFA9
:101AC0004FF47F4229462046FFF7DFFF38BD10B5AF
:101AD00082B00446426C8A4200DC0A46A36C934200
:101AE00000DB1346E26C9A4236D0E364E26B8AB9BB
:101AF000009304F58473182204F1F00104F1B80096
:101B00000EF093FB2368DB6C0021204698470120F0
:101B100002B010BD216C93FBF1F201FB1233002BDC
:101B2000B8BF5B420193009204F58473182204F15C
:101B3000F00104F1B8000EF078FBE36C002BE1DA61
:101B4000226C93FBF2F3002BDCD1A36B023B23440A
:101B50002D2283F8F020D5E70020D9E708B54164AD
:101B60008264C16CFFF7B3FF08BD30B583B0044693
:101B700000F1B80500910D4B182200F1F001284644
:101B80000EF053FBB4F90C10B4F9C430C91AB4F90F
:101B90000E20B4F9C630D21A02EBD27200235210D2
:101BA000490828460EF0F6FE03B030BDAC0F04081D
:101BB000F8B50446836BC56B6DB101210B441D4420
:101BC00094F81831013B042B00F2B480DFE803F0F5
:101BD000383205638B000021F0E7B4F90C6004F1A2
:101BE000B80738462DF0BEFF94F8E43000FB03F34D
:101BF00003FB1561B4F98C30C91A0239B4F90E200F
:101C0000B4F9C630D21A02EBD2720023521049083E
:101C100038460EF0BFFEB4F9C060B4F9C27004F1EA
:101C2000800528462DF0A7FF00233A1AB11C28464C
:101C30000EF0B0FE2368DB6C002120469847F8BD0B
:101C4000B4F90C10B4F98C30C91AB4F90E20B4F9F7
:101C5000C630D21AB4F98E30D21A02EBD2720023F7
:101C60005210490804F180000EF094FEB4F90C60A3
:101C700004F1B80738462DF075FF94F8E43000FB06
:101C800003F303FB15610023B4F98A2049083846A1
:101C90000EF080FECEE7B4F90C6004F1B8073846C8
:101CA0002DF060FF94F8E43000FB03F303FB1561B3
:101CB000B4F90E20B4F9C630D21A02EBD272002366
:101CC0005210490838460EF065FEB4F90C10B4F90C
:101CD0008C30C91A0023B4F9C220490804F18000ED
:101CE0000EF058FEA6E7B4F90C6004F1B8073846C8
:101CF0002DF038FF94F8E43000FB03F303FB15618B
:101D0000B4F90E20B4F9C630D21A02EBD272002315
:101D10005210490838460EF03DFEB4F9C000B4F93F
:101D20008C100023B4F9C220411A04F180000EF097
:101D300031FE7FE7B4F90C6004F1B80738462DF0A6
:101D400011FF94F8E43000FB03F303FB1561B4F9D1
:101D50000E20B4F9C630D21A02EBD2720023521010
:101D6000490838460EF016FE64E770B5044615467D
:101D700000F1B80630460EF0A8F9E9B230460EF090
:101D8000E4F92046FFF714FF2368DB6C00212046AE
:101D9000984770BD70B504460D4680F8182100F1D3
:101DA0008006194630460EF090F90022294630464A
:101DB0000EF008FA2046FFF7FBFE2368DB6C0021DB
:101DC0002046984770BD90F82C308B4210D010B54B
:101DD000044680F82C10503041B1616B0DF00AFDC3
:101DE0002368DB6C00212046984710BD216BF5E786
:101DF0007047016242628362704700BF02464FF043
:101E0000020013465AB192F89C20052A08D81A32CB
:101E100003EB82035A68114459604FF00000704789
:101E20005A6E11445966F8E770B5054604F02DFB6B
:101E300005F5A2511C3104F0D2FB281D0EF061FD06
:101E400005F58053D3F85004FFF74AFC00242BE03B
:101E5000E60004EBC400400100F5F870284404EBF0
:101E6000C40305EB4313D3F8F4311B6904309847DE
:101E7000301BC000A0302844361B05EBC606D6F840
:101E8000A4301B690430984704EB4400800100F53E
:101E90000B60284404EB440305EB8313D3F8B438F8
:101EA0001B69043098470134052CD1D900240FE078
:101EB00004EB4400800100F62860284404EB44034E
:101EC00005EB8313D3F82C3E1B690430984701348B
:101ED000032CEDD905F634500EF013FD05F6F45041
:101EE0000EF00FFD05F58B500C300EF00AFD05F5D8
:101EF00094500C300EF005FD05F5965004300EF0B0
:101F000000FD05F59C5004300EF0FBFC05F58055F6
:101F1000D5F8440403681B699847D5F8480403685A
:101F20001B699847D5F84C0403681B699847FEF76E
:101F3000C4FC0021FEF7EAFC4FF0000070BD2DE963
:101F4000F04383B0064600252F46FEF7B6FCFEF7A9
:101F500075FDFEF7B2FCFEF7A1FD10E09D4218D220
:101F600005EBC504640104F5F87434440434E9B2A3
:101F700002F044FB01462046FFF7A9FD013506F5B6
:101F80008053D3F85804D0F81034052BE6D9062333
:101F9000E4E70024052C5DD804F11A0306EB830363
:101FA0005D680DB90134F5E7D6F8A02002FB05F510
:101FB00096F89C1002F0B2FA10B3774B04F12002AD
:101FC00006EB82025268002A1DDB002A23DD04F1A1
:101FD0001A0206EB82025268002A1CDD04F055FA50
:101FE000026F132A00D81422D6F8A03002FB03F3A4
:101FF000C3EB03139B00694AA2FB0323DB0817E032
:102000004EF66023DAE704F11A0106EB8101496814
:102010000029DADAE2E704F11A0206EB82025268DA
:10202000002A70DD012104F1200206EB82025160DA
:1020300006F580504FF00008CDF800802A46E1B246
:10204000D0F8580403F07EFA07461A3406EB8404ED
:10205000C4F8048006F59655043506F58053D3F888
:10206000583493F80D34002B50D04FF47F4128465C
:1020700010F01BFA06F59C5808F1040806F5805389
:10208000D3F8583493F80C34002B42D04FF47F41EE
:10209000404610F00AFA06F58B540C3406F58059C8
:1020A000D9F85834D3EDFF7AFCEEE77A17EE903A80
:1020B00099B22046FFF70BFDD9F8480496F868302E
:1020C00053B3FF2110F0F1F9736E43BB06F5805353
:1020D000D3F858042DF068FD48B106F58053D3F8C5
:1020E000583493F87033012B27D0032B25D006F5F5
:1020F0008053D3F85004FFF7F3FA06F6345010F08B
:1021000098FA00243CE04FF0FF318CE76FF07F41FC
:10211000ADE76FF07F41BBE76FF07F41D2E706F597
:102120008052D2F8B821D6F8A01001FB0321204636
:10213000FFF7CDFC00237366C8E706F6345010F0B5
:102140005FFA002409E004EB4400800100F50B6015
:102150003044043010F054FA0134052CF3D94046D1
:1021600010F04EFA284610F04BFA11E004EB440050
:10217000800100F50B603044043010F05AFA01344D
:10218000052CF3D9404610F054FA284610F051FAC5
:10219000384603B0BDE8F08380F52000CDCCCCCC30
:1021A0002DE9F04F8DB083468A4614460A92C34B00
:1021B0005B6803F03F0309930B1D08930BF0C6FC0B
:1021C0000368DB689847231A043B0BF58052D2F86A
:1021D0005824D2F81024052A00D906220232B3FB73
:1021E000F2F3A3F1080405940BF0B0FC0368DB687C
:1021F000984700EB8000A04204D34FF00008CDF8D0
:102200002CA0F6E00BF0A2FC0368DB68984700EB1B
:1022100080030593F1E7984580F0F6804FEAC80502
:1022200008EBC804640104F5F8745C4404340BF54D
:10223000805ADAF85434D3F88890059B0833089A0A
:1022400008FB03220692A9F10806B6005FFA88F798
:1022500039462DF099FC9A4981FB062381FB09211F
:1022600002900822019205980090A3EBE673069A6B
:10227000A1EBE9712046FFF751FBFF220421204624
:10228000FFF719FC0BF062FC014602222046FFF723
:102290006CFD00212046FFF71AFC3946DAF8580495
:1022A0002DF0A0FC06460BF051FC034603223146FC
:1022B0002046FFF76FFD2CF0D5FD014600231A469E
:1022C0002046FFF796FD05EB08090BEB4919D9F8F5
:1022D000F4319B6C012120469847A5EB0806F600D7
:1022E000A0365E4404363946DAF8580402F00BF999
:1022F00007460BF071FB01906FF07F4300930023C2
:102300001A46394630460DF0D6FD022130460DF012
:102310001CFFA5EB08050BEBC505D5F8A430DB6960
:102320000693D9F8F431DB6A2046984700EBD07069
:102330004710D5F8A430DB6B3046984700EBD070DF
:10234000A7EB60020792D9F8F4311B6B204698473F
:102350000746D9F8F4311B6C2046984700EBD07043
:1023600007EB6007D5F8A4301B6C3046984700EBAC
:10237000D0700023A7EB600207993046069DA8475E
:1023800008EB4805AD0105F50B655D440435D9F84A
:10239000F4315B6B204698470646D9F8F4311B6B45
:1023A000204698470746DAF85434D3F888A0D9F87D
:1023B000F4315B6B20469847AAEB000AD9F8F43158
:1023C0001B6C20469847012302930190AAF1080351
:1023D00000933B46321D3B4928460FF02DFF2CF061
:1023E00041FD014600231A46284610F049F908F13C
:1023F00001080BF58053D3F85804D0F81034052B9E
:102400007FF609AF062306E7DDF82CA00025DDF8EE
:1024100014902CE0013B03EBC300400100F5F87081
:10242000584403EBC3030BEB4313D3F8F4319B6B1A
:102430000430984701230293CDF80490009700F1EF
:1024400008034246314620460FF0F6FE2CF00AFD06
:10245000014600231A46204610F012F903212046B7
:1024600010F09BF80021204610F0FEF80135032DF6
:102470002AD80BF58053D3F85424D2F88870143F2F
:10248000BF0805EB4504A40104F628645C44043449
:1024900005EB450241F2281606EB82065E4404363F
:1024A00007F1040805FB08F808F10408D3F85834CC
:1024B000D3F81034052BADD90623ABE70038024022
:1024C000ABAAAA2AB00F040801210BF583500C30E7
:1024D00010F0CAF80BF634590BF5FA75DBF8F43145
:1024E0001B6B284698478046DBF8F431DB6A2846A8
:1024F00098470646DBF8F4311B6C28469847814F15
:10250000012402940190083E009643460422394675
:1025100048460FF091FE2CF0A5FC014600231A4618
:10252000484610F0ADF8DBF8F431DB6A28469847EE
:102530000646DBF8F4311B6B2846984780460BF0C3
:1025400005FB01906FF07F45009508F1080306F147
:10255000080239460BF6F4500DF0ADFC0BF58B5626
:102560000C360A9B9A440598AAEB00020BF580579B
:10257000D7F85434D3F8883003EBD37323414FF0AA
:102580000008CDF80880052101910090063B043A2F
:1025900004213046FFF7C2F9FF2204213046FFF73D
:1025A0008AFA0BF0D3FA014602223046FFF7DDFB30
:1025B000D7F85834B3F822143046FFF788FAD7F822
:1025C0005834B3F82024B3F822143046FFF7C6FA83
:1025D0000BF0BCFA034603224B493046FFF7DAFB07
:1025E0002CF040FC0146434642463046FFF701FCD2
:1025F00087F87C4121463046FFF7E5FB0BF0A6FA51
:102600000BF594560C3601900095434642463F49DF
:1026100030460DF050FCB7F97011B7F972214346FE
:102620000832083130460EF0B5F90BF596560436EF
:10263000B7F97421B7F97831043B029405980190F9
:1026400003EBD37323410093B7F97231053230495C
:1026500030460FF0F1FD2CF005FC014643464246A2
:10266000304610F00DF80BF59C560436B7F9CC2225
:10267000B7F9D0320294059801900093B7F9CA32A5
:102680000532244930460FF0D7FD2CF0EBFB014614
:102690004346424630460FF0F3FF0BF13C06099BE0
:1026A0000293022301932223009343461A4A2821CE
:1026B000304631F0D1FD0BF62C6ADBF82C3E9B6BDB
:1026C000504698478146B7F97241DBF82C3E9B6B28
:1026D00050469847241A0BF039FA0368DB6898478C
:1026E000241A09EB54040BF031FA019000952346AB
:1026F000042231460BEB02000DF0DDFB40460DB02D
:10270000BDE8F08FA8100408B40F0408B80F04083F
:10271000C00F0408C80F0408CC0F040838B50546DC
:1027200000240AE004EB4400800100F628602844FD
:10273000002104300FF098FF0134032CF2D938BD8A
:102740002DE9F04F85B00546002443E009265CE002
:10275000DCB104F2554305EB83035B6803EB8303B1
:102760005B0004F2564205EB8202536005F580508F
:1027700000220292484A0192012200920C2239461C
:10278000D0F8580402F084F973E00123E9E704EB80
:10279000440205EB820213440A460A21995404EBD1
:1027A0004400800100F62860284404EB440605EB51
:1027B0008616D6F82C3EDB6864210430984796F8DC
:1027C000603E33B104F2564305EB83035B68C5F802
:1027D000A0300134032C5CD804EB440241F22813EE
:1027E00003EB82032B441F1D00225A609A60DA60BB
:1027F00095F89C100529ABD805F58053D3F85804FB
:1028000090F81C34002BA1D1052601F087FE00B101
:102810000D2606F0BDFC56FA84F6F6B200EB8600F3
:10282000D0F804A004F2564305EB8303C3F804A0D8
:1028300005F58059D9F858B495F89C1058462DF0F4
:10284000C1F9064695F89C10D9F858042DF0CAF93C
:10285000804695F89C10D9F8580401F05FFE02906C
:10286000CDF80480009653460C223946584602F0B3
:102870000FF900230B2B92D804EB440205EB8202E4
:102880001A4441F22C11525C202A80D00133DBB271
:10289000F0E705B0BDE8F08FB40F040870B582B062
:1028A0000546012104300EF01DF82846FFF748FFC9
:1028B000002430E09C4238D2E60004EBC400400122
:1028C00000F5F870284404EBC40305EB4313D3F878
:1028D000F431DB68642104309847301BC000A0301D
:1028E0002844361B05EBC606D6F8A430DB68642105
:1028F0000430984704EB4400800100F50B60284445
:1029000004EB440305EB8313D3F8B438DB6864218C
:1029100004309847013405F58053D3F85834D3F880
:102920001034052BC6D90623C4E7062385F89C304E
:1029300000240AE004EBC400400100F5F8702844CC
:1029400000210430FFF73FFA0134052CF2D905F5D8
:102950008B540C34642120460DF0C4FF0021204626
:10296000FFF731FA652105F594500C300DF0BAFFF0
:10297000642105F5965004300DF0B4FF642105F58F
:102980009C5004300DF0AEFFFDF797FF0121FDF7DD
:10299000BDFF05F580541549D4F848040FF041FDFA
:1029A000D4F848040368DB6866219847D4F84404E7
:1029B0000368DB6866219847D4F84C040368DB6839
:1029C0006621984703F061FD04462CF04BFA01465E
:1029D00005F5A2531C3300932B46054A204603F00D
:1029E000E1FD4FF0000002B070BD00BFF00F040821
:1029F000FD1D00082DE9F04F89B000F58053D3F894
:102A000044348B4231D004460D464FF0000600F5A9
:102A10008053D3F84C348B4227D000F58053D3F841
:102A200048348B4227D000F58053D3F850348B4282
:102A300074D000F59C5304338B427CD000F5965340
:102A400004338B427FD04FF00008B8F1030F00F23F
:102A5000908008EB4807BF0107F628672744043732
:102A6000AF4278D008F10108EFE74FF00906304691
:102A700009B0BDE8F08F00F58053D3F8580490F802
:102A8000527357B30023079394F8683043BB04F59F
:102A90008055A021D5F8580401F0C4FEA121D5F835
:102AA000580401F0BFFE0DF11C0842468F49D5F8CD
:102AB000580402F074FC42468D49D5F8580402F0DF
:102AC0006EFC012384F86830002FD0D104F58054C7
:102AD000D4F8580401F000FFC9E701F0B2FED1E7D5
:102AE00004F580550DF11C0842468249D5F858047A
:102AF00002F055FC42468049D5F8580402F04FFCDC
:102B0000A021D5F8580401F08DFEA121D5F8580474
:102B100001F088FE002384F86830D5E71A7C002A8B
:102B2000A5D000F58054D3F82021197BD4F858049F
:102B300002F00EFF9BE700F58054A021D4F8580462
:102B400001F070FE93E700F58054A121D4F85804F9
:102B500001F068FE8BE72046FFF7E0FD01213846D3
:102B60000FF082FD08F2564304EB83035B68C4F860
:102B7000A030B8F1040F7FF47AAF00270DE0A8452C
:102B800000F0938007EB47039B0103F50B6323449D
:102B90000433AB4200F08C800137052F6ED807EB71
:102BA000C7084FEA481808F5F878A04408F1040867
:102BB000A845E4D107EBC70304EB431393F8203295
:102BC000002BDCD004F58058D8F850A45FFA87F9C0
:102BD0004946D8F8580401F096FC0490D8F85804F7
:102BE00090F81C24454B53F82230059307EBC7039C
:102BF00004EB4313D3F840B249462CF0C5FF02233F
:102C0000039302903E4B01933E4B00935B46059A23
:102C100004995046FEF71AFBD8F850942CF022F98C
:102C2000014600231A464846FEF7E1FAD8F8503428
:102C3000DF6042F21071D8F85004FEF715FDABE7E3
:102C400009EBC900400100F5F87020440021043070
:102C5000FFF7B9F809F10109B9F1050FF0D9002121
:102C600004F58B500C30FFF7AEF801214046FFF71A
:102C7000AAF884F89C702046FFF762FD04F58B5794
:102C80000C37AF427FF4F3AE04F58053D3F8580409
:102C9000D0F80834642B13D101213846FFF793F89C
:102CA000062384F89C30002519E04FF00009D3E793
:102CB00004F58053F9B2D3F8580402F01BFE6BE719
:102CC000992101F0AFFDE7E705EBC500400100F5F4
:102CD000F870204400210430FFF775F80135052D08
:102CE000F2D92046FFF72CFDC1E600BFF80F04081B
:102CF00000100408081004080C10040828720308C7
:102D000080969800806967FF2DE9F04F83B00446F4
:102D1000B64B0360B64B40F8043B2CF0E7F8282292
:102D2000002104F13C0031F04DFB0023636684F880
:102D30006830E36623676367A367E367C4F880309E
:102D4000C4F88430C4F88830C4F88C30C4F89030AB
:102D5000C4F89430C4F89830062384F89C300123DA
:102D6000C4F8A03004F1A40301931E46052501E038
:102D7000013D3836002D03DB30462CF0B7F8F7E77D
:102D800004F5FA784646052502E0013D06F5907601
:102D9000002D03DB30462CF00BF9F6E704F6B409FE
:102DA0004E46052501E0013DC036002D03DB3046CF
:102DB0002CF0D0F8F7E704F6345B58462CF0CAF84C
:102DC00004F6F4502CF092F804F62C6A56460325CB
:102DD00001E0013DC036002D03DB30462CF0BAF88F
:102DE000F7E704F580553022002105F5967031F0A3
:102DF000E9FA0023C5F85C31C5F86031C5F86431E3
:102E0000C5F8683104F58B550C3528462CF0D0F800
:102E100004F594500C302CF069F804F596560436FD
:102E200030462CF097F804F59C57043738462CF0C0
:102E300091F8FDF742FD00F5B150183004F58053CC
:102E4000C3F84404FDF739FD00F5B750183004F518
:102E50008053C3F84804FDF730FD00F5BD5018302D
:102E600004F58053C3F84C04FDF727FD00F5D95055
:102E7000143004F58053C3F850040AF08BF904F5BC
:102E80008053C3F8540401F00FFB9AE0019B002B20
:102E900000F08C80C5F105053823019A03FB052558
:102EA000019B9D4200F08280524B45F8383D2846F8
:102EB0000DF048FDF4E7B8F1000F6BD0C5F1050542
:102EC0004FF4907303FB0585454563D0A5F59075D8
:102ED00028462CF01BFAF7E7B9F1000F50D0C5F1E6
:102EE0000505C02303FB05954D4549D0C03D284647
:102EF0002CF0CEF8F8E7BAF1000F2CD0C5F103059D
:102F0000C02303FB05A5554525D0C03D28462CF020
:102F1000BFF8F8E738462CF0BBF830462CF0B8F88C
:102F200004F58053334AC3F88C2204F594500C30D6
:102F30000DF008FD28462CF0E9F904F589550C350B
:102F4000554508D0C03D28462CF0A2F8F8E7E4E744
:102F5000E6E7EFE7F1E7274BC4F8F43D04F6F45059
:102F60000DF0F0FC58462CF093F804F634554D451E
:102F700006D0C03D28462CF08BF8F8E7F2E7F4E7DE
:102F800004F6B405454505D0A5F5907528462CF006
:102F9000BDF9F7E704F5FA75019B9D4206D0154B84
:102FA00045F8383D28460DF0CDFCF5E72046114B9D
:102FB00040F8043F0DF0C6FC0C4B23602EF020FBC4
:102FC000FAE704F58053C3F858040022C3F85C24E0
:102FD000C3F86024C3F8642483F86824C3F86C241D
:102FE000C3F87024204603B0BDE8F08FB422040873
:102FF0000C680308CC04040808B50F4B1B68BFF32A
:103000005B8F13F0010F01D00C4808BD0A482EF069
:103010004AFE0028F8D00948FFF776FE084A094919
:1030200006482EF072FA04482EF04CFEECE70248F7
:103030002EF045FE2EF0E4FA2C260020302600204B
:103040004401002005FC02084FF00000704710B555
:103050000446FDF732FC00F5AF500DF052FC04F5CC
:103060000053D3F82403FEF73BFB04F50350343040
:1030700005F0ECFD04F58B50143008F07CFC4FF0AB
:10308000000010BD2DE9F04385B004460E461546FC
:1030900000F58B5714370AF07DF8D0F888300222FB
:1030A00001922822009232460021384608F0A0FC06
:1030B0000AF054FC00900023334A1946384608F0C1
:1030C00085FE0AF04BFC00900023304A012138466F
:1030D00008F07CFE2BF0C6FE014600231A46384657
:1030E00008F07DFF4FF0000C11E00CEB4C1303F5E2
:1030F000A65310332344043304EB8C1241F6F4013D
:10310000535041F6F8032121D1500CF1010CBCF1D0
:103110001F0FEAD904F5035734372BF0A3FE0146FD
:103120001B4B00931B4B2246384605F087FC04F5E9
:10313000C75808F1140804F58059B9F982311E44C2
:1031400004F50054D4F85833D3F888400AF0FEFC54
:103150000368DB689847A5EB4003B9F982219B1A05
:10316000083B0293019400960023202241463846F2
:1031700005F05EFD0021384605F09AFD4FF0000095
:1031800005B0BDE8F08300BF141004081C1004084B
:1031900071350008C537000838B50446FDF78DFBCA
:1031A0002CF010FF04F58B5514354FF4FA612846C6
:1031B00008F0D2FB63683BB123689B69294620462F
:1031C00098474FF0000038BD0121284608F0E3FE83
:1031D000F2E710B582B00446406818B109F055FE18
:1031E000002363600022114604F1080003F0ACFAEA
:1031F0000AF0B4FB00900023064A194604F58B50F0
:10320000143008F0E3FDFDF758FBFDF7B4FC02B005
:1032100010BD00BF1410040838B504460D46FFF772
:10322000D8FF284609F029FE606008B1002303702A
:10323000FDF743FBFDF79FFC606838BDF0B583B038
:1032400016461D46089F0023019301AA083003F08B
:1032500039FB024690B9104603B0F0BD0134019429
:10326000019C21780A290ED00D290CD059B1BC45FA
:1032700009D23B29F2D10CF1010CEFE74FF0000C21
:10328000EEE70130019001980178A1F10903172BB5
:1032900032D801A454F823F08332000833330008F5
:1032A000F9320008F932000833330008F932000817
:1032B000F9320008F9320008F9320008F932000842
:1032C000F9320008F9320008F9320008F932000832
:1032D000F9320008F9320008F9320008F932000822
:1032E000F9320008F9320008F9320008F932000812
:1032F000F932000883320008C9B90022ABE73B2C41
:103300000DD074540131A9420BD2019B5C5C0D2C91
:10331000F5D842F20143E34013F0010FF1D000234E
:103320007354002D97D0013D0023735593E700217E
:10333000E9E700228FE72DE9F04182B004460D460F
:1033400016461F464FF0000CCDF800C0FFF776FF81
:10335000804618B1404602B0BDE8F0813B46324697
:10336000294604F1080003F079FAF3E730B583B099
:10337000144602250095FFF761FF00B9207003B0E5
:1033800030BD30B583B01546069C02340094FFF77B
:1033900055FF08B905B1287003B030BD70B582B0D3
:1033A00006460D46002400E00134009400231A462E
:1033B00029463046FFF7E5FF0028F5D1204602B048
:1033C00070BD70B582B015461C460023019301AA5A
:1033D000083003F077FA064690B9304602B070BD67
:1033E00001300190019801780A290CD00D290AD0EA
:1033F00049B1A44507D23B29F2D10CF1010CEFE70A
:103400004FF0000CEEE70A2908D00D2908D009B9C1
:103410000026E2E72FF03EFF2860DEE70026DCE72B
:103420000026DAE710B514460123FFF7CAFF08B9F2
:103430000123236010BD00B583B00023019301AACE
:10344000FFF7F0FF10B1019B03B1002003B05DF85E
:1034500004FB2DE9F04194B0054600240E940F942E
:103460001094119412941394089409940A940B9450
:103470000C940D940694079401230593C76F2AE0DA
:1034800005AA21462846FFF7CDFF0DF118080823AD
:10349000424621462846FFF769FF41F6F00606EB53
:1034A00084162E44043605F5005000230293CDF80F
:1034B0000480059B0093049B182208A9D0F85C03A4
:1034C00001F0E6FA03460EAA314605F50350343002
:1034D00005F0BAFA0134BC422CD21E2C2AD80023A3
:1034E000049304AA214605F1080003F03FF91823CC
:1034F0000EAA21462846FFF71EFF21462846FFF761
:103500009AFF0028BCD008AE049B009318233246D3
:1035100021462846FFF735FF41F6F00101EB841103
:10352000294433460EAA043105F50350343005F022
:103530008BFACFE7BC4202D014B0BDE8F0811E2C5C
:10354000FAD805F50356343641F6F00303EB84133D
:10355000E918054B054A0431304605F075FA791C27
:10356000304605F0A5FBE7E7A8100408241004087E
:1035700003464FF00200C3B110B51C4603F580535B
:10358000D3F8AC316BB9E36F8B4202D84FF0000037
:1035900010BD04F1080004F01FF82046FFF759FFA2
:1035A000F4E72046FFF715FEF0E7704770B59AB0D4
:1035B000054600F58B5414348C4211D000F50053AD
:1035C000D3F824338B4200F0C98000F50053D3F8C0
:1035D00020338B4200F0D0804FF000001AB070BD55
:1035E00000F58053D3F8AC31012B10D04368002B89
:1035F00000F0AE80FFF72DFF642105F50350343055
:1036000005F08FFB0021204608F0C5FCE4E72BF015
:1036100029FC002128300EF089FA29F0AAF80022AE
:103620005849594823F0E4FA10B1002633467BE0AC
:1036300056490DA824F069F808B10026F6E70026DF
:1036400039E0033C00E0013C74B304F168036B44CF
:1036500013F84A3C2E2BF6D104F16A036B4413F89D
:103660004A0C30F02BFD7328EDD100F01DFF90F8CF
:103670001D3443B904F169036B4413F84A0C30F06C
:103680001DFD6D282BD000F00FFF90F81D34022B8C
:10369000D9D104F169036B4413F84A0C30F00EFDE4
:1036A0006C28D0D1012200E000229DF8103013F0E8
:1036B000100F00D1AAB902A90DA824F08BF838BBCD
:1036C0009DF81E3023B30024142CBAD804F16803EB
:1036D0006B4413F84A3C002BB3D00134F4E70122C9
:1036E000E3E705EB861141F6F803CA5841F6F4000A
:1036F000095803EB8613E818029B01930DF11E0392
:103700000093234B04300CF090FD0136202ED2D1D3
:103710000DA824F047F889E703EB43122A4441F24D
:10372000D4410020505401331F2BF5D92BF09AFBC4
:10373000002128300EF0BFF905F503553435314628
:10374000284605F0B5FA6421284605F0EAFA43E771
:1037500000F50350343005F079FA3DE71A7C002A71
:103760003FF43AAFD3F82021D968083003F010F8BD
:103770002846FFF76EFE2FE707F0DCFA06F094FF0D
:103780002AE700BF6C970120A49901201C100408AF
:103790003010040810B514460323FFF712FE08B9D1
:1037A000014B236010BD00BF806967FF10B5144650
:1037B0000423FFF706FE08B9014B236010BD00BFCC
:1037C0008096980003464FF00200002B00F0E28143
:1037D0002DE9F04391B00D461C4603F58053D3F814
:1037E000AC61002E40F0FC806368002B00F0338158
:1037F000E36F8B427BD104F50053D3F85C3393F82D
:103800007033012B00D023BB0023079307F092FAFB
:1038100007A907F0C9F8054604F10806079A01460A
:10382000304602F096FF002800F01581304604F083
:103830009FFB00284BD005F0ABFC4369CBB9FDF7EB
:103840003CF8044607F076FA01462046FDF76BF98E
:1038500001E104F500540223BE4ABF49D4F8200315
:1038600005F0CAFA42F21071D4F8200305F0CAFB41
:10387000F1E02BF0F7FA002128300EF057F9002282
:10388000B649B74823F0B4F930B12BF0EBFA002178
:1038900028300EF010F9D2E70A22B249B24823F0DC
:1038A000EBF90028F1D107F045FA046907F042FA74
:1038B00000692BF0A5F8024608AB2146AA4823F080
:1038C000E0FB0028E1D1A84823F082FDDDE704F504
:1038D000005402232A46A049D4F8200305F08CFAAC
:1038E00042F21071D4F8200305F08CFBB3E0002302
:1038F00005930123069304F1080805AA404602F047
:1039000035FF04F50C57283720233A462946204630
:10391000FFF711FD06AA29462046FFF783FD069B07
:10392000A3B9059B0133059329462046FFF736FDD1
:10393000059B834201DB00230593059A29464046F7
:1039400002F026FF2046FFF784FD84E00023079362
:10395000089307AA29462046FFF71CFF08AA294614
:103960002046FFF723FF04F50D5808F1080810233F
:10397000424629462046FFF7F9FC07E07B4A82FBD6
:103980000312DB17C3EBA20306930136069B092B38
:10399000F4DC04F50059012303930296089B01937C
:1039A000079B0093059B42463946D9F82403FDF74F
:1039B0004DFCD9F824632BF055FA014600231A4632
:1039C0003046FDF714FCD9F82433DD6042F2107163
:1039D000D9F82403FDF748FE2046FFF73AFD3AE008
:1039E00008AE20273A460021304630F0EBFC3A463C
:1039F0005F49304630F00DFD30462BF001F806EB04
:103A0000000EA7EB000C002363450AD204EB8512DD
:103A100041F6F4015258D25C0EF803200AB101338A
:103A2000F2E71F2373B103F140026A4412F8202C1D
:103A3000202A07D803F140026A44002102F8201C22
:103A4000013BEFE7012208A9474823F015F938B1F7
:103A5000454823F0BDFC4FF0000011B0BDE8F083F5
:103A6000414BDE68013607F065F906F01DFE314670
:103A70002046FFF7D1FB00287CD00027069706AB35
:103A800032466168384823F010FA6268069BD754C2
:103A900004F10803324661681E46184602F054FEDF
:103AA000079707F047F907A906F07EFF0746079A30
:103AB0000146304602F04DFE304604F0EAFDA8B360
:103AC00000231F2B0ED804EB851241F6F401525847
:103AD000D15CE21841F2B440115419B12E2901D041
:103AE0000133EEE7234441F2B44200269E5404F52C
:103AF0008B551435A71809F031FF009033463A462C
:103B00003146284608F062F92046FFF7A2FC6421FE
:103B100004F50350343005F004F93146284608F026
:103B20003AFA07F007F906F0BFFD91E72046FFF7E4
:103B300050FB04F5005402233A460749D4F8200309
:103B400005F05AF942F21071D4F8200305F05AFA40
:103B50007EE700BF3C100408101A04086C9701208F
:103B6000A4990120681004087497012067666666AE
:103B70007410040804F500540223074A0749D4F8D6
:103B8000200305F039F942F21071D4F8200305F052
:103B900039FA5DE7704700BF80100408101A040866
:103BA0002DE9F04106463D4B03603D4B0360002389
:103BB000436008302CF0C4FA06F58B5808F114085D
:103BC00040462CF097F84FF48462002106F5A65089
:103BD000143030F0F7FB06F5C75714373C461F2565
:103BE00001E0013D4034002D07DB002323606360CA
:103BF00004F108002BF07AF9F3E706F503543434A6
:103C000020462CF081F9FCF758FE00F5C35018301F
:103C100006F50053C3F82003FCF74FFE00F5D9501A
:103C2000143006F50053C3F8240309F0B3FA06F57F
:103C30000053C3F8580300F037FC27E0F7B1C5F193
:103C40001F0407EB8414BC4218D0403C2046154B9F
:103C500040F8083F0CF076FEF5E720462CF01EFAFF
:103C600006F503543434BC4208D0403C20460D4B8A
:103C700040F8083F0CF066FEF5E7F1E740462CF00F
:103C8000ADF9064B33602DF0BBFCFAE706F50053A7
:103C9000C3F85C033046BDE8F08100BFB4220408DD
:103CA00050680308CC04040808B50F4B1B68BFF329
:103CB0005B8F13F0010F01D00C4808BD0A482DF0AE
:103CC000F2FF0028F8D00948FFF76AFF084A0949BF
:103CD00006482DF01AFC04482DF0F4FFECE70248EA
:103CE0002DF0EDFF2DF08CFCA43A0020A83A002026
:103CF00044010020D500030810B40D4B1C2119808D
:103D000059804FF0080C83F804C00A4A9A600A48A8
:103D1000D860D0F85C431C619982D98283F818C0BE
:103D200002F54472DA6118625C625DF8044B704718
:103D3000085E00200469030828F6030808B503217B
:103D4000C06C09F061FC4FF0000008BD79B908B5FE
:103D500090F8313083F0010380F831301BB1044911
:103D60000AF03AFC08BD03490AF036FCFAE770474E
:103D7000085E00201C5E0020114B9B6ABFF35B8F26
:103D800013F0010F01D00F48704710B50E482DF009
:103D90008AFF08B90B4810BD0A482CF0E5FA084C18
:103DA0000A4A0B4904F12C002DF0AFFB04F1280066
:103DB0002DF088FFEEE704482DF081FF2DF020FC68
:103DC000085E0020345E0020305E002044010020A8
:103DD000F902030838B505460160002303714371F9
:103DE000837109F0D7F9A8602FF08AFA0D4C84FB93
:103DF0000023A3EBE07303EB4303A0EB4303013386
:103E00002B712FF07DFA84FB0023A3EBE07303EB0F
:103E10004303A0EB430301336B710123AB712846CD
:103E200038BD00BFABAAAA2A70B506460068036871
:103E30005B6B9847054630680368DB6A98472844FF
:103E400000EBD0704510306803689B6B98470446C0
:103E5000306803681B6B9847231803EBD3735B1020
:103E600096F90420551905D41146B068D0F8880099
:103E7000854203DBD2B252423271002196F905002D
:103E80000246C31804D4B468D4F88C40A34203DBC0
:103E9000C0B240427071002230680368DC690123BF
:103EA000A04770BD38B504461D460D4B0AF062FBB5
:103EB0000C4B2360002384F8313084F831501DB15D
:103EC00001232374204638BD054920460AF084FBAF
:103ED000F6E7054B236020460CF034FD2DF090FBF7
:103EE000085E0020546F030870F5030830B5ADF587
:103EF000177D054689AC0123002211462046FFF7B5
:103F0000D1FFEB6CD3F88810BDF93022891AD3F8B1
:103F10008C20BDF93232D21A02EBD27201EBD17190
:103F200000235210491020460CF034FD4FF400419C
:103F300020460CF0D7FC00230293012301934FF09D
:103F4000FF1300931E23962278217FA80BF045FDD6
:103F500028217FA80CF0C6FC0023029301934FF4A4
:103F60007F0300931E237822962175A80BF035FD60
:103F7000322175A80CF0B6FC4FF47F4301937823EF
:103F80000093602322222E216CA80BF0D5FC1E2169
:103F90006CA80CF0A7FCBF4B01934C2300936E233D
:103FA00022222E2163A80BF0C7FC1E2163A80CF06F
:103FB00099FC09F04FFD01904FF0FF1300930A2385
:103FC0000022B54955A80BF0C6FF462155A80CF0B4
:103FD00089FC09F07DFD0190AE4B00931423002273
:103FE000AD4947A80BF0B7FF502147A80CF07AFC69
:103FF00009F0E8FD01904FF6FF7300931E230022A5
:10400000A54939A80BF0A7FF5A2139A80CF06AFC82
:1040100009F05EFD02904FF0FF1301934FF47F43D0
:104020000093322300229C492BA80CF00DF8642148
:104030002BA80CF057FC09F091FC0190FF23009392
:104040004623002294491DA80BF085FF6E211DA870
:104050000CF048FC01230293FF2301930A230093F1
:1040600064230022114611A80BF06CFB0A2111A851
:104070000CF038FC012302934FF6FF7301930A23DF
:1040800000931423462264210DEB03000BF05AFB2E
:1040900014210DEB01000CF025FC0C2008F0E9FECA
:1040A00004467FA9FFF796FE7C4BDC670C2008F0E6
:1040B000E0FE044675A9FFF78DFE784BC3F88040FB
:1040C0000C2008F0D6FE04466CA9FFF783FE734B64
:1040D000C3F884400C2008F0CCFE044663A9FFF727
:1040E00079FE6E4BC3F888400C2008F0C2FE0446EF
:1040F00055A9FFF76FFE694BC3F88C400C2008F000
:10410000B8FE044647A9FFF765FE644BC3F890402C
:104110000C2008F0AEFE044639A9FFF75BFE5F4BAA
:10412000C3F894400C2008F0A4FE04462BA9FFF726
:1041300051FE5A4BC3F898400C2008F09AFE0446F2
:104140001DA9FFF747FE554BC3F89C400C2008F013
:1041500090FE044611A9FFF73DFE504BC3F8A04066
:104160000C2008F086FE044605A9FFF733FE4B4BF2
:10417000C3F8A44001E0C0B290B1E86C4FF0FF3149
:1041800000F5C35014300DF054FBF4E701340A2C51
:1041900008D8424B03EB8403D86FFFF745FEF5E7E1
:1041A0000024F4E7E86C00F5C35014300DF054FB24
:1041B000E86C00F5C15004300DF09DFB01200DF0BE
:1041C000E7FBDAE70C2120462DF018FA05A8344B5E
:1041D00003600CF0B7FB11A8314B03600CF0B2FB8D
:1041E0001DA8304B03600CF0ADFB2BA82D4B0360DA
:1041F0000CF0A8FB39A82B4B03600CF0A3FB47A8DD
:10420000284B03600CF09EFB55A8264B03600CF076
:1042100099FB254B639363A80CF094FB224B6C93A2
:104220006CA80CF08FFB214B759375A80CF08AFBE2
:104230001E4B7F937FA80CF085FB1D4B89931D4B74
:10424000899389A80CF07EFB2DF0DAF90C21204629
:104250002DF0D4F9BAE70C2120462DF0CFF9B5E7BF
:104260000C2120462DF0CAF9B0E70C2120462DF094
:10427000C5F9ABE70C2120462DF0C0F9A6E70C21CB
:1042800020462DF0BBF9A1E70C2120462DF0B6F910
:104290009CE700BF00FFFF0028130408085E002011
:1042A00008040408CC0404085803040800030408A4
:1042B000546F030870F503080C2120462DF09EF979
:1042C00084E70C2120462DF099F97FE70C21204648
:1042D0002DF094F97AE779E77DE781E785E789E7CB
:1042E0008DE791E795E799E79DE7A1E7A5E708B591
:1042F000FFF702FD08BD00BF10B582B0044641F2D1
:10430000883027F02DF8E06C03689B6898470023FD
:104310008DF80730E06C03681B690DF107019847C1
:10432000C0B20028F6D04FF0000002B010BD70B54A
:1043300004464FF00705C06C03681B6A984740B3FA
:10434000D4F82434002B48D194F850303F2B29D096
:104350003F2B2ED004F150054FF4807204F5856197
:10436000284630F056F8E66C28462AF049FB02460B
:104370003368DB69294630469847054604F1500604
:1043800030462AF03DFB02463146464820F02CFAE2
:10439000F8B1EDB2072D6AD0242D68D04FF000059A
:1043A000284670BD94F85423002AD1D14FF000055F
:1043B000E4E70DF007FBC4F85803002384F85433F6
:1043C000E06C0368DB69012204F15001984705465F
:1043D000D4E7344820F022FADBE720462BF0E4FB58
:1043E0000028D6D094F85533002BD2D194F8F1336D
:1043F00033B1D4F82434C4F86C334FF00005C8E767
:1044000004F595654FF0FF3128460DF04DF80DF09D
:10441000D9FAC4F86003012384F85533D4F824345E
:10442000C4F86C3328460DF067F804F150064FF4D9
:10443000807204F5856130462FF0EBFFE56C304665
:104440002AF0DEFA02462B68DB6931462846984797
:10445000054630462AF0D4FA02463146114820F08B
:10446000C3F9002895D10F4820F0D8F991E7D4F886
:10447000243453B120462BF097FB30B9D4F82434C0
:10448000C4F86C334FF000058AE70023012204F2E0
:10449000244120460CF029FF054601200DF081FA49
:1044A0007EE700BFECA80120104B1B68BFF35B8FB9
:1044B00013F0010F01D00E48704710B50B482DF0D6
:1044C000F2FB08B90A4810BD09482BF08BFF074CD6
:1044D000084A0949201D2DF018F820462DF0F2FB5E
:1044E000F0E702482DF0EBFB2DF08AF8745F002016
:1044F000785F002044010020AD03030808B5C164C3
:104500000CF02CFE08BDD0F81034994200DB0621D7
:1045100001F5157100EB41000430704702290BD9F9
:10452000D0F81034994209DA0339C9B290F814046A
:10453000C84000F00100704700207047002070471D
:104540000A2900D9002101F5977100EB810040682C
:104550007047572900D9582101F5A77150F821005B
:10456000704770B52DED028BD0F81034994204DB02
:1045700000242046BDEC028B70BD04460D4600F5BC
:1045800095664FF0FF3130460CF08EFF94F8E03323
:10459000FBB105F1DC0304EB830393ED018A05F124
:1045A000E20304EB8303D3ED017A38EE278A294630
:1045B00020462BF007FB07EE900AF8EEE77A67EE4D
:1045C000887AFDEEE77A17EE904A30460CF094FFB9
:1045D000CFE705F1DC0304EB830393ED018A294661
:1045E00020462BF0EFFA07EE900AF8EEE77A67EE36
:1045F000887AFDEEE77A17EE904AE6E770B52DED82
:10460000028BD0F81034994204DB00242046BDEC24
:10461000028B70BD04460D4600F595664FF0FF31E4
:1046200030460CF041FF94F8E033BBB105F1DC03F8
:1046300004EB830393ED018A294620462BF0C2FA4E
:1046400007EE900AF8EEE77A67EE887AFDEEE77AF1
:1046500017EE904A30460CF04FFFD7E705F1DC0328
:1046600004EB830393ED018A05F1E20304EB83037A
:10467000D3ED017A38EE678A294620462BF0A2FA5C
:1046800007EE900AF8EEE77A67EE887AFDEEE77AB1
:1046900017EE904ADEE770B52DED028BD0F810349E
:1046A000994204DB00242046BDEC028B70BD044619
:1046B0000D4600F595664FF0FF3130460CF0F4FEE4
:1046C00094F8E033FBB105F1E80304EB830393EDC9
:1046D000018A05F1E20304EB8303D3ED017A38EE9E
:1046E000278A294620462BF06DFA07EE900AF8EE4D
:1046F000E77A67EE887AFDEEE77A17EE904A304661
:104700000CF0FAFECFE705F1E80304EB830393ED29
:10471000018A294620462BF055FA07EE900AF8EE5A
:10472000E77A67EE887AFDEEE77A17EE904AE6E7D9
:1047300070B52DED028BD0F81034994204DB0024C3
:104740002046BDEC028B70BD04460D4600F5956613
:104750004FF0FF3130460CF0A7FE94F8E033BBB1C8
:1047600005F1E80304EB830393ED018A2946204613
:104770002BF028FA07EE900AF8EEE77A67EE887ACF
:10478000FDEEE77A17EE904A30460CF0B5FED7E71B
:1047900005F1E80304EB830393ED018A05F1E203DD
:1047A00004EB8303D3ED017A38EE678A294620466D
:1047B0002BF008FA07EE900AF8EEE77A67EE887AAF
:1047C000FDEEE77A17EE904ADEE790F855331BB915
:1047D000D0F86C338B4205D0D0F86C338B4204D8C0
:1047E0005520704790F8F10370475420704710B57A
:1047F0000446FFF7EAFF38B9D4F86423D4F85C33F1
:104800009A4204D2012002E0542801D0002010BDB9
:10481000D4F86023D4F85C339A4201D30020F6E741
:104820000120F4E700B5A3B0002301938DF8081030
:104830008DF80930012201A90CF057FD23B05DF875
:1048400004FB10B5044604F0A3FC037A93B90022DC
:104850004FF400511F480EF03AFF94F8EC3323F068
:10486000010384F8EC33012384F85233872384F85E
:10487000533310BD04F08CFC037A012B0FD194F854
:104880005233002BE9D18B212046FFF7CBFF0DF0EF
:1048900099F8C4F85803002384F85433DDE704F092
:1048A00077FC037A022BD8D100224FF4005109483B
:1048B0000EF00DFF94F85233002BCED18B21204601
:1048C000FFF7B0FF0DF07EF8C4F85803002384F81A
:1048D0005433C2E70008024010B5044604F058FC07
:1048E000037AD3B901224FF4005124480EF0EFFEB1
:1048F000002384F8523394F852336BB984F855335B
:10490000D4F86823C4F86C2384F8F13394F8EC23CA
:1049100063F3000284F8EC2310BD04F039FC037A41
:10492000012B0ED194F8523313B194F8E3331BB931
:10493000002384F85233DEE78B212046FFF772FF15
:10494000F6E704F025FC037A022B02D004F020FCE9
:10495000D1E701224FF4005108480EF0B8FE94F858
:10496000523313B194F8E3331BB9002384F8523364
:10497000C1E78B212046FFF755FFF6E7000802400C
:1049800038B5044602E001200DF00BF894F85433DA
:10499000002BF8D0D4F85C533F212046FFF742FFAC
:1049A00002E001200CF0FDFFD4F85C33AB42F8D0FC
:1049B00038BD30B583B00D461146069C83EAE370DE
:1049C000A0EBE37042F2107C64450FD0B4F57A7F1F
:1049D0001ED0642C2CD00A2C3AD0002B48DB254B5F
:1049E0000090254A28462FF037FC0CE0002B0DDB09
:1049F000204B90FBF4F204FB1204019400921F4A36
:104A000028462FF029FC284603B030BD1C4BF0E7A8
:104A1000002B0BDB174B90FBF4F204FB1204019408
:104A20000092184A28462FF017FCECE7144BF2E7E7
:104A3000002B0BDB0F4B90FBF4F204FB12040194F0
:104A40000092114A28462FF007FCDCE70C4BF2E7F6
:104A5000002B0BDB074B90FBF4F204FB12040194D8
:104A600000920A4A28462FF0F7FBCCE7044BF2E706
:104A7000034BB5E7A8100408741304084413040892
:104A8000201D0408501304085C130408681304086C
:104A90002DE9F04182B00C461546089F099E9DF80D
:104AA00028800097FFF785FFB8F1000F12D0012F83
:104AB00010DD204629F0A4FF431E03E000208CF8FF
:104AC0000000013B33B104EB030CE05C3028F5D06F
:104AD0002E28F3D04EB1204629F092FF0096054BC8
:104AE000054A291A20442FF0B7FB204602B0BDE842
:104AF000F08100BF7C13040880130408F8B5054654
:104B00000E463A2130462FF065FC30B3002300F802
:104B1000013B2EF0BFFBC7B2002401E00134E4B238
:104B20000A2C09D804F5977305EB830359683046BE
:104B300029F05CFF0028F1D10A2C00D9002495F857
:104B40007033A3420BD013B9012385F80E3485F8D6
:104B5000704385F871730120F8BD0027DCE795F8F4
:104B60007123BA42EFD10020F6E710B50C4610468B
:104B70002EF08DFB51EC100B29F0F8FD07EE900A9A
:104B800094ED007AB4EE677AF1EE10FA14BF0120CA
:104B9000002001D0C4ED007A10BD10B50C461046BF
:104BA0002EF078FB03462268824214BF01200020C9
:104BB00000D0236010BD70B506460C463D2120464E
:104BC0002FF008FC30B30546002305F8013B601CBC
:104BD0002EF060FB202813DC0A281BDBA0F10A035F
:104BE000162B17D8DFE803F0171616271616161619
:104BF0001616161637161616161616164757670087
:104C0000B0F5BC7F06D196F8144428462EF042FB3E
:104C1000844260D170BDD6F8184428462EF03EFB81
:104C20008442F7D028462EF039FBC6F81804012339
:104C300086F80F34EEE796F81C4428462EF02AFB3F
:104C40008442E7D028462EF025FB86F81C04012379
:104C500086F80F34DEE7B6F81E4428462EF01AFB1D
:104C60008442D7D028462EF015FBA6F81E04012357
:104C700086F80F34CEE7B6F8204428462EF00EFB17
:104C80008442C7D028462EF009FBA6F82004012351
:104C900086F80F34BEE7B6F8224428462EF0FEFA16
:104CA0008442B7D028462EF0F9FAA6F82204012350
:104CB00086F80F34AEE796F81D4428462EF0EAFA3F
:104CC0008442A7D028462EF0E5FA86F81D04012379
:104CD00086F80F349EE728462EF0DCFA86F8140496
:104CE000012386F80F3495E72DE9F04106460C467E
:104CF00017460025A84607E02C2120462FF06AFB26
:104D0000044678B101340135D6F81034AB4209DDE0
:104D1000224607EB85013046FFF727FF0028EBD03E
:104D20008046E9E74046BDE8F08110B5044600F54D
:104D30006372FFF7D9FF94F8E83360F3C30384F894
:104D4000E83394F8E123DBB262F3451384F8E833E7
:104D500010BD70B504460E462C2130462FF03AFBAC
:104D60000546002305F8013B324604F575712046DF
:104D7000FFF713FF28B194F8EA3343F0010384F8F6
:104D8000EA332C2128462FF025FB0646002306F89F
:104D9000013B2A4604F576712046FFF7FEFE28B156
:104DA00094F8EA3343F0020384F8EA33324604F518
:104DB00081612046FFF7F1FE28B194F8EA3343F011
:104DC000040384F8EA3370BD70B504460E462C2106
:104DD00030462FF0FFFA0546002305F8013B324626
:104DE00004F577712046FFF7C0FE28B194F8E93347
:104DF00043F0020384F8E9332C2128462FF0EAFA25
:104E00000646F0B1002306F8013B2A4604F57F71FF
:104E10002046FFF7AAFE28B194F8E93343F00403D3
:104E200084F8E93366B1324604F580612046FFF725
:104E30009CFE28B194F8E93343F0040384F8E93385
:104E400070BD04F5806300221A60DEE770B5044689
:104E500000F5A875C549284629F0C8FD20B394F887
:104E600050313C2B2AD05B2B00F0B781242B00F073
:104E700008820622BE4928462FF0B9FA002800F021
:104E800005820622BB4928462FF0B1FAA8B904F5DD
:104E9000AB702EF0FFF984F8F00394F8E93343F097
:104EA000080384F8E93308E00CF08CFDC4F86403CF
:104EB000002384F8553384F8F13370BD012384F85E
:104EC00054330CF07FFDC4F85C03AB4904F251107D
:104ED0002FF0B2FA0546F8B101462046FFF70EFE64
:104EE00028B194F8E83343F0020384F8E83394F8E7
:104EF000F03363B194F87033052B08D0002284F8A6
:104F0000F02394F8E93362F3C30384F8E9339A4950
:104F100000202FF091FA0546002610E004F55D729E
:104F2000691D2046FFF7E0FE94F8E83360F3820342
:104F300084F8E833904900202FF07EFA0546002DD2
:104F400000F0338105228D4928462FF050FA68B9C8
:104F500094F8E033002BE1D1012384F8E03394F896
:104F6000E83343F0080384F8E833D7E7052284499F
:104F700028462FF03CFAC0B994F8E03343B100233F
:104F800084F8E03394F8E83343F0080384F8E83316
:104F900004F55D72691D2046FFF7A6FE94F8E8331C
:104FA00060F3820384F8E833C4E703227549284696
:104FB0002FF01DFA08B30422734928462FF017FA80
:104FC00000B30322714928462FF011FA002841D07E
:104FD00002226F4928462FF00AFA002844D1AB7804
:104FE000312B14BF0023012384F8E43394F8E93310
:104FF00043F0200384F8E9339CE7E91C2046FFF7DF
:10500000E3FE97E7291D2046FFF78FFE92E7012672
:105010000133092B21D8E21892F8F203DA1CA918FF
:10502000AA5C904205D094F8E92342F0400284F84B
:10503000E923E218002082F8F2030A786AB13E2AD6
:105040000BD0E11881F8F223502AE0D0702ADFD18A
:105050000126DDE700231E46DBE7002384F8FB334F
:1050600084F8E563012665E702224A4928462FF0C5
:10507000BEF948B30322484928462FF0B8F9002862
:1050800000F08E800422454928462FF0B0F9002810
:105090007FF450AF94F8E3232B79312B14BF002316
:1050A00001239A4209D082F0010284F8E32394F8A4
:1050B000E83343F0010384F8E83394F8EC3343F029
:1050C000010384F8EC3335E70235002384F80D340E
:1050D00084F80C3484F8043494F8E83343F0400343
:1050E00084F8E83315F8013B002B3FF423AF433B32
:1050F000102BF7D801A252F823F000BF5F5100082F
:10510000E5500008E550000849510008E550000846
:10511000E5500008E5500008E5500008E55000089B
:10512000E550000841510008E5500008E55000082E
:10513000E5500008E5500008E5500008515100080E
:10514000012384F80D34CDE7012384F80C34C9E73A
:10515000002384F80534012384F80434C2E70123D2
:1051600084F8053484F80434BCE700BF88130408CD
:10517000DC130408E41304088C13040890130408D7
:1051800098130408A0130408A4130408AC1304081B
:10519000B0130408B4130408B8130408BC130408BB
:1051A000E91C2046FFF7D5FDC4E67EB994F8F2333A
:1051B000002B14BF0122002294F8E93362F3861316
:1051C00084F8E93302D0002384F8F233002E7FF410
:1051D00074AE002384F8E5336FE604F2511504221F
:1051E000324928462FF003F910B3042230492846EB
:1051F0002FF0FDF850B304222E4928462FF0F7F87F
:10520000054600287FF459AE04F25516324604F5DF
:1052100082612046FFF7C1FCD4F81034052B02DD73
:105220000523C4F810343A2130462FF0D3F823E098
:1052300004F5697204F255112046FFF755FD94F804
:10524000EA3360F3C30384F8EA33D4E704F56F72FA
:1052500004F255112046FFF747FD94F8EA3360F356
:10526000041384F8EA33C6E743195A7805F5157331
:1052700004EB43031A710135D4F81034AB42F3DC6C
:105280001BE629462046FFF796FC16E604F5AB70B0
:105290002EF000F884F8F10394F8E93343F010039A
:1052A00084F8E933002384F8553306E6C413040870
:1052B000CC130408D413040870B582B0044600254A
:1052C0008DF8075004E00023A4F850331F2D32D985
:1052D000E06C03681B690DF107019847C0B298BBE9
:1052E0009DF80730182BEED0B4F85023B2F5FE7FAE
:1052F000E9D80A2B08D00D2B06D0511CA4F8501366
:10530000224482F85031E1E71AB90023A4F850335F
:10531000DCE72244002382F8503104F595664FF013
:10532000FF3130460CF0C0F82046FFF78FFD3046C5
:105330000CF0E2F8E9E76A1C0A4B2B449DF80710D1
:1053400083F8A01695B2C3E70DB902B070BD2A4626
:10535000054906481FF048FA0028F6D103481FF017
:105360005DFAF2E7745F002014660020ECA80120CB
:1053700070B5044600F595664FF0FF3130460CF0ED
:1053800093F8D4F868536B1CC4F8683313B9AB1C9A
:10539000C4F8683330460CF0AFF8284670BD2DE9EC
:1053A000F041A2B006460D4690464FF00D072AF098
:1053B000FBFB10B196F870331BB9384622B0BDE83C
:1053C000F0813046FFF7D4FF019000237F2B0BD8EC
:1053D000EC5C03F188020DEB020101F8804C0CB18A
:1053E0000133F3E74FF00007FBB2002BE5D11A467B
:1053F00001A930460BF079FF0746019BC8F8003041
:10540000DBE710B50446FFF757FF0CF0DBFAD4F8E2
:105410005C33C01AB0F5967F05D9002384F8703349
:10542000012384F8543320462AF0BEFB10B194F8CF
:10543000703363B994F855334BB1002384F8553376
:10544000D4F86833C4F86C33562384F8F13303F08E
:105450009FFE037A012B13D194F85233B3B920463F
:105460002AF0A2FB10B194F80E349BBB20462AF020
:105470009BFB10B194F85433B3BB4FF0000010BD48
:1054800003F086FE037A022BE9D1E5E720462AF0F5
:105490008BFB0028E3D194F8EC3313F0010F07D114
:1054A0000CF090FAD4F85833C01AB0F5967FD6D9DC
:1054B0008B212046FFF7B6F90CF084FAC4F85803A4
:1054C000002284F8542394F8EC3362F3000384F848
:1054D000EC33C4E720462BF009F820462BF014F8F3
:1054E000002384F80E34C1E70CF06CFAD4F858337A
:1054F000C01A6428C1D9E06C03681B6A9847002869
:10550000BBD00CF05FFAC4F85803002384F854337E
:10551000E06C0368DB69012204F2533198473F23B2
:1055200084F853330122054905481FF05DF900282E
:10553000A3D103481FF072F99FE700BFEC130408E2
:10554000ECA801202DE9F041AEB004460D469DF8CF
:10555000D0804FF00300D4F810148D4202DB2EB03F
:10556000BDE8F08117461E4620462AF01DFB28B1F3
:1055700094F87033012B04D0032B02D04FF00D00B0
:10558000EDE72046FFF7F4FE0D90294620462AF06D
:1055900019FB00903B46102205A92046FFF709FAA7
:1055A000642300933346102209A92046FFF701FA2D
:1055B00094F81C34DBB9104BB8F1000F19D00F4A26
:1055C00005F5157504EB4505043509A9039105A9F1
:1055D0000291019500920A4A80210EA82EF03CFE0D
:1055E00000231A460DA920460BF07FFEB7E7054BB6
:1055F000E2E7054AE4E700BFF0130408F8130408E3
:1056000000140408F4130408FC130408F0B5ABB04C
:1056100004460D464FF00300D4F810148D4201DB10
:105620002BB0F0BD17461E4620462AF0BDFA28B121
:1056300094F87033012B04D0032B02D04FF00D00EF
:10564000EEE72046FFF794FE0990294620462AF00F
:10565000B9FA00903B46102205A92046FFF7A9F9A8
:1056600094F81C34ABB90C4B05F5157504EB4505E6
:105670000435029605AA01920095084A80210AA8DD
:105680002EF0EAFD00231A4609A920460BF02DFE54
:10569000C6E7034BE8E700BFF01304081014040842
:1056A000F41304082DE9F043BBB004460F46164638
:1056B0001D469DF80C912AF077FA28B194F87033C2
:1056C000012B06D0032B04D04FF00D003BB0BDE8FA
:1056D000F0832046FFF74CFE199094F81C34DFF855
:1056E000C48008EB8303D3F8183200933B461022A2
:1056F00009A92046FFF75DF994F81C3408EB8303F1
:10570000D3F818320093334610220DA92046FFF734
:1057100050F994F81C3408EB8308D8F81832009339
:105720002B46102211A92046FFF743F9642300936A
:10573000429B102215A92046FFF73BF994F81C3430
:1057400013BB134BB9F1000F20D0124A04F2AC4145
:1057500004F2AE4004F5966515AE079611AE0696B6
:1057600005950DAD0495039009A802900191009252
:10577000094A80211AA82EF06FFD00231A4619A9A4
:1057800020460BF0B2FDA1E7044BDBE7044ADDE75E
:10579000F0130408F813040828140408F413040888
:1057A000FC130408DC6F03082DE9F047BAB0044687
:1057B0000D4616461F469DF80C819DF81091444BEE
:1057C000D3F8C0368B4215D0414BC3F8C056C3F84E
:1057D000C46620462AF0E8F938B194F87033012BFA
:1057E00013D0032B11D0022B0FD04FF00D003AB085
:1057F000BDE8F087364BD3F8C4369342E4D1344B3E
:10580000C3F8C016C3F8C426DEE72046FFF7B0FD94
:10581000199094F81C34DFF8D8A00AEB8303D3F86E
:10582000183200932B46102209A92046FFF7C1F831
:1058300094F81C340AEB8303D3F8183200933346F0
:1058400010220DA92046FFF7B4F894F81C340AEB97
:10585000830ADAF8183200933B46102211A9204639
:10586000FFF7A7F864230093429B102215A9204656
:10587000FFF79FF894F81C3423BB164BB9F1000FC7
:1058800022D0154AB8F1000F20D0144904F2AC40E0
:1058900004F2AE4515AE079611AE06960DAE05960E
:1058A000049509AD03950290019100920C4A802164
:1058B0001AA82EF0D1FC00231A4619A920460BF095
:1058C00014FD94E7074BD9E7074ADBE70749DDE713
:1058D000745F0020F0130408F8130408401404084F
:1058E00048140408F4130408FC13040844140408BE
:1058F000DC6F030830B5A3B004464FF00300D4F8C2
:105900001034994201DB23B030BD0D4620462AF009
:105910004BF918B194F87033012B02D04FF00D0001
:10592000F1E72046FFF724FD019005F5157304EB20
:1059300043030433054A802102A82EF08DFC002386
:105940001A4601A920460BF0D0FCDCE764140408D9
:1059500070B5A8B004460D464FF00300D4F81014FB
:105960008D4201DB28B070BD164620462AF01CF996
:1059700018B194F87033012B02D04FF00D00F1E70D
:105980002046FFF7F5FC0790294620462AF01AF931
:1059900000903346102203A92046FFF70AF894F836
:1059A0001C34A3B90B4B05F5157204EB420204320B
:1059B00003A901910092084A802108A82EF04CFC0E
:1059C00000231A4607A920460BF08FFCCAE7034BB9
:1059D000E9E700BFF013040874140408F413040882
:1059E0002DE9F041AEB004460D469DF8D4804FF04D
:1059F0000300D4F810148D4202DB2EB0BDE8F08114
:105A000017461E4620462AF0CFF818B194F8703396
:105A1000012B02D04FF00D00EFE72046FFF7A8FC66
:105A20000D90294620462AF0CDF800903B461022E2
:105A300005A92046FEF7BDFF6423009333461022DC
:105A400009A92046FEF7B5FFBEB9B8F1000F3AD05C
:105A50001F4B94F81C24002A37D11E4905F51572F6
:105A600004EB4202043205A80290019200911A4A06
:105A700080210EA82EF0F0FB17E0B8F1000F1ED029
:105A8000134B94F81C24E2B9124905F5157204EB86
:105A90004202043209A8039005A8029001920091E5
:105AA0000E4A80210EA82EF0D7FB00231A460DA91E
:105AB00020460BF01AFC0D9A349B1A609DE7084BA8
:105AC000DFE70849E1E7064BC3E70649C6E700BF41
:105AD000F8130408F0130408981404088814040840
