:020000040800F2
:1000000000000220F1EC0208B5A90208B7A9020815
:10001000B9A90208BBA90208BDA902080000000096
:100020000000000000000000000000009D6C0208BD
:10003000BFA9020800000000596D0208C1A902080A
:1000400041ED020841ED020841ED020841ED0208D0
:1000500041ED020841ED020841ED020841ED0208C0
:1000600041ED020841ED020841ED020841ED0208B0
:1000700041ED020841ED020841ED020841ED0208A0
:1000800041ED020841ED020841ED020800000000C8
:1000900000000000000000000000000041ED020828
:1000A00041ED020841ED020841ED020841ED020870
:1000B00041ED020841ED020841ED020841ED020860
:1000C00041ED020841ED020841ED020841ED020850
:1000D00041ED0208D7A9020841ED02080000000026
:1000E00041ED020841ED020841ED02080000000068
:1000F00000000000000000000000000041ED0208C8
:1001000000000000E5A9020841ED020841ED0208E7
:1001100000000000000000000000000000000000DF
:1001200041ED020841ED0208F5A9020805AA0208FE
:1001300041ED020800000000000000000000000087
:1001400000000000000000000000000015AA0208E6
:1001500025AA020841ED020835AA020841ED02086D
:1001600041ED020841ED020800000000000000001F
:10017000000000000000000000000000000000007F
:100180000000000041ED0208000000000000000037
:0801900041ED020841ED0208F7
:1001A0002DE9F84F914CDFF89892C4F800904FF089
:1001B000010A84F804A000256571DFF88882C4F87C
:1001C0000080DFF884B2C4F808B01023E360884EE2
:1001D000884F3246394620462EF0B3FDC4F81090C1
:1001E00084F814A06575C4F81080834BA361C4F82B
:1001F0001CA03246394604F110002EF0A2FDC4F8CE
:10020000209084F824A084F82550C4F82080C4F8F5
:1002100028B00823E3623246394604F120002EF06C
:1002200090FDC4F8309084F8345084F83550C4F808
:100230003080714BA3634FF48063E36332463946E9
:1002400004F130002EF07DFDC4F8409084F8445055
:1002500084F84550C4F84080674BA3640223E364EC
:100260003246394604F140002EF06BFDC4F8509040
:1002700084F8545084F85550C4F85080C4F858B0ED
:10028000C4F85CA03246394604F150002EF059FD06
:10029000C4F8609084F864A084F86550C4F8608065
:1002A000C4F868B04FF48073E3663246394604F10F
:1002B00060002EF046FD514B23676423A4F8743090
:1002C000A4F876304E4B23674E4BA36704F1700BB6
:1002D00032464D4958462EF034FD04F17C074B4917
:1002E00038462CF023F93246494938462EF029FD8C
:1002F000484BC4F88C30484BC4F88C30474BC4F89A
:100300001031A4F814513246454904F18C002EF006
:1003100018FD444BC4F818310323C4F81C314FF4C2
:10032000F078C4F820814FF4A079C4F82491C4F87F
:100330002881C4F82C9184F830513B4BC4F8183113
:10034000C4F834B1C4F8384104F11003C4F83C31A6
:100350001033C4F840313246344904F58C702EF025
:10036000F0FC334BC4F8443184F8485184F84951C7
:10037000A4F84A51A4F84C512E4BC4F84431C4F8A7
:10038000507184F85451C4F85651C4F85A51C4F805
:100390005E5184F848A1A4F84A91A4F84C814FF02A
:1003A000030384F849313246234904F5A2702EF044
:1003B000C8FC4FF40043C4F864314023C4F86831EA
:1003C00084F86C51C4F87051C4F87471C4F8785151
:1003D00042200AF08EF9C4F870013246174904F53C
:1003E000B2702EF0AEFCBDE8F88F00BF18030020FD
:1003F0004401002089C4020800040240B8E1030857
:100400002CDB0308408B012091C30208048A0120E1
:10041000EDC4020850E2030894DB0308D48C0120E9
:100420009DC402089CE2030864C80308B1C4020822
:10043000ECE2030828620308C5C40208D9C4020814
:100440007CE2030888DA03080000024070B5144C0F
:10045000236800255D62294620461BF049FF294696
:1004600020461AF023F90E4B1B681B6913F0020F8C
:10047000F9D000210A481AF019F90446084B1B6804
:100480001B6913F0020FF9D0054E002130461AF017
:100490000DF90546002130461BF0B0FF281B70BD4A
:1004A000448C0120174B1B6813F4003FFAD0154A07
:1004B000936823F0030343F001039360124B00227F
:1004C0001A66104B1B6813F0007FFAD10D4A53686F
:1004D00023F4800318435060536823F03F0319430B
:1004E0005160094B01221A66064B1B6813F0007F0E
:1004F000FAD0044A936823F0030343F002039360A5
:10050000704700BF003802400000474200B587B086
:1005100010210020FFF7C6FFFFF798FF144B1B6860
:1005200003EB4303134AA2FB0323B0EBD34F07D8DB
:1005300019214FF48000FFF7B5FF07B05DF804FB09
:100540006846002300930193029303930493059359
:1005500002230093084B049316F0ECF828B9074BDC
:100560000122C3F83C2E0821E3E729F0D5FEF6E787
:10057000DC00002083DE1B4300030800000047422C
:1005800010B510210020FFF78DFF002423460CE05A
:1005900081421ED91E2B1CD801330F490A6822F054
:1005A000F80242EAC3020A6001341E2C11D8FFF798
:1005B0004DFF094B1B68C3F3C403084A126808497E
:1005C000A1FB0212910CB0EB924FE1D90BB1013BB0
:1005D000E3E7184610BD00BF00380240DC000020F1
:1005E00083DE1B4310B582B0FFF7CAFF044616F046
:1005F0001BFA0FF0C9FC114A136823F0F80343EA11
:10060000C40313604FF0E02300221A615A619A611B
:100610000B4B0193019B596862B60A4B1A6822F092
:1006200003021A601A6842F001021A60019B1B68FB
:1006300083F30888884702B010BD00BF003802402D
:100640000000FF1F0038014038B5FFF75FFF254C61
:10065000236D1B6904F15000984794F85530003B16
:1006600018BF0123984234D005F0A0FF1D4C04F5BB
:10067000B27105F0BBFF0AF0C9F904F5A27204F5E6
:100680008C710AF049F80FF00EF803681D6A04F146
:10069000600300221449A84705F0D7F90022134946
:1006A00005F0FEF9236B1B6904F13000984794F8BC
:1006B0003530003B18BF012398420DD003F0D4F928
:1006C0000B4903F0FBF900F0F8F803681B68984742
:1006D00038BDFFF787FFC7E709F070F903681B68AB
:1006E0009847F5E7180300208C8C0120FC8B012033
:1006F000A403002000BEFEE7704708B5FFF750FDD9
:1007000008BD00BF00F5005090F86C3113B94FF0F0
:10071000000070474FF00400704770B5064600F5C2
:100720000054D4F8640190F8701303F0E9F901461D
:10073000002206F628500DF081F9D4F8640190F8F3
:10074000F11303F0E6F90146002206F556600DF0BC
:1007500075F9D4F8641191F8E923134623F04003A6
:1007600081F8E933C2F3801201F2F23106F69850B3
:100770000DF064F9002511E005EBC504640104F5F2
:100780005D64344406F50053E9B2D3F8640103F024
:1007900015FA0146204601F0F6F90135052DEBD991
:1007A00006F50053D3F8643193F852336BB306F671
:1007B0003844012120460FF093FB06F50053D3F88F
:1007C000643193F8E333F3B14FF47F4120460FF0E7
:1007D000A8FA06F50055D5F86431002483F80F44D3
:1007E000D6F89030123306EB8306706803685B69B5
:1007F00014219847D5F85C0100F5C15004300EF083
:10080000B6FC204670BDFF21E0E706F63844002123
:1008100020460FF065FB06F50053D3F8643193F8DA
:10082000E33323B1FF2120460FF07BFAD1E76FF0CD
:100830007F41F8E703464FF00200002B3CD0F0B5B3
:1008400083B01E460B88ADF804309DF80450E5B91E
:1008500006F5B154183423685B6920469847B0B157
:1008600023685B6C2046984788B19DF8057039462F
:1008700020460FF035FB57B923685B6C204698473C
:1008800028B120460FF03CFB01E0012D05D0062DDC
:1008900007D04FF0000003B0F0BD06F5BD5418348A
:1008A000D9E79DF80530002BF3D033689B6906F635
:1008B000384130469847ECE7704708B50F4B1B6846
:1008C000BFF35B8F13F0010F01D00D4808BD0B483B
:1008D0002EF005FE0028F8D009482CF0E7FB094A65
:1008E000094907482EF02DFA04482EF007FEECE7E0
:1008F00002482EF000FE2EF09FFA00BF9404002064
:100900009804002044010020B5CF02082DE9F041F1
:1009100084B004460F46002960D000F50053D3F898
:100920005C31D3F88830083B424D85FB0325A5EBAD
:10093000E37504F5B156183604F50053D3F85C316D
:10094000D3F88C800AF03EFD0368DB68984700EB23
:100950004000A8EB00080AF035FD0368DB68984703
:1009600000EB4000012302930190009543460022D2
:10097000314930460FF09CF82BF074FE01460023FD
:100980001A4630460FF0B8FA30460FF075FA87BBBA
:1009900004F5BD56183604F50053D3F85C31D3F88E
:1009A000882004F58054B4F9463601210291019360
:1009B0000095B4F93E36521B1F4930460FF078F8C7
:1009C0002BF050FE014600231A4630460FF094FAF1
:1009D00030460FF051FA04B0BDE8F08100F5005345
:1009E000D3F85C31D3F8885005EBD5756D10043D14
:1009F0009FE704F5B756183604F58053B3F940263F
:100A0000B3F946160120029001910095B3F93E36E4
:100A10000532094930460FF04BF82BF023FE014612
:100A200000231A4630460FF067FA30460FF024FADA
:100A3000AEE700BF565555554CE6030808B500F51E
:100A40000053D3F8643193F87033022B06D0074972
:100A500000F5B15018300FF020F908BD044900F539
:100A6000B15018300FF019F9F7E700BF24E303087D
:100A70001CE3030808B500F50053D3F8643193F87C
:100A80007033012B00D033B929B100F5B1501830C3
:100A90000FF003F901E0FFF7D1FF08BD08B500F53D
:100AA0000053D3F8642192F87033052B09D00BB1B1
:100AB000092B18D10F4900F5BD5018300FF0EDF893
:100AC00008BD92F8F1334F2B06D00B4900F5BD500D
:100AD00018300FF0E2F8F3E7064900F5BD50183082
:100AE0000FF0DBF8ECE7054900F5BD5018300FF0CA
:100AF000D4F8E5E7CCED030828E3030830E3030866
:100B000008B500F50053D3F8643193F87033012B26
:100B100006D129B100F5BD5018300FF0BEF801E044
:100B2000FFF7BCFF08BD38B5054600240F2C21D8BF
:100B300004F1120305EB83035B688B4201D001349F
:100B4000F4E7D5F89030123305EB83035868036857
:100B50001B699847C5F89040214605F1940004F0C0
:100B60006AFED5F89030123305EB83056868036898
:100B7000DB68984738BD70B58AB0044603A826F0F4
:100B800020FB04F5B0551835049B154A2021284652
:100B900030F04AFE04F5AF560122294630460CF0EB
:100BA0004DFF04F50053D3F85C31D3F8882002EBF5
:100BB000D27204F58054B4F9EC3503EBD3735C10B6
:100BC000C4EB62040AF0C0FB01906FF07F43009316
:100BD0001E232246294630460CF0A9FD0AB070BDFE
:100BE00038E3030810B50446943004F03BFC04F6E7
:100BF000F8400DF0C2FA04F628500DF0BEFA04F5E4
:100C000056600DF0BAFA04F698500DF0B6FA04F6F4
:100C100038400DF0B2FA04F5B15018300DF0ADFACD
:100C200004F5BD5018300DF0A8FA10BD10B50446FB
:100C30004FF4FA61943004F0BDFB4FF47A7104F67E
:100C4000F8400DF08BFA40F2E93104F628500DF02F
:100C500085FA40F2EA3104F556600DF07FFA40F271
:100C6000EB3104F698500DF079FA4FF47A7104F6EE
:100C700038400DF073FA662104F5B15018300DF0CC
:100C80006DFA662104F5BD5018300DF067FA10BDFD
:100C900038B504460D46D0F89030123300EB83038C
:100CA000586803681B699847C4F89050294604F1B6
:100CB000940004F0C0FDD4F89030123304EB8304A8
:100CC00060680368DB68984738BD70B504460D4618
:100CD0004FF0000600F638438B4214D004F1940321
:100CE000AB4221D0D4F89030123304EB8303586820
:100CF00003689B69294698470646F6B2092E19D023
:100D00004FF0000070BD90F8483C002BE6D000F595
:100D10000053D3F8640190F8523313B903F071F81B
:100D2000EBE703F0B9F8E8E794F8C0102046FFF7C6
:100D3000AFFFE2E704F5B1531833AB421CD004F522
:100D4000BD531833AB42DBD104F50054D4F8640131
:100D500090F87033052B1FD00BB1092B30D1002335
:100D600080F8F13380F85533D0F86833C0F86C332D
:100D7000182103F037F8C3E704F50054D4F86401F0
:100D800090F87033022B03D0812103F02BF8B7E7E2
:100D9000822103F027F8B3E790F8F1334F2B02D00C
:100DA0002BF09EFEACE7002380F8F13380F855333A
:100DB000D0F86833C0F86C33182103F013F89FE7BC
:100DC000002380F85533D0F86833C0F86C3319210C
:100DD00003F008F894E708B5D0F890100131D0F886
:100DE0008C30B1FBF3F203FB1211C9B2FFF750FFD5
:100DF00008BD08B5D0F89010D0F88C3019440139EE
:100E0000B1FBF3F203FB1211C9B2FFF741FF08BDBA
:100E10002DE9F04383B0044600F19405284604F020
:100E200021FB04F50058D8F85C31D3F8883008224B
:100E300001922827009700221146284604F00FFD52
:100E40000026C4F88C600AF003FA0346334A3146A0
:100E5000284604F078FC02F006FAD4F88C3003F14E
:100E60000109C4F88C90123304EB830358600AF034
:100E7000EFF903462A4A4946284604F064FC06F086
:100E8000D7FAD4F88C3003F10109C4F88C901233EE
:100E900004EB830358600AF0DBF90346214A494614
:100EA000284604F050FC07F081FBD4F88C3003F1A5
:100EB0000109C4F88C90123304EB830358600AF0E4
:100EC000C7F90346184A4946284604F03CFC08F096
:100ED00053F9D4F88C305A1CC4F88C20123304EB2C
:100EE00083035860D8F85C31D3F8883001920097BA
:100EF00032463146284604F0B2FC284604F060FD34
:100F0000334632462146284604F056FD4FF4FA6136
:100F1000284604F04FFA03B0BDE8F08350E303081D
:100F20005CE3030868E3030878E303082DE9F04F66
:100F300089B0044605F03AFB05F05CFB8DF81F0014
:100F400004F50056D6F85C5105F030FBC168003955
:100F500018BF0121284609F000FC96F85811D6F870
:100F60005C0109F08DFFD6F85C31B94AC3F88020E6
:100F7000D6F85C31D3F88C700AF024FA0368DB6889
:100F8000984700EB40003F1A0AF062F90368DB68FB
:100F90009847A7EB4007023FD6F85C31D3F888505A
:100FA0000AF056F903689B68984700EB4000A5EBF0
:100FB00040080AF04DF90368DB689847400004F6E2
:100FC000F84900250295A34B0193009043463A4609
:100FD000294648460BF0BBFF4FF47A7148460DF0A6
:100FE000BDF804F5C35909F118099B4F02233A468D
:100FF0003946484605F00EF92B462A462146484612
:1010000005F004F9D6F8640102F046FF04F6384A08
:10101000D6F85C31D3F888800AF01AF903689B6827
:10102000984700EB4000A8EB400808F1FF38B4F9FE
:10103000FEBC0AF00DF903689B68984700EB40007E
:101040004000B4F9063D01220292019300905B46F4
:101050004246824950460EF02BFD2B462A46214639
:1010600050460EF049FF294650460EF039FF4FF426
:101070007A7150460DF072F8B4F9FE8CB4F9063D61
:1010800003EBD37308EB63080AF0E2F80368DB684C
:101090009847A8EB50080AF0DBF804F6285B0190AB
:1010A0006FF07F43009343460422394658460CF0C4
:1010B0003EFBB4F92CAD0AF0CBF803689B68984767
:1010C00000EB800082440AF07DF903689B68984732
:1010D0000AEB00020592B4F9028D0AF073F9036875
:1010E000DB689847A8EB0008A8F102080AF06AF943
:1010F00004F5566A01906FF07F4300934346059ACA
:10110000394650460CF013FBB4F93C8C0AF096F9C2
:1011100003689B68984700EB800300EB4300A8EB53
:1011200000030593B4F9FE1C06910AF087F904F652
:1011300098580190FF23009306990B1D059A394694
:1011400040460CF0F4FA40F2E93158460DF006F84A
:1011500040F2EA3150460DF001F840F2EB314046E2
:101160000CF0FCFF04F50553343301934323009343
:1011700023463B4A2146D6F8600104F0BBFC2946D1
:101180002046FFF7C3FB2046FFF742FE09E005EBD0
:10119000C500400100F55D600021204400F0F3FC33
:1011A0000135052DF3D904F5B05518350AF0CCF802
:1011B00001906FF07F43009300231A46294604F5FF
:1011C000AF500CF0B4FA00250CE005F1120304EB6B
:1011D00083035868B4F9FE2C03689B68283A2821D9
:1011E00098470135D4F88C30AB42EED80023C4F8D0
:1011F00090309DF81F30CBB9D4F8901004F19400D2
:1012000004F019FBD4F89030123304EB83035868D0
:101210000368DB68984704F50054D4F8640102F0D1
:10122000F0FD4FF0000009B0BDE8F08F02230D4A39
:101230000D49484604F0EEFF42F21071484605F0B1
:10124000EFF8D4F88C30013BC4F89030D4E700BFFD
:1012500040404000808080004CE6030884E303089F
:101260003508000888E30308D4E3030838B50346CB
:101270004FF00200B3B11C4691B103F1D405D3F88D
:101280002031626901FB0231284600F07CFCA36931
:1012900033B1D4F8202153F82210284600F0C1FCC5
:1012A0004FF0000038BD016042608360704710B5A8
:1012B00004464169012914BF0021012100F5FA709B
:1012C0000EF00EFE61690A2914BF0021012104F508
:1012D0002D700EF005FE6169642914BF0021012103
:1012E00004F55D700EF0FCFD10BD94463AB9012086
:1012F000704701FB00F001336345FAD3704708469D
:101300000123F9E72DE9F04F89B004460F46069214
:101310001E4600238361D44B1B68BFF35B8F13F021
:10132000010F6CD004F19C0509F092FF01906FF061
:101330007F43009300231A46394628460CF0F7F9FC
:101340009DF8541028460CF03CFBC74F7968B4F95F
:10135000A830C91A00230822490828460CF056FF75
:1013600004F1200B594628460CF0B8FE012128460E
:101370000CF0F4FE04F1D405B4F9A6807F68103FA8
:101380000AF020F80368DB68984700EB8000149BA4
:1013900002930D23019300903B4608F108020821B7
:1013A000284600F017FB4FF47F420421284600F046
:1013B000DEFB0AF007F801460222284600F031FD64
:1013C000139A1299284600F025FC3146284600F071
:1013D000DAFB09F0F7FF034605220699284600F0DC
:1013E00035FD002684F8E460594628460CF076FE68
:1013F000012128460CF0B2FECDF81CB07DE09A48E1
:101400002EF06DF800288DD0D4F8F035D3F8883060
:10141000954843602EF072F884E7B4F9E070083F15
:10142000924BA3FB07377F0802F01EFB054606F12F
:10143000440804EB081806F5867304EB8303D3F81D
:101440000490149A0A212046FFF74FFF00904B4664
:1014500010224146284602F08CFD40462AF0CAFE82
:10146000069B834AC0F11001404430F0DDF94FEA99
:10147000460B06EB4605AD0105F5F8752544043528
:10148000B4F9D8303A1D06FB02330593B4F9DEA057
:1014900009F098FF0368DB68984700EB80004FF085
:1014A0000109CDF80890019000970AF10803059A08
:1014B000414628460EF0FCFA2BF0D4F801462346AC
:1014C0006C4A28460EF018FD002128460EF008FD53
:1014D000032128460EF09DFC0BEB060704EB871753
:1014E000D7F8F4319B68079928469847D7F8F43124
:1014F000DB684946284698474E44022E8DD9DDF8D0
:101500001CB0149B022B01D902231493149A0A21B4
:101510002046FFF7EAFE6061149B03EB4300800165
:1015200000F5F8702044012104300EF0D9FC04F1DC
:101530004C084D4FD7F80490D4F8F4319B6B04F568
:10154000FA70984701260296002501950830009010
:101550004B462A46294640460BF0F9FC04214046FA
:101560000BF054FD4FF6FF7140460BF07FFD29460E
:1015700040460BF091FD594640460CF0AFFD294620
:1015800040460CF0EBFDD4F8F035D3F88C20B4F9DC
:101590005A30D21A02EBD27200937B68324129464C
:1015A00058460CF0E8FCD4F8F025D2F88830D2F890
:1015B0008C2000922A46294604F17C000BF07FFD26
:1015C00084F88C6004F58E68D4F8F035D3F88C700C
:1015D00009F0F8FE0368DB68984700EB40003F1A0B
:1015E000D4F8F035D3F8882002EBD27242FA06F92B
:1015F00009F0E8FE0368DB68984700EB40000296BC
:101600000190A9F1040200923B462A461A4940463D
:101610000EF04EFA2BF026F80146DFF858902346DC
:101620004A4640460EF068FC04F5A667D4F8F0354B
:10163000D3F88810B4F97C24B4F97E34029601936F
:101640000092B4F976348A1A0C4938460EF030FA12
:101650002BF008F8014623464A4638460EF04CFC6B
:10166000284609B0BDE8F08F24260020ABAAAAAA1C
:10167000E0E30308DB170008E4E30308E8E30308FA
:101680002DE9F04184B0054616461F46DDF8288056
:101690009DF82C300393002402947B1E0193009448
:1016A00043461E4AFFF72EFEAE61EF6156F8281042
:1016B00005F1D40000F0B5FA0FE004EB440080011E
:1016C00000F5F870284404EB440305EB8313D3F8CA
:1016D000F4311B69043098470134022CEDD905F12F
:1016E0004C06B5F9DE300122029200240194083341
:1016F0000093B5F958302246214630460BF027FCBE
:10170000042130460BF082FC4FF6FF7130460BF09F
:10171000ADFC204604B0BDE8F08100BF4CE60308F4
:1017200030B583B004460D467C300CF017FD691CC3
:1017300004F120000CF012FDA91C04F58E600CF0E1
:101740000DFDE91C04F5A6600CF008FD04F07DF920
:1017500005462AF087FF014604F2F453009323461E
:101760000B4A284604F0FEF904F06FF905462AF00A
:1017700079FF014604F20C6301937F230093234613
:10178000044A284604F0B6F94FF0000003B030BD1B
:101790006D120008DB17000810B5044604F055F977
:1017A00004F2F45104F0FBF904F04FF904F20C6177
:1017B00004F0C0F904F120000CF0DFFC04F17C001F
:1017C0000CF0DBFC04F58E600CF0D7FC04F5A66091
:1017D0000CF0D3FC4FF0000010BD03464FF00200A8
:1017E000002B5ED070B582B01C4603F58E658D422D
:1017F00024D003F5A6668E4220D003F5FA738B42FF
:1018000039D004F52D738B4238D004F55D738B42CB
:1018100037D00B88ADF804309DF80430002B33D05E
:10182000012B1AD19DF80550294630460EF058FB81
:101830009DB931462046FFF7D0FF0EE08D4214BF20
:101840000021012121742046FFF7A6FF206858B12E
:101850002346A26861680DF051F92046FFF727FD85
:101860004FF0000002B070BD6368002BF5D0214638
:10187000A0689847F1E701236361EEE70A236361FB
:10188000EBE764236361E8E79DF80560314628468D
:101890000EF026FB002EE0D129462046FFF79DFFE3
:1018A000DBE770472DE9F04182B004460E4617464B
:1018B0001D46DDF82080B0F90630B0F90400A8EB31
:1018C00000000090EB1A04F150000BF0A3F8B4F9FB
:1018D0000630B4F90420A8EB02020092EB1A3A4653
:1018E000314604F1B8000BF04DFE94F8183113B9ED
:1018F00002B0BDE8F081B4F90630B4F90420A8EBD9
:1019000002020092EB1A3A46314604F180000BF0D5
:1019100039FEEDE72DE9F04182B004460E46174648
:101920001D46DDF82080B0F90430B0F90600A8EBC0
:1019300000000090EB1A04F150000BF0C4F8B4F969
:101940000430B4F90620A8EB02020092EB1A3A46E2
:10195000314604F1B8000BF08AFE94F8183113B93F
:1019600002B0BDE8F081B4F90430B4F90620A8EB68
:1019700002020092EB1A3A46314604F180000BF065
:1019800076FEEDE710B5044605290DD8DFE801F035
:10199000030D0C0C03140E4950300BF07DFB236833
:1019A000DB6C00212046984710BD006A20B1234619
:1019B000A26A616A0DF0A2F8002104F150000BF058
:1019C0006BFB2368DB6C002120469847ECE700BFE7
:1019D000808080002DE9F04184B004461F460A9EB5
:1019E0000B9DDDF830804FF0FF33C3648180C280EF
:1019F000CB199BB2013B038193199BB2013B4381FD
:101A00008781C681A5EB08038363C0F83C8001226F
:101A10000264002105E0226C02EB82025200226483
:101A200001318845F7DCB8F1000F14D0CDF8008003
:101A3000394A102104F584702FF0F6FEB8F1000F3A
:101A400000D0013504F1F00840462AF0D3FBA8424B
:101A500013D000220BE0314A102104F584702FF0DE
:101A6000E3FEEBE70021A31883F8F0100132172AF8
:101A700003D89542F6D92021F5E7012302930025EA
:101A8000019500963B462A46294604F150000BF08A
:101A90005EFA04F1B80709F095FC01906FF07F43FE
:101AA00000932B462A46414638460BF040FE94F8F8
:101AB0003850E36B73B30122154453FA85F5EDB248
:101AC0000135EDB2B4F90C8038462BF04BFC00FB2D
:101AD0001581B4F9C630F61A06EBD67600237210DB
:101AE000490804F1B8000CF091FB09F06BFC01907F
:101AF0006FF07F43009300231A46094904F18000E8
:101B00000BF015FE2368DB6C00212046984704B0DB
:101B1000BDE8F0810022CFE7F0E3030804E4030806
:101B20004CE60308C36F994200D1704710B50446D4
:101B300050300BF06BFA2368DB6C0021204698478D
:101B400010BD10B5044601634263036F90F82C008A
:101B500000B11146994200D110BD04F150000BF0C4
:101B600085FA2368DB6C002120469847F4E738B5F6
:101B700004461546FFF7D6FF4FF47F42294620461C
:101B8000FFF7DFFF38BD10B582B00446426C8A42D1
:101B900000DC0A46A36C934200DB1346E26C9A42D7
:101BA00036D0E364E26B8AB9009304F5847318229B
:101BB00004F1F00104F1B8000BF073FF2368DB6C53
:101BC000002120469847012002B010BD216C93FBF4
:101BD000F1F201FB1233002BB8BF5B42019300927C
:101BE00004F58473182204F1F00104F1B8000BF03D
:101BF00058FFE36C002BE1DA226C93FBF2F3002B2D
:101C0000DCD1A36B023B23442D2283F8F020D5E7DF
:101C10000020D9E708B541648264C16CFFF7B3FFC7
:101C200008BD30B583B0044600F1B80500910D4BF6
:101C3000182200F1F00128460BF033FFB4F90C1024
:101C4000B4F9C430C91AB4F90E20B4F9C630D21AA6
:101C500002EBD27200235210490828460CF0D6FA43
:101C600003B030BD0CE40308F8B50446836BC56BC4
:101C70006DB101210B441D4494F81831013B042B34
:101C800000F2B480DFE803F0383205638B000021F6
:101C9000F0E7B4F90C6004F1B80738462BF062FBAA
:101CA00094F8E43000FB03F303FB1561B4F98C30C6
:101CB000C91A0239B4F90E20B4F9C630D21A02EBAF
:101CC000D27200235210490838460CF09FFAB4F93A
:101CD000C060B4F9C27004F1800528462BF04BFBBC
:101CE00000233A1AB11C28460CF090FA2368DB6CEA
:101CF000002120469847F8BDB4F90C10B4F98C3097
:101D0000C91AB4F90E20B4F9C630D21AB4F98E301B
:101D1000D21A02EBD27200235210490804F180005B
:101D20000CF074FAB4F90C6004F1B80738462BF0E3
:101D300019FB94F8E43000FB03F303FB1561002367
:101D4000B4F98A20490838460CF060FACEE7B4F9B5
:101D50000C6004F1B80738462BF004FB94F8E4302B
:101D600000FB03F303FB1561B4F90E20B4F9C63090
:101D7000D21A02EBD27200235210490838460CF0F6
:101D800045FAB4F90C10B4F98C30C91A0023B4F92F
:101D9000C220490804F180000CF038FAA6E7B4F933
:101DA0000C6004F1B80738462BF0DCFA94F8E43004
:101DB00000FB03F303FB1561B4F90E20B4F9C63040
:101DC000D21A02EBD27200235210490838460CF0A6
:101DD0001DFAB4F9C000B4F98C100023B4F9C22084
:101DE000411A04F180000CF011FA7FE7B4F90C609D
:101DF00004F1B80738462BF0B5FA94F8E43000FB4C
:101E000003F303FB1561B4F90E20B4F9C630D21AFE
:101E100002EBD27200235210490838460CF0F6F952
:101E200064E770B50446154600F1B80630460BF07D
:101E300088FDE9B230460BF0C4FD2046FFF714FFE1
:101E40002368DB6C00212046984770BD70B50446BE
:101E50000D4680F8182100F18006194630460BF037
:101E600070FD0022294630460BF0E8FD2046FFF7C2
:101E7000FBFE2368DB6C00212046984770BD90F87C
:101E80002C308B4210D010B5044680F82C10503006
:101E900041B1616B0BF0EAF82368DB6C002120464E
:101EA000984710BD216BF5E770470162426283627B
:101EB000704700BF02464FF00200134652B192F83D
:101EC0003420052A04D803EB82035A681144596070
:101ED0004FF00000704770B5054603F0B6FD05F5FC
:101EE000BC51043103F05BFE05F58053D3F878074D
:101EF000FFF752FC05F5885004300CF03EF905F56B
:101F00008E5004300CF039F905F5945004300CF083
:101F100034F905F595501C300CF02FF9002427E01A
:101F200004EBC400400100F5C470284404EBC40372
:101F300005EB4313D3F88C311B6904309847661CBA
:101F4000C6EBC60005EBC00043681B690430984728
:101F500004EB4400800100F64800284404EB4404EC
:101F600005EB8414D4F84C381B6904309847344688
:101F7000052CD5D900240FE004EB4400800100F5C6
:101F80005C60284404EB440305EB8313D3F8C43DA1
:101F90001B69043098470134032CEDD905F6CC4079
:101FA0000CF0EBF805F68C500CF0E7F805F59750BF
:101FB00014300CF0E2F805F59D5014300CF0DDF80B
:101FC00005F5A35014300CF0D8F805F5A9501430DD
:101FD0000CF0D3F805F5AF5018300CF0CEF805F53D
:101FE000B55018300CF0C9F8FEF767FCFEF71EFE7E
:101FF0004FF0000070BD2DE9F04F83B0064600257C
:102000002F4600F58058D8F8800790F8701301F03B
:1020100077FD014606F5945B0BF1040B2A46584602
:102020000BF00CFDD8F8800790F8F11301F071FD6A
:10203000014606F5955A0AF11C0A2A4650460BF04D
:10204000FDFCB8F90C9109F10409B8F9C841043C48
:10205000A4EB0904B8F99012611A01EBD1712B4677
:10206000B8F98A2209EB610158460CF0CFF8B8F9AB
:10207000C832E41A04EBD4742B46B8F9C22209EB37
:10208000640150460CF0C2F810E09D4218D205EBF6
:10209000C504640104F5C47434440434E9B201F0A5
:1020A0008DFD01462046FFF76EFD013506F5805394
:1020B000D3F88007D0F81034052BE6D90623E4E7DF
:1020C0000024052C51D806EB84035D680DB901345A
:1020D000F7E7B26B02FB05F596F8341001F0FEFC51
:1020E000F0B1904BA21D06EB82025268002A1ADB67
:1020F000002A1EDD06EB84025268002A19DD03F077
:10210000A4FC026F132A00D81422B36B02FB03F362
:10211000C3EB03139B00844AA2FB0323DB0813E0F9
:102120004EF66023DEE706EB840149680029DFDA1A
:10213000E5E706EB84025268002A40F39280012111
:10214000A21D06EB8202516006F580504FF0000898
:10215000CDF800802A46E1B2D0F8800702F0D2FC28
:10216000074606EB8404C4F8048006F5975808F186
:10217000140806F58053D3F8803793F80C34002BFD
:1021800072D04FF47F4140460DF0CBFD06F59D55D2
:10219000143506F58053D3F8803793F80D34002BAF
:1021A00065D04FF47F4128460DF0BBFD06F5A350E6
:1021B000143006F5805393F8F435002B5AD0FF21E4
:1021C0000DF0AFFD06F58053D3F8803793F8522316
:1021D000002A54D006F5A950143093F8E333002BAD
:1021E0004BD04FF47F410DF09CFD06F5AF501830F9
:1021F00006F58053D3F8803793F87033022B4BD019
:102200004A490DF04AFD06F58053D3F8802792F82D
:102210007033052B42D00BB1092B4CD1444906F544
:10222000B55018300DF039FD06F58053D3F880070E
:102230002BF0BAF848B106F58053D3F8803793F8FD
:102240007033012B3ED0032B3CD006F58053D3F8DE
:102250007807FFF7A1FA06F6CC400DF026FE002421
:1022600053E04FF0FF316BE76FF07F418BE76FF08A
:102270007F4198E76FF07F41A2E7FF21B3E706F5C2
:10228000A950143093F8E3331BB1FF210DF049FD41
:10229000ABE76FF07F41F9E72649B2E706F5B550A5
:1022A000183092F8F1334F2B03D023490DF0F5FC91
:1022B000BAE71F49FAE7214906F5B55018300DF085
:1022C000ECFCB1E706F6CC400DF0D6FD002409E0A9
:1022D00004EB4400800100F64800304404300DF067
:1022E000CBFD0134052CF3D940460DF0C5FD284641
:1022F0000DF0C2FD11E004EB4400800100F648003F
:10230000304404300DF0D1FD0134052CF3D94046A2
:102310000DF0CBFD28460DF0C8FD384603B0BDE8F2
:10232000F08F00BF80F52000CDCCCCCC18E40308A2
:102330001CE4030810E4030824E403082CE4030865
:102340002DE9F04F8DB0824600F58053D3F87C37ED
:10235000D3F888200692D3F88C4009F033F803684C
:10236000DB68984700EB80020592C2EBC20324337E
:10237000E31A03EBD37359100A9102EB630B0BF1D1
:102380000C0309934FF00009CDF82CB0E7E0994514
:1023900080F0F080059B0433099909FB0311079134
:1023A0004FEAC90509EBC904640104F5C474544437
:1023B0000434069FA7F10806B6005FFA89FB594668
:1023C0002AF0E2FFA04981FB062381FB072102904E
:1023D00008220192059A0092A3EBE673079A0697EA
:1023E000A1EBE7712046FFF7F5FAFF220421204612
:1023F000FFF7BDFB08F0E6FF014602222046FFF78B
:1024000010FD00212046FFF7BEFB0AF58058594613
:10241000D8F880072AF0E6FF064608F0D3FF034607
:10242000032231462046FFF711FD2AF01BF9014631
:1024300000231A462046FFF738FD4D440AEB4515A8
:10244000D5F88C319B6C01212046984709F1010693
:10245000F0000490C6EBC6070AEBC70704375946DD
:10246000D8F8800701F02FFB804608F0F1FE0190BC
:102470006FF07F43009300231A46414638460BF025
:1024800056F9022138460BF09CFA0498871B0AEB98
:10249000C7070437831B0AEBC3035B68DB69089338
:1024A000D5F88C31DB6A2046984700EBD0704FEAB4
:1024B000600B0498831B0AEBC3035B68DB6B384635
:1024C000984700EBD070ABEB600BD5F88C311B6BF1
:1024D000204698478046D5F88C311B6C204698479B
:1024E00000EBD07008EB60080498831B0AEBC30371
:1024F0005B681B6C3846984700EBD0700023A8EB54
:10250000600259463846089FB84709EB4907BF01A2
:1025100007F6480757440437D5F88C315B6B2046E3
:1025200098478046D5F88C315B6B204698470699D2
:10253000081A012302930599019108380090079B1E
:1025400008F10402414938460DF0B2FA2AF08AF83F
:10255000014600231A4638460DF0CEFCB1460AF576
:102560008053D3F88007D0F81034052B7FF60FAFD7
:1025700006230CE7DDF82CB00AF6CC450AF5C67840
:10258000DAF88C311B6B404698470646DAF88C31F6
:10259000DB6A404698470446DAF88C311B6C4046AB
:1025A00098472B4F012302930190083C0094334637
:1025B0000422394628460DF07BFA2AF053F80146EA
:1025C00000231A4628460DF097FCDAF88C31DB6AB6
:1025D000404698470446DAF88C311B6B40469847D2
:1025E000054608F0EFFE01906FF07F43009305F180
:1025F000080304F1080239460AF68C500BF097F8EC
:10260000069BA3F11406B6080AF58053D3F8803769
:10261000D3F81034052B00D90623013B03EBC3008C
:10262000400100F5C470504403EBC3030AEB4313AD
:10263000D3F88C319B6B0430984700F108070025D4
:10264000B946059F36E000BFABAAAA2A34E40308C6
:102650004CE6030805EB4504A40104F55C6454440E
:10266000043405EB4501890001F586515144321DC2
:1026700005FB02F201230293019700964B460432B8
:10268000043120460DF014FA29F0ECFF0146002336
:102690001A4620460DF030FC032120460DF0B9FB10
:1026A000002120460DF01CFC6FF07F4120460DF00C
:1026B00038FB0135032DCDD901210AF580500430B6
:1026C0000DF00EFCDAF88C315B6B40469847069BA8
:1026D0001D1AA5F108080AF5885704370124029449
:1026E000059B0193CDF80080DDF828904B4604222D
:1026F000804938460DF0DCF929F0B4FF014600238B
:102700001A4638460DF0F8FB0AF58E570437069A3C
:10271000043A029405990191CDF800804B46A2EB52
:102720000802754938460DF0C3F929F09BFF0146B0
:1027300000231A4638460DF0DFFB08F089FD0368D8
:10274000DB6898470599A1EB000809EB580808F0E9
:102750007FFD01906FF07F47009743462A1D674930
:102760000AF5945004300AF0E2FF08F071FD0368A6
:102770009B68984700EB8000054408F023FE03683F
:102780009B6898470544043508F01CFE0368DB6825
:102790009847ABEB0003A3F1020808F013FE019089
:1027A000009743462A4656490AF595501C300AF0D0
:1027B000BEFFDAF8C43D9B6B0AF6C4509847051D6E
:1027C0000AF59757143702940599019100962B4604
:1027D00004224C4938460DF06BF929F043FF0146BD
:1027E00000231A4638460DF087FB0AF59D5714372B
:1027F00002940599019100962B4606F10802424980
:1028000038460DF055F929F02DFF014600231A46F0
:1028100038460DF071FB0AF5A3571437B21D029428
:102820000599019100962B46A240384938460DF093
:102830003FF929F017FF014600231A4638460DF0EC
:102840005BFB0AF5A9571437321D02EB42020294D2
:10285000059B019300962B4604322D4938460DF016
:1028600027F929F0FFFE014600231A4638460DF0ED
:1028700043FB0236A640059B1D442F1D0AF5AF55AC
:1028800018350294019300963B46042221492846BC
:102890000DF00EF908F0DCFC014628460DF053FA65
:1028A00029F0E0FE014600231A4628460DF024FBDD
:1028B0000AF5B55518350294059B019300963B46E1
:1028C00006F10802144928460DF0F2F808F0C0FCA1
:1028D000014628460DF037FA29F0C4FE01460023D0
:1028E0001A4628460DF008FB4FF000000DB0BDE879
:1028F000F08F00BF38E403083CE4030840E4030819
:102900004CE6030848E403084CE4030854E40308D5
:1029100084E3030818E403082CE4030870B50646B2
:10292000002510E005EB4504A40104F55C64344483
:102930000434002120460DF0D3FA6FF07F41204689
:102940000DF0EFF90135032DECD970BD2DE9F04FF5
:1029500085B0064600251BE005EB450306EB830327
:102960000B440A21995405EB4500800100F55C6099
:10297000304405EB450406EB8414D4F8C43DDB6811
:1029800064210430984794F8F83D002B40D101357C
:10299000032D4FD805EB45039B0003F586533344C5
:1029A00003F1040800245C609C60DC60234B03EBB3
:1029B0008503D3F8249005F23C4306EB8303C3F868
:1029C000049006F5805BDBF880A7214650462AF08C
:1029D000F9FC07462146DBF880072AF003FD029444
:1029E000019000974B460C224146504601F030FBC7
:1029F00021460B29B7D805EB450306EB83030B44AF
:102A000041F2C4029B5C202BA6D00131C9B2F0E791
:102A100005EB4500800100F55C6030444FF47F41D8
:102A200004300DF07EF905F23C4306EB83035B684E
:102A3000B363ACE705B0BDE8F08F00BFD43D030839
:102A400070B582B00546FDF738FFFEF7CBF864217C
:102A500005F5885004300BF081FB642105F58E509C
:102A600004300BF07BFB652105F5945004300BF02E
:102A700075FB652105F595501C300BF06FFB284662
:102A8000FFF764FF00242CE09C4234D204EBC40026
:102A9000400100F5C470284404EBC40305EB431364
:102AA000D3F88C31DB68642104309847661CC6EB90
:102AB000C60005EBC0004368DB686421043098471A
:102AC00004EB4400800100F64800284404EB440471
:102AD00005EB8414D4F84C38DB6864210430984743
:102AE000344605F58053D3F88037D3F81034052BDE
:102AF000CAD90623C8E7062385F8343000240AE043
:102B000004EBC400400100F5C470284400210430E7
:102B1000FFF7B5F90134052CF2D9642105F597507A
:102B200014300BF01BFB642105F59D5014300BF0A5
:102B300015FB05F5A35414341A4920460DF0ADF8E1
:102B40006FF07F4120460DF0ECF805F5805300262C
:102B500083F8F465642120460BF000FB642105F541
:102B6000A95014300BF0FAFA642105F5AF50183073
:102B70000BF0F4FA642105F5B55018300BF0EEFABD
:102B800002F063FF044629F06DFD014605F5BC53D4
:102B9000043300932B46044A204602F0E3FF3046FC
:102BA00002B070BD54E40308B51E00082DE9F04FD3
:102BB00089B000F5885304338B423ED004460D465D
:102BC00000F58E5304338B4240D000F5A9531433E3
:102BD0008B4240D000F5AF5318338B4248D000F5FC
:102BE000B55318338B4253D000F5A35314338B42A3
:102BF00000F0858000F58053D3F878378B4200F0E1
:102C0000D28000F5975314338B4200F0DA8000F540
:102C10009D5314338B4200F0DC800027032F00F219
:102C2000F28007EB4706B60106F55C6626440436DB
:102C3000AE4200F0D6800137F0E7FDF73EFEFEF72A
:102C4000D8F84FF0000009B0BDE8F08FFDF735FE71
:102C5000FEF7C1F8F5E700F58054D4F8800790F846
:102C6000523313B101F018F9EBE701F0CAF8E8E7C5
:102C700000F58054D4F8800790F87033022B03D00D
:102C8000812101F0AFF8DCE7822101F0ABF8D8E751
:102C900000F58054D4F8800790F87033052B0FD0DE
:102CA0000BB1092B20D1002380F8F13380F8553384
:102CB000D0F86833C0F86C33182101F093F8C0E7FE
:102CC00090F8F1334F2B02D029F00AFFB9E7002327
:102CD00080F8F13380F85533D0F86833C0F86C339E
:102CE000182101F07FF8ACE7002380F85533D0F8C5
:102CF0006833C0F86C33192101F074F8A1E700F5CE
:102D00008053D3F8800790F8526366B3002307938B
:102D100004F5805393F8F43543BB04F58055A021A6
:102D2000D5F8800701F05EF8A121D5F8800701F001
:102D300059F807AF3A467549D5F8800701F00FFEFC
:102D40003A467349D5F8800701F009FE012385F85A
:102D5000F435002E7FF475AF04F58054D4F8800765
:102D600001F09AF86DE701F04CF8CFE704F58055D3
:102D700007AF3A466749D5F8800701F0F0FD3A46BB
:102D80006549D5F8800701F0EAFDA021D5F8800754
:102D900001F028F8A121D5F8800701F023F80023DD
:102DA00085F8F435D5E71A7C002A3FF44AAF00F5E0
:102DB0008054D3F82021197BD4F8800702F0A8F8BA
:102DC0003FE700F58054A021D4F8800701F00AF80D
:102DD00037E700F58054A121D4F8800701F002F80C
:102DE0002FE72046FFF79AFD012130460DF078F8D5
:102DF0004FF47F4130460CF094FF07F23C4304EB64
:102E000083035B68A363042F7FF41BAF00260BE0F2
:102E1000AF425AD006EB46039B0103F64803234416
:102E20000433AB426AD00136052E3FF60AAF06EBFB
:102E3000C6077F0107F5C47727440437AF42E7D1BF
:102E400006EBC60304EB431393F8B831002BDFD035
:102E500004F58057D7F878975FFA86F84146D7F897
:102E6000800700F030FE0590D7F8800790F81C240A
:102E70002A4B53F822A006EBC60304EB4313D3F806
:102E8000D8B141462AF080FA022303930290244BE2
:102E90000193244B00935B46524605994846FEF742
:102EA00031FAD7F8788729F0DDFB014600231A466E
:102EB0004046FEF7F8F9D7F87837DE6042F2107135
:102EC000D7F87807FEF72CFCADE70025052D0BD8C9
:102ED00005EBC500400100F5C4702044002104301A
:102EE000FEF7CDFF0135F1E701213846FEF7C7FFB8
:102EF00084F834602046FFF729FDA2E604F58053EC
:102F0000F1B2D3F8800701F0D5FF8CE75CE4030849
:102F100064E403086CE4030870E403084C47030806
:102F200080969800806967FF2DE9F04F87B00446CE
:102F3000BF4B03600246BF4B42F8043B0023436093
:102F400053609360D36013615361C3610362436252
:102F50008362C3620363062380F8343001238363F2
:102F600000F13C0300931E46052501E0013D383683
:102F7000002D03DB304629F0B9FBF7E704F5C673F3
:102F800001931E46052502E0013D06F59076002DD1
:102F900003DB304629F00CFCF6E704F64C03029301
:102FA0001E46052501E0013DC036002D03DB3046FD
:102FB00029F0D0FBF7E704F6CC430493184629F038
:102FC000C9FB04F68C5029F091FB04F6C45303931B
:102FD0001E46032501E0013DC036002D03DB3046CF
:102FE00029F0B8FBF7E704F580553022002105F100
:102FF000C4002EF0CFFC0023C5F8F430C5F8F8303B
:10300000C5F8FC30C5F8003104F588530433059346
:10301000184629F09FFB04F58E550435284629F003
:1030200099FB04F59450043029F060FB04F59550A9
:103030001C3029F05BFB04F597561436304629F016
:1030400089FB04F59D571437384629F083FB04F5B6
:10305000A35808F11408404629F07CFB04F5A9594F
:1030600009F11409484629F075FB04F58053002244
:1030700083F8F42504F5AF5A0AF1180A504629F0EE
:1030800069FB04F5B55B0BF1180B584629F062FBA0
:10309000FDF713FC00F5D950143004F58053C3F844
:1030A000780707F0B3FC04F58053C3F87C0700F001
:1030B000DBFCC3E0009B002B00F0B680C5F10505EA
:1030C0003823009A03FB0525009B9D4200F0AC804D
:1030D000594B45F8383D28460BF070F8F4E7019B52
:1030E000002B00F09580C5F105054FF49073019A0F
:1030F00003FB0525019B9D4200F08A80A5F5907594
:10310000284629F003FDF5E7029B002B75D0C5F199
:103110000505C023029A03FB0525029B9D426CD046
:10312000C03D284629F0B4FBF7E7039B002B4ED0A7
:10313000C5F10305C023039A03FB0525039B9D42AC
:1031400045D0C03D284629F0A3FBF7E7584629F0B3
:103150009FFB504629F09CFB484629F099FB4046CE
:1031600029F096FB384629F093FB304629F090FB76
:1031700004F58053304AC3F8BC2204F595501C3046
:103180000BF01CF804F580532B4AC3F8842204F595
:10319000945004300BF012F8284629F079FB05987A
:1031A00029F076FB04F586550435039B9D420ED02D
:1031B000C03D284629F06CFBF7E7CAE7CCE7CEE72D
:1031C000D0E7D2E7D4E7DDE7E6E7E8E7EAE71A4B3E
:1031D000C4F88C3D04F68C500AF0F0FF049829F0F6
:1031E00057FB04F6CC45029B9D4206D0C03D2846C5
:1031F00029F04EFBF7E7F1E7F3E704F64C05019BF6
:103200009D4205D0A5F59075284629F07FFCF6E78C
:1032100004F5C675009B9D4206D0074B45F8383D26
:1032200028460AF0CBFFF5E7014B23602BF004FEA4
:1032300000F30308DC3D03083CD9030804F5805380
:10324000C3F880070022C3F88427C3F88827C3F88F
:103250008C2783F89027C3F89427C3F89827204633
:1032600007B0BDE8F08F08B50F4B1B68BFF35B8F4D
:1032700013F0010F01D00D4808BD0B482CF02FF9B9
:103280000028F8D00948FFF74FFE094A09490748C6
:103290002BF057FD04482CF031F9ECE702482CF0F4
:1032A0002AF92BF0C9FD00BF2C2600203026002073
:1032B0004401002005D4020810B40D4B1C211980D4
:1032C00059804FF0080C83F804C00A4A9A600A48F3
:1032D000D860D0F85C431C619982D98283F818C009
:1032E00002F54472DA6118625C625DF8044B704763
:1032F000CC3D0020283E030898CA030808B50321E6
:10330000C06C07F0BDFD4FF0000008BD79B908B5ED
:1033100090F8313083F0010380F831301BB104495B
:1033200008F096FD08BD034908F092FDFAE77047E2
:10333000CC3D0020E03D0020114B9B6ABFF35B8F2A
:1033400013F0010F01D00F48704710B50E482CF054
:10335000C6F808B90B4810BD0A482AF00DFB084C06
:103360000A4A0B4904F12C002BF0EBFC04F1280075
:103370002CF0C4F8EEE704482CF0BDF82BF05CFD0F
:10338000CC3D0020F83D0020F43D00204401002009
:1033900009D9020838B5054601600023037143715D
:1033A000837107F033FBA8602DF09AFA0D4C84FB73
:1033B0000023A3EBE07303EB4303A0EB43030133D0
:1033C0002B712DF08DFA84FB0023A3EBE07303EB4C
:1033D0004303A0EB430301336B710123AB71284618
:1033E00038BD00BFABAAAA2A70B5064600680368BC
:1033F0005B6B9847054630680368DB6A984728444A
:1034000000EBD0704510306803689B6B984704460A
:10341000306803681B6B9847231803EBD3735B106A
:1034200096F90420551905D41146B068D0F88800E3
:10343000854203DBD2B252423271002196F9050077
:103440000246C31804D4B468D4F88C40A34203DB0A
:10345000C0B240427071002230680368DC69012309
:10346000A04770BD38B504461D460D4B08F0BEFCA4
:103470000C4B2360002384F8313084F831501DB1A7
:1034800001232374204638BD0549204608F0E0FC9E
:10349000F6E7054B236020460AF090FE2BF0CCFCAB
:1034A000CC3D002078440308E0C9030830B5ADF5F1
:1034B000177D054689AC0123002211462046FFF7FF
:1034C000D1FFEB6CD3F88810BDF93022891AD3F8FC
:1034D0008C20BDF93232D21A02EBD27201EBD171DB
:1034E00000235210491020460AF090FE4FF400418C
:1034F00020460AF033FE00230293012301934FF08C
:10350000FF1300931E23962278217FA809F0A1FEC5
:1035100028217FA80AF022FE0023029301934FF492
:103520007F0300931E237822962175A809F091FE4F
:10353000322175A80AF012FE4FF47F4301937823DD
:103540000093602322222E216CA809F031FE1E2157
:103550006CA80AF003FEBF4B01934C2300936E232B
:1035600022222E2163A809F023FE1E2163A80AF05F
:10357000F5FD07F0ABFE01904FF0FF1300930A2317
:103580000022B54955A80AF022F9462155A80AF0AB
:10359000E5FD07F0D9FE0190AE4B00931423002205
:1035A000AD4947A80AF013F9502147A80AF0D6FD03
:1035B00007F044FF01904FF6FF7300931E23002293
:1035C000A54939A80AF003F95A2139A80AF0C6FD1D
:1035D00007F0BAFE02904FF0FF1301934FF47F43C0
:1035E0000093322300229C492BA80AF069F9642138
:1035F0002BA80AF0B3FD07F0EDFD0190FF23009327
:103600004623002294491DA80AF0E1F86E211DA866
:103610000AF0A4FD01230293FF2301930A230093E0
:1036200064230022114611A809F0C8FC0A2111A840
:103630000AF094FD012302934FF6FF7301930A23CE
:1036400000931423462264210DEB030009F0B6FC1D
:1036500014210DEB01000AF081FD0C2007F045F864
:1036600004467FA9FFF796FE7C4BDC670C2007F031
:103670003CF8044675A9FFF78DFE784BC3F88040EF
:103680000C2007F032F804466CA9FFF783FE734B59
:10369000C3F884400C2007F028F8044663A9FFF71C
:1036A00079FE6E4BC3F888400C2007F01EF80446E4
:1036B00055A9FFF76FFE694BC3F88C400C2007F04B
:1036C00014F8044647A9FFF765FE644BC3F8904021
:1036D0000C2007F00AF8044639A9FFF75BFE5F4BA0
:1036E000C3F894400C2007F000F804462BA9FFF71C
:1036F00051FE5A4BC3F898400C2006F0F6FF0446E2
:103700001DA9FFF747FE554BC3F89C400C2006F05F
:10371000ECFF044611A9FFF73DFE504BC3F8A04053
:103720000C2006F0E2FF044605A9FFF733FE4B4BE1
:10373000C3F8A44001E0C0B290B1E86C4FF0FF3193
:1037400000F5C35014300BF0B0FCF4E701340A2C40
:1037500008D8424B03EB8403D86FFFF745FEF5E72B
:103760000024F4E7E86C00F5C35014300BF0B0FC13
:10377000E86C00F5C15004300BF0F9FC01200BF0AF
:1037800043FDDAE70C2120462BF054FB05A8344B0F
:1037900003600AF013FD11A8314B03600AF00EFD1F
:1037A0001DA8304B03600AF009FD2BA82D4B0360C8
:1037B0000AF004FD39A82B4B03600AF0FFFC47A870
:1037C000284B03600AF0FAFC55A8264B03600AF068
:1037D000F5FC254B639363A80AF0F0FC224B6C9335
:1037E0006CA80AF0EBFC214B759375A80AF0E6FC77
:1037F0001E4B7F937FA80AF0E1FC1D4B89931D4B64
:10380000899389A80AF0DAFC2BF016FB0C212046DC
:103810002BF010FBBAE70C2120462BF00BFBB5E791
:103820000C2120462BF006FBB0E70C2120462BF0A4
:1038300001FBABE70C2120462BF0FCFAA6E70C219C
:1038400020462BF0F7FAA1E70C2120462BF0F2FAE4
:103850009CE700BF00FFFF0084E40308CC3D00208C
:1038600078D803083CD90308C8D7030870D70308E1
:1038700078440308E0C903080C2120462BF0DAFA4B
:1038800084E70C2120462BF0D5FA7FE70C21204657
:103890002BF0D0FA7AE779E77DE781E785E789E7DA
:1038A0008DE791E795E799E79DE7A1E7A5E708B5DB
:1038B000FFF702FD08BD00BF10B582B0044641F21B
:1038C000883025F085F9E06C03689B6898470023F1
:1038D0008DF80730E06C03681B690DF1070198470C
:1038E000C0B20028F6D04FF0000002B010BD70B595
:1038F00004464FF00705C06C03681B6A984740B345
:10390000D4F82434002B48D194F850303F2B29D0E0
:103910003F2B2ED004F150054FF4807204F58561E1
:1039200028462EF05EF8E66C284628F063FC024636
:103930003368DB69294630469847054604F150064E
:10394000304628F057FC0246314646481EF088FBB8
:10395000F8B1EDB2072D6AD0242D68D04FF00005E4
:10396000284670BD94F85423002AD1D14FF00005A9
:10397000E4E70BF063FCC4F85803002384F85433E5
:10398000E06C0368DB69012204F1500198470546A9
:10399000D4E734481EF07EFBDBE7204629F004FD27
:1039A0000028D6D094F85533002BD2D194F8F133B7
:1039B00033B1D4F82434C4F86C334FF00005C8E7B1
:1039C00004F595654FF0FF3128460BF0A9F90BF08F
:1039D00035FCC4F86003012384F85533D4F824344B
:1039E000C4F86C3328460BF0C3F904F150064FF4C9
:1039F000807204F5856130462DF0F3FFE56C3046AA
:103A000028F0F8FB02462B68DB69314628469847C8
:103A10000546304628F0EEFB0246314611481EF0BE
:103A20001FFB002895D10F481EF034FB91E7D4F816
:103A3000243453B1204629F0B7FC30B9D4F82434EB
:103A4000C4F86C334FF000058AE70023012204F22A
:103A5000244120460BF085F8054601200BF0DDFBE4
:103A60007EE700BFDC8D0120104B1B68BFF35B8F2E
:103A700013F0010F01D00E48704710B50B482BF022
:103A80002EFD08B90A4810BD094829F0B3FF074CBC
:103A9000084A0949201D2BF054F920462BF02EFD31
:103AA000F0E702482BF027FD2BF0C6F9383F002045
:103AB0003C3F002044010020BDD9020808B5C16484
:103AC0000AF088FF08BDD0F81034994200DB0621C7
:103AD00001F5157100EB41000430704702290BD944
:103AE000D0F81034994209DA0339C9B290F81404B5
:103AF000C84000F001007047002070470020704768
:103B00000A2900D9002101F5977100EB8100406876
:103B10007047572900D9582101F5A77150F82100A5
:103B2000704770B52DED028BD0F81034994204DB4C
:103B300000242046BDEC028B70BD04460D4600F506
:103B400095664FF0FF3130460BF0EAF894F8E03319
:103B5000FBB105F1DC0304EB830393ED018A05F16E
:103B6000E20304EB8303D3ED017A38EE278A29467A
:103B7000204629F027FC07EE900AF8EEE77A67EE78
:103B8000887AFDEEE77A17EE904A30460BF0F0F8AF
:103B9000CFE705F1DC0304EB830393ED018A2946AB
:103BA000204629F00FFC07EE900AF8EEE77A67EE60
:103BB000887AFDEEE77A17EE904AE6E770B52DEDCC
:103BC000028BD0F81034994204DB00242046BDEC6F
:103BD000028B70BD04460D4600F595664FF0FF312F
:103BE00030460BF09DF894F8E033BBB105F1DC03EF
:103BF00004EB830393ED018A2946204629F0E2FB7A
:103C000007EE900AF8EEE77A67EE887AFDEEE77A3B
:103C100017EE904A30460BF0ABF8D7E705F1DC031E
:103C200004EB830393ED018A05F1E20304EB8303C4
:103C3000D3ED017A38EE678A2946204629F0C2FB87
:103C400007EE900AF8EEE77A67EE887AFDEEE77AFB
:103C500017EE904ADEE770B52DED028BD0F81034E8
:103C6000994204DB00242046BDEC028B70BD044663
:103C70000D4600F595664FF0FF3130460BF050F8D9
:103C800094F8E033FBB105F1E80304EB830393ED13
:103C9000018A05F1E20304EB8303D3ED017A38EEE8
:103CA000278A2946204629F08DFB07EE900AF8EE78
:103CB000E77A67EE887AFDEEE77A17EE904A3046AB
:103CC0000BF056F8CFE705F1E80304EB830393ED1F
:103CD000018A2946204629F075FB07EE900AF8EE86
:103CE000E77A67EE887AFDEEE77A17EE904AE6E724
:103CF00070B52DED028BD0F81034994204DB00240E
:103D00002046BDEC028B70BD04460D4600F595665D
:103D10004FF0FF3130460BF003F894F8E033BBB1BD
:103D200005F1E80304EB830393ED018A294620465D
:103D300029F048FB07EE900AF8EEE77A67EE887AFA
:103D4000FDEEE77A17EE904A30460BF011F8D7E710
:103D500005F1E80304EB830393ED018A05F1E20327
:103D600004EB8303D3ED017A38EE678A29462046B7
:103D700029F028FB07EE900AF8EEE77A67EE887ADA
:103D8000FDEEE77A17EE904ADEE790F855331BB95F
:103D9000D0F86C338B4205D0D0F86C338B4204D80A
:103DA0005520704790F8F10370475420704710B5C4
:103DB0000446FFF7EAFF38B9D4F86423D4F85C333B
:103DC0009A4204D2012002E0542801D0002010BD04
:103DD000D4F86023D4F85C339A4201D30020F6E78C
:103DE0000120F4E700B5A3B0002301938DF808107B
:103DF0008DF80930012201A90AF0B3FE23B05DF865
:103E000004FB10B5044602F0D1FB037A93B90022FB
:103E10004FF400511F480DF096F894F8EC3323F05E
:103E2000010384F8EC33012384F85233872384F8A8
:103E3000533310BD02F0BAFB037A012B0FD194F873
:103E40005233002BE9D18B212046FFF7CBFF0BF03B
:103E5000F5F9C4F85803002384F85433DDE702F081
:103E6000A5FB037A022BD8D100224FF40051094858
:103E70000DF069F894F85233002BCED18B212046F7
:103E8000FFF7B0FF0BF0DAF9C4F85803002384F809
:103E90005433C2E70008024010B5044602F086FB26
:103EA000037AD3B901224FF4005124480DF04BF8A6
:103EB000002384F8523394F852336BB984F85533A5
:103EC000D4F86823C4F86C2384F8F13394F8EC2315
:103ED00063F3000284F8EC2310BD02F067FB037A61
:103EE000012B0ED194F8523313B194F8E3331BB97C
:103EF000002384F85233DEE78B212046FFF772FF60
:103F0000F6E702F053FB037A022B02D002F04EFBDD
:103F1000D1E701224FF4005108480DF014F894F84D
:103F2000523313B194F8E3331BB9002384F85233AE
:103F3000C1E78B212046FFF755FFF6E70008024056
:103F400038B5044602E001200BF067F994F85433C9
:103F5000002BF8D0D4F85C533F212046FFF742FFF6
:103F600002E001200BF059F9D4F85C33AB42F8D0F1
:103F700038BD30B583B00D461146069C83EAE37028
:103F8000A0EBE37042F2107C64450FD0B4F57A7F69
:103F90001ED0642C2CD00A2C3AD0002B48DB254BA9
:103FA0000090254A28462DF03FFC0CE0002B0DDB4D
:103FB000204B90FBF4F204FB1204019400921F4A80
:103FC00028462DF031FC284603B030BD1C4BF0E7ED
:103FD000002B0BDB174B90FBF4F204FB1204019453
:103FE0000092184A28462DF01FFCECE7144BF2E72C
:103FF000002B0BDB0F4B90FBF4F204FB120401943B
:104000000092114A28462DF00FFCDCE70C4BF2E73A
:10401000002B0BDB074B90FBF4F204FB1204019422
:1040200000920A4A28462DF0FFFBCCE7044BF2E74A
:10403000034BB5E74CE60308D0E40308A0E403080B
:1040400044E40308ACE40308B8E40308C4E4030848
:104050002DE9F04182B00C461546089F099E9DF857
:1040600028800097FFF785FFB8F1000F12D0012FCD
:1040700010DD204628F0BEF8431E03E000208CF837
:104080000000013B33B104EB030CE05C3028F5D0B9
:104090002E28F3D04EB1204628F0ACF80096054B00
:1040A000054A291A20442DF0BFFB204602B0BDE886
:1040B000F08100BFD8E40308DCE40308F8B5054646
:1040C0000E463A2130462DF06DFC30B3002300F847
:1040D000013B2CF0CFFBC7B2002401E00134E4B275
:1040E0000A2C09D804F5977305EB83035968304609
:1040F00028F076F80028F1D10A2C00D9002495F890
:104100007033A3420BD013B9012385F80E3485F820
:10411000704385F871730120F8BD0027DCE795F83E
:104120007123BA42EFD10020F6E710B50C461046D5
:104130002CF09DFB51EC100B27F012FF07EE900ABC
:1041400094ED007AB4EE677AF1EE10FA14BF012014
:10415000002001D0C4ED007A10BD10B50C46104609
:104160002CF088FB03462268824214BF0120002005
:1041700000D0236010BD70B506460C463D21204698
:104180002DF010FC30B30546002305F8013B601C00
:104190002CF070FB202813DC0A281BDBA0F10A039B
:1041A000162B17D8DFE803F0171616271616161663
:1041B00016161616371616161616161647576700D1
:1041C000B0F5BC7F06D196F8144428462CF052FB7B
:1041D000844260D170BDD6F8184428462CF04EFBBE
:1041E0008442F7D028462CF049FBC6F81804012376
:1041F00086F80F34EEE796F81C4428462CF03AFB7C
:104200008442E7D028462CF035FB86F81C040123B5
:1042100086F80F34DEE7B6F81E4428462CF02AFB59
:104220008442D7D028462CF025FBA6F81E04012393
:1042300086F80F34CEE7B6F8204428462CF01EFB53
:104240008442C7D028462CF019FBA6F8200401238D
:1042500086F80F34BEE7B6F8224428462CF00EFB51
:104260008442B7D028462CF009FBA6F8220401238B
:1042700086F80F34AEE796F81D4428462CF0FAFA7B
:104280008442A7D028462CF0F5FA86F81D040123B5
:1042900086F80F349EE728462CF0ECFA86F81404D2
:1042A000012386F80F3495E72DE9F04106460C46C8
:1042B00017460025A84607E02C2120462DF072FB6A
:1042C000044678B101340135D6F81034AB4209DD2B
:1042D000224607EB85013046FFF727FF0028EBD089
:1042E0008046E9E74046BDE8F08110B5044600F598
:1042F0006372FFF7D9FF94F8E83360F3C30384F8DF
:10430000E83394F8E123DBB262F3451384F8E83331
:1043100010BD70B504460E462C2130462DF042FBF0
:104320000546002305F8013B324604F57571204629
:10433000FFF713FF28B194F8EA3343F0010384F840
:10434000EA332C2128462DF02DFB0646002306F8E3
:10435000013B2A4604F576712046FFF7FEFE28B1A0
:1043600094F8EA3343F0020384F8EA33324604F562
:1043700081612046FFF7F1FE28B194F8EA3343F05B
:10438000040384F8EA3370BD70B504460E462C2150
:1043900030462DF007FB0546002305F8013B324669
:1043A00004F577712046FFF7C0FE28B194F8E93391
:1043B00043F0020384F8E9332C2128462DF0F2FA69
:1043C0000646F0B1002306F8013B2A4604F57F714A
:1043D0002046FFF7AAFE28B194F8E93343F004031E
:1043E00084F8E93366B1324604F580612046FFF770
:1043F0009CFE28B194F8E93343F0040384F8E933D0
:1044000070BD04F5806300221A60DEE770B50446D3
:1044100000F5A875C549284627F0E2FE20B394F8B8
:1044200050313C2B2AD05B2B00F0B781242B00F0BD
:1044300008820622BE4928462DF0C1FA002800F065
:1044400005820622BB4928462DF0B9FAA8B904F521
:10445000AB702CF00FFA84F8F00394F8E93343F0D2
:10446000080384F8E93308E00AF0E8FEC4F86403BE
:10447000002384F8553384F8F13370BD012384F8A8
:1044800054330AF0DBFEC4F85C03AB4904F251106C
:104490002DF0BAFA0546F8B101462046FFF70EFEA8
:1044A00028B194F8E83343F0020384F8E83394F831
:1044B000F03363B194F87033052B08D0002284F8F0
:1044C000F02394F8E93362F3C30384F8E9339A499B
:1044D00000202DF099FA0546002610E004F55D72E3
:1044E000691D2046FFF7E0FE94F8E83360F382038D
:1044F00084F8E833904900202DF086FA0546002D17
:1045000000F0338105228D4928462DF058FA68B90C
:1045100094F8E033002BE1D1012384F8E03394F8E0
:10452000E83343F0080384F8E833D7E705228449E9
:1045300028462DF044FAC0B994F8E03343B1002383
:1045400084F8E03394F8E83343F0080384F8E83360
:1045500004F55D72691D2046FFF7A6FE94F8E83366
:1045600060F3820384F8E833C4E7032275492846E0
:104570002DF025FA08B30422734928462DF01FFABE
:1045800000B30322714928462DF019FA002841D0C2
:1045900002226F4928462DF012FA002844D1AB7848
:1045A000312B14BF0023012384F8E43394F8E9335A
:1045B00043F0200384F8E9339CE7E91C2046FFF729
:1045C000E3FE97E7291D2046FFF78FFE92E70126BD
:1045D0000133092B21D8E21892F8F203DA1CA9184A
:1045E000AA5C904205D094F8E92342F0400284F896
:1045F000E923E218002082F8F2030A786AB13E2A21
:104600000BD0E11881F8F223502AE0D0702ADFD1D4
:104610000126DDE700231E46DBE7002384F8FB3399
:1046200084F8E563012665E702224A4928462DF011
:10463000C6F948B30322484928462DF0C0F900289E
:1046400000F08E800422454928462DF0B8F9002854
:104650007FF450AF94F8E3232B79312B14BF002360
:1046600001239A4209D082F0010284F8E32394F8EE
:10467000E83343F0010384F8E83394F8EC3343F073
:10468000010384F8EC3335E70235002384F80D3458
:1046900084F80C3484F8043494F8E83343F040038D
:1046A00084F8E83315F8013B002B3FF423AF433B7C
:1046B000102BF7D801A252F823F000BF1F470008C3
:1046C000A5460008A546000809470008A5460008B9
:1046D000A5460008A5460008A5460008A54600080E
:1046E000A546000801470008A5460008A5460008A1
:1046F000A5460008A5460008A54600081147000881
:10470000012384F80D34CDE7012384F80C34C9E784
:10471000002384F80534012384F80434C2E701231C
:1047200084F8053484F80434BCE700BFE4E40308EB
:1047300038E5030840E50308E8E40308ECE403086F
:10474000F4E40308FCE4030800E5030808E50308B3
:104750000CE5030810E5030814E5030818E5030851
:10476000E91C2046FFF7D5FDC4E67EB994F8F23384
:10477000002B14BF0122002294F8E93362F3861360
:1047800084F8E93302D0002384F8F233002E7FF45A
:1047900074AE002384F8E5336FE604F25115042269
:1047A000324928462DF00BF910B30422304928462F
:1047B0002DF005F950B304222E4928462DF0FFF8BC
:1047C000054600287FF459AE04F25516324604F52A
:1047D00082612046FFF7C1FCD4F81034052B02DDBE
:1047E0000523C4F810343A2130462DF0DBF823E0DD
:1047F00004F5697204F255112046FFF755FD94F84F
:10480000EA3360F3C30384F8EA33D4E704F56F7244
:1048100004F255112046FFF747FD94F8EA3360F3A0
:10482000041384F8EA33C6E743195A7805F515737B
:1048300004EB43031A710135D4F81034AB42F3DCB6
:104840001BE629462046FFF796FC16E604F5AB70FA
:104850002CF010F884F8F10394F8E93343F01003D6
:1048600084F8E933002384F8553306E620E503088D
:1048700028E5030830E5030870B582B0044600253A
:104880008DF8075004E00023A4F850331F2D32D9CF
:10489000E06C03681B690DF107019847C0B298BB33
:1048A0009DF80730182BEED0B4F85023B2F5FE7FF8
:1048B000E9D80A2B08D00D2B06D0511CA4F85013B0
:1048C000224482F85031E1E71AB90023A4F85033AA
:1048D000DCE72244002382F8503104F595664FF05E
:1048E000FF3130460AF01CFA2046FFF78FFD3046B4
:1048F0000AF03EFAE9E76A1C0A4B2B449DF80710C0
:1049000083F8A01695B2C3E70DB902B070BD2A4670
:10491000054906481DF0A4FB0028F6D103481DF008
:10492000B9FBF2E7383F0020D8450020DC8D01209C
:1049300070B5044600F595664FF0FF3130460AF039
:10494000EFF9D4F868536B1CC4F8683313B9AB1C87
:10495000C4F8683330460AF00BFA284670BD2DE9DA
:10496000F041A2B006460D4690464FF00D0728F0E4
:104970001BFD10B196F870331BB9384622B0BDE864
:10498000F0813046FFF7D4FF019000237F2B0BD836
:10499000EC5C03F188020DEB020101F8804C0CB1D4
:1049A0000133F3E74FF00007FBB2002BE5D11A46C5
:1049B00001A930460AF0D5F80746019BC8F8003037
:1049C000DBE710B50446FFF757FF0AF037FCD4F8D1
:1049D0005C33C01AB0F5967F05D9002384F8703394
:1049E000012384F85433204628F0DEFC10B194F8FB
:1049F000703363B994F855334BB1002384F85533C1
:104A0000D4F86833C4F86C33562384F8F13301F0DA
:104A1000CDFD037A012B13D194F85233B3B920465C
:104A200028F0C2FC10B194F80E349BBB204628F04D
:104A3000BBFC10B194F85433B3BB4FF0000010BD71
:104A400001F0B4FD037A022BE9D1E5E7204628F016
:104A5000ABFC0028E3D194F8EC3313F0010F07D13D
:104A60000AF0ECFBD4F85833C01AB0F5967FD6D9CB
:104A70008B212046FFF7B6F90AF0E0FBC4F8580393
:104A8000002284F8542394F8EC3362F3000384F892
:104A9000EC33C4E7204629F031F8204629F03CF8F1
:104AA000002384F80E34C1E70AF0C8FBD4F8583369
:104AB000C01A6428C1D9E06C03681B6A98470028B3
:104AC000BBD00AF0BBFBC4F85803002384F854336E
:104AD000E06C0368DB69012204F2533198473F23FD
:104AE00084F853330122054905481DF0B9FA00281E
:104AF000A3D103481DF0CEFA9FE700BF48E50308A5
:104B0000DC8D01202DE9F041AEB004460D469DF844
:104B1000D0804FF00300D4F810148D4202DB2EB089
:104B2000BDE8F08117461E46204628F03DFC28B11E
:104B300094F87033012B04D0032B02D04FF00D00FA
:104B4000EDE72046FFF7F4FE0D902946204628F0B9
:104B500039FC00903B46102205A92046FFF709FAD0
:104B6000642300933346102209A92046FFF701FA77
:104B700094F81C34DBB9104BB8F1000F19D00F4A70
:104B800005F5157504EB4505043509A9039105A93B
:104B90000291019500920A4A80210EA82CF044FE51
:104BA00000231A460DA9204609F0DBFFB7E7054BA5
:104BB000E2E7054AE4E700BF4CE5030854E50308D3
:104BC0005CE5030850E5030858E50308F0B5ABB011
:104BD00004460D464FF00300D4F810148D4201DB5B
:104BE0002BB0F0BD17461E46204628F0DDFB28B14D
:104BF00094F87033012B04D0032B02D04FF00D003A
:104C0000EEE72046FFF794FE09902946204628F05B
:104C1000D9FB00903B46102205A92046FFF7A9F9D1
:104C200094F81C34ABB90C4B05F5157504EB450530
:104C30000435029605AA01920095084A80210AA827
:104C40002CF0F2FD00231A4609A9204609F089FF3D
:104C5000C6E7034BE8E700BF4CE503086CE5030833
:104C600050E503082DE9F043BBB004460F46164655
:104C70001D469DF80C9128F097FB28B194F87033ED
:104C8000012B06D0032B04D04FF00D003BB0BDE844
:104C9000F0832046FFF74CFE199094F81C34DFF89F
:104CA000C48008EB8303D3F8183200933B461022EC
:104CB00009A92046FFF75DF994F81C3408EB83033B
:104CC000D3F818320093334610220DA92046FFF77F
:104CD00050F994F81C3408EB8308D8F81832009384
:104CE0002B46102211A92046FFF743F964230093B5
:104CF000429B102215A92046FFF73BF994F81C347B
:104D000013BB134BB9F1000F20D0124A04F2AC418F
:104D100004F2AE4004F5966515AE079611AE069600
:104D200005950DAD0495039009A80290019100929C
:104D3000094A80211AA82CF077FD00231A4619A9E8
:104D4000204609F00EFFA1E7044BDBE7044ADDE74C
:104D50004CE5030854E5030884E5030850E503081F
:104D600058E50308004503082DE9F047BAB00446AA
:104D70000D4616461F469DF80C819DF81091444B38
:104D8000D3F8C0368B4215D0414BC3F8C056C3F898
:104D9000C466204628F008FB38B194F87033012B24
:104DA00013D0032B11D0022B0FD04FF00D003AB0CF
:104DB000BDE8F087364BD3F8C4369342E4D1344B88
:104DC000C3F8C016C3F8C426DEE72046FFF7B0FDDF
:104DD000199094F81C34DFF8D8A00AEB8303D3F8B9
:104DE000183200932B46102209A92046FFF7C1F87C
:104DF00094F81C340AEB8303D3F81832009333463B
:104E000010220DA92046FFF7B4F894F81C340AEBE1
:104E1000830ADAF8183200933B46102211A9204683
:104E2000FFF7A7F864230093429B102215A92046A0
:104E3000FFF79FF894F81C3423BB164BB9F1000F11
:104E400022D0154AB8F1000F20D0144904F2AC402A
:104E500004F2AE4515AE079611AE06960DAE059658
:104E6000049509AD03950290019100920C4A8021AE
:104E70001AA82CF0D9FC00231A4619A9204609F0DB
:104E800070FE94E7074BD9E7074ADBE70749DDE700
:104E9000383F00204CE5030854E503089CE503086F
:104EA000A4E5030850E5030858E50308A0E5030856
:104EB0000045030830B5A3B004464FF00300D4F812
:104EC0001034994201DB23B030BD0D46204628F056
:104ED0006BFA18B194F87033012B02D04FF00D002B
:104EE000F1E72046FFF724FD019005F5157304EB6B
:104EF00043030433054A802102A82CF095FC0023CB
:104F00001A4601A9204609F02CFEDCE7C0E503089B
:104F100070B5A8B004460D464FF00300D4F8101445
:104F20008D4201DB28B070BD1646204628F03CFAC1
:104F300018B194F87033012B02D04FF00D00F1E757
:104F40002046FFF7F5FC07902946204628F03AFA5C
:104F500000903346102203A92046FFF70AF894F880
:104F60001C34A3B90B4B05F5157204EB4202043255
:104F700003A901910092084A802108A82CF054FC52
:104F800000231A4607A9204609F0EBFDCAE7034BA8
:104F9000E9E700BF4CE50308D0E5030850E5030846
:104FA0002DE9F041AEB004460D469DF8D4804FF097
:104FB0000300D4F810148D4202DB2EB0BDE8F0815E
:104FC00017461E46204628F0EFF918B194F87033C2
:104FD000012B02D04FF00D00EFE72046FFF7A8FCB1
:104FE0000D902946204628F0EDF900903B4610220E
:104FF00005A92046FEF7BDFF642300933346102227
:1050000009A92046FEF7B5FFBEB9B8F1000F3AD0A6
:105010001F4B94F81C24002A37D11E4905F5157240
:1050200004EB4202043205A80290019200911A4A50
:1050300080210EA82CF0F8FB17E0B8F1000F1ED06D
:10504000134B94F81C24E2B9124905F5157204EBD0
:105050004202043209A8039005A80290019200912F
:105060000E4A80210EA82CF0DFFB00231A460DA962
:10507000204609F076FD0D9A349B1A609DE7084B97
:10508000DFE70849E1E7064BC3E70649C6E700BF8B
:1050900054E503084CE50308F4E50308E4E50308D8
:1050A00058E5030850E503082DE9F041AAB004468D
:1050B0000D469DF8C4804FF00300D4F810148D42C3
:1050C00002DB2AB0BDE8F08117461E46204628F0D4
:1050D0006BF918B194F87033012B02D04FF00D002A
:1050E000EFE72046FFF724FC09902946204628F0E8
:1050F00069F900903B46102205A92046FEF739FFCA
:10510000B8F1000F13D194F81C34002B2DD1184B9B
:1051100005F5157204EB42020432029605A90191CD
:105120000092144A80210AA82CF07EFB11E094F82A
:105130001C34C3B90E4B05F5157204EB4202043260
:10514000029605A9019100920B4A80210AA82CF031
:105150006BFB00231A4609A9204609F002FD099AB3
:10516000309B1A60ADE7054BE5E7044BD0E700BF85
:105170004CE5030814E6030800E6030850E50308BD
:10518000F0B5ABB004460D464FF00300D4F8101450
:105190008D4201DB2BB0F0BD17461E46204628F09D
:1051A00003F918B194F87033012B02D04FF00D00C1
:1051B000F0E72046FFF7BCFB09902946204628F07F
:1051C00001F900903B46102205A92046FEF7D1FECA
:1051D00094F81C34C3B90D4B05F5157204EB42026B
:1051E0000432029605A901910092094A80210AA879
:1051F0002CF01AFB00231A4609A9204609F0B1FC3D
:10520000099A309B1A60C5E7024BE5E74CE50308B5
:1052100028E6030850E5030830B5A9B004460D465A
:1052200028F0C2F818B194F87033012B03D04FF076
:105230000D0029B030BD2046FFF77AFB079094F8A7
:105240001C24104B03EB8203D3F8183200932B4637
:10525000102203A92046FEF78CFE94F81C3473B983
:10526000094B03AA0092094A802108A82CF0DCFA15
:1052700000231A4607A9204609F073FCD9E7044B1E
:10528000EFE700BF004503084CE503083CE60308D0
:1052900050E5030810B5A2B0044628F085F818B10F
:1052A00094F87033012B03D04FF00D0022B010BDE5
:1052B0002046FFF73DFB0190064B93E80300029068
:1052C0008DF80C1000231A4601A9204609F049FC6C
:1052D000ECE700BF48E6030870B5A4B006460C46EC
:1052E000154628F061F818B196F87033012B03D0F9
:1052F0004FF00D0024B070BD3046FFF719FB03904E
:105300006DB1084B0094084A802104A82CF08CFA57
:1053100000231A4603A9304609F023FCEAE7034BB1
:10532000F0E700BF50E6030858E6030854E6030818
:1053300070B504460D4628F037F828B14FF0030643
:1053400094F87033012B03D04FF00D06304670BD3A
:1053500094F8043413B984F80554F7E7D4EDFF7AD0
:10536000FCEEE77A2A4617EE903A99B22046FFF70C
:10537000B3FF0646EAE710B5A2B0044628F014F8D9
:1053800018B194F87033012B03D04FF00D0022B008
:1053900010BD2046FFF7CCFA0190044B0293002386
:1053A0001A4601A9204609F0DCFBF0E74D350D0057
:1053B00070477047F8B505460E4608F0CFFE074621
:1053C000314605F6941008F0C9FE741C214605F616
:1053D000B81008F0C3FE214605F6782008F0BEFE9E
:1053E00000241CE0342304FB03F303F130002844C1
:1053F0002B445B6BDB68314604309847C4EBC40038
:10540000C00000F5E8702844C4EBC40305EBC303F7
:10541000D3F8D431DB6831460430984701342B6B24
:10542000A3421DD9EB6AA342DCD0342304FB03F36F
:1054300003F1300028442B445B6B1B690430984710
:10544000C4EBC400C00000F5E8702844C4EBC403FA
:1054500005EBC303D3F8D4311B6904309847DDE76B
:105460003846F8BD70B5054608F087FE064605F6D5
:10547000941008F082FE05F6B81008F07EFE05F6DE
:10548000782008F07AFEEB6A342202FB03F303F182
:10549000300028442B445B6B1B6904309847EB6A4F
:1054A000C3EBC300C00000F5E8702844C3EBC3039E
:1054B00005EBC303D3F8D4311B690430984705F6D4
:1054C000383008F05AFE00240FE004EB440080015D
:1054D00000F56470284404EB440305EB8313D3F810
:1054E00094331B690430984701342B6BA342ECD8EA
:1054F000304670BD012900D0704738B50446B0F978
:105500000430B0F90E100B44934204DAB0F90830BD
:105510005B1A934200DC38BD00F63835284608F0A7
:10552000EFFD48B123681B69204698472368DB6874
:10553000618A20469847EEE7618A284608F00EFE09
:10554000002511E005EB4500800100F56470204462
:10555000618A05EB450304EB8313D3F89433DB68CE
:105560000131043098470135236BAB42EAD8D2E7CA
:10557000F8B503464FF002004BB30E461C46DF6AF7
:1055800003F6B8138B4205D004F678238B421FD064
:1055900000252AE00FB17B1EE36204F6383008F0E4
:1055A000AFFD18B123681B69204698472368DB6864
:1055B000618A20469847E36ABB4206D0206A20B140
:1055C0002346A26A616A09F099FA4FF00000F8BD1B
:1055D000236B013BBB42E0D97B1CE362DDE7E56264
:1055E00023681B69204698470135236BAB42D4D909
:1055F00005EB45039B0103F5647323440433B34275
:10560000F2D1ECE703464FF002003BB370B582B035
:105610001C460B88ADF804309DF80430022B05D0F1
:10562000042B18D04FF0000002B070BD04F6B8157E
:1056300004F6683008F064FD0028F3D19DF8056099
:10564000314628460AF04CFC002EEBD12946204674
:10565000FFF78EFFE6E704F67825E9E770470729AC
:1056600000D970472DE9F04F85B005460C464FF044
:10567000340808FB01F808F1300707443B1D1E46BB
:105680001146184606F0E4FBA844D8F83430DA692D
:105690000292B5F90EB0B5F90C20A2EB4B010F4602
:1056A000DB6B0196304698478146E3000393C4EBD9
:1056B000C406F60006F5E8762E440436C4EBC40AA8
:1056C00005EBCA0ADAF8D431DB6B304698478144DF
:1056D000304627F047FE8144A7EB09000BEB500B47
:1056E000B5F90E90D8F834301B6C019F38469847B6
:1056F000A9EB000909EBD97900234FEA6902594661
:10570000BB463846029FB847DAF8D431D3F81C902C
:10571000D8F834305B6B584698470746304627F038
:1057200021FE0744039B1B1B05EBC305D5F8D431B1
:105730001B6B304698470246002339463046C8471F
:1057400005B0BDE8F08F072970D82DE9F04F87B07C
:1057500005460C461646002A65D04FEAC10AC1EB41
:10576000C1084FEAC80808F5E878804408F1040841
:10577000059301936FF07F43009300231A4631464F
:10578000404607F0D4FFAAEB040A05EBCA0ADAF890
:10579000D431DA691746B5F90EB0B5F90C90A9EB1A
:1057A0004B09DB6B40469847A9EB000909EBD97917
:1057B0000BEB690BB5F90E90DAF8D4311B6C40464F
:1057C0009847A9EB000909EBD97900234FEA690250
:1057D00059464046B84704EB44084FEA881808F594
:1057E0006478A84408F10408B5F90E2004FB0223EC
:1057F000B5F90C10A1EB4201A2F1080001240294BA
:10580000019000910433314640460AF051F9059960
:1058100040460AF098FA26F025FF01462B46044A36
:1058200040460AF069FB07B0BDE8F08F704700BF43
:10583000715500087047C36A8B420FD010B50446FB
:10584000036B8B4209D9C16203685B69984720B139
:105850002368DB68618A2046984710BD70472DE9B0
:10586000F04F87B004460E4690461D46DDF8409046
:10587000119F03689B6C012198470596BDF9141090
:10588000A180A4F806806B1E1BB2238109F1FF32B0
:1058900012B26281A581A4F80E906FF07F40019052
:1058A000009204F6941007F04DFC04F6B81AB4F90F
:1058B0000E305A1E0126029601920093B4F906306A
:1058C000B4F90420374950460AF0F2F805F0C0FC5C
:1058D000014650460AF037FA26F0C4FE0146DFF8CA
:1058E000D4B023465A4650460AF006FB04F6782AFE
:1058F000B4F90810B4F90E20531E029601930092D9
:10590000B4F906308A1A284950460AF0D1F805F051
:105910009FFC014650460AF016FA26F0A3FE014607
:1059200023465A4650460AF0E7FA00F08EF88246BF
:1059300026F098FE014604F6883301931423009361
:1059400023461A4A504600F0D5F8B4F90A20D4F894
:10595000A03BD3F88C30B4F90E1002961448019095
:105960005B1A0093B4F90C303244B4F9041004F615
:10597000383007F0ECFACDF800902B4642460599F6
:1059800004F6683007F09BFB84F8786B082F00D989
:105990000827276300212046FFF74DFF07B0BDE829
:1059A000F08F00BF38E403083CE403080556000804
:1059B00040404000715500080162426283627047B6
:1059C000F0B583B00546B0F9466B036BB6FBF3F652
:1059D000002417E0B5F90E10B5F93E2B04FB0622A2
:1059E000B5F90C3004EB4400800100F564702844E4
:1059F000A6F108070097A3EB4103043204300AF034
:105A0000F7F801342B6BA342E4D803B0F0BD00BF1C
:105A1000034BD3F81C23034B1A615A62704700BF33
:105A200098D203080000002008B5FFF7F1FF08BD79
:105A300010B50446C06C10B1216D17F0DDF809F007
:105A4000C4FBE0654FF0000010BD114B1B68BFF3B5
:105A50005B8F13F0010F01D00E48704710B50C4852
:105A600029F03DFD08B90B4810BD0A4828F07AF826
:105A7000074C094A0949201D29F063F9204629F0FD
:105A80003DFDF0E7024829F036FD29F0D5F900BFC9
:105A900000460020044600204401002035DB0208B7
:105AA00008B5C164026508F095FF08BD10B50C4645
:105AB000898820680BF040FAA379834214BF002044
:105AC0000120237A834213D0637A834205D0834234
:105AD00009D060720020E07110BDE279082AF6D189
