:020000040800F2
:10000000000002202D120308C5CE0208C7CE020848
:10001000C9CE0208CBCE0208CDCE020800000000F7
:10002000000000000000000000000000AD91020888
:10003000CFCE02080000000069920208D1CE02086B
:100040007D1203087D1203087D1203087D12030848
:100050007D1203087D1203087D1203087D12030838
:100060007D1203087D1203087D1203087D12030828
:100070007D1203087D1203087D1203087D12030818
:100080007D1203087D1203087D12030800000000A2
:100090000000000000000000000000007D120308C6
:1000A0007D1203087D1203087D1203087D120308E8
:1000B0007D1203087D1203087D1203087D120308D8
:1000C0007D1203087D1203087D1203087D120308C8
:1000D0007D120308E7CE02087D120308000000002D
:1000E0007D1203087D1203087D1203080000000042
:1000F0000000000000000000000000007D12030866
:1001000000000000F5CE02087D1203087D120308EE
:1001100000000000000000000000000000000000DF
:100120007D1203087D12030805CF020815CF0208CF
:100130007D12030800000000000000000000000025
:1001400000000000000000000000000025CF0208B1
:1001500035CF02087D12030845CF02087D1203083F
:100160007D1203087D12030800000000000000005B
:10017000000000000000000000000000000000007F
:10018000000000007D1203080000000000000000D5
:080190007D1203087D12030833
:1001A0002DE9F84F914CDFF89892C4F800904FF089
:1001B000010A84F804A000256571DFF88882C4F87C
:1001C0000080DFF884B2C4F808B01023E360884EE2
:1001D000884F32463946204631F051F8C4F8109025
:1001E00084F814A06575C4F81080834BA361C4F82B
:1001F0001CA03246394604F1100031F040F8C4F832
:10020000209084F824A084F82550C4F82080C4F8F5
:1002100028B00823E3623246394604F1200031F069
:100220002EF8C4F8309084F8345084F83550C4F86F
:100230003080714BA3634FF48063E36332463946E9
:1002400004F1300031F01BF8C4F8409084F84450B9
:1002500084F84550C4F84080674BA3640223E364EC
:100260003246394604F1400031F009F8C4F85090A4
:1002700084F8545084F85550C4F85080C4F858B0ED
:10028000C4F85CA03246394604F1500030F0F7FF64
:10029000C4F8609084F864A084F86550C4F8608065
:1002A000C4F868B04FF48073E3663246394604F10F
:1002B000600030F0E4FF514B23676423A4F87430EE
:1002C000A4F876304E4B23674E4BA36704F1700BB6
:1002D00032464D49584630F0D2FF04F17C074B4975
:1002E00038462EF0E3FB32464949384630F0C7FF26
:1002F000484BC4F88C30484BC4F88C30474BC4F89A
:100300001031A4F814513246454904F18C0030F004
:10031000B6FF444BC4F818310323C4F81C314FF422
:10032000F078C4F820814FF4A079C4F82491C4F87F
:100330002881C4F82C9184F830513B4BC4F8183113
:10034000C4F834B1C4F8384104F11003C4F83C31A6
:100350001033C4F840313246344904F58C7030F023
:100360008EFF334BC4F8443184F8485184F8495126
:10037000A4F84A51A4F84C512E4BC4F84431C4F8A7
:10038000507184F85451C4F85651C4F85A51C4F805
:100390005E5184F848A1A4F84A91A4F84C814FF02A
:1003A000030384F849313246234904F5A27030F042
:1003B00066FF4FF40043C4F864314023C4F8683149
:1003C00084F86C51C4F87051C4F87471C4F8785151
:1003D00042200CF016FCC4F870013246174904F5AF
:1003E000B27030F04CFFBDE8F88F00BF180300205A
:1003F0004401002009EA020800040240C00A04087F
:100400003404040888A5012011E902084CA4012045
:100410006DEA0208580B04089C0404081CA701207C
:100420001DEA0208A40B04086CF1030831EA020873
:10043000F40B0408308B030845EA020859EA020865
:10044000840B0408900304080000024070B5144CAB
:10045000236800255D62294620461EF0D1F9294611
:1004600020461CF0ABFB0E4B1B681B6913F0020F00
:10047000F9D000210A481CF0A1FB0446084B1B6878
:100480001B6913F0020FF9D0054E002130461CF015
:1004900095FB0546002130461EF038FA281B70BD3A
:1004A0008CA60120174B1B6813F4003FFAD0154AA5
:1004B000936823F0030343F001039360124B00227F
:1004C0001A66104B1B6813F0007FFAD10D4A53686F
:1004D00023F4800318435060536823F03F0319430B
:1004E0005160094B01221A66064B1B6813F0007F0E
:1004F000FAD0044A936823F0030343F002039360A5
:10050000704700BF003802400000474200B587B086
:1005100010210020FFF7C6FFFFF798FF144B1B6860
:1005200003EB4303134AA2FB0323B0EBD34F07D8DB
:1005300019214FF48000FFF7B5FF07B05DF804FB09
:100540006846002300930193029303930493059359
:1005500002230093084B049318F074FB28B9074B4F
:100560000122C3F83C2E0821E3E72CF05DF9F6E701
:10057000DC00002083DE1B4300030800000047422C
:1005800010B510210020FFF78DFF002423460CE05A
:1005900081421ED91E2B1CD801330F490A6822F054
:1005A000F80242EAC3020A6001341E2C11D8FFF798
:1005B0004DFF094B1B68C3F3C403084A126808497E
:1005C000A1FB0212910CB0EB924FE1D90BB1013BB0
:1005D000E3E7184610BD00BF00380240DC000020F1
:1005E00083DE1B4310B582B0FFF7CAFF044618F044
:1005F000A3FC11F051FF114A136823F0F80343EAFA
:10060000C40313604FF0E02300221A615A619A611B
:100610000B4B0193019B596862B60A4B1A6822F092
:1006200003021A601A6842F001021A60019B1B68FB
:1006300083F30888884702B010BD00BF003802402D
:100640000000FF1F0038014038B5FFF75FFF254C61
:10065000236D1B6904F15000984794F85530003B16
:1006600018BF0123984234D008F00CFD1D4C04F54E
:10067000B27108F027FD0CF051FC04F5A27204F5EC
:100680008C710CF0D1FA11F096FA03681D6A04F12E
:10069000600300221449A84705F071FE00221349A7
:1006A00005F098FE236B1B6904F13000984794F81D
:1006B0003530003B18BF012398420DD003F06EFE89
:1006C0000B4903F095FE00F0F8F803681B689847A3
:1006D00038BDFFF787FFC7E70BF0F8FB03681B681F
:1006E0009847F5E718030020D4A6012044A601206E
:1006F000A403002000BEFEE7704708B5FFF750FDD9
:1007000008BD00BF00F5005090F86C3113B94FF0F0
:10071000000070474FF00400704770B5064600F5C2
:100720000054D4F8640190F8701303F083FE01467E
:10073000002206F628500FF009FCD4F8640190F866
:10074000F11303F080FE0146002206F556600FF01B
:10075000FDFBD4F8641191F8E923134623F040031C
:1007600081F8E933C2F3801201F2F23106F69850B3
:100770000FF0ECFB002511E005EBC504640104F566
:100780005D64344406F50053E9B2D3F8640103F024
:10079000AFFE0146204601F09EF90135052DEBD94B
:1007A00006F50053D3F8643193F852336BB306F671
:1007B00038440121204611F01BFE06F50053D3F802
:1007C000643193F8E333F3B14FF47F41204611F0E5
:1007D00030FD06F50055D5F86431002483F80F4448
:1007E000D6F89030123306EB8306706803685B69B5
:1007F00014219847D5F85C0100F5C150043010F081
:100800003EFF204670BDFF21E0E706F63844002198
:10081000204611F0EDFD06F50053D3F8643193F84E
:10082000E33323B1FF21204611F003FDD1E76FF040
:100830007F41F8E703464FF00200002B3CD0F0B5B3
:1008400083B01E460B88ADF804309DF80450E5B91E
:1008500006F5B154183423685B6920469847B0B157
:1008600023685B6C2046984788B19DF8057039462F
:10087000204611F0BDFD57B923685B6C20469847B0
:1008800028B1204611F0C4FD01E0012D05D0062D50
:1008900007D04FF0000003B0F0BD06F5BD5418348A
:1008A000D9E79DF80530002BF3D033689B6906F635
:1008B000384130469847ECE7704708B50F4B1B6846
:1008C000BFF35B8F13F0010F01D00D4808BD0B483B
:1008D00031F0A3F80028F8D009482EF0A7FE094A05
:1008E0000949074830F0CBFC044831F0A5F8ECE7A3
:1008F000024831F09EF830F03DFD00BF9404002026
:10090000980400204401002035F502082DE9F0414B
:1009100084B004460F46002960D000F50053D3F898
:100920005C31D3F88830083B424D85FB0325A5EBAD
:10093000E37504F5B156183604F50053D3F85C316D
:10094000D3F88C800CF0C6FF0368DB68984700EB97
:100950004000A8EB00080CF0BDFF0368DB68984777
:1009600000EB4000012302930190009543460022D2
:100970003149304611F024FB2EF034F901460023B2
:100980001A46304611F040FD304611F0FDFC87BBA1
:1009900004F5BD56183604F50053D3F85C31D3F88E
:1009A000882004F58054B4F9463601210291019360
:1009B0000095B4F93E36521B1F49304611F000FB3A
:1009C0002EF010F9014600231A46304611F01CFDA6
:1009D000304611F0D9FC04B0BDE8F08100F50053B9
:1009E000D3F85C31D3F8885005EBD5756D10043D14
:1009F0009FE704F5B756183604F58053B3F940263F
:100A0000B3F946160120029001910095B3F93E36E4
:100A100005320949304611F0D3FA2EF0E3F80146C9
:100A200000231A46304611F0EFFC304611F0ACFCC2
:100A3000AEE700BF565555550C0E040808B500F535
:100A40000053D3F8643193F87033022B06D0074972
:100A500000F5B150183011F0A8FB08BD044900F5AD
:100A6000B150183011F0A1FBF7E700BF2C0C0408BF
:100A7000240C040808B500F50053D3F8643193F84A
:100A80007033012B00D033B929B100F5B1501830C3
:100A900011F08BFB01E0FFF7D1FF08BD08B500F5B1
:100AA0000053D3F8642192F87033052B09D00BB1B1
:100AB000092B18D10F4900F5BD50183011F075FB06
:100AC00008BD92F8F1334F2B06D00B4900F5BD500D
:100AD000183011F06AFBF3E7064900F5BD501830F5
:100AE00011F063FBECE7054900F5BD50183011F03B
:100AF0005CFBE5E7D4190408300C0408380C040842
:100B000008B500F50053D3F8643193F87033012B26
:100B100006D129B100F5BD50183011F046FB01E0B7
:100B2000FFF7BCFF08BD38B5054600240F2C21D8BF
:100B300004F1120305EB83035B688B4201D001349F
:100B4000F4E7D5F89030123305EB83035868036857
:100B50001B699847C5F89040214605F1940005F0BF
:100B600004FBD5F89030123305EB83056868036801
:100B7000DB68984738BD70B58AB0044603A828F0F2
:100B8000A8FD04F5B0551835049B154A20212846C8
:100B900033F01EFA04F5AF560122294630460FF015
:100BA000D5F904F50053D3F85C31D3F8882002EB73
:100BB000D27204F58054B4F9EC3503EBD3735C10B6
:100BC000C4EB62040CF048FE01906FF07F43009389
:100BD0001E232246294630460FF031F80AB070BD78
:100BE000400C040838B504460D46D0F89030123356
:100BF00000EB8303586803681B699847C4F890505A
:100C0000294604F1940005F0B0FAD4F8903012337C
:100C100004EB830460680368DB68984738BD70B5EF
:100C200004460D464FF0000600F638438B4214D0C0
:100C300004F19403AB4221D0D4F89030123304EB8A
:100C40008303586803689B69294698470646F6B2AD
:100C5000092E19D04FF0000070BD90F8483C002BD1
:100C6000E6D000F50053D3F8640190F8523313B97D
:100C700003F061FDEBE703F0A9FDE8E794F8C0108D
:100C80002046FFF7AFFFE2E704F5B1531833AB425C
:100C90001CD004F5BD531833AB42DBD104F500542E
:100CA000D4F8640190F87033052B1FD00BB1092BD9
:100CB00030D1002380F8F13380F85533D0F8683311
:100CC000C0F86C33182103F027FDC3E704F5005486
:100CD000D4F8640190F87033022B03D0812103F023
:100CE0001BFDB7E7822103F017FDB3E790F8F1335E
:100CF0004F2B02D02EF0B4F9ACE7002380F8F1338B
:100D000080F85533D0F86833C0F86C33182103F0FD
:100D100003FD9FE7002380F85533D0F86833C0F80F
:100D20006C33192103F0F8FC94E72DE9F04383B00C
:100D3000044600F19405284605F02EF804F5005805
:100D4000D8F85C31D3F88830082201922827009720
:100D500000221146284605F01CFA0026C4F88C60D3
:100D60000CF0FEFC03463E4A3146284605F085F964
:100D700002F0BCF8D4F88C3003F10109C4F88C906F
:100D8000123304EB830358600CF0EAFC0346354A47
:100D90004946284605F071F908F088FED4F88C30F1
:100DA00003F10109C4F88C90123304EB83035860FB
:100DB0000CF0D6FC03462C4A4946284605F05DF95E
:100DC00009F032FFD4F88C3003F10109C4F88C909B
:100DD000123304EB830358600CF0C2FC0346234A31
:100DE0004946284605F049F902F0D8FED4F88C307F
:100DF00003F10109C4F88C90123304EB83035860AB
:100E00000CF0AEFC03461A4A4946284605F035F96F
:100E10000AF03AFCD4F88C305A1CC4F88C201233F7
:100E200004EB83035860D8F85C31D3F88830019222
:100E3000009732463146284605F0ABF9284605F0C2
:100E400059FA334632462146284605F04FFA4FF408
:100E5000FA61284604F048FF03B0BDE8F08300BF04
:100E6000580C0408640C0408700C0408800C040876
:100E7000900C04082DE9F04F89B0044608F002F9FF
:100E800008F024F98DF81F0004F50056D6F85C51DF
:100E900008F0F8F8C168003918BF012128460BF0A6
:100EA000E4FE96F85811D6F85C010CF071FAD6F809
:100EB0005C31BB4AC3F88020D6F85C31D3F88C7023
:100EC0000CF008FD0368DB68984700EB40003F1A10
:100ED0000CF046FC0368DB689847A7EB4007023F2D
:100EE000D6F85C31D3F888500CF03AFC03689B6864
:100EF000984700EB4000A5EB40080CF031FC03687C
:100F0000DB689847400004F6F84900250295A54B98
:100F10000193009043463A46294648460EF09FFA10
:100F20004FF47A7148460FF0A1FB04F5C35909F15B
:100F300018099D4F02233A463946484607F0D6FE27
:100F40002B462A462146484607F0CCFED6F86401D7
:100F500003F03CFC04F6384AD6F85C31D3F88880BC
:100F60000CF0FEFB03689B68984700EB4000A8EB81
:100F7000400808F1FF38B4F9FEBC0CF0F1FB03683F
:100F80009B68984700EB40004000B4F9063D012201
:100F90000292019300905B4642468449504611F00C
:100FA0000FF82B462A462146504611F02DFA2946C5
:100FB000504611F01DFA4FF47A7150460FF056FB6F
:100FC000B4F9FE8CB4F9063D03EBD37308EB630868
:100FD0000CF0C6FB0368DB689847A8EB50080CF0E0
:100FE000BFFB04F6285B01906FF07F4300934346FC
:100FF0000422394658460EF022FEB4F92CAD0CF00E
:10100000AFFB03689B68984700EB800082440CF0BC
:1010100061FC03689B6898470AEB00020592B4F9EB
:10102000028D0CF057FC0368DB689847A8EB0008BA
:10103000A8F102080CF04EFC04F5566A01906FF01E
:101040007F4300934346059A394650460EF0F7FD1C
:10105000B4F93C8C0CF07AFC03689B68984700EB71
:10106000800300EB4300A8EB00030593B4F9FE1CDA
:1010700006910CF06BFC04F698580190FF23009346
:1010800006990B1D059A394640460EF0D8FD40F2F0
:10109000E93158460FF0EAFA40F2EA3150460FF0D3
:1010A000E5FA40F2EB3140460FF0E0FA04F5055363
:1010B000343301934323009323463D4A2146D6F817
:1010C000600105F0B1F929462046FFF71FFC2046D4
:1010D000FFF72BFE09E005EBC500400100F55D6060
:1010E0000021204400F0F7FC0135052DF3D904F56B
:1010F000B05518350CF0B0FB01906FF07F430093B2
:1011000000231A46294604F5AF500EF098FD00253D
:101110000CE005F1120304EB83035868B4F9FE2CCC
:1011200003689B68283A282198470135D4F88C3009
:10113000AB42EED80023C4F890309DF81F30BBB905
:10114000D4F8901004F1940005F00FF8D4F8903022
:10115000123304EB830358680368DB68984707F091
:1011600091FF0369ABB94FF0000009B0BDE8F08F03
:101170000223104A1049484607F0B8FD42F21071A8
:10118000484607F0B9FED4F88C30013BC4F89030E3
:10119000D6E704F50054D4F8640103F0CCFAE2E792
:1011A00040404000808080000C0E04089C0C040825
:1011B00035080008A00C0408EC0C040838B50346F8
:1011C0004FF00200B3B11C4691B103F1D405D3F83E
:1011D0002031626901FB0231284600F07CFCA369E2
:1011E00033B1D4F8202153F82210284600F0C1FC76
:1011F0004FF0000038BD016042608360704710B559
:1012000004464169012914BF0021012100F5FA704B
:1012100011F0EEF861690A2914BF0021012104F5DB
:101220002D7011F0E5F86169642914BF00210121D6
:1012300004F55D7011F0DCF810BD94463AB9012058
:10124000704701FB00F001336345FAD3704708464D
:101250000123F9E72DE9F04F89B004460F460692C5
:101260001E4600238361D44B1B68BFF35B8F13F0D2
:10127000010F6CD004F19C050CF072FA01906FF034
:101280007F43009300231A46394628460EF0D7FCC8
:101290009DF8541028460EF01CFEC74F7968B4F92B
:1012A000A830C91A00230822490828460FF036FA48
:1012B00004F1200B594628460FF098F901212846E1
:1012C0000FF0D4F904F1D405B4F9A6807F68103F7B
:1012D0000CF000FB0368DB68984700EB8000149B70
:1012E00002930D23019300903B4608F10802082168
:1012F000284600F017FB4FF47F420421284600F0F7
:10130000DEFB0CF0E7FA01460222284600F031FD30
:10131000139A1299284600F025FC3146284600F021
:10132000DAFB0CF0D7FA034605220699284600F0AE
:1013300035FD002684F8E460594628460FF056F93A
:10134000012128460FF092F9CDF81CB07DE09A48B3
:1013500030F063FB00288DD0D4F8F035D3F8883016
:101360009548436030F068FB84E7B4F9E070083FCB
:10137000924BA3FB07377F0803F010F8054606F1F0
:10138000440804EB081806F5867304EB8303D3F8CE
:101390000490149A0A212046FFF74FFF00904B4615
:1013A00010224146284603F07EFA40462DF0E8F927
:1013B000069B834AC0F11001404432F009FE4FEA17
:1013C000460B06EB4605AD0105F5F87525440435D9
:1013D000B4F9D8303A1D06FB02330593B4F9DEA008
:1013E0000CF078FA0368DB68984700EB80004FF058
:1013F0000109CDF80890019000970AF10803059AB9
:101400004146284610F0DCFD2DF0ECFB014623465A
:101410006C4A284610F0F8FF0021284610F0E8FF3B
:101420000321284610F07DFF0BEB060704EB87171E
:10143000D7F8F4319B68079928469847D7F8F431D4
:10144000DB684946284698474E44022E8DD9DDF880
:101450001CB0149B022B01D902231493149A0A2165
:101460002046FFF7EAFE6061149B03EB4300800116
:1014700000F5F87020440121043010F0B9FF04F1A8
:101480004C084D4FD7F80490D4F8F4319B6B04F519
:10149000FA709847012602960025019508300090C1
:1014A0004B462A46294640460DF0D9FF04214046C6
:1014B0000EF034F84FF6FF7140460EF05FF8294603
:1014C00040460EF071F8594640460FF08FF8294615
:1014D00040460FF0CBF8D4F8F035D3F88C20B4F9AF
:1014E0005A30D21A02EBD27200937B6832412946FD
:1014F00058460EF0C8FFD4F8F025D2F88830D2F85C
:101500008C2000922A46294604F17C000EF05FF8F8
:1015100084F88C6004F58E68D4F8F035D3F88C70BC
:101520000CF0D8F90368DB68984700EB40003F1ADD
:10153000D4F8F035D3F8882002EBD27242FA06F9DB
:101540000CF0C8F90368DB68984700EB400002968E
:101550000190A9F1040200923B462A461A494046EE
:1015600010F02EFD2DF03EFB0146DFF8589023468B
:101570004A46404610F048FF04F5A667D4F8F03517
:10158000D3F88810B4F97C24B4F97E340296019320
:101590000092B4F976348A1A0C49384610F010FDDE
:1015A0002DF020FB014623464A46384610F02CFF1A
:1015B000284609B0BDE8F08F24260020ABAAAAAACD
:1015C000F80C04082B170008FC0C0408000D040894
:1015D0002DE9F04184B0054616461F46DDF8288007
:1015E0009DF82C300393002402947B1E01930094F9
:1015F00043461E4AFFF72EFEAE61EF6156F82810F3
:1016000005F1D40000F0B5FA0FE004EB44008001CE
:1016100000F5F870284404EB440305EB8313D3F87A
:10162000F4311B69043098470134022CEDD905F1DF
:101630004C06B5F9DE3001220292002401940833F1
:101640000093B5F958302246214630460DF007FF89
:10165000042130460DF062FF4FF6FF7130460DF069
:101660008DFF204604B0BDE8F08100BF0C0E0408D9
:1016700030B583B004460D467C300EF0F7FF691C90
:1016800004F120000EF0F2FFA91C04F58E600EF0AC
:10169000EDFFE91C04F5A6600EF0E8FF04F06FFE14
:1016A00005462DF09FFA014604F2F45300932346B9
:1016B0000B4A284604F0F0FE04F061FE05462DF0CA
:1016C00091FA014604F20C6301937F2300932346B1
:1016D000044A284604F0A8FE4FF0000003B030BDD5
:1016E000BD1100082B17000810B5044604F047FE92
:1016F00004F2F45104F0EDFE04F041FE04F20C613A
:1017000004F0B2FE04F120000EF0BFFF04F17C00F3
:101710000EF0BBFF04F58E600EF0B7FF04F5A66077
:101720000EF0B3FF4FF0000010BD03464FF0020073
:10173000002B5ED070B582B01C4603F58E658D42DD
:1017400024D003F5A6668E4220D003F5FA738B42AF
:1017500039D004F52D738B4238D004F55D738B427C
:1017600037D00B88ADF804309DF80430002B33D00F
:10177000012B1AD19DF805502946304610F038FE4D
:101780009DB931462046FFF7D0FF0EE08D4214BFD1
:101790000021012121742046FFF7A6FF206858B1DF
:1017A0002346A26861680FF031FC2046FFF727FD51
:1017B0004FF0000002B070BD6368002BF5D02146E9
:1017C000A0689847F1E701236361EEE70A236361AC
:1017D000EBE764236361E8E79DF80560314628463E
:1017E00010F006FE002EE0D129462046FFF79DFFAF
:1017F000DBE770472DE9F04182B004460E461746FC
:101800001D46DDF82080B0F90630B0F90400A8EBE1
:1018100000000090EB1A04F150000DF083FBB4F9C6
:101820000630B4F90420A8EB02020092EB1A3A4603
:10183000314604F1B8000EF02DF994F8183113B9BF
:1018400002B0BDE8F081B4F90630B4F90420A8EB89
:1018500002020092EB1A3A46314604F180000EF083
:1018600019F9EDE72DE9F04182B004460E4617461E
:101870001D46DDF82080B0F90430B0F90600A8EB71
:1018800000000090EB1A04F150000DF0A4FBB4F935
:101890000430B4F90620A8EB02020092EB1A3A4693
:1018A000314604F1B8000EF06AF994F8183113B912
:1018B00002B0BDE8F081B4F90430B4F90620A8EB19
:1018C00002020092EB1A3A46314604F180000EF013
:1018D00056F9EDE710B5044605290DD8DFE801F00B
:1018E000030D0C0C03140E4950300DF05DFE2368FF
:1018F000DB6C00212046984710BD006A20B12346CA
:10190000A26A616A0FF082FB002104F150000DF021
:101910004BFE2368DB6C002120469847ECE700BFB4
:10192000808080002DE9F04184B004461F460A9E65
:101930000B9DDDF830804FF0FF33C3648180C2809F
:10194000CB199BB2013B038193199BB2013B4381AD
:101950008781C681A5EB08038363C0F83C80012220
:101960000264002105E0226C02EB82025200226434
:1019700001318845F7DCB8F1000F14D0CDF80080B4
:10198000394A102104F5847032F022FBB8F1000FBF
:1019900000D0013504F1F00840462CF0F1FEA842D9
:1019A00013D000220BE0314A102104F5847032F08C
:1019B0000FFBEBE70021A31883F8F0100132172A80
:1019C00003D89542F6D92021F5E70123029300259B
:1019D000019500963B462A46294604F150000DF039
:1019E0003EFD04F1B8070BF075FF01906FF07F43E7
:1019F00000932B462A46414638460EF020F994F8CB
:101A00003850E36B73B30122154453FA85F5EDB2F8
:101A10000135EDB2B4F90C8038462DF063FF00FBC0
:101A20001581B4F9C630F61A06EBD676002372108B
:101A3000490804F1B8000EF071FE0BF04BFF019065
:101A40006FF07F43009300231A46094904F1800098
:101A50000EF0F5F82368DB6C00212046984704B0AF
:101A6000BDE8F0810022CFE7080D04081C0D040832
:101A70000C0E0408C36F994200D1704710B504469C
:101A800050300DF04BFD2368DB6C00212046984759
:101A900010BD10B5044601634263036F90F82C003B
:101AA00000B11146994200D110BD04F150000DF073
:101AB00065FD2368DB6C002120469847F4E738B5C4
:101AC00004461546FFF7D6FF4FF47F4229462046CD
:101AD000FFF7DFFF38BD10B582B00446426C8A4282
:101AE00000DC0A46A36C934200DB1346E26C9A4288
:101AF00036D0E364E26B8AB9009304F5847318224C
:101B000004F1F00104F1B8000EF053FA2368DB6C25
:101B1000002120469847012002B010BD216C93FBA4
:101B2000F1F201FB1233002BB8BF5B42019300922C
:101B300004F58473182204F1F00104F1B8000EF0EA
:101B400038FAE36C002BE1DA226C93FBF2F3002B02
:101B5000DCD1A36B023B23442D2283F8F020D5E790
:101B60000020D9E708B541648264C16CFFF7B3FF78
:101B700008BD30B583B0044600F1B80500910D4BA7
:101B8000182200F1F00128460EF013FAB4F90C10F7
:101B9000B4F9C430C91AB4F90E20B4F9C630D21A57
:101BA00002EBD27200235210490828460EF0B6FD0F
:101BB00003B030BD240D0408F8B50446836BC56B33
:101BC0006DB101210B441D4494F81831013B042BE5
:101BD00000F2B480DFE803F0383205638B000021A7
:101BE000F0E7B4F90C6004F1B80738462DF07AFE3E
:101BF00094F8E43000FB03F303FB1561B4F98C3077
:101C0000C91A0239B4F90E20B4F9C630D21A02EB5F
:101C1000D27200235210490838460EF07FFDB4F905
:101C2000C060B4F9C27004F1800528462DF063FE4F
:101C300000233A1AB11C28460EF070FD2368DB6CB5
:101C4000002120469847F8BDB4F90C10B4F98C3047
:101C5000C91AB4F90E20B4F9C630D21AB4F98E30CC
:101C6000D21A02EBD27200235210490804F180000C
:101C70000EF054FDB4F90C6004F1B80738462DF0AD
:101C800031FE94F8E43000FB03F303FB15610023FD
:101C9000B4F98A20490838460EF040FDCEE7B4F981
:101CA0000C6004F1B80738462DF01CFE94F8E430BF
:101CB00000FB03F303FB1561B4F90E20B4F9C63041
:101CC000D21A02EBD27200235210490838460EF0A5
:101CD00025FDB4F90C10B4F98C30C91A0023B4F9FD
:101CE000C220490804F180000EF018FDA6E7B4F9FF
:101CF0000C6004F1B80738462DF0F4FD94F8E43098
:101D000000FB03F303FB1561B4F90E20B4F9C630F0
:101D1000D21A02EBD27200235210490838460EF054
:101D2000FDFCB4F9C000B4F98C100023B4F9C22052
:101D3000411A04F180000EF0F1FC7FE7B4F90C6069
:101D400004F1B80738462DF0CDFD94F8E43000FBDF
:101D500003F303FB1561B4F90E20B4F9C630D21AAF
:101D600002EBD27200235210490838460EF0D6FC1E
:101D700064E770B50446154600F1B80630460EF02B
:101D800068F8E9B230460EF0A4F82046FFF714FFD9
:101D90002368DB6C00212046984770BD70B504466F
:101DA0000D4680F8182100F18006194630460EF0E5
:101DB00050F80022294630460EF0C8F82046FFF7BA
:101DC000FBFE2368DB6C00212046984770BD90F82D
:101DD0002C308B4210D010B5044680F82C105030B7
:101DE00041B1616B0DF0CAFB2368DB6C002120461A
:101DF000984710BD216BF5E770470162426283622C
:101E0000704700BF02464FF0020013465AB192F8E5
:101E10009820052A08D81A3253F82200014443F8C2
:101E200022104FF0000070475A6E11445966F8E7CF
:101E300070B5054604F0A3FA05F5A251183104F077
:101E400048FB281D0EF021FC05F58053D3F84C0407
:101E5000FFF74AFC002428E0E60004EBC400400140
:101E600000F5F87004EBC40305EB4313D3F8F0312D
:101E70001B6928449847301BC000A030361B05EB77
:101E8000C606D6F8A0301B692844984704EB4400E6
:101E9000800100F50B6004EB440305EB8313D3F8DA
:101EA000B0381B69284498470134052CD4D9002444
:101EB0000EE004EB4400800100F6286004EB4403CC
:101EC00005EB8313D3F8283E1B6928449847013457
:101ED000032CEED905F553600EF0D7FB05F55F60D6
:101EE0000EF0D3FB05F58B5008300EF0CEFB05F558
:101EF000945008300EF0C9FB05F596500EF0C5FB66
:101F000005F59C500EF0C1FB05F58055D5F8400451
:101F100003681B699847D5F8440403681B69984710
:101F2000D5F8480403681B699847FEF7C6FC0021F2
:101F3000FEF7ECFC4FF0000070BD2DE9F04182B0DF
:101F4000064600252F46FEF7B8FCFEF777FDFEF7A4
:101F5000B4FCFEF7A3FD0FE09D4217D205EBC504CC
:101F6000640104F5F8743444E9B202F0C1FA0146A0
:101F70002046FFF7B0FD013506F58053D3F8540431
:101F8000D0F81034052BE7D90623E5E70024052C0B
:101F900055D804F11A0356F823500DB90134F6E769
:101FA000D6F89C2002FB05F596F8981002F030FA5E
:101FB00000B36B4B04F1200256F82220002A1CDBF0
:101FC000002A21DD04F11A0256F82220002A1BDD26
:101FD00004F0D5F9026F132A00D81422D6F89C30E9
:101FE00002FB03F3C3EB03139B005E4AA2FB032334
:101FF000DB0814E04EF66023DCE704F11A0156F822
:1020000021100029DCDAE3E704F11A0256F8222055
:10201000002A61DD012104F1200246F8221006F5B4
:1020200080504FF00008CDF800802A46E1B2D0F889
:10203000540403F001FA07461A3446F8248006F5E2
:10204000965506F58053D3F8543493F80D34002B8D
:1020500045D04FF47F41284610F0EBF806F59C5828
:1020600006F58053D3F8543493F80C34D3B34FF4BB
:102070007F41404610F0DDF806F58B54083406F534
:102080008053D3F85434D3EDFF7AFCEEE77A17EEA1
:10209000903A99B22046FFF71EFD736E2BBB06F5F2
:1020A0008053D3F854042DF03FFC48B106F580531B
:1020B000D3F8543493F87033012B24D0032B22D05F
:1020C00006F58053D3F84C04FFF70EFB06F553607A
:1020D00010F073F9002437E04FF0FF319BE76FF009
:1020E0007F41B8E76FF07F41C3E706F58052D2F831
:1020F000B421D6F89C1001FB03212046FFF7EBFC2E
:1021000000237366CBE706F5536010F03DF9002419
:1021100008E004EB4400800100F50B60304410F04F
:1021200033F90134052CF4D9404610F02DF9284636
:1021300010F02AF910E004EB4400800100F50B6078
:10214000304410F03AF90134052CF4D9404610F02F
:1021500034F9284610F031F9384602B0BDE8F08174
:1021600080F52000CDCCCCCC2DE9F04F8DB083464E
:102170008A4614460A92C04B5B6803F03F030993FA
:102180000B1D08930BF0A6FB0368DB689847231A26
:10219000043B0BF58052D2F85424D2F81024052ABF
:1021A00000D906220232B3FBF2F3A3F1080405942E
:1021B0000BF090FB0368DB68984700EB8000A042BF
:1021C00004D34FF00008CDF82CA0F3E00BF082FB15
:1021D0000368DB68984700EB80030593F1E79845B7
:1021E00080F0F3804FEAC80508EBC804640104F5E9
:1021F000F8745C440BF5805ADAF85034D3F88890C0
:10220000059B0833089A08FB03220692A9F10806E9
:10221000B6005FFA88F739462DF076FB974981FBC7
:10222000062381FB09210290082201920598009063
:10223000A3EBE673069AA1EBE9712046FFF772FB68
:10224000FF2204212046FFF73AFC0BF043FB014636
:1022500002222046FFF78DFD00212046FFF73BFCC0
:102260003946DAF854042DF07DFB06460BF032FBBC
:102270000346032231462046FFF790FD2CF0B2FCC6
:10228000014600231A462046FFF7B7FD05EB080973
:102290000BEB4919D9F8F0319B6C01212046984786
:1022A000A5EB0806F600A0365E443946DAF8540479
:1022B00002F0A3F807460BF053FA01906FF07F434A
:1022C000009300231A46394630460DF0B8FC02212F
:1022D00030460DF0FEFDA5EB08050BEBC505D5F866
:1022E000A030DB690693D9F8F031DB6A20469847C5
:1022F00000EBD0704710D5F8A030DB6B3046984724
:1023000000EBD070A7EB60020792D9F8F0311B6B9D
:10231000204698470746D9F8F0311B6C204698476D
:1023200000EBD07007EB6007D5F8A0301B6C30468F
:10233000984700EBD0700023A7EB60020799304666
:10234000069DA84708EB4805AD0105F50B655D4402
:10235000D9F8F0315B6B204698470646D9F8F03142
:102360001B6B204698470746DAF85034D3F888A00C
:10237000D9F8F0315B6B20469847AAEB000AD9F8F0
:10238000F0311B6C20469847012302930190AAF17B
:10239000080300933B46321D394928460FF010FED2
:1023A0002CF020FC014600231A46284610F02CF899
:1023B00008F101080BF58053D3F85404D0F8103419
:1023C000052B7FF60CAF062309E7DDF82CA00025CE
:1023D000DDF814902BE0013B03EBC300400100F556
:1023E000F87003EBC3030BEB4313D3F8F0319B6B93
:1023F0005844984701230293CDF80490009600F1C9
:1024000008034246394620460FF0DAFD2CF0EAFB7D
:10241000014600231A4620460FF0F6FF032120460E
:102420000FF07FFF002120460FF0E2FF0135032D62
:1024300028D80BF58053D3F85024D2F88860143E86
:10244000B60805EB4504A40104F628645C4405EBDA
:10245000450241F2281707EB82075F4406F10408A2
:1024600005FB08F808F10408D3F85434D3F8103405
:10247000052BB0D90623AEE700380240ABAAAA2A42
:10248000280D040801210BF5835008300FF0B0FF30
:102490000BF553690BF5F875DBF8F0311B6B28462B
:1024A00098478046DBF8F031DB6A284698470646B5
:1024B000DBF8F0311B6C28469847804F01240294CA
:1024C0000190083E009643460422394648460FF0E4
:1024D00077FD2CF087FB014600231A4648460FF093
:1024E00093FFDBF8F031DB6A284698470646DBF8B5
:1024F000F0311B6B2846984780460BF0EBF90190B2
:102500006FF07F45009508F1080306F1080239468F
:102510000BF55F600DF093FB0BF58B5608360A9BAD
:102520009A440598AAEB00020BF58057D7F850346F
:10253000D3F8883003EBD37323414FF00008CDF874
:102540000880052101910090063B043A04213046A1
:10255000FFF7E8F9FF2204213046FFF7B0FA0BF04D
:10256000B9F9014602223046FFF703FCD7F854348C
:10257000B3F822143046FFF7AEFAD7F85434B3F864
:102580002024B3F822143046FFF7ECFA0BF0A2F93E
:10259000034603224A493046FFF700FC2CF022FB99
:1025A0000146434642463046FFF727FC87F878410C
:1025B00021463046FFF70BFC0BF08CF90BF59456D7
:1025C000083601900095434642463E4930460DF09C
:1025D00036FBB7F96C11B7F96E2143460832083162
:1025E00030460EF09BF80BF59656B7F97021B7F907
:1025F0007431043B02940598019003EBD37323419B
:102600000093B7F96E3105322F4930460FF0D8FCF0
:102610002CF0E8FA01464346424630460FF0F4FEFD
:102620000BF59C56B7F9C822B7F9CC32029405983D
:1026300001900093B7F9C6320532244930460FF0B5
:10264000BFFC2CF0CFFA01464346424630460FF01D
:10265000DBFE0BF13C06099B02930223019322232C
:10266000009343461A4A2821304631F0B1FC0BF65C
:10267000286ADBF8283E9B6B504698478146B7F99D
:102680006E41DBF8283E9B6B50469847241A0BF0AE
:1026900021F90368DB689847241A09EB54040BF00E
:1026A00019F9019000952346042231460BEB0200F4
:1026B0000DF0C5FA40460DB0BDE8F08F0C0E0408D1
:1026C0002C0D0408300D0408380D0408400D0408D2
:1026D000440D040838B50546002409E004EB440025
:1026E000800100F62860002128440FF081FE0134AB
:1026F000032CF3D938BD2DE9F04F85B005460024F1
:102700003FE0092757E0CCB104F2554355F8233098
:1027100003EB83035B0004F2564245F8223005F5D3
:10272000805000220292464A0192012200920C221D
:102730003146D0F8540402F025F96EE00123EAE7AF
:1027400004EB440205EB820213440A460A21995421
:1027500004EB4400800100F6286004EB440605EB1E
:102760008616D6F8283EDB6864212844984796F8F8
:102770005C3E2BB104F2564355F82330C5F89C302B
:102780000134032C59D804EB440241F2281303EB23
:102790008203EE180022EA507260B26095F8981039
:1027A0000529B0D805F58053D3F8540490F81C34AB
:1027B000002BA6D1052701F02BFE00B10D2706F056
:1027C00061FC57FA84F7FFB200EB8700D0F804B041
:1027D00004F2564345F823B005F58059D9F854A4BE
:1027E00095F8981050462DF0ADF8074695F89810DA
:1027F000D9F854042DF0B6F8804695F89810D9F819
:10280000540401F005FE0290CDF8048000975B4669
:102810000C223146504602F0B5F800230B2B97D816
:1028200004EB440205EB82021A4441F22811525C87
:10283000202A85D00133DBB2F0E705B0BDE8F08F88
:102840002C0D040870B582B00546012104300DF04E
:102850000DFF2846FFF74FFF00242DE09C4235D2A4
:10286000E60004EBC400400100F5F87004EBC4037B
:1028700005EB4313D3F8F031DB6864212844984713
:10288000301BC000A030361B05EBC606D6F8A030C2
:10289000DB6864212844984704EB4400800100F57C
:1028A0000B6004EB440305EB8313D3F8B038DB680B
:1028B000642128449847013405F58053D3F85434F3
:1028C000D3F81034052BC9D90623C7E7062385F8AA
:1028D0009830002409E004EBC400400100F5F870D2
:1028E00000212844FFF773FA0134052CF3D905F5CC
:1028F0008B540834642120460DF0B8FE0021204698
:10290000FFF765FA652105F5945008300DF0AEFE2D
:10291000642105F596500DF0A9FE642105F59C5043
:102920000DF0A4FE05F58053D3F85434B3F81E34EB
:1029300013F0010F20D105F58054D4F8400403684A
:10294000DB6866219847D4F848040368DB68662191
:10295000984703F014FD04462CF044F9014605F5B0
:10296000A253183300932B460D4A204603F094FDE2
:102970004FF0000002B070BDFDF79FFF0121FDF791
:10298000C5FF05F580540749D4F844040FF00DFC49
:10299000D4F844040368DB6866219847CBE700BF9E
:1029A000051E0008680D04082DE9F04F89B000F5F8
:1029B0008053D3F840348B422DD004460D464FF05F
:1029C000000600F58053D3F848348B4223D000F53D
:1029D0008053D3F844348B4223D000F58053D3F88E
:1029E0004C348B4228D000F59C538B4231D000F5FB
:1029F00096538B4235D04FF00008B8F1030F45D8FD
:102A000008EB4807BF0107F628672744AF4230D0DC
:102A100008F10108F1E74FF00906304609B0BDE8BA
:102A2000F08F00F580540023079307AA7249D4F869
:102A3000540402F02EFCF0E71A7C002AEDD000F5D9
:102A40008054D3F82021197BD4F8540402F0FAFE04
:102A5000E3E700F58054A021D4F8540401F05CFEB3
:102A6000DBE700F58054A121D4F8540401F054FEB2
:102A7000D3E72046FFF72EFE012138460FF0B8FCC1
:102A800008F2564354F82330C4F89C30B8F1040FD0
:102A9000C3D100270CE0A84500F08F8007EB470367
:102AA0009B0103F50B632344AB4200F0898001379F
:102AB000052F6BD807EBC7084FEA481808F5F878D8
:102AC000A044A845E7D107EBC70304EB431393F8F1
:102AD0001C32002BDFD004F58058D8F84CA45FFAE4
:102AE00087F94946D8F8540401F087FC0490D8F8D7
:102AF000540490F81C24414B53F82230059307EB03
:102B0000C70304EB4313D3F83CB249462CF0FCFE58
:102B10000223039302903A4B01933A4B00935B4696
:102B2000059A04995046FEF795FBD8F84C942CF082
:102B300059F8014600231A464846FEF75CFBD8F8D0
:102B40004C34DF6042F21071D8F84C04FEF790FD6F
:102B5000ADE709EBC900400100F5F8700021204401
:102B6000FFF735F909F10109B9F1050FF1D9002194
:102B700004F58B500830FFF72AF901214046FFF792
:102B800026F984F898702046FFF7B5FD04F58B57B9
:102B90000837AF427FF441AF04F58053D3F85404B3
:102BA000D0F80834642B13D101213846FFF70FF910
:102BB000062384F89830002518E04FF00009D3E789
:102BC00004F58053F9B2D3F8540402F00DFE6EE719
:102BD000992101F0A1FDE7E705EBC500400100F5F3
:102BE000F87000212044FFF7F2F80135052DF3D9E4
:102BF0002046FFF780FD10E7700D0408A06F030862
:102C000080969800806967FF2DE9F04F83B00446F5
:102C1000B34B0360B34B40F8043B2CF027F8282259
:102C2000002104F13C0031F089FA00236366A366B9
:102C3000E36623676367A367E367C4F88030C4F87B
:102C40008430C4F88830C4F88C30C4F89030C4F8AC
:102C50009430062384F898300123C4F89C3004F1A2
:102C6000A00301931E46052501E0013D3836002DE5
:102C700003DB30462BF0FAFFF7E704F5F87637462A
:102C8000052502E0013D07F59077002D03DB38466E
:102C90002CF04EF8F6E704F50B67B846052502E080
:102CA000013D08F1C008002D03DB40462CF012F86E
:102CB000F6E704F5536948462CF00CF804F55F601C
:102CC0002BF0D4FF04F62868C246032502E0013D3C
:102CD0000AF1C00A002D03DB50462BF0FBFFF6E79C
:102CE00004F580553022002105F5947031F026FA64
:102CF0000023C5F85831C5F85C31C5F86031C5F816
:102D0000643104F58B55083528462CF011F804F58C
:102D1000945008302BF0AAFF04F5965A50462BF039
:102D2000D9FF04F59C5B58462BF0D4FFFDF7C5FD99
:102D300000F5B150183004F58053C3F84004FDF796
:102D4000BCFD00F5B750183004F58053C3F84404B7
:102D5000FDF7B3FD00F5BD50183004F58053C3F8FE
:102D60004804FDF7AAFD00F5D950143004F580534E
:102D7000C3F84C040AF0D2F804F58053C3F85004A9
:102D800001F00CFB97E0019B002B00F08980C5F15E
:102D900005053823019A03FB0525019B9D427FD041
:102DA000514B45F8383D28460DF090FCF5E7002ED4
:102DB0006AD0C5F105054FF4907303FB0565B54274
:102DC00062D0A5F5907528462CF060F9F7E7002F42
:102DD00050D0C5F10505C02303FB0575BD4249D0A0
:102DE000C03D28462CF014F8F8E7B8F1000F2CD0BD
:102DF000C5F10305C02303FB0585454525D0C03D2E
:102E000028462CF005F8F8E758462CF001F8504613
:102E10002BF0FEFF04F58053334AC3F8882204F5F3
:102E2000945008300DF052FC28462CF02FF904F590
:102E300089550835454508D0C03D28462BF0E8FFA8
:102E4000F8E7E4E7E6E7EFE7F1E7274BC4F8F03D02
:102E500004F55F600DF03AFC48462BF0D9FF04F50D
:102E60005365BD4206D0C03D28462BF0D1FFF8E7A0
:102E7000F2E7F4E704F50B65B54205D0A5F59075CA
:102E800028462CF003F9F7E704F5F875019B9D42FD
:102E900006D0154B45F8383D28460DF017FCF5E7F0
:102EA0002046114B40F8043F0DF010FC0C4B236002
:102EB0002EF060FAFAE704F58053C3F854040022B8
:102EC000C3F85824C3F85C24C3F8602483F864244E
:102ED000C3F86824C3F86C24204603B0BDE8F08F23
:102EE000F01F0408846503084402040808B50F4B6A
:102EF0001B68BFF35B8F13F0010F01D00C4808BDB6
:102F00000A482EF08AFD0028F8D00948FFF77CFE19
:102F1000084A094906482EF0B2F904482EF08CFD03
:102F2000ECE702482EF085FD2EF024FA2C26002036
:102F3000302600204401002085F902084FF00000EF
:102F4000704710B50446FDF7B8FC00F5AF500DF022
:102F50009CFB04F50053D3F82403FEF7C5FB04F5EE
:102F60000350343005F0ECFD04F58B50143008F0BC
:102F7000C6FB4FF0000010BD2DE9F04385B00446BC
:102F80000E46154600F58B57143709F0C7FFD0F8E9
:102F900088300222019228220092324600213846CF
:102FA00008F0EAFB0AF09EFB00900023334A194622
:102FB000384608F0CFFD0AF095FB00900023304A18
:102FC0000121384608F0C6FD2BF00CFE0146002317
:102FD0001A46384608F0C7FE4FF0000C11E00CEB23
:102FE0004C1303F5A65310332344043304EB8C1223
:102FF00041F6F401535041F6F8032121D1500CF170
:10300000010CBCF11F0FEAD904F5035734372BF03C
:10301000E9FD01461B4B00931B4B2246384605F049
:1030200087FC04F5C75808F1140804F58059B9F96C
:1030300082311E4404F50054D4F85833D3F8884044
:103040000AF048FC0368DB689847A5EB4003B9F930
:1030500082219B1A083B02930194009600232022B0
:103060004146384605F05EFD0021384605F09AFDE0
:103070004FF0000005B0BDE8F08300BF780D0408F4
:10308000800D040865340008B936000838B50446D8
:10309000FDF713FC2CF054FE04F58B5514354FF45A
:1030A000FA61284608F01CFB63683BB123689B6902
:1030B0002946204698474FF0000038BD0121284698
:1030C00008F02DFEF2E710B582B00446406818B152
:1030D00009F09FFD002363600022114604F10800FF
:1030E00003F0ACFA0AF0FEFA00900023064A1946F3
:1030F00004F58B50143008F02DFDFDF7DEFBFDF7D5
:103100003AFD02B010BD00BF780D040838B5044682
:103110000D46FFF7D8FF284609F073FD606008B13F
:1031200000230370FDF7C9FBFDF725FD606838BD7E
:10313000F0B583B016461D46089F0023019301AAEF
:10314000083003F039FB024690B9104603B0F0BDD9
:1031500001340194019C21780A290ED00D290CD04C
:1031600059B1BC4509D23B29F2D10CF1010CEFE772
:103170004FF0000CEEE70130019001980178A1F1C9
:103180000903172B32D801A454F823F07731000833
:1031900027320008ED310008ED3100082732000821
:1031A000ED310008ED310008ED310008ED31000887
:1031B000ED310008ED310008ED310008ED31000877
:1031C000ED310008ED310008ED310008ED31000867
:1031D000ED310008ED310008ED310008ED31000857
:1031E000ED310008ED31000877310008C9B900223F
:1031F000ABE73B2C0DD074540131A9420BD2019B9B
:103200005C5C0D2CF5D842F20143E34013F0010F52
:10321000F1D000237354002D97D0013D0023735546
:1032200093E70021E9E700228FE72DE9F04182B022
:1032300004460D4616461F464FF0000CCDF800C060
:10324000FFF776FF804618B1404602B0BDE8F08136
:103250003B463246294604F1080003F079FAF3E7C9
:1032600030B583B0144602250095FFF761FF00B921
:10327000207003B030BD30B583B01546069C0234D3
:103280000094FFF755FF08B905B1287003B030BDB1
:1032900070B582B006460D46002400E0013400946B
:1032A00000231A4629463046FFF7E5FF0028F5D1EE
:1032B000204602B070BD70B582B015461C46002392
:1032C000019301AA083003F077FA064690B9304618
:1032D00002B070BD01300190019801780A290CD02C
:1032E0000D290AD049B1A44507D23B29F2D10CF1EE
:1032F000010CEFE74FF0000CEEE70A2908D00D298A
:1033000008D009B90026E2E72FF07EFE2860DEE74C
:103310000026DCE70026DAE710B514460123FFF7A4
:10332000CAFF08B90123236010BD00B583B0002394
:10333000019301AAFFF7F0FF10B1019B03B1002038
:1033400003B05DF804FB2DE9F04194B0054600247C
:103350000E940F9410941194129413940894099459
:103360000A940B940C940D940694079401230593EE
:10337000C76F2AE005AA21462846FFF7CDFF0DF1C9
:1033800018080823424621462846FFF769FF41F600
:10339000F00606EB84162E44043605F50050002393
:1033A0000293CDF80480059B0093049B182208A982
:1033B000D0F85C0301F0E6FA03460EAA314605F5A3
:1033C0000350343005F0BAFA0134BC422CD21E2C22
:1033D0002AD80023049304AA214605F1080003F02B
:1033E0003FF918230EAA21462846FFF71EFF214663
:1033F0002846FFF79AFF0028BCD008AE049B009334
:103400001823324621462846FFF735FF41F6F001E2
:1034100001EB8411294433460EAA043105F503500B
:10342000343005F08BFACFE7BC4202D014B0BDE8CF
:10343000F0811E2CFAD805F50356343641F6F00318
:1034400003EB8413E918054B054A0431304605F0B7
:1034500075FA791C304605F0A5FBE7E70C0E040869
:10346000880D040803464FF00200C3B110B51C4696
:1034700003F58053D3F8AC316BB9E36F8B4202D8BC
:103480004FF0000010BD04F1080004F01FF82046C2
:10349000FFF759FFF4E72046FFF715FEF0E7704706
:1034A00070B59AB0054600F58B5414348C4211D097
:1034B00000F50053D3F824338B4200F0C98000F5A7
:1034C0000053D3F820338B4200F0D0804FF000003F
:1034D0001AB070BD00F58053D3F8AC31012B10D079
:1034E0004368002B00F0AE80FFF72DFF642105F547
:1034F0000350343005F08FFB0021204608F00FFC0C
:10350000E4E72BF06FFB002128300EF0D3F928F010
:10351000F0FF00225849594823F02EFA10B1002636
:1035200033467BE056490DA823F0B3FF08B10026CF
:10353000F6E7002639E0033C00E0013C74B304F1F7
:1035400068036B4413F84A3C2E2BF6D104F16A034E
:103550006B4413F84A0C30F06DFC7328EDD100F089
:103560001DFF90F81D3443B904F169036B4413F84F
:103570004A0C30F05FFC6D282BD000F00FFF90F864
:103580001D34022BD9D104F169036B4413F84A0CA2
:1035900030F050FC6C28D0D1012200E000229DF8D0
:1035A000103013F0100F00D1AAB902A90DA823F012
:1035B000D5FF38BB9DF81E3023B30024142CBAD895
:1035C00004F168036B4413F84A3C002BB3D0013478
:1035D000F4E70122E3E705EB861141F6F803CA5848
:1035E00041F6F400095803EB8613E818029B019397
:1035F0000DF11E030093234B04300CF0DAFC01366E
:10360000202ED2D10DA823F091FF89E703EB4312BE
:103610002A4441F2D4410020505401331F2BF5D9E4
:103620002BF0E0FA002128300EF009F905F50355DA
:1036300034353146284605F0B5FA6421284605F0B0
:10364000EAFA43E700F50350343005F079FA3DE734
:103650001A7C002A3FF43AAFD3F82021D968083009
:1036600003F010F82846FFF76EFE2FE707F0DCFAAC
:1036700006F094FF2AE700BFA4960120DC98012001
:10368000800D0408940D040810B514460323FFF7B9
:1036900012FE08B9014B236010BD00BF806967FFAF
:1036A00010B514460423FFF706FE08B9014B23604A
:1036B00010BD00BF8096980003464FF00200002B1B
:1036C00000F0E2812DE9F04391B00D461C4603F570
:1036D0008053D3F8AC61002E40F0FC806368002B6F
:1036E00000F03381E36F8B427BD104F50053D3F8B4
:1036F0005C3393F87033012B00D023BB0023079376
:1037000007F092FA07A907F0C9F8054604F1080680
:10371000079A0146304602F096FF002800F0158116
:10372000304604F09FFB00284BD005F0ABFC43690A
:10373000CBB9FDF7C2F8044607F076FA01462046F9
:10374000FDF7F1F901E104F500540223BE4ABF4937
:10375000D4F8200305F0CAFA42F21071D4F820031D
:1037600005F0CAFBF1E02BF03DFA002128300EF005
:10377000A1F80022B649B74823F0FEF830B12BF08B
:1037800031FA002128300EF05AF8D2E70A22B24965
:10379000B24823F035F90028F1D107F045FA046961
:1037A00007F042FA00692AF0EBFF024608AB214617
:1037B000AA4823F02AFB0028E1D1A84823F0CCFC3A
:1037C000DDE704F5005402232A46A049D4F820037B
:1037D00005F08CFA42F21071D4F8200305F08CFB4E
:1037E000B3E0002305930123069304F1080805AA1A
:1037F000404602F035FF04F50C57283720233A469F
:1038000029462046FFF711FD06AA29462046FFF764
:1038100083FD069BA3B9059B0133059329462046EA
:10382000FFF736FD059B834201DB00230593059AD4
:103830002946404602F026FF2046FFF784FD84E03B
:1038400000230793089307AA29462046FFF71CFF89
:1038500008AA29462046FFF723FF04F50D5808F172
:1038600008081023424629462046FFF7F9FC07E0E6
:103870007B4A82FB0312DB17C3EBA20306930136DC
:10388000069B092BF4DC04F50059012303930296EF
:10389000089B0193079B0093059B42463946D9F844
:1038A0002403FDF7D7FCD9F824632BF09BF90146DC
:1038B00000231A463046FDF79EFCD9F82433DD601C
:1038C00042F21071D9F82403FDF7D2FE2046FFF72B
:1038D0003AFD3AE008AE20273A460021304630F063
:1038E0002DFC3A465F49304630F04FFC30462AF016
:1038F00047FF06EB000EA7EB000C002363450AD23E
:1039000004EB851241F6F4015258D25C0EF8032004
:103910000AB10133F2E71F2373B103F140026A4495
:1039200012F8202C202A07D803F140026A44002113
:1039300002F8201C013BEFE7012208A9474823F0C9
:103940005FF838B1454823F007FC4FF0000011B094
:10395000BDE8F083414BDE68013607F065F906F0FB
:103960001DFE31462046FFF7D1FB00287CD0002702
:10397000069706AB32466168384823F05AF9626808
:10398000069BD75404F10803324661681E46184668
:1039900002F054FE079707F047F907A906F07EFFEB
:1039A0000746079A0146304602F04DFE304604F0C5
:1039B000EAFDA8B300231F2B0ED804EB851241F6B5
:1039C000F4015258D15CE21841F2B440115419B1DB
:1039D0002E2901D00133EEE7234441F2B442002600
:1039E0009E5404F58B551435A71809F07BFE009002
:1039F00033463A463146284608F0ACF82046FFF7F1
:103A0000A2FC642104F50350343005F004F931467A
:103A1000284608F084F907F007F906F0BFFD91E7A2
:103A20002046FFF750FB04F5005402233A460749AD
:103A3000D4F8200305F05AF942F21071D4F82003AB
:103A400005F05AFA7EE700BFA00D040874170408B9
:103A5000A4960120DC980120CC0D0408AC9601202E
:103A600067666666D80D040804F500540223074A09
:103A70000749D4F8200305F039F942F21071D4F85F
:103A8000200305F039FA5DE7704700BFE40D040834
:103A9000741704082DE9F04106463D4B03603D4B89
:103AA00003600023436008302CF008FA06F58B58B9
:103AB00008F1140840462BF0DBFF4FF4846200212C
:103AC00006F5A650143030F039FB06F5C757143709
:103AD0003C461F2501E0013D4034002D07DB00235B
:103AE0002360636004F108002BF0C0F8F3E706F5EB
:103AF0000354343420462CF0C5F8FCF7DEFE00F504
:103B0000C350183006F50053C3F82003FCF7D5FE68
:103B100000F5D950143006F50053C3F8240309F01A
:103B2000FDF906F50053C3F8580300F037FC27E011
:103B3000F7B1C5F11F0407EB8414BC4218D0403C18
:103B40002046154B40F8083F0CF0C0FDF5E7204635
:103B50002CF062F906F503543434BC4208D0403CE2
:103B600020460D4B40F8083F0CF0B0FDF5E7F1E7BB
:103B700040462CF0F1F8064B33602DF0FBFBFAE7E2
:103B800006F50053C3F85C033046BDE8F08100BF82
:103B9000F01F0408C86503084402040808B50F4B69
:103BA0001B68BFF35B8F13F0010F01D00C4808BDF9
:103BB0000A482DF032FF0028F8D00948FFF76AFFC5
:103BC000084A094906482DF05AFB04482DF034FFF5
:103BD000ECE702482DF02DFF2DF0CCFBA03A0020A1
:103BE000A43A00204401002051FE020810B40D4BFD
:103BF0001C21198059804FF0080C83F804C00A4A30
:103C00009A600A48D860D0F85C431C619982D982D6
:103C100083F818C002F54472DA6118625C625DF8DC
:103C2000044B7047045E00207C660308A0F3030881
:103C300008B50321C06C09F0ABFB4FF0000008BDD4
:103C400079B908B590F8313083F0010380F831304C
:103C50001BB104490AF084FB08BD03490AF080FB4C
:103C6000FAE77047045E0020185E0020114B9B6A43
:103C7000BFF35B8F13F0010F01D00F48704710B5F1
:103C80000E482DF0CAFE08B90B4810BD0A482CF0AA
:103C900029FA084C0A4A0B4904F12C002DF0EFFADE
:103CA00004F128002DF0C8FEEEE704482DF0C1FE17
:103CB0002DF060FB045E0020305E00202C5E0020B2
:103CC000440100207500030838B505460160002353
:103CD00003714371837109F021F9A8602FF0CAF9CB
:103CE0000D4C84FB0023A3EBE07303EB4303A0EB39
:103CF000430301332B712FF0BDF984FB0023A3EBA9
:103D0000E07303EB4303A0EB430301336B71012327
:103D1000AB71284638BD00BFABAAAA2A70B50646CB
:103D2000006803685B6B9847054630680368DB6A88
:103D30009847284400EBD0704510306803689B6BAF
:103D400098470446306803681B6B9847231803EBB9
:103D5000D3735B1096F90420551905D41146B06849
:103D6000D0F88800854203DBD2B252423271002182
:103D700096F905000246C31804D4B468D4F88C4000
:103D8000A34203DBC0B24042707100223068036876
:103D9000DC690123A04770BD38B504461D460D4BB4
:103DA0000AF0ACFA0C4B2360002384F8313084F81D
:103DB00031501DB101232374204638BD05492046EA
:103DC0000AF0CEFAF6E7054B236020460CF07EFCA5
:103DD0002DF0D0FA045E0020CC6C0308E8F2030852
:103DE00030B5ADF5177D054689AC0123002211469B
:103DF0002046FFF7D1FFEB6CD3F88810BDF93022D5
:103E0000891AD3F88C20BDF93232D21A02EBD27261
:103E100001EBD17100235210491020460CF07EFCBA
:103E20004FF4004120460CF021FC002302930123B3
:103E300001934FF0FF1300931E23962278217FA851
:103E40000BF08FFC28217FA80CF010FC00230293BC
:103E500001934FF47F0300931E237822962175A8C7
:103E60000BF07FFC322175A80CF000FC4FF47F436F
:103E7000019378230093602322222E216CA80BF05B
:103E80001FFC1E216CA80CF0F1FBBF4B01934C23CF
:103E900000936E2322222E2163A80BF011FC1E2119
:103EA00063A80CF0E3FB09F099FC01904FF0FF13BD
:103EB00000930A230022B54955A80BF010FF4621B4
:103EC00055A80CF0D3FB09F0C7FC0190AE4B009352
:103ED00014230022AD4947A80BF001FF502147A849
:103EE0000CF0C4FB09F032FD01904FF6FF73009314
:103EF0001E230022A54939A80BF0F1FE5A2139A84A
:103F00000CF0B4FB09F0A8FC02904FF0FF130193F2
:103F10004FF47F430093322300229C492BA80BF0DF
:103F200057FF64212BA80CF0A1FB09F0DBFB0190EB
:103F3000FF2300934623002294491DA80BF0CFFED7
:103F40006E211DA80CF092FB01230293FF23019325
:103F50000A23009364230022114611A80BF0B6FA3D
:103F60000A2111A80CF082FB012302934FF6FF7384
:103F700001930A2300931423462264210DEB0300CE
:103F80000BF0A4FA14210DEB01000CF06FFB0C20D8
:103F900008F033FE04467FA9FFF796FE7C4BDC67F2
:103FA0000C2008F02AFE044675A9FFF78DFE784B19
:103FB000C3F880400C2008F020FE04466CA9FFF7EF
:103FC00083FE734BC3F884400C2008F016FE0446B1
:103FD00063A9FFF779FE6E4BC3F888400C2008F008
:103FE0000CFE044655A9FFF76FFE694BC3F88C40E1
:103FF0000C2008F002FE044647A9FFF765FE644B5B
:10400000C3F890400C2008F0F8FD044639A9FFF7EA
:104010005BFE5F4BC3F894400C2008F0EEFD0446B5
:104020002BA9FFF751FE5A4BC3F898400C2008F01B
:10403000E4FD04461DA9FFF747FE554BC3F89C401D
:104040000C2008F0DAFD044611A9FFF73DFE504BA5
:10405000C3F8A0400C2008F0D0FD044605A9FFF7E6
:1040600033FE4B4BC3F8A44001E0C0B290B1E86C02
:104070004FF0FF3100F5C35014300DF09EFAF4E715
:1040800001340A2C08D8424B03EB8403D86FFFF7A6
:1040900045FEF5E70024F4E7E86C00F5C350143062
:1040A0000DF09EFAE86C00F5C15004300DF0E7FA0F
:1040B00001200DF031FBDAE70C2120462DF058F9F4
:1040C00005A8344B03600CF001FB11A8314B0360D1
:1040D0000CF0FCFA1DA8304B03600CF0F7FA2BA88B
:1040E0002D4B03600CF0F2FA39A82B4B03600CF057
:1040F000EDFA47A8284B03600CF0E8FA55A8264BC8
:1041000003600CF0E3FA254B639363A80CF0DEFA2E
:10411000224B6C936CA80CF0D9FA214B759375A8BF
:104120000CF0D4FA1E4B7F937FA80CF0CFFA1D4BF6
:1041300089931D4B899389A80CF0C8FA2DF01AF9C0
:104140000C2120462DF014F9BAE70C2120462DF061
:104150000FF9B5E70C2120462DF00AF9B0E70C2144
:1041600020462DF005F9ABE70C2120462DF000F993
:10417000A6E70C2120462DF0FBF8A1E70C212046F4
:104180002DF0F6F89CE700BF00FFFF008C1004083C
:10419000045E00208001040844020408D0000408E2
:1041A00078000408CC6C0308E8F203080C212046D0
:1041B0002DF0DEF884E70C2120462DF0D9F87FE7BA
:1041C0000C2120462DF0D4F87AE779E77DE781E7E6
:1041D00085E789E78DE791E795E799E79DE7A1E70F
:1041E000A5E708B5FFF702FD08BD00BF10B582B016
:1041F00004464FF4FA5026F073FFE06C03689B68A6
:10420000984700238DF80730E06C03681B690DF1B7
:1042100007019847C0B20028F6D04FF0000002B066
:1042200010BD70B504464FF00705C06C03681B6AEB
:10423000984740B3D4F82434002B48D194F8503038
:104240003F2B29D03F2B2ED004F150054FF4807224
:1042500004F5856128462FF098FFE66C28462AF081
:104260008FFA02463368DB6929463046984705468F
:1042700004F1500630462AF083FA02463146464899
:1042800020F076F9F8B1EDB2072D6AD0242D68D070
:104290004FF00005284670BD94F85423002AD1D170
:1042A0004FF00005E4E70DF051FAC4F8580300237D
:1042B00084F85433E06C0368DB69012204F1500197
:1042C00098470546D4E7344820F06CF9DBE72046F0
:1042D0002BF02AFB0028D6D094F85533002BD2D1EE
:1042E00094F8F13333B1D4F82434C4F86C334FF07C
:1042F0000005C8E704F595654FF0FF3128460CF03E
:1043000097FF0DF023FAC4F86003012384F85533B6
:10431000D4F82434C4F86C3328460CF0B1FF04F10F
:1043200050064FF4807204F5856130462FF02DFF62
:10433000E56C30462AF024FA02462B68DB693146E8
:1043400028469847054630462AF01AFA0246314672
:10435000114820F00DF9002895D10F4820F022F9DE
:1043600091E7D4F8243453B120462BF0DDFA30B96C
:10437000D4F82434C4F86C334FF000058AE70023E6
:10438000012204F2244120460CF073FE0546012070
:104390000DF0CBF97EE700BF24A80120104B1B686D
:1043A000BFF35B8F13F0010F01D00E48704710B5BB
:1043B0000B482DF032FB08B90A4810BD09482BF014
:1043C000CFFE074C084A0949201D2CF058FF204613
:1043D0002DF032FBF0E702482DF02BFB2CF0CAFF4A
:1043E000705F0020745F0020440100202901030851
:1043F00008B5C1640CF076FD08BDD0F810349942C0
:1044000000DB062101F5157100EB41000430704717
:1044100002290BD9D0F81034994209DA0339C9B20C
:1044200090F81404C84000F0010070470020704765
:10443000002070470A2900D9002101F5977100EB8F
:10444000810040687047572900D9582101F5A771AC
:1044500050F82100704770B52DED028BD0F8103464
:10446000994204DB00242046BDEC028B70BD04465B
:104470000D4600F595664FF0FF3130460CF0D8FE42
:1044800094F8E033FBB105F1DC0304EB830393ED17
:10449000018A05F1E20304EB8303D3ED017A38EEE0
:1044A000278A294620462BF04DFA07EE900AF8EEAF
:1044B000E77A67EE887AFDEEE77A17EE904A3046A3
:1044C0000CF0DEFECFE705F1DC0304EB830393ED94
:1044D000018A294620462BF035FA07EE900AF8EEBD
:1044E000E77A67EE887AFDEEE77A17EE904AE6E71C
:1044F00070B52DED028BD0F81034994204DB002406
:104500002046BDEC028B70BD04460D4600F5956655
:104510004FF0FF3130460CF08BFE94F8E033BBB126
:1045200005F1DC0304EB830393ED018A2946204661
:104530002BF008FA07EE900AF8EEE77A67EE887A31
:10454000FDEEE77A17EE904A30460CF099FED7E779
:1045500005F1DC0304EB830393ED018A05F1E2032B
:1045600004EB8303D3ED017A38EE678A29462046AF
:104570002BF0E8F907EE900AF8EEE77A67EE887A12
:10458000FDEEE77A17EE904ADEE770B52DED028B6F
:10459000D0F81034994204DB00242046BDEC028B95
:1045A00070BD04460D4600F595664FF0FF3130466C
:1045B0000CF03EFE94F8E033FBB105F1E80304EBA8
:1045C000830393ED018A05F1E20304EB8303D3ED4A
:1045D000017A38EE278A294620462BF0B3F907EEF8
:1045E000900AF8EEE77A67EE887AFDEEE77A17EE42
:1045F000904A30460CF044FECFE705F1E80304EBA7
:10460000830393ED018A294620462BF09BF907EEA0
:10461000900AF8EEE77A67EE887AFDEEE77A17EE11
:10462000904AE6E770B52DED028BD0F81034994230
:1046300004DB00242046BDEC028B70BD04460D4611
:1046400000F595664FF0FF3130460CF0F1FD94F81F
:10465000E033BBB105F1E80304EB830393ED018A7A
:10466000294620462BF06EF907EE900AF8EEE77A1D
:1046700067EE887AFDEEE77A17EE904A30460CF046
:10468000FFFDD7E705F1E80304EB830393ED018A0F
:1046900005F1E20304EB8303D3ED017A38EE678A78
:1046A000294620462BF04EF907EE900AF8EEE77AFD
:1046B00067EE887AFDEEE77A17EE904ADEE790F82B
:1046C00055331BB9D0F86C338B4205D0D0F86C331E
:1046D0008B4204D85520704790F8F103704754205E
:1046E000704710B50446FFF7EAFF38B9D4F86423E1
:1046F000D4F85C339A4204D2012002E0542801D05D
:10470000002010BDD4F86023D4F85C339A4201D362
:104710000020F6E70120F4E700B5A3B000230193E1
:104720008DF808108DF80930012201A90CF0A1FCC8
:1047300023B05DF804FB10B5044604F0A3FC037A33
:1047400093B900224FF400511F480EF084FE94F8F4
:10475000EC3323F0010384F8EC33012384F8523363
:10476000872384F8533310BD04F08CFC037A012BAB
:104770000FD194F85233002BE9D18B212046FFF75B
:10478000CBFF0CF0E3FFC4F85803002384F8543344
:10479000DDE704F077FC037A022BD8D100224FF436
:1047A000005109480EF057FE94F85233002BCED139
:1047B0008B212046FFF7B0FF0CF0C8FFC4F8580368
:1047C000002384F85433C2E70008024010B50446C1
:1047D00004F058FC037AD3B901224FF40051244865
:1047E0000EF039FE002384F8523394F852336BB93B
:1047F00084F85533D4F86823C4F86C2384F8F13373
:1048000094F8EC2363F3000284F8EC2310BD04F069
:1048100039FC037A012B0ED194F8523313B194F87A
:10482000E3331BB9002384F85233DEE78B212046A3
:10483000FFF772FFF6E704F025FC037A022B02D0A3
:1048400004F020FCD1E701224FF4005108480EF09B
:1048500002FE94F8523313B194F8E3331BB90023EA
:1048600084F85233C1E78B212046FFF755FFF6E766
:104870000008024038B5044602E001200CF055FF64
:1048800094F85433002BF8D0D4F85C533F212046E1
:10489000FFF742FF02E001200CF047FFD4F85C3341
:1048A000AB42F8D038BD30B583B00D461146069CFA
:1048B00083EAE370A0EBE37042F2107C64450FD012
:1048C000B4F57A7F1ED0642C2CD00A2C3AD0002B61
:1048D00048DB254B0090254A28462FF079FB0CE059
:1048E000002B0DDB204B90FBF4F204FB120401942F
:1048F00000921F4A28462FF06BFB284603B030BDBC
:104900001C4BF0E7002B0BDB174B90FBF4F204FB86
:10491000120401940092184A28462FF059FBECE744
:10492000144BF2E7002B0BDB0F4B90FBF4F204FB74
:10493000120401940092114A28462FF049FBDCE74B
:104940000C4BF2E7002B0BDB074B90FBF4F204FB64
:104950001204019400920A4A28462FF039FBCCE752
:10496000044BF2E7034BB5E70C0E0408D81004081B
:10497000A8100408841A0408B4100408C01004081D
:10498000CC1004082DE9F04182B00C461546089F72
:10499000099E9DF828800097FFF785FFB8F1000F6A
:1049A00012D0012F10DD204629F0EAFE431E03E05D
:1049B00000208CF80000013B33B104EB030CE05CF9
:1049C0003028F5D02E28F3D04EB1204629F0D8FE5D
:1049D0000096054B054A291A20442FF0F9FA204683
:1049E00002B0BDE8F08100BFE0100408E410040844
:1049F000F8B505460E463A2130462FF0A7FB30B3F6
:104A0000002300F8013B2EF0FFFAC7B2002401E0BA
:104A10000134E4B20A2C09D804F5977305EB83033B
:104A20005968304629F0A2FE0028F1D10A2C00D99D
:104A3000002495F87033A3420BD013B9012385F8F5
:104A40000E3485F8704385F871730120F8BD002796
:104A5000DCE795F87123BA42EFD10020F6E710B5F4
:104A60000C4610462EF0CDFA51EC100B29F03EFD0D
:104A700007EE900A94ED007AB4EE677AF1EE10FA40
:104A800014BF0120002001D0C4ED007A10BD10B584
:104A90000C4610462EF0B8FA03462268824214BF34
:104AA0000120002000D0236010BD70B506460C46E2
:104AB0003D2120462FF04AFB30B30546002305F880
:104AC000013B601C2EF0A0FA202813DC0A281BDB17
:104AD000A0F10A03162B17D8DFE803F017161627E4
:104AE0001616161616161616371616161616161645
:104AF00047576700B0F5BC7F06D196F814442846A6
:104B00002EF082FA844260D170BDD6F8184428464F
:104B10002EF07EFA8442F7D028462EF079FAC6F8B5
:104B20001804012386F80F34EEE796F81C44284653
:104B30002EF06AFA8442E7D028462EF065FA86F80D
:104B40001C04012386F80F34DEE7B6F81E4428461D
:104B50002EF05AFA8442D7D028462EF055FAA6F8FD
:104B60001E04012386F80F34CEE7B6F82044284609
:104B70002EF04EFA8442C7D028462EF049FAA6F805
:104B80002004012386F80F34BEE7B6F822442846F5
:104B90002EF03EFA8442B7D028462EF039FAA6F815
:104BA0002204012386F80F34AEE796F81D44284608
:104BB0002EF02AFA8442A7D028462EF025FA86F84D
:104BC0001D04012386F80F349EE728462EF01CFAB8
:104BD00086F81404012386F80F3495E72DE9F04197
:104BE00006460C4617460025A84607E02C2120461D
:104BF0002FF0ACFA044678B101340135D6F8103400
:104C0000AB4209DD224607EB85013046FFF727FF5F
:104C10000028EBD08046E9E74046BDE8F08110B5BA
:104C2000044600F56372FFF7D9FF94F8E83360F3A8
:104C3000C30384F8E83394F8E123DBB262F345134D
:104C400084F8E83310BD70B504460E462C2130467A
:104C50002FF07CFA0546002305F8013B324604F5A7
:104C600075712046FFF713FF28B194F8EA3343F03B
:104C7000010384F8EA332C2128462FF067FA064610
:104C8000002306F8013B2A4604F576712046FFF71B
:104C9000FEFE28B194F8EA3343F0020384F8EA33C5
:104CA000324604F581612046FFF7F1FE28B194F801
:104CB000EA3343F0040384F8EA3370BD70B5044668
:104CC0000E462C2130462FF041FA0546002305F808
:104CD000013B324604F577712046FFF7C0FE28B14C
:104CE00094F8E93343F0020384F8E9332C21284691
:104CF0002FF02CFA0646F0B1002306F8013B2A46B5
:104D000004F57F712046FFF7AAFE28B194F8E93335
:104D100043F0040384F8E93366B1324604F5806158
:104D20002046FFF79CFE28B194F8E93343F00403D2
:104D300084F8E93370BD04F5806300221A60DEE771
:104D400070B5044600F5A875C549284629F00EFD42
:104D500020B394F850313C2B2AD05B2B00F0B78164
:104D6000242B00F008820622BE4928462FF0FBF9CA
:104D7000002800F005820622BB4928462FF0F3F9EF
:104D8000A8B904F5AB702EF03FF984F8F00394F85D
:104D9000E93343F0080384F8E93308E00CF0D6FC6B
:104DA000C4F86403002384F8553384F8F13370BDEC
:104DB000012384F854330CF0C9FCC4F85C03AB49FC
:104DC00004F251102FF0F4F90546F8B101462046DF
:104DD000FFF70EFE28B194F8E83343F0020384F89D
:104DE000E83394F8F03363B194F87033052B08D0AE
:104DF000002284F8F02394F8E93362F3C30384F8C3
:104E0000E9339A4900202FF0D3F90546002610E037
:104E100004F55D72691D2046FFF7E0FE94F8E83363
:104E200060F3820384F8E833904900202FF0C0F942
:104E30000546002D00F0338105228D4928462FF0CC
:104E400092F968B994F8E033002BE1D1012384F89A
:104E5000E03394F8E83343F0080384F8E833D7E705
:104E60000522844928462FF07EF9C0B994F8E03332
:104E700043B1002384F8E03394F8E83343F00803A7
:104E800084F8E83304F55D72691D2046FFF7A6FE3D
:104E900094F8E83360F3820384F8E833C4E703222C
:104EA000754928462FF05FF908B304227349284654
:104EB0002FF059F900B30322714928462FF053F916
:104EC000002841D002226F4928462FF04CF90028D3
:104ED00044D1AB78312B14BF0023012384F8E43391
:104EE00094F8E93343F0200384F8E9339CE7E91CA4
:104EF0002046FFF7E3FE97E7291D2046FFF78FFEC8
:104F000092E701260133092B21D8E21892F8F20327
:104F1000DA1CA918AA5C904205D094F8E92342F063
:104F2000400284F8E923E218002082F8F2030A78AC
:104F30006AB13E2A0BD0E11881F8F223502AE0D062
:104F4000702ADFD10126DDE700231E46DBE70023C0
:104F500084F8FB3384F8E563012665E702224A49B9
:104F600028462FF000F948B30322484928462FF07D
:104F7000FAF8002800F08E800422454928462FF0D8
:104F8000F2F800287FF450AF94F8E3232B79312B0B
:104F900014BF002301239A4209D082F0010284F851
:104FA000E32394F8E83343F0010384F8E83394F8FA
:104FB000EC3343F0010384F8EC3335E7023500238A
:104FC00084F80D3484F80C3484F8043494F8E8330D
:104FD00043F0400384F8E83315F8013B002B3FF41D
:104FE00023AF433B102BF7D801A252F823F000BFA8
:104FF00053500008D94F0008D94F00083D50000811
:10500000D94F0008D94F0008D94F0008D94F0008E0
:10501000D94F0008D94F000835500008D94F000873
:10502000D94F0008D94F0008D94F0008D94F0008C0
:1050300045500008012384F80D34CDE7012384F89E
:105040000C34C9E7002384F80534012384F80434C0
:10505000C2E7012384F8053484F80434BCE700BFB8
:10506000EC1004084011040848110408F01004086A
:10507000F4100408FC1004080411040808110408C2
:105080001011040814110408181104081C11040854
:1050900020110408E91C2046FFF7D5FDC4E67EB9BF
:1050A00094F8F233002B14BF0122002294F8E93364
:1050B00062F3861384F8E93302D0002384F8F233D4
:1050C000002E7FF474AE002384F8E5336FE604F21B
:1050D00051150422324928462FF045F810B3042216
:1050E000304928462FF03FF850B304222E49284675
:1050F0002FF039F8054600287FF459AE04F2551612
:10510000324604F582612046FFF7C1FCD4F8103422
:10511000052B02DD0523C4F810343A2130462FF068
:1051200015F823E004F5697204F255112046FFF7E3
:1051300055FD94F8EA3360F3C30384F8EA33D4E707
:1051400004F56F7204F255112046FFF747FD94F8FD
:10515000EA3360F3041384F8EA33C6E743195A7854
:1051600005F5157304EB43031A710135D4F81034B7
:10517000AB42F3DC1BE629462046FFF796FC16E619
:1051800004F5AB702DF040FF84F8F10394F8E93397
:1051900043F0100384F8E933002384F8553306E61E
:1051A00028110408301104083811040870B582B0C1
:1051B000044600258DF8075004E00023A4F850337E
:1051C0001F2D32D9E06C03681B690DF10701984768
:1051D000C0B298BB9DF80730182BEED0B4F850231E
:1051E000B2F5FE7FE9D80A2B08D00D2B06D0511C52
:1051F000A4F85013224482F85031E1E71AB9002391
:10520000A4F85033DCE72244002382F8503104F53F
:1052100095664FF0FF3130460CF00AF82046FFF754
:105220008FFD30460CF02CF8E9E76A1C0A4B2B4442
:105230009DF8071083F8A01695B2C3E70DB902B028
:1052400070BD2A46054906481FF092F90028F6D19C
:1052500003481FF0A7F9F2E7705F002010660020F6
:1052600024A8012070B5044600F595664FF0FF3183
:1052700030460BF0DDFFD4F868536B1CC4F868337C
:1052800013B9AB1CC4F8683330460BF0F9FF28465D
:1052900070BD2DE9F041A2B006460D4690464FF094
:1052A0000D072AF041FB10B196F870331BB9384650
:1052B00022B0BDE8F0813046FFF7D4FF0190002313
:1052C0007F2B0BD8EC5C03F188020DEB020101F897
:1052D000804C0CB10133F3E74FF00007FBB2002B19
:1052E000E5D11A4601A930460BF0C3FE0746019BE3
:1052F000C8F80030DBE710B50446FFF757FF0CF0A5
:1053000025FAD4F85C33C01AB0F5967F05D900238E
:1053100084F87033012384F8543320462AF004FBC8
:1053200010B194F8703363B994F855334BB100233E
:1053300084F85533D4F86833C4F86C33562384F8B2
:10534000F13303F09FFE037A012B13D194F852330B
:10535000B3B920462AF0E8FA10B194F80E349BBB9A
:1053600020462AF0E1FA10B194F85433B3BB4FF061
:10537000000010BD03F086FE037A022BE9D1E5E7B9
:1053800020462AF0D1FA0028E3D194F8EC3313F048
:10539000010F07D10CF0DAF9D4F85833C01AB0F580
:1053A000967FD6D98B212046FFF7B6F90CF0CEF9BF
:1053B000C4F85803002284F8542394F8EC3362F3C1
:1053C000000384F8EC33C4E720462AF04DFF204662
:1053D0002AF058FF002384F80E34C1E70CF0B6F928
:1053E000D4F85833C01A6428C1D9E06C03681B6A2A
:1053F00098470028BBD00CF0A9F9C4F85803002343
:1054000084F85433E06C0368DB69012204F2533101
:1054100098473F2384F853330122054905481FF07C
:10542000A7F80028A3D103481FF0BCF89FE700BFEE
:105430005011040824A801202DE9F041AEB0044623
:105440000D469DF8D0804FF00300D4F810148D4223
:1054500002DB2EB0BDE8F08117461E4620462AF03A
:1054600063FA28B194F87033012B04D0032B02D0D7
:105470004FF00D00EDE72046FFF7F4FE0D902946B2
:1054800020462AF05FFA00903B46102205A92046EC
:10549000FFF709FA642300933346102209A9204636
:1054A000FFF701FA94F81C34DBB9104BB8F1000F88
:1054B00019D00F4A05F5157504EB4505043509A902
:1054C000039105A90291019500920A4A80210EA834
:1054D0002EF07EFD00231A460DA920460BF0C9FDD3
:1054E000B7E7054BE2E7054AE4E700BF54110408BB
:1054F0005C110408641104085811040860110408C0
:10550000F0B5ABB004460D464FF00300D4F81014CC
:105510008D4201DB2BB0F0BD17461E4620462AF017
:1055200003FA28B194F87033012B04D0032B02D076
:105530004FF00D00EEE72046FFF794FE0990294654
:1055400020462AF0FFF900903B46102205A920468C
:10555000FFF7A9F994F81C34ABB90C4B05F5157598
:1055600004EB45050435029605AA01920095084A08
:1055700080210AA82EF02CFD00231A4609A92046F6
:105580000BF077FDC6E7034BE8E700BF54110408B2
:1055900074110408581104082DE9F043BBB0044607
:1055A0000F4616461D469DF80C912AF0BDF928B10C
:1055B00094F87033012B06D0032B04D04FF00D006C
:1055C0003BB0BDE8F0832046FFF74CFE199094F8FD
:1055D0001C34DFF8C48008EB8303D3F8183200933F
:1055E0003B46102209A92046FFF75DF994F81C34C8
:1055F00008EB8303D3F818320093334610220DA929
:105600002046FFF750F994F81C3408EB8308D8F8CB
:10561000183200932B46102211A92046FFF743F9B8
:1056200064230093429B102215A92046FFF73BF903
:1056300094F81C3413BB134BB9F1000F20D0124A5D
:1056400004F2AC4104F2AE4004F5966515AE07963F
:1056500011AE069605950DAD0495039009A802902C
:1056600001910092094A80211AA82EF0B1FC002372
:105670001A4619A920460BF0FCFCA1E7044BDBE716
:10568000044ADDE7541104085C1104088C11040875
:105690005811040860110408546D03082DE9F047FF
:1056A000BAB004460D4616461F469DF80C819DF87B
:1056B0001091444BD3F8C0368B4215D0414BC3F800
:1056C000C056C3F8C46620462AF02EF938B194F8C3
:1056D0007033012B13D0032B11D0022B0FD04FF0BE
:1056E0000D003AB0BDE8F087364BD3F8C43693428C
:1056F000E4D1344BC3F8C016C3F8C426DEE7204615
:10570000FFF7B0FD199094F81C34DFF8D8A00AEB2D
:105710008303D3F8183200932B46102209A92046A0
:10572000FFF7C1F894F81C340AEB8303D3F818325E
:105730000093334610220DA92046FFF7B4F894F8E1
:105740001C340AEB830ADAF8183200933B46102225
:1057500011A92046FFF7A7F864230093429B10226B
:1057600015A92046FFF79FF894F81C3423BB164B6D
:10577000B9F1000F22D0154AB8F1000F20D014491A
:1057800004F2AC4004F2AE4515AE079611AE069693
:105790000DAE0596049509AD039502900191009216
:1057A0000C4A80211AA82EF013FC00231A4619A9CE
:1057B00020460BF05EFC94E7074BD9E7074ADBE78E
:1057C0000749DDE7705F0020541104085C110408EC
:1057D000A4110408AC11040858110408601104084D
:1057E000A8110408546D030830B5A3B004464FF067
:1057F0000300D4F81034994201DB23B030BD0D46CC
:1058000020462AF091F818B194F87033012B02D099
:105810004FF00D00F1E72046FFF724FD019005F55C
:10582000157304EB43030433054A802102A82EF0CC
:10583000CFFB00231A4601A920460BF01AFCDCE737
:10584000C811040870B5A8B004460D464FF0030017
:10585000D4F810148D4201DB28B070BD16462046E6
:105860002AF062F818B194F87033012B02D04FF08F
:105870000D00F1E72046FFF7F5FC0790294620468A
:105880002AF060F800903346102203A92046FFF763
:105890000AF894F81C34A3B90B4B05F5157204EB08
:1058A0004202043203A901910092084A802108A80B
:1058B0002EF08EFB00231A4607A920460BF0D9FBD9
:1058C000CAE7034BE9E700BF54110408D8110408E4
:1058D000581104082DE9F041AEB004460D469DF87C
:1058E000D4804FF00300D4F810148D4202DB2EB0A8
:1058F000BDE8F08117461E4620462AF015F818B17B
:1059000094F87033012B02D04FF00D00EFE72046E2
:10591000FFF7A8FC0D90294620462AF013F80090C6
:105920003B46102205A92046FEF7BDFF64230093E5
:105930003346102209A92046FEF7B5FFBEB9B8F1DB
:10594000000F3AD01F4B94F81C24002A37D11E496F
:1059500005F5157204EB4202043205A8029001928B
:1059600000911A4A80210EA82EF032FB17E0B8F100
:10597000000F1ED0134B94F81C24E2B9124905F510
:10598000157204EB4202043209A8039005A80290A4
:10599000019200910E4A80210EA82EF019FB0023DF
:1059A0001A460DA920460BF064FB0D9A349B1A6031
:1059B0009DE7084BDFE70849E1E7064BC3E70649E7
:1059C000C6E700BF5C11040854110408FC11040868
:1059D000EC11040860110408581104082DE9F04185
:1059E000AAB004460D469DF8C4804FF00300D4F8D9
:1059F00010148D4202DB2AB0BDE8F08117461E4626
:105A0000204629F091FF18B194F87033012B02D091
:105A10004FF00D00EFE72046FFF724FC09902946E0
:105A2000204629F08FFF00903B46102205A9204612
:105A3000FEF739FFB8F1000F13D194F81C34002B96
:105A40002DD1184B05F5157204EB42020432029673
:105A500005A901910092144A80210AA82EF0B8FAF3
:105A600011E094F81C34C3B90E4B05F5157204EB24
:105A700042020432029605A9019100920B4A80214C
:105A80000AA82EF0A5FA00231A4609A920460BF011
:105A9000F0FA099A309B1A60ADE7054BE5E7044B35
:105AA000D0E700BF541104081C12040808120408AF
:105AB00058110408F0B5ABB004460D464FF0030092
:105AC000D4F810148D4201DB2BB0F0BD17461E46F2
:105AD000204629F029FF18B194F87033012B02D029
