:020000040800F2
:1000000000000220E1EE020845A9020847A9020803
:1000100049A902084BA902084DA9020800000000E6
:100020000000000000000000000000002D6C02082D
:100030004FA9020800000000E96C020851A902085B
:1000400031EF020831EF020831EF020831EF020808
:1000500031EF020831EF020831EF020831EF0208F8
:1000600031EF020831EF020831EF020831EF0208E8
:1000700031EF020831EF020831EF020831EF0208D8
:1000800031EF020831EF020831EF020800000000F2
:1000900000000000000000000000000031EF020836
:1000A00031EF020831EF020831EF020831EF0208A8
:1000B00031EF020831EF020831EF020831EF020898
:1000C00031EF020831EF020831EF020831EF020888
:1000D00031EF020867A9020831EF020800000000B2
:1000E00031EF020831EF020831EF02080000000092
:1000F00000000000000000000000000031EF0208D6
:100100000000000075A9020831EF020831EF020873
:1001100000000000000000000000000000000000DF
:1001200031EF020831EF020885A9020895A90208FB
:1001300031EF020800000000000000000000000095
:10014000000000000000000000000000A5A9020857
:10015000B5A9020831EF0208C5A9020831EF02086B
:1001600031EF020831EF020800000000000000003B
:10017000000000000000000000000000000000007F
:100180000000000031EF0208000000000000000045
:0801900031EF020831EF020813
:1001A0002DE9F84F914CDFF89892C4F800904FF089
:1001B000010A84F804A000256571DFF88882C4F87C
:1001C0000080DFF884B2C4F808B01023E360884EE2
:1001D000884F3246394620462EF0ABFEC4F81090C8
:1001E00084F814A06575C4F81080834BA361C4F82B
:1001F0001CA03246394604F110002EF09AFEC4F8D5
:10020000209084F824A084F82550C4F82080C4F8F5
:1002100028B00823E3623246394604F120002EF06C
:1002200088FEC4F8309084F8345084F83550C4F80F
:100230003080714BA3634FF48063E36332463946E9
:1002400004F130002EF075FEC4F8409084F844505C
:1002500084F84550C4F84080674BA3640223E364EC
:100260003246394604F140002EF063FEC4F8509047
:1002700084F8545084F85550C4F85080C4F858B0ED
:10028000C4F85CA03246394604F150002EF051FE0D
:10029000C4F8609084F864A084F86550C4F8608065
:1002A000C4F868B04FF48073E3663246394604F10F
:1002B00060002EF03EFE514B23676423A4F8743097
:1002C000A4F876304E4B23674E4BA36704F1700BB6
:1002D00032464D4958462EF02CFE04F17C074B491E
:1002E00038462CF0EBF83246494938462EF021FECC
:1002F000484BC4F88C30484BC4F88C30474BC4F89A
:100300001031A4F814513246454904F18C002EF006
:1003100010FE444BC4F818310323C4F81C314FF4C9
:10032000F078C4F820814FF4A079C4F82491C4F87F
:100330002881C4F82C9184F830513B4BC4F8183113
:10034000C4F834B1C4F8384104F11003C4F83C31A6
:100350001033C4F840313246344904F58C702EF025
:10036000E8FD334BC4F8443184F8485184F84951CE
:10037000A4F84A51A4F84C512E4BC4F84431C4F8A7
:10038000507184F85451C4F85651C4F85A51C4F805
:100390005E5184F848A1A4F84A91A4F84C814FF02A
:1003A000030384F849313246234904F5A2702EF044
:1003B000C0FD4FF40043C4F864314023C4F86831F1
:1003C00084F86C51C4F87051C4F87471C4F8785151
:1003D00042200AF058F9C4F870013246174904F572
:1003E000B2702EF0A6FDBDE8F88F00BF1803002004
:1003F0004401002019C4020800040240A8E30308D5
:100400001CDD0308908F012021C30208548E0120B7
:100410007DC4020840E4030884DD03082491012020
:100420002DC402088CE4030854CA030841C402081E
:10043000DCE403081864030855C4020869C4020810
:100440006CE4030878DC03080000024070B5144C2B
:10045000236800255D62294620461BF013FF2946CC
:1004600020461AF0EDF80E4B1B681B6913F0020FC3
:10047000F9D000210A481AF0E3F80446084B1B683B
:100480001B6913F0020FF9D0054E002130461AF017
:10049000D7F80546002130461BF07AFF281B70BDB7
:1004A00094900120174B1B6813F4003FFAD0154AB3
:1004B000936823F0030343F001039360124B00227F
:1004C0001A66104B1B6813F0007FFAD10D4A53686F
:1004D00023F4800318435060536823F03F0319430B
:1004E0005160094B01221A66064B1B6813F0007F0E
:1004F000FAD0044A936823F0030343F002039360A5
:10050000704700BF003802400000474200B587B086
:1005100010210020FFF7C6FFFFF798FF144B1B6860
:1005200003EB4303134AA2FB0323B0EBD34F07D8DB
:1005300019214FF48000FFF7B5FF07B05DF804FB09
:100540006846002300930193029303930493059359
:1005500002230093084B049316F0B6F828B9074B12
:100560000122C3F83C2E0821E3E729F09DFEF6E7BF
:10057000DC00002083DE1B4300030800000047422C
:1005800010B510210020FFF78DFF002423460CE05A
:1005900081421ED91E2B1CD801330F490A6822F054
:1005A000F80242EAC3020A6001341E2C11D8FFF798
:1005B0004DFF094B1B68C3F3C403084A126808497E
:1005C000A1FB0212910CB0EB924FE1D90BB1013BB0
:1005D000E3E7184610BD00BF00380240DC000020F1
:1005E00083DE1B4310B582B0FFF7CAFF044616F046
:1005F000E5F90FF093FC114A136823F0F80343EA7E
:10060000C40313604FF0E02300221A615A619A611B
:100610000B4B0193019B596862B60A4B1A6822F092
:1006200003021A601A6842F001021A60019B1B68FB
:1006300083F30888884702B010BD00BF003802402D
:100640000000FF1F0038014038B5FFF75FFF254C61
:10065000236D1B6904F15000984794F85530003B16
:1006600018BF0123984234D005F08AFF1D4C04F5D1
:10067000B27105F0A5FF0AF093F904F5A27204F532
:100680008C710AF013F80EF0D8FF03681D6A04F1AC
:10069000600300221449A84705F0C1F9002213495C
:1006A00005F0E8F9236B1B6904F13000984794F8D2
:1006B0003530003B18BF012398420DD003F0BEF93E
:1006C0000B4903F0E5F900F0B5F803681B6898479B
:1006D00038BDFFF787FFC7E709F03AF903681B68E1
:1006E0009847F5E718030020DC9001204C9001208A
:1006F000A403002000BEFEE7704708B5FFF750FDD9
:1007000008BD00BF00F5005090F86C3113B94FF0F0
:10071000000070474FF00400704770B5064600F5C2
:100720000054D4F8640190F8701303F0D3F9014633
:10073000002206F628500DF04BF9D4F8640190F829
:10074000F11303F0D0F90146002206F556600DF0D2
:100750003FF9D4F8641191F8E923134623F04003DC
:1007600081F8E933C2F3801201F2F23106F69850B3
:100770000DF02EF9002511E005EBC504640104F528
:100780005D64344406F50053E9B2D3F8640103F024
:10079000FFF90146204601F0E0F90135052DEBD9BE
:1007A00006F50053D3F8643193F852336BB306F671
:1007B0003844012120460FF05DFB06F50053D3F8C5
:1007C000643193F8E333F3B14FF47F4120460FF0E7
:1007D00072FA06F50055D5F86431002483F80F4409
:1007E000D6F89030123306EB8306706803685B69B5
:1007F00014219847D5F85C0100F5C15004300EF083
:1008000080FC204670BDFF21E0E706F63844002159
:1008100020460FF02FFB06F50053D3F8643193F810
:10082000E33323B1FF2120460FF045FAD1E76FF003
:100830007F41F8E708B50F4B1B68BFF35B8F13F0E0
:10084000010F01D00C4808BD0A482EF040FF0028D7
:10085000F8D009482CF0F2FB084A094906482EF066
:1008600068FB04482EF042FFECE702482EF03BFF05
:100870002EF0DAFB940400209804002044010020AC
:1008800045CF02082DE9F04184B004460F46002907
:1008900060D000F50053D3F85C31D3F88830083BC2
:1008A000424D85FB0325A5EBE37504F5B1561836DB
:1008B00004F50053D3F85C31D3F88C800AF04CFD7A
:1008C0000368DB68984700EB4000A8EB00080AF0DB
:1008D00043FD0368DB68984700EB40000123029367
:1008E0000190009543460022314930460FF0AAF8A6
:1008F0002BF080FE014600231A4630460FF0C6FA60
:1009000030460FF083FA87BB04F5BD56183604F560
:100910000053D3F85C31D3F8882004F58054B4F93F
:1009200046360121029101930095B4F93E36521BDF
:100930001F4930460FF086F82BF05CFE014600237D
:100940001A4630460FF0A2FA30460FF05FFA04B0B4
:10095000BDE8F08100F50053D3F85C31D3F888503E
:1009600005EBD5756D10043D9FE704F5B7561836B5
:1009700004F58053B3F94026B3F9461601200290DE
:1009800001910095B3F93E360532094930460FF022
:1009900059F82BF02FFE014600231A4630460FF07F
:1009A00075FA30460FF032FAAEE700BF565555558E
:1009B0003CE8030808B500F50053D3F8643193F818
:1009C0007033022B06D0074900F5B15018300FF0F4
:1009D0002EF908BD044900F5B15018300FF027F981
:1009E000F7E700BF14E503080CE5030808B500F5B8
:1009F0000053D3F8643193F87033012B00D033B92E
:100A000029B100F5B15018300FF011F901E0FFF7EE
:100A1000D1FF08BD08B500F50053D3F8642192F862
:100A20007033052B09D00BB1092B18D10F4900F5F4
:100A3000BD5018300FF0FBF808BD92F8F1334F2B82
:100A400006D00B4900F5BD5018300FF0F0F8F3E771
:100A5000064900F5BD5018300FF0E9F8ECE70549FC
:100A600000F5BD5018300FF0E2F8E5E7BCEF0308E1
:100A700018E5030820E5030808B500F50053D3F88E
:100A8000643193F87033012B06D129B100F5BD50C4
:100A900018300FF0CCF801E0FFF7BCFF08BD38B507
:100AA000054600240F2C21D804F1120305EB830323
:100AB0005B688B4201D00134F4E7D5F890301233F3
:100AC00005EB8303586803681B699847C5F8904095
:100AD000214605F1940004F098FED5F890301233C9
:100AE00005EB830568680368DB68984738BD70B517
:100AF0008AB0044603A826F02CFB04F5B05518353F
:100B0000049B154A2021284630F086FF04F5AF5695
:100B10000122294630460CF05BFF04F50053D3F860
:100B20005C31D3F8882002EBD27204F58054B4F91A
:100B3000EC3503EBD3735C10C4EB62040AF0CEFB1C
:100B400001906FF07F4300931E23224629463046D2
:100B50000CF0B7FD0AB070BD28E5030810B50446D7
:100B6000943004F069FC04F6F8400DF0D0FA04F675
:100B700028500DF0CCFA04F556600DF0C8FA04F6D2
:100B800098500DF0C4FA04F638400DF0C0FA04F5A0
:100B9000B15018300DF0BBFA04F5BD5018300DF00F
:100BA000B6FA10BD10B504464FF4FA61943004F063
:100BB000EBFB4FF47A7104F6F8400DF099FA40F22D
:100BC000E93104F628500DF093FA40F2EA3104F5C9
:100BD00056600DF08DFA40F2EB3104F698500DF0AE
:100BE00087FA4FF47A7104F638400DF081FA6621E5
:100BF00004F5B15018300DF07BFA662104F5BD50B4
:100C000018300DF075FA10BD03464FF00200002BAE
:100C10003CD0F0B583B01E460B88ADF804309DF88B
:100C20000450E5B906F5B154183423685B692046D1
:100C30009847B0B123685B6C2046984788B19DF80F
:100C40000570394620460FF015F957B923685B6CDB
:100C50002046984728B120460FF01CF901E0012DED
:100C600005D0062D07D04FF0000003B0F0BD06F50B
:100C7000BD541834D9E79DF80530002BF3D0336804
:100C80009B6906F6384130469847ECE7704738B51F
:100C900004460D46D0F89030123300EB83035868B9
:100CA00003681B699847C4F89050294604F19400E2
:100CB00004F0ABFDD4F89030123304EB8304606889
:100CC0000368DB68984738BD70B504460D464FF0A1
:100CD000000600F638438B4214D004F19403AB4273
:100CE00021D0D4F89030123304EB830358680368A2
:100CF0009B69294698470646F6B2092E19D04FF04F
:100D0000000070BD90F8483C002BE6D000F5005381
:100D1000D3F8640190F8523313B903F05CF8EBE7B1
:100D200003F0A4F8E8E794F8C0102046FFF7AFFFFF
:100D3000E2E704F5B1531833AB421CD004F5BD53C0
:100D40001833AB42DBD104F50054D4F8640190F8B9
:100D50007033052B1FD00BB1092B30D1002380F845
:100D6000F13380F85533D0F86833C0F86C3318216C
:100D700003F022F8C3E704F50054D4F8640190F8B6
:100D80007033022B03D0812103F016F8B7E78221DC
:100D900003F012F8B3E790F8F1334F2B02D02BF0A9
:100DA00067FEACE7002380F8F13380F85533D0F8C4
:100DB0006833C0F86C33182102F0FEFF9FE7002370
:100DC00080F85533D0F86833C0F86C33192102F03D
:100DD000F3FF94E708B5D0F890100131D0F88C30CB
:100DE000B1FBF3F203FB1211C9B2FFF750FF08BDCC
:100DF00008B5D0F89010D0F88C3019440139B1FB07
:100E0000F3F203FB1211C9B2FFF741FF08BD2DE950
:100E1000F04383B0044600F19405284604F00CFB2F
:100E200004F50058D8F85C31D3F8883008220192D4
:100E30002827009700221146284604F0FAFC0026D5
:100E4000C4F88C600AF0CEF90346344A314628468D
:100E500004F063FC02F0F1F9D4F88C3003F10109DD
:100E6000C4F88C90123304EB830358600AF0BAF98B
:100E700003462B4A4946284604F04FFC06F0C2FAC6
:100E8000D4F88C3003F10109C4F88C90123304EBD0
:100E9000830358600AF0A6F90346224A49462846C9
:100EA00004F03BFC06F052FFD4F88C3003F101094A
:100EB000C4F88C90123304EB830358600AF092F963
:100EC0000346194A4946284604F027FC08F01EF953
:100ED000D4F88C305A1CC4F88C20123304EB8303F2
:100EE0005860D8F85C31D3F88830019200973246C8
:100EF0003146284604F09DFC284604F04BFD33465D
:100F000032462146284604F041FD4FF4FA61284656
:100F100004F03AFA03B0BDE8F08300BF40E50308EF
:100F20004CE5030858E5030868E503082DE9F04F90
:100F300087B0044605F024FB05F046FB8DF817004A
:100F400004F50057D7F85C5105F01AFBC168003969
:100F500018BF0121284609F0CAFB97F85811D7F8A5
:100F60005C0109F057FFD7F85C31AF4AC3F8802025
:100F7000D7F85C31D3F88C600AF0EEF90368DB68CF
:100F8000984700EB4000361A0AF02CF90368DB683A
:100F90009847A6EB4006023ED7F85C31D3F888505C
:100FA0000AF020F903689B68984700EB4000A5EB26
:100FB00040080AF017F90368DB689847400004F618
:100FC000F84900250295994B01930090434632461B
:100FD000294648460BF085FF4FF47A7148460DF0DC
:100FE00087F804F5C35808F11808914E02233246D9
:100FF0003146404605F0F8F82B462A462146404641
:1010000005F0EEF8D7F8640102F030FF04F6384935
:10101000D7F85C31D3F888700AF0E4F803689B686D
:10102000984700EB4000A7EB4007013FB4F9FEAC46
:101030000AF0D8F803689B68984700EB400040002E
:10104000B4F9063D012202920193009053463A46BC
:10105000784948460EF0F6FC2B462A46214648467B
:101060000EF014FF294648460EF004FF4FF47A7143
:1010700048460DF03DF8B4F9FE7CB4F9063D03EBAB
:10108000D37307EB63070AF0ADF80368DB68984792
:10109000A7EB50070AF0A6F804F6285A01906FF063
:1010A0007F4BCDF800B03B460422314650460CF051
:1010B00008FBB4F92C7D0AF095F803689B68984703
:1010C00000EB800007440AF047F903689B689847E3
:1010D0003B180493B4F9027D0AF03EF90368DB681B
:1010E00098473F1A023F0AF037F904F55669019014
:1010F000CDF800B03B46049A314648460CF0E1FA80
:10110000B4F93C7C0AF064F903689B68984700EBEB
:10111000800300EB43003B1A0493B4F9FEBC0AF0D1
:1011200057F904F698570190FF2300930BF104033D
:10113000049A314638460CF0C4FA40F2E931504680
:101140000CF0D6FF40F2EA3148460CF0D1FF40F2F5
:10115000EB3138460CF0CCFF29462046FFF792FBD6
:101160002046FFF754FE09E005EBC500400100F5FD
:101170005D600021204400F0F0FC0135052DF3D91D
:1011800004F5B05518350AF0A9F801906FF07F43C7
:10119000009300231A46294604F5AF500CF091FA4B
:1011A00000250CE005F1120304EB83035868B4F941
:1011B000FE2C03689B68283A282198470135D4F80B
:1011C0008C30AB42EED80023C4F890309DF8173035
:1011D000CBB9D4F8901004F1940004F016FBD4F8C5
:1011E0009030123304EB830358680368DB68984738
:1011F00004F50054D4F8640102F0EDFD4FF0000056
:1012000007B0BDE8F08F02230B4A0C49404604F0BA
:10121000EBFF42F21071404605F0ECF8D4F88C3048
:10122000013BC4F89030D4E740404000808080000B
:101230003CE8030874E5030878E50308C4E50308FF
:1012400038B503464FF00200B3B11C4691B103F12B
:10125000D405D3F82031626901FB0231284600F041
:101260007CFCA36933B1D4F8202153F8221028461E
:1012700000F0C1FC4FF0000038BD016042608360A7
:10128000704710B504464169012914BF00210121AE
:1012900000F5FA700EF0EEFD61690A2914BF002115
:1012A000012104F52D700EF0E5FD6169642914BF7C
:1012B0000021012104F55D700EF0DCFD10BD9446A7
:1012C0003AB90120704701FB00F001336345FAD3BE
:1012D000704708460123F9E72DE9F04F89B004462D
:1012E0000F4606921E4600238361D44B1B68BFF352
:1012F0005B8F13F0010F6CD004F19C0509F072FFB5
:1013000001906FF07F43009300231A463946284628
:101310000CF0D7F99DF8541028460CF01CFBC74F71
:101320007968B4F9A830C91A002308224908284668
:101330000CF036FF04F1200B594628460CF098FEBD
:10134000012128460CF0D4FE04F1D405B4F9A6809E
:101350007F68103F0AF000F80368DB68984700EBED
:101360008000149B02930D23019300903B4608F1EB
:1013700008020821284600F017FB4FF47F420421A1
:10138000284600F0DEFB09F0E7FF0146022228466E
:1013900000F031FD139A1299284600F025FC3146E1
:1013A000284600F0DAFB09F0D7FF0346052206992C
:1013B000284600F035FD002684F8E46059462846AA
:1013C0000CF056FE012128460CF092FECDF81CB020
:1013D0007DE09A482EF07BF900288DD0D4F8F035C6
:1013E000D3F88830954843602EF080F984E7B4F94B
:1013F000E070083F924BA3FB07377F0802F01EFB0B
:10140000054606F1440804EB081806F5867304EB5C
:101410008303D3F80490149A0A212046FFF74FFF64
:1014200000904B4610224146284602F08CFD404673
:101430002AF0A8FE069B834AC0F11001404430F018
:10144000EBFA4FEA460B06EB4605AD0105F5F875DC
:1014500025440435B4F9D8303A1D06FB0233059310
:10146000B4F9DEA009F078FF0368DB68984700EB69
:1014700080004FF00109CDF80890019000970AF123
:101480000803059A414628460EF0DCFA2BF0B2F824
:10149000014623466C4A28460EF0F8FC00212846F7
:1014A0000EF0E8FC032128460EF07DFC0BEB06074E
:1014B00004EB8717D7F8F4319B68079928469847BB
:1014C000D7F8F431DB684946284698474E44022E47
:1014D0008DD9DDF81CB0149B022B01D90223149383
:1014E000149A0A212046FFF7EAFE6061149B03EB81
:1014F0004300800100F5F8702044012104300EF013
:10150000B9FC04F14C084D4FD7F80490D4F8F431ED
:101510009B6B04F5FA709847012602960025019509
:10152000083000904B462A46294640460BF0D9FC2D
:10153000042140460BF034FD4FF6FF7140460BF09E
:101540005FFD294640460BF071FD594640460CF0C0
:101550008FFD294640460CF0CBFDD4F8F035D3F88A
:101560008C20B4F95A30D21A02EBD27200937B6805
:101570003241294658460CF0C8FCD4F8F025D2F880
:101580008830D2F88C2000922A46294604F17C004B
:101590000BF05FFD84F88C6004F58E68D4F8F035AC
:1015A000D3F88C7009F0D8FE0368DB68984700EB2D
:1015B00040003F1AD4F8F035D3F8882002EBD272FD
:1015C00042FA06F909F0C8FE0368DB68984700EBA9
:1015D000400002960190A9F1040200923B462A467F
:1015E0001A4940460EF02EFA2BF004F80146DFF8B7
:1015F000589023464A4640460EF048FC04F5A6673C
:10160000D4F8F035D3F88810B4F97C24B4F97E34DA
:10161000029601930092B4F976348A1A0C4938463E
:101620000EF010FA2AF0E6FF014623464A463846F5
:101630000EF02CFC284609B0BDE8F08F24260020CF
:10164000ABAAAAAAD0E50308AF170008D4E503089F
:10165000D8E503082DE9F04184B0054616461F463B
:10166000DDF828809DF82C300393002402947B1E23
:101670000193009443461E4AFFF72EFEAE61EF61D0
:1016800056F8281005F1D40000F0B5FA0FE004EB8D
:101690004400800100F5F870284404EB440305EB96
:1016A0008313D3F8F4311B69043098470134022CBA
:1016B000EDD905F14C06B5F9DE3001220292002485
:1016C000019408330093B5F958302246214630463C
:1016D0000BF007FC042130460BF062FC4FF6FF7163
:1016E00030460BF08DFC204604B0BDE8F08100BF11
:1016F0003CE8030830B583B004460D467C300CF05E
:10170000F7FC691C04F120000CF0F2FCA91C04F5A4
:101710008E600CF0EDFCE91C04F5A6600CF0E8FC12
:1017200004F07DF905462AF065FF014604F2F45302
:10173000009323460B4A284604F0FEF904F06FF9A3
:1017400005462AF057FF014604F20C6301937F23FC
:1017500000932346044A284604F0B6F94FF00000EF
:1017600003B030BD41120008AF17000810B50446A1
:1017700004F055F904F2F45104F0FBF904F04FF9C8
:1017800004F20C6104F0C0F904F120000CF0BFFC7D
:1017900004F17C000CF0BBFC04F58E600CF0B7FC8F
:1017A00004F5A6600CF0B3FC4FF0000010BD03463A
:1017B0004FF00200002B5ED070B582B01C4603F5DE
:1017C0008E658D4224D003F5A6668E4220D003F5A7
:1017D000FA738B4239D004F52D738B4238D004F55F
:1017E0005D738B4237D00B88ADF804309DF8043020
:1017F000002B33D0012B1AD19DF8055029463046D5
:101800000EF038FB9DB931462046FFF7D0FF0EE0C1
:101810008D4214BF0021012121742046FFF7A6FF4D
:10182000206858B12346A26861680DF031F920465E
:10183000FFF727FD4FF0000002B070BD6368002B7A
:10184000F5D02146A0689847F1E701236361EEE7F0
:101850000A236361EBE764236361E8E79DF80560B1
:10186000314628460EF006FB002EE0D129462046E0
:10187000FFF79DFFDBE770472DE9F04182B004469A
:101880000E4617461D46DDF82080B0F90630B0F947
:101890000400A8EB00000090EB1A04F150000BF0DC
:1018A00083F8B4F90630B4F90420A8EB02020092E0
:1018B000EB1A3A46314604F1B8000BF02DFE94F8CD
:1018C000183113B902B0BDE8F081B4F90630B4F9AB
:1018D0000420A8EB02020092EB1A3A46314604F1CA
:1018E00080000BF019FEEDE72DE9F04182B00446CF
:1018F0000E4617461D46DDF82080B0F90430B0F9D9
:101900000600A8EB00000090EB1A04F150000BF069
:10191000A4F8B4F90430B4F90620A8EB020200924E
:10192000EB1A3A46314604F1B8000BF06AFE94F81F
:10193000183113B902B0BDE8F081B4F90430B4F93C
:101940000620A8EB02020092EB1A3A46314604F157
:1019500080000BF056FEEDE710B5044605290DD8C2
:10196000DFE801F0030D0C0C03140E4950300BF0AE
:101970005DFB2368DB6C00212046984710BD006AA0
:1019800020B12346A26A616A0DF082F8002104F1B9
:1019900050000BF04BFB2368DB6C0021204698477E
:1019A000ECE700BF808080002DE9F04184B0044660
:1019B0001F460A9E0B9DDDF830804FF0FF33C36455
:1019C0008180C280CB199BB2013B038193199BB2EA
:1019D000013B43818781C681A5EB08038363C0F87F
:1019E0003C8001220264002105E0226C02EB8202AD
:1019F0005200226401318845F7DCB8F1000F14D0A1
:101A0000CDF80080394A102104F5847030F004F8D4
:101A1000B8F1000F00D0013504F1F00840462AF07B
:101A2000B1FBA84213D000220BE0314A102104F58B
:101A300084702FF0F1FFEBE70021A31883F8F0107A
:101A40000132172A03D89542F6D92021F5E7012360
:101A500002930025019500963B462A46294604F14B
:101A600050000BF03EFA04F1B80709F075FC019044
:101A70006FF07F4300932B462A46414638460BF0D1
:101A800020FE94F83850E36B73B30122154453FAE7
:101A900085F5EDB20135EDB2B4F90C8038462BF086
:101AA00029FC00FB1581B4F9C630F61A06EBD67690
:101AB00000237210490804F1B8000CF071FB09F022
:101AC0004BFC01906FF07F43009300231A460949B5
:101AD00004F180000BF0F5FD2368DB6C002120464B
:101AE000984704B0BDE8F0810022CFE7E0E50308A5
:101AF000F4E503083CE80308C36F994200D170473E
:101B000010B5044650300BF04BFA2368DB6C002113
:101B10002046984710BD10B5044601634263036F29
:101B200090F82C0000B11146994200D110BD04F18B
:101B300050000BF065FA2368DB6C002120469847C3
:101B4000F4E738B504461546FFF7D6FF4FF47F4259
:101B500029462046FFF7DFFF38BD10B582B00446A6
:101B6000426C8A4200DC0A46A36C934200DB1346B7
:101B7000E26C9A4236D0E364E26B8AB9009304F5D2
:101B80008473182204F1F00104F1B8000BF053FF44
:101B90002368DB6C002120469847012002B010BD6D
:101BA000216C93FBF1F201FB1233002BB8BF5B42B7
:101BB0000193009204F58473182204F1F00104F1FA
:101BC000B8000BF038FFE36C002BE1DA226C93FBDA
:101BD000F2F3002BDCD1A36B023B23442D2283F8CC
:101BE000F020D5E70020D9E708B541648264C16CD4
:101BF000FFF7B3FF08BD30B583B0044600F1B80568
:101C000000910D4B182200F1F00128460BF013FF54
:101C1000B4F90C10B4F9C430C91AB4F90E20B4F9EF
:101C2000C630D21A02EBD27200235210490828465D
:101C30000CF0B6FA03B030BDFCE50308F8B5044675
:101C4000836BC56B6DB101210B441D4494F81831B1
:101C5000013B042B00F2B480DFE803F03832056367
:101C60008B000021F0E7B4F90C6004F1B8073846A6
:101C70002BF040FB94F8E43000FB03F303FB156109
:101C8000B4F98C30C91A0239B4F90E20B4F9C6304F
:101C9000D21A02EBD27200235210490838460CF0D7
:101CA0007FFAB4F9C060B4F9C27004F18005284627
:101CB0002BF029FB00233A1AB11C28460CF070FACD
:101CC0002368DB6C002120469847F8BDB4F90C105E
:101CD000B4F98C30C91AB4F90E20B4F9C630D21A4E
:101CE000B4F98E30D21A02EBD27200235210490896
:101CF00004F180000CF054FAB4F90C6004F1B80758
:101D000038462BF0F7FA94F8E43000FB03F303FBBA
:101D100015610023B4F98A20490838460CF040FACE
:101D2000CEE7B4F90C6004F1B80738462BF0E2FABC
:101D300094F8E43000FB03F303FB1561B4F90E20C3
:101D4000B4F9C630D21A02EBD272002352104908FD
:101D500038460CF025FAB4F90C10B4F98C30C91AD5
:101D60000023B4F9C220490804F180000CF018FAED
:101D7000A6E7B4F90C6004F1B80738462BF0BAFABC
:101D800094F8E43000FB03F303FB1561B4F90E2073
:101D9000B4F9C630D21A02EBD272002352104908AD
:101DA00038460CF0FDF9B4F9C000B4F98C100023EA
:101DB000B4F9C220411A04F180000CF0F1F97FE778
:101DC000B4F90C6004F1B80738462BF093FA94F894
:101DD000E43000FB03F303FB1561B4F90E20B4F902
:101DE000C630D21A02EBD27200235210490838468C
:101DF0000CF0D6F964E770B50446154600F1B80654
:101E000030460BF068FDE9B230460BF0A4FD2046E9
:101E1000FFF714FF2368DB6C00212046984770BD54
:101E200070B504460D4680F8182100F18006194669
:101E300030460BF050FD0022294630460BF0C8FD1D
:101E40002046FFF7FBFE2368DB6C00212046984705
:101E500070BD90F82C308B4210D010B5044680F83D
:101E60002C10503041B1616B0BF0CAF82368DB6C69
:101E700000212046984710BD216BF5E770470162AD
:101E800042628362704700BF02464FF00200134671
:101E900052B192F83420052A04D803EB82035A6821
:101EA000114459604FF00000704770B5054603F0CB
:101EB000B6FD05F5BC51043103F05BFE05F580531A
:101EC000D3F87807FFF752FC05F5885004300CF082
:101ED0001EF905F58E5004300CF019F905F59450F3
:101EE00004300CF014F905F595501C300CF00FF986
:101EF000002427E004EBC400400100F5C47028442E
:101F000004EBC40305EB4313D3F88C311B69043095
:101F10009847661CC6EBC60005EBC00043681B690A
:101F20000430984704EB4400800100F64800284440
:101F300004EB440405EB8414D4F84C381B690430DA
:101F400098473446052CD5D900240FE004EB440013
:101F5000800100F55C60284404EB440305EB831327
:101F6000D3F8C43D1B69043098470134032CEDD9E4
:101F700005F6CC400CF0CBF805F68C500CF0C7F809
:101F800005F5975014300CF0C2F805F59D5014304B
:101F90000CF0BDF805F5A35014300CF0B8F805F5B9
:101FA000A95014300CF0B3F805F5AF5018300CF010
:101FB000AEF805F5B55018300CF0A9F8FEF73AFC6C
:101FC000FEF7F0FD4FF0000070BD2DE9F04F83B03B
:101FD000064600252F4600F58058D8F8800790F86F
:101FE000701301F077FD014606F5945B0BF1040BCD
:101FF0002A4658460BF0ECFCD8F8800790F8F1130D
:1020000001F071FD014606F5955A0AF11C0A2A46AF
:1020100050460BF0DDFCB8F90C9109F10409B8F950
:10202000C841043CA4EB0904B8F99012611A01EB11
:10203000D1712B46B8F98A2209EB610158460CF0A0
:10204000AFF8B8F9C832E41A04EBD4742B46B8F9E7
:10205000C22209EB640150460CF0A2F810E09D4248
:1020600018D205EBC504640104F5C4743444043487
:10207000E9B201F08DFD01462046FFF76EFD013506
:1020800006F58053D3F88007D0F81034052BE6D935
:102090000623E4E70024052C51D806EB84035D6891
:1020A0000DB90134F7E7B26B02FB05F596F8341071
:1020B00001F0FEFCF0B1904BA21D06EB82025268CB
:1020C000002A1ADB002A1EDD06EB84025268002A71
:1020D00019DD03F0A4FC026F132A00D81422B36B9D
:1020E00002FB03F3C3EB03139B00844AA2FB03230D
:1020F000DB0813E04EF66023DEE706EB8401496857
:102100000029DFDAE5E706EB84025268002A40F393
:1021100092800121A21D06EB8202516006F58050DB
:102120004FF00008CDF800802A46E1B2D0F88007D1
:1021300002F0D2FC074606EB8404C4F8048006F5DE
:10214000975808F1140806F58053D3F8803793F8B0
:102150000C34002B72D04FF47F4140460DF0ABFDA4
:1021600006F59D55143506F58053D3F8803793F85E
:102170000D34002B65D04FF47F4128460DF09BFDB8
:1021800006F5A350143006F5805393F8F435002B70
:102190005AD0FF210DF08FFD06F58053D3F880371C
:1021A00093F85223002A54D006F5A950143093F81E
:1021B000E333002B4BD04FF47F410DF07CFD06F54F
:1021C000AF50183006F58053D3F8803793F870334A
:1021D000022B4BD04A490DF02AFD06F58053D3F867
:1021E000802792F87033052B42D00BB1092B4CD1CC
:1021F000444906F5B55018300DF019FD06F5805329
:10220000D3F880072BF098F848B106F58053D3F83F
:10221000803793F87033012B3ED0032B3CD006F56A
:102220008053D3F87807FFF7A1FA06F6CC400DF0FB
:1022300006FE002453E04FF0FF316BE76FF07F4163
:102240008BE76FF07F4198E76FF07F41A2E7FF21B6
:10225000B3E706F5A950143093F8E3331BB1FF211F
:102260000DF029FDABE76FF07F41F9E72649B2E7B2
:1022700006F5B550183092F8F1334F2B03D02349AF
:102280000DF0D5FCBAE71F49FAE7214906F5B5502C
:1022900018300DF0CCFCB1E706F6CC400DF0B6FDE1
:1022A000002409E004EB4400800100F648003044BB
:1022B00004300DF0ABFD0134052CF3D940460DF090
:1022C000A5FD28460DF0A2FD11E004EB44008001BD
:1022D00000F64800304404300DF0B1FD0134052C07
:1022E000F3D940460DF0ABFD28460DF0A8FD384669
:1022F00003B0BDE8F08F00BF80F52000CDCCCCCC82
:1023000008E603080CE6030800E6030814E60308E1
:102310001CE603082DE9F04F8DB0824600F580538E
:10232000D3F87C37D3F888200692D3F88C4009F094
:1023300013F80368DB68984700EB80020592C2EB54
:10234000C2032433E31A03EBD37359100A9102EB4F
:10235000630B0BF10C0309934FF00009CDF82CB07F
:10236000E7E0994580F0F080059B0433099909FB6B
:10237000031107914FEAC90509EBC904640104F58B
:10238000C47454440434069FA7F10806B6005FFAEB
:1023900089FB59462AF0C0FFA04981FB062381FB37
:1023A0000721029008220192059A0092A3EBE6739E
:1023B000079A0697A1EBE7712046FFF7F5FAFF228F
:1023C00004212046FFF7BDFB08F0C6FF01460222AC
:1023D0002046FFF710FD00212046FFF7BEFB0AF55F
:1023E00080585946D8F880072AF0C4FF064608F0FE
:1023F000B3FF0346032231462046FFF711FD2AF0C2
:10240000F9F8014600231A462046FFF738FD4D44EF
:102410000AEB4515D5F88C319B6C01212046984775
:1024200009F10106F0000490C6EBC6070AEBC707E6
:1024300004375946D8F8800701F02FFB804608F092
:10244000D1FE01906FF07F43009300231A4641466E
:1024500038460BF036F9022138460BF07CFA049826
:10246000871B0AEBC7070437831B0AEBC3035B68B0
:10247000DB690893D5F88C31DB6A2046984700EB7E
:10248000D0704FEA600B0498831B0AEBC3035B68B0
:10249000DB6B3846984700EBD070ABEB600BD5F8A0
:1024A0008C311B6B204698478046D5F88C311B6CCD
:1024B0002046984700EBD07008EB60080498831B17
:1024C0000AEBC3035B681B6C3846984700EBD0707F
:1024D0000023A8EB600259463846089FB84709EB2D
:1024E0004907BF0107F6480757440437D5F88C3130
:1024F0005B6B204698478046D5F88C315B6B204655
:1025000098470699081A0123029305990191083802
:102510000090079B08F10402414938460DF092FAF9
:102520002AF068F8014600231A4638460DF0AEFC42
:10253000B1460AF58053D3F88007D0F81034052B44
:102540007FF60FAF06230CE7DDF82CB00AF6CC457A
:102550000AF5C678DAF88C311B6B40469847064678
:10256000DAF88C31DB6A404698470446DAF88C3159
:102570001B6C404698472B4F012302930190083C67
:10258000009433460422394628460DF05BFA2AF0BF
:1025900031F8014600231A4628460DF077FCDAF898
:1025A0008C31DB6A404698470446DAF88C311B6B65
:1025B00040469847054608F0CFFE01906FF07F43F4
:1025C000009305F1080304F1080239460AF68C501D
:1025D0000BF077F8069BA3F11406B6080AF58053B2
:1025E000D3F88037D3F81034052B00D90623013BEC
:1025F00003EBC300400100F5C470504403EBC30378
:102600000AEB4313D3F88C319B6B0430984700F1ED
:1026100008070025B946059F36E000BFABAAAA2AE5
:1026200024E603083CE8030805EB4504A40104F58F
:102630005C645444043405EB4501890001F586517E
:102640005144321D05FB02F20123029301970096CB
:102650004B460432043120460DF0F4F929F0CAFF4C
:10266000014600231A4620460DF010FC03212046A7
:102670000DF099FB002120460DF0FCFB6FF07F412F
:1026800020460DF018FB0135032DCDD901210AF5A7
:10269000805004300DF0EEFBDAF88C315B6B404675
:1026A0009847069B1D1AA5F108080AF588570437B4
:1026B00001240294059B0193CDF80080DDF8289059
:1026C0004B460422804938460DF0BCF929F092FFB0
:1026D000014600231A4638460DF0D8FB0AF58E57FE
:1026E0000437069A043A029405990191CDF80080C6
:1026F0004B46A2EB0802754938460DF0A3F929F0C4
:1027000079FF014600231A4638460DF0BFFB08F05A
:1027100069FD0368DB6898470599A1EB000809EBA0
:10272000580808F05FFD01906FF07F47009743461F
:102730002A1D67490AF5945004300AF0C2FF08F0D8
:1027400051FD03689B68984700EB8000054408F042
:1027500003FE03689B6898470544043508F0FCFDB8
:102760000368DB689847ABEB0003A3F1020808F0AD
:10277000F3FD0190009743462A4656490AF59550C5
:102780001C300AF09EFFDAF8C43D9B6B0AF6C45079
:102790009847051D0AF5975714370294059901913A
:1027A00000962B4604224C4938460DF04BF929F08F
:1027B00021FF014600231A4638460DF067FB0AF553
:1027C0009D57143702940599019100962B4606F106
:1027D0000802424938460DF035F929F00BFF014651
:1027E00000231A4638460DF051FB0AF5A35714375B
:1027F000B21D02940599019100962B46A2403849DA
:1028000038460DF01FF929F0F5FE014600231A465F
:1028100038460DF03BFB0AF5A9571437321D02EB81
:1028200042020294059B019300962B4604322D49E7
:1028300038460DF007F929F0DDFE014600231A465F
:1028400038460DF023FB0236A640059B1D442F1D84
:102850000AF5AF5518350294019300963B460422C1
:10286000214928460DF0EEF808F0BCFC0146284648
:102870000DF033FA29F0BEFE014600231A46284621
:102880000DF004FB0AF5B55518350294059B01932C
:1028900000963B4606F10802144928460DF0D2F88E
:1028A00008F0A0FC014628460DF017FA29F0A2FE18
:1028B000014600231A4628460DF0E8FA4FF00000C2
:1028C0000DB0BDE8F08F00BF28E603082CE6030832
:1028D00030E603083CE8030838E603083CE6030852
:1028E00044E6030874E5030808E603081CE6030849
:1028F00070B50646002510E005EB4504A40104F57B
:102900005C6434440434002120460DF0B3FA6FF0C7
:102910007F4120460DF0CFF90135032DECD970BD74
:102920002DE9F04F85B0064600251BE005EB450379
:1029300006EB83030B440A21995405EB4500800103
:1029400000F55C60304405EB450406EB8414D4F8D4
:10295000C43DDB6864210430984794F8F83D002BAF
:1029600040D10135032D4FD805EB45039B0003F5FE
:102970008653334403F1040800245C609C60DC60EF
:10298000234B03EB8503D3F8249005F23C4306EB7D
:102990008303C3F8049006F5805BDBF880A721462B
:1029A00050462AF0D7FC07462146DBF880072AF07C
:1029B000E1FC0294019000974B460C2241465046A0
:1029C00001F030FB21460B29B7D805EB450306EB98
:1029D00083030B4441F2C4029B5C202BA6D001313F
:1029E000C9B2F0E705EB4500800100F55C603044BA
:1029F0004FF47F4104300DF05EF905F23C4306EBE5
:102A000083035B68B363ACE705B0BDE8F08F00BF3C
:102A1000C43F030870B582B00546FDF70BFFFEF713
:102A20009DF8642105F5885004300BF061FB6421AA
:102A300005F58E5004300BF05BFB652105F59450D5
:102A400004300BF055FB652105F595501C300BF05B
:102A50004FFB2846FFF764FF00242CE09C4234D251
:102A600004EBC400400100F5C470284404EBC40327
:102A700005EB4313D3F88C31DB68642104309847AD
:102A8000661CC6EBC60005EBC0004368DB6864212A
:102A90000430984704EB4400800100F648002844C5
:102AA00004EB440405EB8414D4F84C38DB6864214F
:102AB00004309847344605F58053D3F88037D3F86F
:102AC0001034052BCAD90623C8E7062385F834300D
:102AD00000240AE004EBC400400100F5C47028445F
:102AE00000210430FFF7B5F90134052CF2D9642137
:102AF00005F5975014300BF0FBFA642105F59D5055
:102B000014300BF0F5FA05F5A35414341A49204695
:102B10000DF08DF86FF07F4120460DF0CCF805F5F3
:102B20008053002683F8F465642120460BF0E0FA18
:102B3000642105F5A95014300BF0DAFA642105F58B
:102B4000AF5018300BF0D4FA642105F5B5501830A9
:102B50000BF0CEFA02F063FF044629F04BFD01466C
:102B600005F5BC53043300932B46044A204602F07B
:102B7000E3FF304602B070BD44E60308891E00083A
:102B80002DE9F04F89B000F5885304338B423ED0D5
:102B900004460D4600F58E5304338B4240D000F5B9
:102BA000A95314338B4240D000F5AF5318338B42F6
:102BB00048D000F5B55318338B4253D000F5A353DA
:102BC00014338B4200F0858000F58053D3F87837BA
:102BD0008B4200F0D28000F5975314338B4200F003
:102BE000DA8000F59D5314338B4200F0DC8000271F
:102BF000032F00F2F28007EB4706B60106F55C668C
:102C000026440436AE4200F0D6800137F0E7FDF7E7
:102C100011FEFEF7EDF84FF0000009B0BDE8F08FAF
:102C2000FDF708FEFEF7D6F8F5E700F58054D4F876
:102C3000800790F8523313B101F018F9EBE701F077
:102C4000CAF8E8E700F58054D4F8800790F87033AC
:102C5000022B03D0812101F0AFF8DCE7822101F0E3
:102C6000ABF8D8E700F58054D4F8800790F87033BB
:102C7000052B0FD00BB1092B20D1002380F8F133A5
:102C800080F85533D0F86833C0F86C33182101F060
:102C900093F8C0E790F8F1334F2B02D029F0E8FE0B
:102CA000B9E7002380F8F13380F85533D0F8683362
:102CB000C0F86C33182101F07FF8ACE7002380F8EE
:102CC0005533D0F86833C0F86C33192101F074F82B
:102CD000A1E700F58053D3F8800790F8526366B3FC
:102CE0000023079304F5805393F8F43543BB04F5B0
:102CF0008055A021D5F8800701F05EF8A121D5F814
:102D0000800701F059F807AF3A467549D5F88007B2
:102D100001F00FFE3A467349D5F8800701F009FE2D
:102D2000012385F8F435002E7FF475AF04F5805447
:102D3000D4F8800701F09AF86DE701F04CF8CFE77E
:102D400004F5805507AF3A466749D5F8800701F08A
:102D5000F0FD3A466549D5F8800701F0EAFDA0216B
:102D6000D5F8800701F028F8A121D5F8800701F0F7
:102D700023F8002385F8F435D5E71A7C002A3FF4C0
:102D80004AAF00F58054D3F82021197BD4F880078E
:102D900002F0A8F83FE700F58054A021D4F880079E
:102DA00001F00AF837E700F58054A121D4F8800734
:102DB00001F002F82FE72046FFF79AFD0121304687
:102DC0000DF058F84FF47F4130460CF074FF07F2D5
:102DD0003C4304EB83035B68A363042F7FF41BAFC6
:102DE00000260BE0AF425AD006EB46039B0103F6E8
:102DF000480323440433AB426AD00136052E3FF624
:102E00000AAF06EBC6077F0107F5C47727440437EE
:102E1000AF42E7D106EBC60304EB431393F8B83196
:102E2000002BDFD004F58057D7F878975FFA86F843
:102E30004146D7F8800700F030FE0590D7F88007AC
:102E400090F81C242A4B53F822A006EBC60304EB8F
:102E50004313D3F8D8B141462AF05EFA0223039314
:102E60000290244B0193244B00935B4652460599F4
:102E70004846FEF731FAD7F8788729F0BBFB0146C0
:102E800000231A464046FEF7F8F9D7F87837DE6097
:102E900042F21071D7F87807FEF72CFCADE7002559
:102EA000052D0BD805EBC500400100F5C47020448A
:102EB00000210430FEF7CDFF0135F1E7012138464E
:102EC000FEF7C7FF84F834602046FFF729FDA2E62D
:102ED00004F58053F1B2D3F8800701F0D5FF8CE7F9
:102EE0004CE6030854E603085CE6030860E60308C2
:102EF0003C49030880969800806967FF2DE9F04FF0
:102F000087B00446BF4B03600246BF4B42F8043B08
:102F10000023436053609360D36013615361C361C6
:102F2000036243628362C3620363062380F8343022
:102F30000123836300F13C0300931E46052501E055
:102F4000013D3836002D03DB304629F097FBF7E7CB
:102F500004F5C67301931E46052502E0013D06F502
:102F60009076002D03DB304629F0EAFBF6E704F605
:102F70004C0302931E46052501E0013DC036002D9D
:102F800003DB304629F0AEFBF7E704F6CC430493AD
:102F9000184629F0A7FB04F68C5029F06FFB04F6C5
:102FA000C45303931E46032501E0013DC036002DA6
:102FB00003DB304629F096FBF7E704F58055302215
:102FC000002105F1C4002EF0DDFD0023C5F8F4302A
:102FD000C5F8F830C5F8FC30C5F8003104F5885361
:102FE00004330593184629F07DFB04F58E5504350E
:102FF000284629F077FB04F59450043029F03EFB75
:1030000004F595501C3029F039FB04F59756143619
:10301000304629F067FB04F59D571437384629F0F0
:1030200061FB04F5A35808F11408404629F05AFB47
:1030300004F5A95909F11409484629F053FB04F590
:103040008053002283F8F42504F5AF5A0AF1180AD8
:10305000504629F047FB04F5B55B0BF1180B5846B9
:1030600029F040FBFDF7E6FB00F5D950143004F5DC
:103070008053C3F8780707F093FC04F58053C3F836
:103080007C0700F0DBFCC3E0009B002B00F0B68067
:10309000C5F105053823009A03FB0525009B9D42D9
:1030A00000F0AC80594B45F8383D28460BF050F8FD
:1030B000F4E7019B002B00F09580C5F105054FF466
:1030C0009073019A03FB0525019B9D4200F08A80C5
:1030D000A5F59075284629F0E1FCF5E7029B002B49
:1030E00075D0C5F10505C023029A03FB0525029B97
:1030F0009D426CD0C03D284629F092FBF7E7039B28
:10310000002B4ED0C5F10305C023039A03FB052510
:10311000039B9D4245D0C03D284629F081FBF7E73F
:10312000584629F07DFB504629F07AFB484629F0A5
:1031300077FB404629F074FB384629F071FB304696
:1031400029F06EFB04F58053304AC3F8BC2204F525
:1031500095501C300AF0FCFF04F580532B4AC3F84D
:10316000842204F5945004300AF0F2FF284629F036
:1031700057FB059829F054FB04F586550435039B4D
:103180009D420ED0C03D284629F04AFBF7E7CAE72A
:10319000CCE7CEE7D0E7D2E7D4E7DDE7E6E7E8E73C
:1031A000EAE71A4BC4F88C3D04F68C500AF0D0FFC5
:1031B000049829F035FB04F6CC45029B9D4206D0CD
:1031C000C03D284629F02CFBF7E7F1E7F3E704F6CA
:1031D0004C05019B9D4205D0A5F59075284629F028
:1031E0005DFCF6E704F5C675009B9D4206D0074BD3
:1031F00045F8383D28460AF0ABFFF5E7014B236060
:103200002BF012FFA8F40308CC3F03082CDB0308C3
:1032100004F58053C3F880070022C3F88427C3F85D
:103220008827C3F88C2783F89027C3F89427C3F81E
:103230009827204607B0BDE8F08F08B50F4B1B68F4
:10324000BFF35B8F13F0010F01D00D4808BD0B4891
:103250002CF03DFA0028F8D00948FFF74FFE094A44
:10326000094907482BF065FE04482CF03FFAECE7CB
:1032700002482CF038FA2BF0D7FE00BF2C26002095
:10328000302600204401002095D3020810B40D4BD5
:103290001C21198059804FF0080C83F804C00A4A99
:1032A0009A600A48D860D0F85C431C619982D98240
:1032B00083F818C002F54472DA6118625C625DF846
:1032C000044B7047CC3D00201840030888CC03080D
:1032D00008B50321C06C07F09DFD4FF0000008BD4C
:1032E00079B908B590F8313083F0010380F83130B6
:1032F0001BB1044908F076FD08BD034908F072FDD2
:10330000FAE77047CC3D0020E03D0020114B9B6A5E
:10331000BFF35B8F13F0010F01D00F48704710B55A
:103320000E482CF0D4F908B90B4810BD0A482AF011
:10333000DFFA084C0A4A0B4904F12C002BF0F9FD86
:1033400004F128002CF0D2F9EEE704482CF0CBF978
:103350002BF06AFECC3D0020F83D0020F43D00201B
:103360004401002081D8020838B5054601600023D9
:1033700003714371837107F013FBA8602DF0A8FB64
:103380000D4C84FB0023A3EBE07303EB4303A0EBA2
:10339000430301332B712DF09BFB84FB0023A3EB34
:1033A000E07303EB4303A0EB430301336B71012391
:1033B000AB71284638BD00BFABAAAA2A70B5064635
:1033C000006803685B6B9847054630680368DB6AF2
:1033D0009847284400EBD0704510306803689B6B19
:1033E00098470446306803681B6B9847231803EB23
:1033F000D3735B1096F90420551905D41146B068B3
:10340000D0F88800854203DBD2B2524232710021EB
:1034100096F905000246C31804D4B468D4F88C4069
:10342000A34203DBC0B240427071002230680368DF
:10343000DC690123A04770BD38B504461D460D4B1D
:1034400008F09EFC0C4B2360002384F8313084F894
:1034500031501DB101232374204638BD0549204653
:1034600008F0C0FCF6E7054B236020460AF070FE2A
:103470002BF0DAFDCC3D002068460308D0CB0308D2
:1034800030B5ADF5177D054689AC01230022114604
:103490002046FFF7D1FFEB6CD3F88810BDF930223E
:1034A000891AD3F88C20BDF93232D21A02EBD272CB
:1034B00001EBD17100235210491020460AF070FE32
:1034C0004FF4004120460AF013FE0023029301232B
:1034D00001934FF0FF1300931E23962278217FA8BB
:1034E00009F081FE28217FA80AF002FE0023029342
:1034F00001934FF47F0300931E237822962175A831
:1035000009F071FE322175A80AF0F2FD4FF47F43F5
:10351000019378230093602322222E216CA809F0C6
:1035200011FE1E216CA80AF0E3FDBF4B01934C2352
:1035300000936E2322222E2163A809F003FE1E2190
:1035400063A80AF0D5FD07F08BFE01904FF0FF1342
:1035500000930A230022B54955A80AF002F9462132
:1035600055A80AF0C5FD07F0B9FE0190AE4B0093D7
:1035700014230022AD4947A80AF0F3F8502147A8C8
:103580000AF0B6FD07F024FF01904FF6FF73009399
:103590001E230022A54939A80AF0E3F85A2139A8C8
:1035A0000AF0A6FD07F09AFE02904FF0FF13019378
:1035B0004FF47F430093322300229C492BA80AF04A
:1035C00049F964212BA80AF093FD07F0CDFD019085
:1035D000FF2300934623002294491DA80AF0C1F856
:1035E0006E211DA80AF084FD01230293FF2301939D
:1035F0000A23009364230022114611A809F0A8FCB5
:103600000A2111A80AF074FD012302934FF6FF73FB
:1036100001930A2300931423462264210DEB030037
:1036200009F096FC14210DEB01000AF061FD0C205D
:1036300007F025F804467FA9FFF796FE7C4BDC6770
:103640000C2007F01CF8044675A9FFF78DFE784B97
:10365000C3F880400C2007F012F804466CA9FFF76D
:1036600083FE734BC3F884400C2007F008F804462F
:1036700063A9FFF779FE6E4BC3F888400C2006F073
:10368000FEFF044655A9FFF76FFE694BC3F88C4057
:103690000C2006F0F4FF044647A9FFF765FE644BD3
:1036A000C3F890400C2006F0EAFF044639A9FFF762
:1036B0005BFE5F4BC3F894400C2006F0E0FF04462D
:1036C0002BA9FFF751FE5A4BC3F898400C2006F087
:1036D000D6FF04461DA9FFF747FE554BC3F89C4093
:1036E0000C2006F0CCFF044611A9FFF73DFE504B1D
:1036F000C3F8A0400C2006F0C2FF044605A9FFF75E
:1037000033FE4B4BC3F8A44001E0C0B290B1E86C6B
:103710004FF0FF3100F5C35014300BF090FCF4E78C
:1037200001340A2C08D8424B03EB8403D86FFFF70F
:1037300045FEF5E70024F4E7E86C00F5C3501430CB
:103740000BF090FCE86C00F5C15004300BF0D9FC94
:1037500001200BF023FDDAE70C2120462BF062FC60
:1037600005A8344B03600AF0F3FC11A8314B036049
:103770000AF0EEFC1DA8304B03600AF0E9FC2BA810
:103780002D4B03600AF0E4FC39A82B4B03600AF0D0
:10379000DFFC47A8284B03600AF0DAFC55A8264B4B
:1037A00003600AF0D5FC254B639363A80AF0D0FCB4
:1037B000224B6C936CA80AF0CBFC214B759375A837
:1037C0000AF0C6FC1E4B7F937FA80AF0C1FC1D4B7C
:1037D00089931D4B899389A80AF0BAFC2BF024FC2D
:1037E0000C2120462BF01EFCBAE70C2120462BF0C2
:1037F00019FCB5E70C2120462BF014FCB0E70C2196
:1038000020462BF00FFCABE70C2120462BF00AFCE6
:10381000A6E70C2120462BF005FCA1E70C21204651
:103820002BF000FC9CE700BF00FFFF0074E60308DC
:10383000CC3D002068DA03082CDB0308B8D9030864
:1038400060D9030868460308D0CB03080C21204642
:103850002BF0E8FB84E70C2120462BF0E3FB7FE70D
:103860000C2120462BF0DEFB7AE779E77DE781E744
:1038700085E789E78DE791E795E799E79DE7A1E778
:10388000A5E708B5FFF702FD08BD00BF10B582B07F
:10389000044641F2883025F063F9E06C03689B68C8
:1038A000984700238DF80730E06C03681B690DF121
:1038B00007019847C0B20028F6D04FF0000002B0D0
:1038C00010BD70B504464FF00705C06C03681B6A55
:1038D000984740B3D4F82434002B48D194F85030A2
:1038E0003F2B29D03F2B2ED004F150054FF480728E
:1038F00004F5856128462EF06CF9E66C284628F020
:1039000041FC02463368DB69294630469847054644
:1039100004F15006304628F035FC02463146464850
:103920001EF068FBF8B1EDB2072D6AD0242D68D0E7
:103930004FF00005284670BD94F85423002AD1D1D9
:103940004FF00005E4E70BF043FCC4F858030023F4
:1039500084F85433E06C0368DB69012204F1500100
:1039600098470546D4E734481EF05EFBDBE7204667
:1039700029F0E2FC0028D6D094F85533002BD2D1A0
:1039800094F8F13333B1D4F82434C4F86C334FF0E5
:103990000005C8E704F595654FF0FF3128460BF0A8
:1039A00089F90BF015FCC4F86003012384F8553342
:1039B000D4F82434C4F86C3328460BF0A3F904F18E
:1039C00050064FF4807204F5856130462EF001F9FF
:1039D000E56C304628F0D6FB02462B68DB693146A1
:1039E000284698470546304628F0CCFB024631462B
:1039F00011481EF0FFFA002895D10F481EF014FB65
:103A000091E7D4F8243453B1204629F095FC30B91D
:103A1000D4F82434C4F86C334FF000058AE700234F
:103A2000012204F2244120460BF065F805460120EE
:103A30000BF0BDFB7EE700BF2C920120104B1B68F2
:103A4000BFF35B8F13F0010F01D00E48704710B524
:103A50000B482BF03CFE08B90A4810BD094829F074
:103A600085FF074C084A0949201D2BF062FA2046C1
:103A70002BF03CFEF0E702482BF035FE2BF0D4FA99
:103A8000383F00203C3F00204401002035D9020887
:103A900008B5C1640AF068FF08BDD0F81034994237
:103AA00000DB062101F5157100EB41000430704781
:103AB00002290BD9D0F81034994209DA0339C9B276
:103AC00090F81404C84000F00100704700207047CF
:103AD000002070470A2900D9002101F5977100EBF9
:103AE000810040687047572900D9582101F5A77116
:103AF00050F82100704770B52DED028BD0F81034CE
:103B0000994204DB00242046BDEC028B70BD0446C4
:103B10000D4600F595664FF0FF3130460BF0CAF8C0
:103B200094F8E033FBB105F1DC0304EB830393ED80
:103B3000018A05F1E20304EB8303D3ED017A38EE49
:103B4000278A2946204629F005FC07EE900AF8EE60
:103B5000E77A67EE887AFDEEE77A17EE904A30460C
:103B60000BF0D0F8CFE705F1DC0304EB830393ED12
:103B7000018A2946204629F0EDFB07EE900AF8EE6F
:103B8000E77A67EE887AFDEEE77A17EE904AE6E785
:103B900070B52DED028BD0F81034994204DB00246F
:103BA0002046BDEC028B70BD04460D4600F59566BF
:103BB0004FF0FF3130460BF07DF894F8E033BBB1A5
:103BC00005F1DC0304EB830393ED018A29462046CB
:103BD00029F0C0FB07EE900AF8EEE77A67EE887AE4
:103BE000FDEEE77A17EE904A30460BF08BF8D7E7F8
:103BF00005F1DC0304EB830393ED018A05F1E20395
:103C000004EB8303D3ED017A38EE678A2946204618
:103C100029F0A0FB07EE900AF8EEE77A67EE887AC3
:103C2000FDEEE77A17EE904ADEE770B52DED028BD8
:103C3000D0F81034994204DB00242046BDEC028BFE
:103C400070BD04460D4600F595664FF0FF313046D5
:103C50000BF030F894F8E033FBB105F1E80304EB26
:103C6000830393ED018A05F1E20304EB8303D3EDB3
:103C7000017A38EE278A2946204629F06BFB07EEA9
:103C8000900AF8EEE77A67EE887AFDEEE77A17EEAB
:103C9000904A30460BF036F8CFE705F1E80304EB25
:103CA000830393ED018A2946204629F053FB07EE52
:103CB000900AF8EEE77A67EE887AFDEEE77A17EE7B
:103CC000904AE6E770B52DED028BD0F8103499429A
:103CD00004DB00242046BDEC028B70BD04460D467B
:103CE00000F595664FF0FF3130460AF0E3FF94F897
:103CF000E033BBB105F1E80304EB830393ED018AE4
:103D00002946204629F026FB07EE900AF8EEE77ACE
:103D100067EE887AFDEEE77A17EE904A30460AF0B1
:103D2000F1FFD7E705F1E80304EB830393ED018A84
:103D300005F1E20304EB8303D3ED017A38EE678AE1
:103D40002946204629F006FB07EE900AF8EEE77AAE
:103D500067EE887AFDEEE77A17EE904ADEE790F894
:103D600055331BB9D0F86C338B4205D0D0F86C3387
:103D70008B4204D85520704790F8F10370475420C7
:103D8000704710B50446FFF7EAFF38B9D4F864234A
:103D9000D4F85C339A4204D2012002E0542801D0C6
:103DA000002010BDD4F86023D4F85C339A4201D3CC
:103DB0000020F6E70120F4E700B5A3B0002301934B
:103DC0008DF808108DF80930012201A90AF093FE40
:103DD00023B05DF804FB10B5044602F0D1FB037A72
:103DE00093B900224FF400511F480DF076F894F873
:103DF000EC3323F0010384F8EC33012384F85233CD
:103E0000872384F8533310BD02F0BAFB037A012BE9
:103E10000FD194F85233002BE9D18B212046FFF7C4
:103E2000CBFF0BF0D5F9C4F85803002384F85433C2
:103E3000DDE702F0A5FB037A022BD8D100224FF474
:103E4000005109480DF049F894F85233002BCED1B7
:103E50008B212046FFF7B0FF0BF0BAF9C4F85803E6
:103E6000002384F85433C2E70008024010B504462A
:103E700002F086FB037AD3B901224FF400512448A3
:103E80000DF02BF8002384F8523394F852336BB9B9
:103E900084F85533D4F86823C4F86C2384F8F133DC
:103EA00094F8EC2363F3000284F8EC2310BD02F0D5
:103EB00067FB037A012B0ED194F8523313B194F8B7
:103EC000E3331BB9002384F85233DEE78B2120460D
:103ED000FFF772FFF6E702F053FB037A022B02D0E2
:103EE00002F04EFBD1E701224FF4005108480CF0DC
:103EF000F4FF94F8523313B194F8E3331BB9002361
:103F000084F85233C1E78B212046FFF755FFF6E7CF
:103F10000008024038B5044602E001200BF047F9E2
:103F200094F85433002BF8D0D4F85C533F2120464A
:103F3000FFF742FF02E001200BF039F9D4F85C33BF
:103F4000AB42F8D038BD30B583B00D461146069C63
:103F500083EAE370A0EBE37042F2107C64450FD07B
:103F6000B4F57A7F1ED0642C2CD00A2C3AD0002BCA
:103F700048DB254B0090254A28462DF04DFD0CE0EE
:103F8000002B0DDB204B90FBF4F204FB1204019498
:103F900000921F4A28462DF03FFD284603B030BD51
:103FA0001C4BF0E7002B0BDB174B90FBF4F204FBF0
:103FB000120401940092184A28462DF02DFDECE7DA
:103FC000144BF2E7002B0BDB0F4B90FBF4F204FBDE
:103FD000120401940092114A28462DF01DFDDCE7E1
:103FE0000C4BF2E7002B0BDB074B90FBF4F204FBCE
:103FF0001204019400920A4A28462DF00DFDCCE7E8
:10400000044BF2E7034BB5E73CE80308C0E60308BE
:1040100090E6030834E603089CE60308A8E60308D4
:10402000B4E603082DE9F04182B00C461546089F1E
:10403000099E9DF828800097FFF785FFB8F1000FD3
:1040400012D0012F10DD204628F09CF8431E03E01B
:1040500000208CF80000013B33B104EB030CE05C62
:104060003028F5D02E28F3D04EB1204628F08AF81B
:104070000096054B054A291A20442DF0CDFC204618
:1040800002B0BDE8F08100BFC8E60308CCE6030833
:10409000F8B505460E463A2130462DF07BFD30B38B
:1040A000002300F8013B2CF0DDFCC7B2002401E046
:1040B0000134E4B20A2C09D804F5977305EB8303A5
:1040C0005968304628F054F80028F1D10A2C00D95C
:1040D000002495F87033A3420BD013B9012385F85F
:1040E0000E3485F8704385F871730120F8BD002700
:1040F000DCE795F87123BA42EFD10020F6E710B55E
:104100000C4610462CF0ABFC51EC100B27F0F0FEE7
:1041100007EE900A94ED007AB4EE677AF1EE10FAA9
:1041200014BF0120002001D0C4ED007A10BD10B5ED
:104130000C4610462CF096FC03462268824214BFBF
:104140000120002000D0236010BD70B506460C464B
:104150003D2120462DF01EFD30B30546002305F815
:10416000013B601C2CF07EFC202813DC0A281BDBA2
:10417000A0F10A03162B17D8DFE803F0171616274D
:1041800016161616161616163716161616161616AE
:1041900047576700B0F5BC7F06D196F8144428460F
:1041A0002CF060FC844260D170BDD6F818442846DB
:1041B0002CF05CFC8442F7D028462CF057FCC6F863
:1041C0001804012386F80F34EEE796F81C442846BD
:1041D0002CF048FC8442E7D028462CF043FC86F8BB
:1041E0001C04012386F80F34DEE7B6F81E44284687
:1041F0002CF038FC8442D7D028462CF033FCA6F8AB
:104200001E04012386F80F34CEE7B6F82044284672
:104210002CF02CFC8442C7D028462CF027FCA6F8B2
:104220002004012386F80F34BEE7B6F8224428465E
:104230002CF01CFC8442B7D028462CF017FCA6F8C2
:104240002204012386F80F34AEE796F81D44284671
:104250002CF008FC8442A7D028462CF003FC86F8FA
:104260001D04012386F80F349EE728462CF0FAFB44
:1042700086F81404012386F80F3495E72DE9F04100
:1042800006460C4617460025A84607E02C21204686
:104290002DF080FC044678B101340135D6F8103495
:1042A000AB4209DD224607EB85013046FFF727FFC9
:1042B0000028EBD08046E9E74046BDE8F08110B524
:1042C000044600F56372FFF7D9FF94F8E83360F312
:1042D000C30384F8E83394F8E123DBB262F34513B7
:1042E00084F8E83310BD70B504460E462C213046E4
:1042F0002DF050FC0546002305F8013B324604F53D
:1043000075712046FFF713FF28B194F8EA3343F0A4
:10431000010384F8EA332C2128462DF03BFC0646A5
:10432000002306F8013B2A4604F576712046FFF784
:10433000FEFE28B194F8EA3343F0020384F8EA332E
:10434000324604F581612046FFF7F1FE28B194F86A
:10435000EA3343F0040384F8EA3370BD70B50446D1
:104360000E462C2130462DF015FC0546002305F89D
:10437000013B324604F577712046FFF7C0FE28B1B5
:1043800094F8E93343F0020384F8E9332C212846FA
:104390002DF000FC0646F0B1002306F8013B2A464A
:1043A00004F57F712046FFF7AAFE28B194F8E9339F
:1043B00043F0040384F8E93366B1324604F58061C2
:1043C0002046FFF79CFE28B194F8E93343F004033C
:1043D00084F8E93370BD04F5806300221A60DEE7DB
:1043E00070B5044600F5A875C549284627F0C0FEFB
:1043F00020B394F850313C2B2AD05B2B00F0B781CE
:10440000242B00F008820622BE4928462DF0CFFB5F
:10441000002800F005820622BB4928462DF0C7FB84
:10442000A8B904F5AB702CF01DFB84F8F00394F8E8
:10443000E93343F0080384F8E93308E00AF0C8FEE2
:10444000C4F86403002384F8553384F8F13370BD55
:10445000012384F854330AF0BBFEC4F85C03AB4973
:1044600004F251102DF0C8FB0546F8B10146204674
:10447000FFF70EFE28B194F8E83343F0020384F806
:10448000E83394F8F03363B194F87033052B08D017
:10449000002284F8F02394F8E93362F3C30384F82C
:1044A000E9339A4900202DF0A7FB0546002610E0CD
:1044B00004F55D72691D2046FFF7E0FE94F8E833CD
:1044C00060F3820384F8E833904900202DF094FBD8
:1044D0000546002D00F0338105228D4928462DF038
:1044E00066FB68B994F8E033002BE1D1012384F82E
:1044F000E03394F8E83343F0080384F8E833D7E76F
:104500000522844928462DF052FBC0B994F8E033C7
:1045100043B1002384F8E03394F8E83343F0080310
:1045200084F8E83304F55D72691D2046FFF7A6FEA6
:1045300094F8E83360F3820384F8E833C4E7032295
:10454000754928462DF033FB08B3042273492846E9
:104550002DF02DFB00B30322714928462DF027FBD7
:10456000002841D002226F4928462DF020FB002868
:1045700044D1AB78312B14BF0023012384F8E433FA
:1045800094F8E93343F0200384F8E9339CE7E91C0D
:104590002046FFF7E3FE97E7291D2046FFF78FFE31
:1045A00092E701260133092B21D8E21892F8F20391
:1045B000DA1CA918AA5C904205D094F8E92342F0CD
:1045C000400284F8E923E218002082F8F2030A7816
:1045D0006AB13E2A0BD0E11881F8F223502AE0D0CC
:1045E000702ADFD10126DDE700231E46DBE700232A
:1045F00084F8FB3384F8E563012665E702224A4923
:1046000028462DF0D4FA48B30322484928462DF015
:10461000CEFA002800F08E800422454928462DF06D
:10462000C6FA00287FF450AF94F8E3232B79312B9E
:1046300014BF002301239A4209D082F0010284F8BA
:10464000E32394F8E83343F0010384F8E83394F863
:10465000EC3343F0010384F8EC3335E702350023F3
:1046600084F80D3484F80C3484F8043494F8E83376
:1046700043F0400384F8E83315F8013B002B3FF486
:1046800023AF433B102BF7D801A252F823F000BF11
:10469000F34600087946000879460008DD46000820
:1046A00079460008794600087946000879460008EE
:1046B0007946000879460008D54600087946000882
:1046C00079460008794600087946000879460008CE
:1046D000E5460008012384F80D34CDE7012384F872
:1046E0000C34C9E7002384F80534012384F804342A
:1046F000C2E7012384F8053484F80434BCE700BF22
:10470000D4E6030828E7030830E70308D8E60308DF
:10471000DCE60308E4E60308ECE60308F0E6030839
:10472000F8E60308FCE6030800E7030804E70308CB
:1047300008E70308E91C2046FFF7D5FDC4E67EB96B
:1047400094F8F233002B14BF0122002294F8E933CD
:1047500062F3861384F8E93302D0002384F8F2333D
:10476000002E7FF474AE002384F8E5336FE604F284
:1047700051150422324928462DF019FA10B30422AB
:10478000304928462DF013FA50B304222E4928460A
:104790002DF00DFA054600287FF459AE04F25516A7
:1047A000324604F582612046FFF7C1FCD4F810348C
:1047B000052B02DD0523C4F810343A2130462DF0D4
:1047C000E9F923E004F5697204F255112046FFF778
:1047D00055FD94F8EA3360F3C30384F8EA33D4E771
:1047E00004F56F7204F255112046FFF747FD94F867
:1047F000EA3360F3041384F8EA33C6E743195A78BE
:1048000005F5157304EB43031A710135D4F8103420
:10481000AB42F3DC1BE629462046FFF796FC16E682
:1048200004F5AB702CF01EF984F8F10394F8E93329
:1048300043F0100384F8E933002384F8553306E687
:1048400010E7030818E7030820E7030870B582B0F3
:10485000044600258DF8075004E00023A4F85033E7
:104860001F2D32D9E06C03681B690DF107019847D1
:10487000C0B298BB9DF80730182BEED0B4F8502387
:10488000B2F5FE7FE9D80A2B08D00D2B06D0511CBB
:10489000A4F85013224482F85031E1E71AB90023FA
:1048A000A4F85033DCE72244002382F8503104F5A9
:1048B00095664FF0FF3130460AF0FCF92046FFF7CD
:1048C0008FFD30460AF01EFAE9E76A1C0A4B2B44BA
:1048D0009DF8071083F8A01695B2C3E70DB902B092
:1048E00070BD2A46054906481DF084FB0028F6D114
:1048F00003481DF099FBF2E7383F0020D84500201F
:104900002C92012070B5044600F595664FF0FF31FA
:1049100030460AF0CFF9D4F868536B1CC4F86833FA
:1049200013B9AB1CC4F8683330460AF0EBF92846DB
:1049300070BD2DE9F041A2B006460D4690464FF0FD
:104940000D0728F0F9FC10B196F870331BB9384602
:1049500022B0BDE8F0813046FFF7D4FF019000237C
:104960007F2B0BD8EC5C03F188020DEB020101F800
:10497000804C0CB10133F3E74FF00007FBB2002B82
:10498000E5D11A4601A930460AF0B5F80746019B61
:10499000C8F80030DBE710B50446FFF757FF0AF010
:1049A00017FCD4F85C33C01AB0F5967F05D9002304
:1049B00084F87033012384F85433204628F0BCFC7B
:1049C00010B194F8703363B994F855334BB10023A8
:1049D00084F85533D4F86833C4F86C33562384F81C
:1049E000F13301F0CDFD037A012B13D194F852334A
:1049F000B3B9204628F0A0FC10B194F80E349BBB4C
:104A0000204628F099FC10B194F85433B3BB4FF012
:104A1000000010BD01F0B4FD037A022BE9D1E5E7F7
:104A2000204628F089FC0028E3D194F8EC3313F0F9
:104A3000010F07D10AF0CCFBD4F85833C01AB0F5F7
:104A4000967FD6D98B212046FFF7B6F90AF0C0FB36
:104A5000C4F85803002284F8542394F8EC3362F32A
:104A6000000384F8EC33C4E7204629F003F820461D
:104A700029F00EF8002384F80E34C1E70AF0A8FBF1
:104A8000D4F85833C01A6428C1D9E06C03681B6A93
:104A900098470028BBD00AF09BFBC4F858030023BA
:104AA00084F85433E06C0368DB69012204F253316B
:104AB00098473F2384F853330122054905481DF0E8
:104AC00099FA0028A3D103481DF0AEFA9FE700BF72
:104AD00038E703082C9201202DE9F041AEB00446DE
:104AE0000D469DF8D0804FF00300D4F810148D428D
:104AF00002DB2EB0BDE8F08117461E46204628F0A6
:104B00001BFC28B194F87033012B04D0032B02D086
:104B10004FF00D00EDE72046FFF7F4FE0D9029461B
:104B2000204628F017FC00903B46102205A920469D
:104B3000FFF709FA642300933346102209A920469F
:104B4000FFF701FA94F81C34DBB9104BB8F1000FF1
:104B500019D00F4A05F5157504EB4505043509A96B
:104B6000039105A90291019500920A4A80210EA89D
:104B70002CF052FF00231A460DA9204609F0BBFF76
:104B8000B7E7054BE2E7054AE4E700BF3CE7030867
:104B900044E703084CE7030840E7030848E7030835
:104BA000F0B5ABB004460D464FF00300D4F8101436
:104BB0008D4201DB2BB0F0BD17461E46204628F083
:104BC000BBFB28B194F87033012B04D0032B02D027
:104BD0004FF00D00EEE72046FFF794FE09902946BE
:104BE000204628F0B7FB00903B46102205A920463E
:104BF000FFF7A9F994F81C34ABB90C4B05F5157502
:104C000004EB45050435029605AA01920095084A71
:104C100080210AA82CF000FF00231A4609A920468B
:104C200009F069FFC6E7034BE8E700BF3CE703086C
:104C30005CE7030840E703082DE9F043BBB00446F6
:104C40000F4616461D469DF80C9128F075FB28B1BD
:104C500094F87033012B06D0032B04D04FF00D00D5
:104C60003BB0BDE8F0832046FFF74CFE199094F866
:104C70001C34DFF8C48008EB8303D3F818320093A8
:104C80003B46102209A92046FFF75DF994F81C3431
:104C900008EB8303D3F818320093334610220DA992
:104CA0002046FFF750F994F81C3408EB8308D8F835
:104CB000183200932B46102211A92046FFF743F922
:104CC00064230093429B102215A92046FFF73BF96D
:104CD00094F81C3413BB134BB9F1000F20D0124AC7
:104CE00004F2AC4104F2AE4004F5966515AE0796A9
:104CF00011AE069605950DAD0495039009A8029096
:104D000001910092094A80211AA82CF085FE002307
:104D10001A4619A9204609F0EEFEA1E7044BDBE78D
:104D2000044ADDE73CE7030844E7030874E70308A7
:104D300040E7030848E70308F04603082DE9F04779
:104D4000BAB004460D4616461F469DF80C819DF8E4
:104D50001091444BD3F8C0368B4215D0414BC3F869
:104D6000C056C3F8C466204628F0E6FA38B194F875
:104D70007033012B13D0032B11D0022B0FD04FF027
:104D80000D003AB0BDE8F087364BD3F8C4369342F5
:104D9000E4D1344BC3F8C016C3F8C426DEE720467E
:104DA000FFF7B0FD199094F81C34DFF8D8A00AEB97
:104DB0008303D3F8183200932B46102209A920460A
:104DC000FFF7C1F894F81C340AEB8303D3F81832C8
:104DD0000093334610220DA92046FFF7B4F894F84B
:104DE0001C340AEB830ADAF8183200933B4610228F
:104DF00011A92046FFF7A7F864230093429B1022D5
:104E000015A92046FFF79FF894F81C3423BB164BD6
:104E1000B9F1000F22D0154AB8F1000F20D0144983
:104E200004F2AC4004F2AE4515AE079611AE0696FC
:104E30000DAE0596049509AD03950290019100927F
:104E40000C4A80211AA82CF0E7FD00231A4619A964
:104E5000204609F050FE94E7074BD9E7074ADBE705
:104E60000749DDE7383F00203CE7030844E7030833
:104E70008CE7030894E7030840E7030848E70308C2
:104E800090E70308F046030830B5A3B004464FF09E
:104E90000300D4F81034994201DB23B030BD0D4635
:104EA000204628F049FA18B194F87033012B02D04B
:104EB0004FF00D00F1E72046FFF724FD019005F5C6
:104EC000157304EB43030433054A802102A82CF038
:104ED000A3FD00231A4601A9204609F00CFEDCE7D9
:104EE000B0E7030870B5A8B004460D464FF00300C4
:104EF000D4F810148D4201DB28B070BD1646204650
:104F000028F01AFA18B194F87033012B02D04FF040
:104F10000D00F1E72046FFF7F5FC079029462046F3
:104F200028F018FA00903346102203A92046FFF714
:104F30000AF894F81C34A3B90B4B05F5157204EB71
:104F40004202043203A901910092084A802108A874
:104F50002CF062FD00231A4607A9204609F0CBFD7C
:104F6000CAE7034BE9E700BF3CE70308C0E70308D3
:104F700040E703082DE9F041AEB004460D469DF828
:104F8000D4804FF00300D4F810148D4202DB2EB011
:104F9000BDE8F08117461E46204628F0CDF918B12D
:104FA00094F87033012B02D04FF00D00EFE720464C
:104FB000FFF7A8FC0D902946204628F0CBF9009079
:104FC0003B46102205A92046FEF7BDFF642300934F
:104FD0003346102209A92046FEF7B5FFBEB9B8F145
:104FE000000F3AD01F4B94F81C24002A37D11E49D9
:104FF00005F5157204EB4202043205A802900192F5
:1050000000911A4A80210EA82CF006FD17E0B8F195
:10501000000F1ED0134B94F81C24E2B9124905F579
:10502000157204EB4202043209A8039005A802900D
:10503000019200910E4A80210EA82CF0EDFC002375
:105040001A460DA9204609F056FD0D9A349B1A60A8
:105050009DE7084BDFE70849E1E7064BC3E7064950
:10506000C6E700BF44E703083CE70308E4E703089A
:10507000D4E7030848E7030840E703082DE9F041B7
:10508000AAB004460D469DF8C4804FF00300D4F842
:1050900010148D4202DB2AB0BDE8F08117461E468F
:1050A000204628F049F918B194F87033012B02D04A
:1050B0004FF00D00EFE72046FFF724FC099029464A
:1050C000204628F047F900903B46102205A92046CB
:1050D000FEF739FFB8F1000F13D194F81C34002B00
:1050E0002DD1184B05F5157204EB420204320296DD
:1050F00005A901910092144A80210AA82CF08CFC89
:1051000011E094F81C34C3B90E4B05F5157204EB8D
:1051100042020432029605A9019100920B4A8021B5
:105120000AA82CF079FC00231A4609A9204609F0A8
:10513000E2FC099A309B1A60ADE7054BE5E7044BAA
:10514000D0E700BF3CE7030804E80308F0E70308E2
:1051500040E70308F0B5ABB004460D464FF003003E
:10516000D4F810148D4201DB2BB0F0BD17461E465B
:10517000204628F0E1F818B194F87033012B02D0E2
:105180004FF00D00F0E72046FFF7BCFB09902946E1
:10519000204628F0DFF800903B46102205A9204663
:1051A000FEF7D1FE94F81C34C3B90D4B05F515720A
:1051B00004EB42020432029605A901910092094AC9
:1051C00080210AA82CF028FC00231A4609A92046B1
:1051D00009F091FC099A309B1A60C5E7024BE5E79C
:1051E0003CE7030818E8030840E7030830B5A9B016
:1051F00004460D4628F0A0F818B194F87033012B3E
:1052000003D04FF00D0029B030BD2046FFF77AFBE8
:10521000079094F81C24104B03EB8203D3F8183248
:1052200000932B46102203A92046FEF78CFE94F82B
:105230001C3473B9094B03AA0092094A802108A8BB
:105240002CF0EAFB00231A4607A9204609F053FC7C
:10525000D9E7044BEFE700BFF04603083CE703083B
:105260002CE8030840E7030810B5A2B0044628F074
:1052700063F818B194F87033012B03D04FF00D0090
:1052800022B010BD2046FFF73DFB0190064B93E88E
:10529000030002908DF80C1000231A4601A9204645
:1052A00009F029FCECE700BF38E8030870B5A4B0AA
:1052B00006460C46154628F03FF818B196F87033AC
:1052C000012B03D04FF00D0024B070BD3046FFF726
:1052D00019FB03906DB1084B0094084A802104A883
:1052E0002CF09AFB00231A4603A9304609F003FC70
:1052F000EAE7034BF0E700BF40E8030848E803088B
:1053000044E8030870B504460D4628F015F828B1A6
:105310004FF0030694F87033012B03D04FF00D06C5
:10532000304670BD94F8043413B984F80554F7E797
:10533000D4EDFF7AFCEEE77A2A4617EE903A99B25E
:105340002046FFF7B3FF0646EAE710B5A2B00446D1
:1053500027F0F2FF18B194F87033012B03D04FF00F
:105360000D0022B010BD2046FFF7CCFA0190044B8F
:10537000029300231A4601A9204609F0BCFBF0E77E
:105380004D350D0070477047F8B505460E4608F0DC
:10539000AFFE0746314605F6941008F0A9FE741CCE
:1053A000214605F6B81008F0A3FE214605F6782040
:1053B00008F09EFE00241CE0342304FB03F303F1F9
:1053C000300028442B445B6BDB683146043098473F
:1053D000C4EBC400C00000F5E8702844C4EBC4036B
:1053E00005EBC303D3F8D431DB683146043098476A
:1053F00001342B6BA3421DD9EB6AA342DCD03423CA
:1054000004FB03F303F1300028442B445B6B1B695E
:1054100004309847C4EBC400C00000F5E87028448D
:10542000C4EBC40305EBC303D3F8D4311B690430C8
:105430009847DDE73846F8BD70B5054608F067FEC9
:10544000064605F6941008F062FE05F6B81008F05E
:105450005EFE05F6782008F05AFEEB6A342202FB65
:1054600003F303F1300028442B445B6B1B690430C9
:105470009847EB6AC3EBC300C00000F5E87028440E
:10548000C3EBC30305EBC303D3F8D4311B6904306A
:10549000984705F6383008F03AFE00240FE004EB98
:1054A0004400800100F56470284404EB440305EBDC
:1054B0008313D3F894331B690430984701342B6B62
:1054C000A342ECD8304670BD012900D0704738B5F2
:1054D0000446B0F90430B0F90E100B44934204DADC
:1054E000B0F908305B1A934200DC38BD00F638355D
:1054F000284608F0CFFD48B123681B69204698472D
:105500002368DB68618A20469847EEE7618A28466F
:1055100008F0EEFD002511E005EB4500800100F5E7
:1055200064702044618A05EB450304EB8313D3F8D0
:105530009433DB680131043098470135236BAB426B
:10554000EAD8D2E7F8B503464FF002004BB30E4657
:105550001C46DF6A03F6B8138B4205D004F67823A5
:105560008B421FD000252AE00FB17B1EE36204F6B8
:10557000383008F08FFD18B123681B692046984722
:105580002368DB68618A20469847E36ABB4206D0FD
:10559000206A20B12346A26A616A09F079FA4FF0C5
:1055A0000000F8BD236B013BBB42E0D97B1CE362EA
:1055B000DDE7E56223681B69204698470135236BC8
:1055C000AB42D4D905EB45039B0103F56473234437
:1055D0000433B342F2D1ECE703464FF002003BB391
:1055E00070B582B01C460B88ADF804309DF80430CD
:1055F000022B05D0042B18D04FF0000002B070BD74
:1056000004F6B81504F6683008F044FD0028F3D11C
:105610009DF80560314628460AF02CFC002EEBD19F
:1056200029462046FFF78EFFE6E704F67825E9E7EE
:105630007047072900D970472DE9F04F85B005461E
:105640000C464FF0340808FB01F808F13007074416
:105650003B1D1E461146184606F0C4FBA844D8F868
:105660003430DA690292B5F90EB0B5F90C20A2EB2C
:105670004B010F46DB6B0196304698478146E300AD
:105680000393C4EBC406F60006F5E8762E44043610
:10569000C4EBC40A05EBCA0ADAF8D431DB6B304636
:1056A00098478144304627F025FE8144A7EB090046
:1056B0000BEB500BB5F90E90D8F834301B6C019FF2
:1056C00038469847A9EB000909EBD97900234FEA3E
:1056D00069025946BB463846029FB847DAF8D431CA
:1056E000D3F81C90D8F834305B6B5846984707467F
:1056F000304627F0FFFD0744039B1B1B05EBC3054A
:10570000D5F8D4311B6B3046984702460023394602
:105710003046C84705B0BDE8F08F072970D82DE99D
:10572000F04F87B005460C461646002A65D04FEA72
:10573000C10AC1EBC1084FEAC80808F5E8788044FF
:1057400008F10408059301936FF07F430093002351
:105750001A463146404607F0B4FFAAEB040A05EBAF
:10576000CA0ADAF8D431DA691746B5F90EB0B5F9D4
:105770000C90A9EB4B09DB6B40469847A9EB00095D
:1057800009EBD9790BEB690BB5F90E90DAF8D43146
:105790001B6C40469847A9EB000909EBD979002317
:1057A0004FEA690259464046B84704EB44084FEABD
:1057B000881808F56478A84408F10408B5F90E20A3
:1057C00004FB0223B5F90C10A1EB4201A2F1080081
:1057D00001240294019000910433314640460AF0BE
:1057E00031F9059940460AF078FA26F003FF0146A0
:1057F0002B46044A40460AF049FB07B0BDE8F08F4B
:10580000704700BF455500087047C36A8B420FD0F0
:1058100010B50446036B8B4209D9C16203685B690A
:10582000984720B12368DB68618A2046984710BDFD
:1058300070472DE9F04F87B004460E4690461D464E
:10584000DDF84090119F03689B6C012198470596F5
:10585000BDF91410A180A4F806806B1E1BB2238131
:1058600009F1FF3212B26281A581A4F80E906FF0A7
:105870007F400190009204F6941007F02DFC04F68E
:10588000B81AB4F90E305A1E0126029601920093FE
:10589000B4F90630B4F90420374950460AF0D2F87A
:1058A00005F0A0FC014650460AF017FA26F0A2FEC9
:1058B0000146DFF8D4B023465A4650460AF0E6FACD
:1058C00004F6782AB4F90810B4F90E20531E029693
:1058D00001930092B4F906308A1A284950460AF01A
:1058E000B1F805F07FFC014650460AF0F6F926F0C3
:1058F00081FE014623465A4650460AF0C7FA00F098
:105900008EF8824626F076FE014604F6883301932F
:105910001423009323461A4A504600F0D5F8B4F9F0
:105920000A20D4F8A03BD3F88C30B4F90E100296BC
:10593000144801905B1A0093B4F90C303244B4F966
:10594000041004F6383007F0CCFACDF800902B465E
:105950004246059904F6683007F07BFB84F8786BC3
:10596000082F00D90827276300212046FFF74DFFA5
:1059700007B0BDE8F08F00BF28E603082CE6030857
:10598000D955000840404000455500080162426278
:1059900083627047F0B583B00546B0F9466B036B80
:1059A000B6FBF3F6002417E0B5F90E10B5F93E2B5F
:1059B00004FB0622B5F90C3004EB4400800100F52D
:1059C00064702844A6F108070097A3EB4103043252
:1059D00004300AF0D7F801342B6BA342E4D803B0AB
:1059E000F0BD00BF034BD3F81C23034B1A615A626E
:1059F000704700BF88D403080000002008B5FFF7F7
:105A0000F1FF08BD10B50446C06C10B1216D17F050
:105A1000BDF809F0A4FBE0654FF0000010BD114B8C
:105A20001B68BFF35B8F13F0010F01D00E48704766
:105A300010B50C4829F04BFE08B90B4810BD0A48B8
:105A400028F04CF8074C094A0949201D29F071FA41
:105A5000204629F04BFEF0E7024829F044FE29F0E9
:105A6000E3FA00BF00460020044600204401002065
:105A7000ADDA020808B5C164026508F075FF08BD1B
:105A800010B50C46898820680BF020FAA379834270
:105A900014BF00200120237A834213D0637A83420B
:105AA00005D0834209D060720020E07110BDE27918
:105AB000082AF6D120720120F8E7E3790133E37177
:105AC0000020F3E70020F1E710B4029C216062603F
:105AD000A3609DF804302373426D2AB1134643B18D
