:020000040800F2
:100000000000022061A20208E5610208E76102081F
:10001000E9610208EB610208ED61020800000000DE
:10002000000000000000000000000000CD240208D5
:10003000EF6102080000000089250208F161020852
:10004000B1A20208B1A20208B1A20208B1A202083C
:10005000B1A20208B1A20208B1A20208B1A202082C
:10006000B1A20208B1A20208B1A20208B1A202081C
:10007000B1A20208B1A20208B1A20208B1A202080C
:10008000B1A20208B1A20208B1A202080000000059
:10009000000000000000000000000000B1A2020803
:1000A000B1A20208B1A20208B1A20208B1A20208DC
:1000B000B1A20208B1A20208B1A20208B1A20208CC
:1000C000B1A20208B1A20208B1A20208B1A20208BC
:1000D000B1A2020807620208B1A2020800000000F3
:1000E000B1A20208B1A20208B1A2020800000000F9
:1000F000000000000000000000000000B1A20208A3
:100100000000000015620208B1A20208B1A20208B4
:1001100000000000000000000000000000000000DF
:10012000B1A20208B1A202082562020835620208E3
:10013000B1A2020800000000000000000000000062
:1001400000000000000000000000000045620208FE
:1001500055620208B1A2020865620208B1A2020853
:10016000B1A20208B1A202080000000000000000D5
:10017000000000000000000000000000000000007F
:1001800000000000B1A20208000000000000000012
:08019000B1A20208B1A20208AD
:1001A0002DE9F84F914CDFF89892C4F800904FF089
:1001B000010A84F804A000256571DFF88882C4F87C
:1001C0000080DFF884B2C4F808B01023E360884EE2
:1001D000884F3246394620462AF06BF8C4F8109012
:1001E00084F814A06575C4F81080834BA361C4F82B
:1001F0001CA03246394604F110002AF05AF8C4F81F
:10020000209084F824A084F82550C4F82080C4F8F5
:1002100028B00823E3623246394604F120002AF070
:1002200048F8C4F8309084F8345084F83550C4F855
:100230003080714BA3634FF48063E36332463946E9
:1002400004F130002AF035F8C4F8409084F84450A6
:1002500084F84550C4F84080674BA3640223E364EC
:100260003246394604F140002AF023F8C4F8509091
:1002700084F8545084F85550C4F85080C4F858B0ED
:10028000C4F85CA03246394604F150002AF011F857
:10029000C4F8609084F864A084F86550C4F8608065
:1002A000C4F868B04FF48073E3663246394604F10F
:1002B000600029F0FEFF514B23676423A4F87430DB
:1002C000A4F876304E4B23674E4BA36704F1700BB6
:1002D00032464D49584629F0ECFF04F17C074B4962
:1002E000384627F03BFD32464949384629F0E1FFC0
:1002F000484BC4F88C30484BC4F88C30474BC4F89A
:100300001031A4F814513246454904F18C0029F00B
:10031000D0FF444BC4F818310323C4F81C314FF408
:10032000F078C4F820814FF4A079C4F82491C4F87F
:100330002881C4F82C9184F830513B4BC4F8183113
:10034000C4F834B1C4F8384104F11003C4F83C31A6
:100350001033C4F840313246344904F58C7029F02A
:10036000A8FF334BC4F8443184F8485184F849510C
:10037000A4F84A51A4F84C512E4BC4F84431C4F8A7
:10038000507184F85451C4F85651C4F85A51C4F805
:100390005E5184F848A1A4F84A91A4F84C814FF02A
:1003A000030384F849313246234904F5A27029F049
:1003B00080FF4FF40043C4F864314023C4F868312F
:1003C00084F86C51C4F87051C4F87471C4F8785151
:1003D000422008F04DFFC4F870013246174904F579
:1003E000B27029F066FFBDE8F88F00BF1803002047
:1003F00044010020B97C0208000402400492030872
:10040000D88F030810710120C17B0208D46F01202E
:100410001D7D02089C92030840900308A4720120ED
:10042000CD7C0208E8920308107D0308E17C0208F5
:1004300038930308D4160308F57C0208097D0208E6
:10044000C8920308348F03080000024070B5144CB2
:10045000236800255D62294620461AF007FD2946DB
:10046000204618F0E1FE0E4B1B681B6913F0020FCB
:10047000F9D000210A4818F0D7FE0446084B1B6843
:100480001B6913F0020FF9D0054E0021304618F019
:10049000CBFE0546002130461AF06EFD281B70BDCC
:1004A00014720120174B1B6813F4003FFAD0154A51
:1004B000936823F0030343F001039360124B00227F
:1004C0001A66104B1B6813F0007FFAD10D4A53686F
:1004D00023F4800318435060536823F03F0319430B
:1004E0005160094B01221A66064B1B6813F0007F0E
:1004F000FAD0044A936823F0030343F002039360A5
:10050000704700BF003802400000474200B587B086
:1005100010210020FFF7C6FFFFF798FF144B1B6860
:1005200003EB4303134AA2FB0323B0EBD34F07D8DB
:1005300019214FF48000FFF7B5FF07B05DF804FB09
:100540006846002300930193029303930493059359
:1005500002230093084B049314F0AAFE28B9074B1A
:100560000122C3F83C2E0821E3E725F0EDFAF6E777
:10057000DC00002083DE1B4300030800000047422C
:1005800010B510210020FFF78DFF002423460CE05A
:1005900081421ED91E2B1CD801330F490A6822F054
:1005A000F80242EAC3020A6001341E2C11D8FFF798
:1005B0004DFF094B1B68C3F3C403084A126808497E
:1005C000A1FB0212910CB0EB924FE1D90BB1013BB0
:1005D000E3E7184610BD00BF00380240DC000020F1
:1005E00083DE1B4310B582B0FFF7CAFF044614F048
:1005F000D9FF0EF087FA114A136823F0F80343EA93
:10060000C40313604FF0E02300221A615A619A611B
:100610000B4B0193019B596862B60A4B1A6822F092
:1006200003021A601A6842F001021A60019B1B68FB
:1006300083F30888884702B010BD00BF003802402D
:100640000000FF1F0038014038B5FFF75FFF254C61
:10065000236D1B6904F15000984794F85530003B16
:1006600018BF0123984234D005F074FF1D4C04F5E7
:10067000B27105F08FFF08F087FF04F5A27204F550
:100680008C7108F007FE0DF0CCFD03681D6A04F1C3
:10069000600300221449A84705F0ABF90022134972
:1006A00005F0D2F9236B1B6904F13000984794F8E8
:1006B0003530003B18BF012398420DD003F0A8F954
:1006C0000B4903F0CFF900F0B5F803681B689847B1
:1006D00038BDFFF787FFC7E708F0D2F903681B684A
:1006E0009847F5E7180300205C720120CC710120C7
:1006F000A403002000BEFEE7704708B5FFF750FDD9
:1007000008BD00BF00F5005090F86C3113B94FF0F0
:10071000000070474FF00400704770B5064600F5C2
:100720000054D4F8640190F8701303F0BDF9014649
:10073000002206F628500BF03FFFD4F8640190F831
:10074000F11303F0BAF90146002206F556600BF0EA
:1007500033FFD4F8641191F8E923134623F04003E2
:1007600081F8E933C2F3801201F2F23106F69850B3
:100770000BF022FF002511E005EBC504640104F530
:100780005D64344406F50053E9B2D3F8640103F024
:10079000E9F90146204601F0CAF90135052DEBD9EA
:1007A00006F50053D3F8643193F852336BB306F671
:1007B0003844012120460EF051F906F50053D3F8D4
:1007C000643193F8E333F3B14FF47F4120460EF0E8
:1007D00066F806F50055D5F86431002483F80F4417
:1007E000D6F89030123306EB8306706803685B69B5
:1007F00014219847D5F85C0100F5C15004300DF084
:1008000074FA204670BDFF21E0E706F63844002167
:1008100020460EF023F906F50053D3F8643193F81F
:10082000E33323B1FF2120460EF039F8D1E76FF012
:100830007F41F8E708B50F4B1B68BFF35B8F13F0E0
:10084000010F01D00C4808BD0A482AF000F9002821
:10085000F8D0094828F042F8084A0949064829F022
:1008600028FD04482AF002F9ECE702482AF0FBF8D8
:1008700029F09AFD940400209804002044010020EF
:10088000E58702082DE9F04184B004460F460029AF
:1008900060D000F50053D3F85C31D3F88830083BC2
:1008A000424D85FB0325A5EBE37504F5B1561836DB
:1008B00004F50053D3F85C31D3F88C8009F040FB89
:1008C0000368DB68984700EB4000A8EB000809F0DC
:1008D00037FB0368DB68984700EB40000123029375
:1008E0000190009543460022314930460DF09EFEAE
:1008F00027F0D0FA014600231A4630460EF0BAF827
:1009000030460EF077F887BB04F5BD56183604F56F
:100910000053D3F85C31D3F8882004F58054B4F93F
:1009200046360121029101930095B4F93E36521BDF
:100930001F4930460DF07AFE27F0ACFA014600233D
:100940001A4630460EF096F830460EF053F804B0D2
:10095000BDE8F08100F50053D3F85C31D3F888503E
:1009600005EBD5756D10043D9FE704F5B7561836B5
:1009700004F58053B3F94026B3F9461601200290DE
:1009800001910095B3F93E360532094930460DF024
:100990004DFE27F07FFA014600231A4630460EF03E
:1009A00069F830460EF026F8AEE700BF56555555AB
:1009B0008896030808B500F50053D3F8643193F81E
:1009C0007033022B06D0074900F5B15018300DF0F6
:1009D00022FF08BD044900F5B15018300DF01BFF8F
:1009E000F7E700BF709303086893030808B500F5A4
:1009F0000053D3F8643193F87033012B00D033B92E
:100A000029B100F5B15018300DF005FF01E0FFF7F6
:100A1000D1FF08BD08B500F50053D3F8642192F862
:100A20007033052B09D00BB1092B18D10F4900F5F4
:100A3000BD5018300DF0EFFE08BD92F8F1334F2B8A
:100A400006D00B4900F5BD5018300DF0E4FEF3E779
:100A5000064900F5BD5018300DF0DDFEECE7054904
:100A600000F5BD5018300DF0D6FEE5E7089E0308EE
:100A7000749303087C93030808B500F50053D3F87A
:100A8000643193F87033012B06D129B100F5BD50C4
:100A900018300DF0C0FE01E0FFF7BCFF08BD38B50F
:100AA000054600240F2C21D804F1120305EB830323
:100AB0005B688B4201D00134F4E7D5F890301233F3
:100AC00005EB8303586803681B699847C5F8904095
:100AD000214605F1940004F082FED5F890301233DF
:100AE00005EB830568680368DB68984738BD70B517
:100AF0008AB0044603A821F07CFF04F5B0551835F0
:100B0000049B154A202128462CF03CF904F5AF56E9
:100B10000122294630460BF04FFD04F50053D3F86F
:100B20005C31D3F8882002EBD27204F58054B4F91A
:100B3000EC3503EBD3735C10C4EB620409F0C2F92B
:100B400001906FF07F4300931E23224629463046D2
:100B50000BF0ABFB0AB070BD8493030810B50446DC
:100B6000943004F053FC04F6F8400CF0C4F804F69A
:100B700028500CF0C0F804F556600CF0BCF804F6F0
:100B800098500CF0B8F804F638400CF0B4F804F5BE
:100B9000B15018300CF0AFF804F5BD5018300CF01F
:100BA000AAF810BD10B504464FF4FA61943004F071
:100BB000D5FB4FF47A7104F6F8400CF08DF840F252
:100BC000E93104F628500CF087F840F2EA3104F5D8
:100BD00056600CF081F840F2EB3104F698500CF0BE
:100BE0007BF84FF47A7104F638400CF075F8662102
:100BF00004F5B15018300CF06FF8662104F5BD50C3
:100C000018300CF069F810BD03464FF00200002BBD
:100C10003CD0F0B583B01E460B88ADF804309DF88B
:100C20000450E5B906F5B154183423685B692046D1
:100C30009847B0B123685B6C2046984788B19DF80F
:100C40000570394620460DF009FF57B923685B6CE3
:100C50002046984728B120460DF010FF01E0012DF5
:100C600005D0062D07D04FF0000003B0F0BD06F50B
:100C7000BD541834D9E79DF80530002BF3D0336804
:100C80009B6906F6384130469847ECE7704738B51F
:100C900004460D46D0F89030123300EB83035868B9
:100CA00003681B699847C4F89050294604F19400E2
:100CB00004F095FDD4F89030123304EB830460689F
:100CC0000368DB68984738BD70B504460D464FF0A1
:100CD000000600F638438B4214D004F19403AB4273
:100CE00021D0D4F89030123304EB830358680368A2
:100CF0009B69294698470646F6B2092E19D04FF04F
:100D0000000070BD90F8483C002BE6D000F5005381
:100D1000D3F8640190F8523313B903F046F8EBE7C7
:100D200003F08EF8E8E794F8C0102046FFF7AFFF15
:100D3000E2E704F5B1531833AB421CD004F5BD53C0
:100D40001833AB42DBD104F50054D4F8640190F8B9
:100D50007033052B1FD00BB1092B30D1002380F845
:100D6000F13380F85533D0F86833C0F86C3318216C
:100D700003F00CF8C3E704F50054D4F8640190F8CC
:100D80007033022B03D0812103F000F8B7E78221F2
:100D900002F0FCFFB3E790F8F1334F2B02D027F0BD
:100DA000B7FAACE7002380F8F13380F85533D0F878
:100DB0006833C0F86C33182102F0E8FF9FE7002386
:100DC00080F85533D0F86833C0F86C33192102F03D
:100DD000DDFF94E708B5D0F890100131D0F88C30E1
:100DE000B1FBF3F203FB1211C9B2FFF750FF08BDCC
:100DF00008B5D0F89010D0F88C3019440139B1FB07
:100E0000F3F203FB1211C9B2FFF741FF08BD2DE950
:100E1000F04383B0044600F19405284604F0F6FA46
:100E200004F50058D8F85C31D3F8883008220192D4
:100E30002827009700221146284604F0E4FC0026EB
:100E4000C4F88C6008F0C2FF03462A4A314628469F
:100E500004F04DFC02F0DBF9D4F88C3003F1010909
:100E6000C4F88C90123304EB8303586008F0AEFF93
:100E70000346214A4946284604F039FC06F0ACFAFC
:100E8000D4F88C3003F10109C4F88C90123304EBD0
:100E90008303586008F09AFF0346184A49462846DB
:100EA00004F025FC07F0CAF9D4F88C305A1CC4F8B9
:100EB0008C20123304EB83035860D8F85C31D3F8EC
:100EC00088300192009732463146284604F09BFC58
:100ED000284604F049FD334632462146284604F0B0
:100EE0003FFD4FF4FA61284604F038FA03B0BDE83C
:100EF000F08300BF9C930308A8930308B4930308EE
:100F00002DE9F04F87B0044605F024FB05F046FBC1
:100F10008DF8170004F50057D7F85C5105F01AFB5F
:100F2000C168003918BF0121284608F0D4F997F8A4
:100F30005811D7F85C0108F061FDD7F85C31AF4A71
:100F4000C3F88020D7F85C31D3F88C6008F0F8FF44
:100F50000368DB68984700EB4000361A08F036FF5C
:100F60000368DB689847A6EB4006023ED7F85C3181
:100F7000D3F8885008F02AFF03689B68984700EB75
:100F80004000A5EB400808F021FF0368DB689847A4
:100F9000400004F6F84900250295994B0193009012
:100FA00043463246294648460AF08FFD4FF47A718F
:100FB00048460BF091FE04F5C35808F11808914E0D
:100FC000022332463146404605F0F8F82B462A46C1
:100FD0002146404605F0EEF8D7F8640102F030FFF4
:100FE00004F63849D7F85C31D3F8887008F0EEFE83
:100FF00003689B68984700EB4000A7EB4007013F60
:10100000B4F9FEAC08F0E2FE03689B68984700EB79
:1010100040004000B4F9063D012202920193009085
:1010200053463A46784948460DF000FB2B462A467F
:10103000214648460DF01EFD294648460DF00EFD9E
:101040004FF47A7148460BF047FEB4F9FE7CB4F9D0
:10105000063D03EBD37307EB630708F0B7FE0368A5
:10106000DB689847A7EB500708F0B0FE04F6285A53
:1010700001906FF07F4BCDF800B03B460422314623
:1010800050460BF012F9B4F92C7D08F09FFE03686E
:101090009B68984700EB8000074408F051FF036805
:1010A0009B6898473B180493B4F9027D08F048FF09
:1010B0000368DB6898473F1A023F08F041FF04F5D8
:1010C00056690190CDF800B03B46049A3146484637
:1010D0000BF0EBF8B4F93C7C08F06EFF03689B68FA
:1010E000984700EB800300EB43003B1A0493B4F9EC
:1010F000FEBC08F061FF04F698570190FF230093AF
:101100000BF10403049A314638460BF0CEF840F256
:10111000E93150460BF0E0FD40F2EA3148460BF071
:10112000DBFD40F2EB3138460BF0D6FD2946204678
:10113000FFF7A8FB2046FFF76AFE09E005EBC500B4
:10114000400100F55D600021204400F0F0FC013515
:10115000052DF3D904F5B055183508F0B3FE01900C
:101160006FF07F43009300231A46294604F5AF50E1
:101170000BF09BF800250CE005F1120304EB830350
:101180005868B4F9FE2C03689B68283A28219847D0
:101190000135D4F88C30AB42EED80023C4F890303F
:1011A0009DF81730CBB9D4F8901004F1940004F0F6
:1011B00016FBD4F89030123304EB830358680368AD
:1011C000DB68984704F50054D4F8640102F0EDFDA3
:1011D0004FF0000007B0BDE8F08F02230B4A0C4926
:1011E000404604F0EBFF42F21071404605F0ECF887
:1011F000D4F88C30013BC4F89030D4E74040400034
:101200008080800088960308C0930308C493030875
:101210001094030838B503464FF00200B3B11C46E2
:1012200091B103F1D405D3F82031626901FB023199
:10123000284600F07CFCA36933B1D4F8202153F890
:101240002210284600F0C1FC4FF0000038BD0160BC
:1012500042608360704710B504464169012914BF9C
:101260000021012100F5FA700DF0F8FB61690A29EF
:1012700014BF0021012104F52D700DF0EFFB616911
:10128000642914BF0021012104F55D700DF0E6FB17
:1012900010BD94463AB90120704701FB00F00133BC
:1012A0006345FAD3704708460123F9E72DE9F04F6B
:1012B00089B004460F4606921E4600238361D44B34
:1012C0001B68BFF35B8F13F0010F6CD004F19C051A
:1012D00008F07CFD01906FF07F43009300231A46D5
:1012E000394628460AF0E1FF9DF8541028460BF0D5
:1012F00026F9C74F7968B4F9A830C91A0023082223
:10130000490828460BF040FD04F1200B59462846B9
:101310000BF0A2FC012128460BF0DEFC04F1D40501
:10132000B4F9A6807F68103F08F00AFE0368DB6806
:10133000984700EB8000149B02930D2301930090CB
:101340003B4608F108020821284600F017FB4FF43D
:101350007F420421284600F0DEFB08F0F1FD014643
:101360000222284600F031FD139A1299284600F017
:1013700025FC3146284600F0DAFB08F0E1FD034683
:1013800005220699284600F035FD002684F8E46021
:10139000594628460BF060FC012128460BF09CFCC6
:1013A000CDF81CB07DE09A4829F051FB00288DD083
:1013B000D4F8F035D3F888309548436029F056FBCF
:1013C00084E7B4F9E070083F924BA3FB07377F082E
:1013D00002F01EFB054606F1440804EB081806F56A
:1013E000867304EB8303D3F80490149A0A212046F1
:1013F000FFF74FFF00904B4610224146284602F06F
:101400008CFD404626F00EFB069B834AC0F110017E
:1014100040442BF0B7FC4FEA460B06EB4605AD0106
:1014200005F5F87525440435B4F9D8303A1D06FBA6
:1014300002330593B4F9DEA008F082FD0368DB688F
:10144000984700EB80004FF00109CDF8089001901B
:1014500000970AF10803059A414628460DF0E6F880
:1014600026F018FD014623466C4A28460DF002FB83
:10147000002128460DF0F2FA032128460DF087FAE4
:101480000BEB060704EB8717D7F8F4319B68079935
:1014900028469847D7F8F431DB68494628469847EC
:1014A0004E44022E8DD9DDF81CB0149B022B01D9BD
:1014B00002231493149A0A212046FFF7EAFE606182
:1014C000149B03EB4300800100F5F87020440121D8
:1014D00004300DF0C3FA04F14C084D4FD7F80490D6
:1014E000D4F8F4319B6B04F5FA7098470126029604
:1014F00000250195083000904B462A462946404673
:101500000AF0E3FA042140460AF03EFB4FF6FF7171
:1015100040460AF069FB294640460AF07BFB5946E3
:1015200040460BF099FB294640460BF0D5FBD4F81A
:10153000F035D3F88C20B4F95A30D21A02EBD272BB
:1015400000937B683241294658460BF0D2FAD4F812
:10155000F025D2F88830D2F88C2000922A4629460D
:1015600004F17C000AF069FB84F88C6004F58E6855
:10157000D4F8F035D3F88C7008F0E2FC0368DB682F
:10158000984700EB40003F1AD4F8F035D3F8882094
:1015900002EBD27242FA06F908F0D2FC0368DB686B
:1015A000984700EB400002960190A9F104020092D6
:1015B0003B462A461A4940460DF038F826F06AFCA8
:1015C0000146DFF8589023464A4640460DF052FA4D
:1015D00004F5A667D4F8F035D3F88810B4F97C2464
:1015E000B4F97E34029601930092B4F976348A1AE3
:1015F0000C4938460DF01AF826F04CFC01462346FB
:101600004A4638460DF036FA284609B0BDE8F08F54
:1016100024260020ABAAAAAA1C940308831700085A
:1016200020940308249403082DE9F04184B0054672
:1016300016461F46DDF828809DF82C3003930024C1
:1016400002947B1E0193009443461E4AFFF72EFE30
:10165000AE61EF6156F8281005F1D40000F0B5FA3C
:101660000FE004EB4400800100F5F870284404EB1F
:10167000440305EB8313D3F8F4311B690430984716
:101680000134022CEDD905F14C06B5F9DE3001220A
:1016900002920024019408330093B5F95830224691
:1016A000214630460AF011FA042130460AF06CFA5D
:1016B0004FF6FF7130460AF097FA204604B0BDE8B5
:1016C000F08100BF8896030830B583B004460D460C
:1016D0007C300BF001FB691C04F120000BF0FCFADC
:1016E000A91C04F58E600BF0F7FAE91C04F5A6605E
:1016F0000BF0F2FA04F07DF9054626F0CBFB01462B
:1017000004F2F453009323460B4A284604F0FEF9F2
:1017100004F06FF9054626F0BDFB014604F20C63A8
:1017200001937F2300932346044A284604F0B6F928
:101730004FF0000003B030BD1512000883170008F9
:1017400010B5044604F055F904F2F45104F0FBF925
:1017500004F04FF904F20C6104F0C0F904F1200028
:101760000BF0C9FA04F17C000BF0C5FA04F58E60A9
:101770000BF0C1FA04F5A6600BF0BDFA4FF00000C3
:1017800010BD03464FF00200002B5ED070B582B052
:101790001C4603F58E658D4224D003F5A6668E4265
:1017A00020D003F5FA738B4239D004F52D738B42A8
:1017B00038D004F55D738B4237D00B88ADF8043018
:1017C0009DF80430002B33D0012B1AD19DF8055021
:1017D000294630460DF042F99DB931462046FFF7C3
:1017E000D0FF0EE08D4214BF00210121217420465C
:1017F000FFF7A6FF206858B12346A26861680BF086
:101800003BFF2046FFF727FD4FF0000002B070BD00
:101810006368002BF5D02146A0689847F1E70123C3
:101820006361EEE70A236361EBE764236361E8E742
:101830009DF80560314628460DF010F9002EE0D1E4
:1018400029462046FFF79DFFDBE770472DE9F04171
:1018500082B004460E4617461D46DDF82080B0F9DA
:101860000630B0F90400A8EB00000090EB1A04F178
:10187000500009F08DFEB4F90630B4F90420A8EB4D
:1018800002020092EB1A3A46314604F1B8000AF01F
:1018900037FC94F8183113B902B0BDE8F081B4F9FF
:1018A0000630B4F90420A8EB02020092EB1A3A4683
:1018B000314604F180000AF023FCEDE72DE9F04108
:1018C00082B004460E4617461D46DDF82080B0F96A
:1018D0000430B0F90600A8EB00000090EB1A04F108
:1018E000500009F0AEFEB4F90430B4F90620A8EBBC
:1018F00002020092EB1A3A46314604F1B8000AF0AF
:1019000074FC94F8183113B902B0BDE8F081B4F951
:101910000430B4F90620A8EB02020092EB1A3A4612
:10192000314604F180000AF060FCEDE710B5044692
:1019300005290DD8DFE801F0030D0C0C03140E4946
:1019400050300AF067F92368DB6C00212046984785
:1019500010BD006A20B12346A26A616A0BF08CFEBA
:10196000002104F150000AF055F92368DB6C0021D6
:1019700020469847ECE700BF808080002DE9F041C9
:1019800084B004461F460A9E0B9DDDF830804FF060
:10199000FF33C3648180C280CB199BB2013B0381BA
:1019A00093199BB2013B43818781C681A5EB080354
:1019B0008363C0F83C8001220264002105E0226CB0
:1019C00002EB82025200226401318845F7DCB8F153
:1019D000000F14D0CDF80080394A102104F584702E
:1019E0002BF0D0F9B8F1000F00D0013504F1F00868
:1019F000404626F017F8A84213D000220BE0314AE7
:101A0000102104F584702BF0BDF9EBE70021A31839
:101A100083F8F0100132172A03D89542F6D9202115
:101A2000F5E7012302930025019500963B462A46DF
:101A3000294604F150000AF048F804F1B80708F00C
:101A40007FFA01906FF07F4300932B462A46414670
:101A500038460AF02AFC94F83850E36B73B301223D
:101A6000154453FA85F5EDB20135EDB2B4F90C80A9
:101A7000384627F08FF800FB1581B4F9C630F61A06
:101A800006EBD67600237210490804F1B8000BF07B
:101A90007BF908F055FA01906FF07F430093002323
:101AA0001A46094904F180000AF0FFFB2368DB6C49
:101AB00000212046984704B0BDE8F0810022CFE71E
:101AC0002C9403084094030888960308C36F994236
:101AD00000D1704710B5044650300AF055F823681D
:101AE000DB6C00212046984710BD10B50446016309
:101AF0004263036F90F82C0000B11146994200D167
:101B000010BD04F150000AF06FF82368DB6C00216F
:101B100020469847F4E738B504461546FFF7D6FF48
:101B20004FF47F4229462046FFF7DFFF38BD10B54E
:101B300082B00446426C8A4200DC0A46A36C93429F
:101B400000DB1346E26C9A4236D0E364E26B8AB95A
:101B5000009304F58473182204F1F00104F1B80035
:101B60000AF05DFD2368DB6C0021204698470120C8
:101B700002B010BD216C93FBF1F201FB1233002B7C
:101B8000B8BF5B420193009204F58473182204F1FC
:101B9000F00104F1B8000AF042FDE36C002BE1DA39
:101BA000226C93FBF2F3002BDCD1A36B023B2344AA
:101BB0002D2283F8F020D5E70020D9E708B541644D
:101BC0008264C16CFFF7B3FF08BD30B583B0044633
:101BD00000F1B80500910D4B182200F1F0012846E4
:101BE0000AF01DFDB4F90C10B4F9C430C91AB4F9E7
:101BF0000E20B4F9C630D21A02EBD2720023521072
:101C0000490828460BF0C0F803B030BD48940308DB
:101C1000F8B50446836BC56B6DB101210B441D44BF
:101C200094F81831013B042B00F2B480DFE803F094
:101C3000383205638B000021F0E7B4F90C6004F141
:101C4000B807384626F0A6FF94F8E43000FB03F30B
:101C500003FB1561B4F98C30C91A0239B4F90E20AE
:101C6000B4F9C630D21A02EBD272002352104908DE
:101C700038460BF089F8B4F9C060B4F9C27004F1C9
:101C80008005284626F08FFF00233A1AB11C28460B
:101C90000BF07AF82368DB6C002120469847F8BDEA
:101CA000B4F90C10B4F98C30C91AB4F90E20B4F997
:101CB000C630D21AB4F98E30D21A02EBD272002397
:101CC0005210490804F180000BF05EF8B4F90C6082
:101CD00004F1B807384626F05DFF94F8E43000FBC5
:101CE00003F303FB15610023B4F98A204908384641
:101CF0000BF04AF8CEE7B4F90C6004F1B8073846A7
:101D000026F048FF94F8E43000FB03F303FB156171
:101D1000B4F90E20B4F9C630D21A02EBD272002305
:101D20005210490838460BF02FF8B4F90C10B4F9EA
:101D30008C30C91A0023B4F9C220490804F180008C
:101D40000BF022F8A6E7B4F90C6004F1B8073846A6
:101D500026F020FF94F8E43000FB03F303FB156149
:101D6000B4F90E20B4F9C630D21A02EBD2720023B5
:101D70005210490838460BF007F8B4F9C000B4F91E
:101D80008C100023B4F9C220411A04F180000AF03B
:101D9000FBFF7FE7B4F90C6004F1B807384626F082
:101DA000F9FE94F8E43000FB03F303FB1561B4F98A
:101DB0000E20B4F9C630D21A02EBD27200235210B0
:101DC000490838460AF0E0FF64E770B50446154656
:101DD00000F1B80630460AF072FBE9B230460AF06C
:101DE000AEFB2046FFF714FF2368DB6C0021204682
:101DF000984770BD70B504460D4680F8182100F173
:101E00008006194630460AF05AFB00222946304621
:101E10000AF0D2FB2046FFF7FBFE2368DB6C0021B3
:101E20002046984770BD90F82C308B4210D010B5EA
:101E3000044680F82C10503041B1616B09F0D4FE9B
:101E40002368DB6C00212046984710BD216BF5E725
:101E50007047016242628362704700BF02464FF0E2
:101E60000200134652B192F83420052A04D803EB3D
:101E700082035A68114459604FF00000704770B5F2
:101E8000054603F0B6FD05F5BC51043103F05BFED9
:101E900005F58053D3F87807FFF752FC05F5885015
:101EA00004300AF028FF05F58E5004300AF023FFB5
:101EB00005F5945004300AF01EFF05F595501C30CE
:101EC0000AF019FF002427E004EBC400400100F5EC
:101ED000C470284404EBC40305EB4313D3F88C31DE
:101EE0001B6904309847661CC6EBC60005EBC000B2
:101EF00043681B690430984704EB4400800100F6F6
:101F00004800284404EB440405EB8414D4F84C380E
:101F10001B69043098473446052CD5D900240FE0BE
:101F200004EB4400800100F55C60284404EB4403AA
:101F300005EB8313D3F8C43D1B6904309847013483
:101F4000032CEDD905F6CC400AF0D5FE05F68C50F1
:101F50000AF0D1FE05F5975014300AF0CCFE05F5D5
:101F60009D5014300AF0C7FE05F5A35014300AF056
:101F7000C2FE05F5A95014300AF0BDFE05F5AF50BC
:101F800018300AF0B8FE05F5B55018300AF0B3FE67
:101F9000FEF750FCFEF706FE4FF0000070BD2DE985
:101FA000F04F83B0064600252F4600F58058D8F83C
:101FB000800790F8701301F077FD014606F5945BF9
:101FC0000BF1040B2A4658460AF0F6FAD8F88007B7
:101FD00090F8F11301F071FD014606F5955A0AF1EA
:101FE0001C0A2A4650460AF0E7FAB8F90C9109F1A2
:101FF0000409B8F9C841043CA4EB0904B8F99012EB
:10200000611A01EBD1712B46B8F98A2209EB610103
:1020100058460AF0B9FEB8F9C832E41A04EBD47491
:102020002B46B8F9C22209EB640150460AF0ACFE17
:1020300010E09D4218D205EBC504640104F5C47498
:1020400034440434E9B201F08DFD01462046FFF727
:102050006EFD013506F58053D3F88007D0F81034B3
:10206000052BE6D90623E4E70024052C51D806EB1E
:1020700084035D680DB90134F7E7B26B02FB05F527
:1020800096F8341001F0FEFCF0B1904BA21D06EB67
:1020900082025268002A1ADB002A1EDD06EB840247
:1020A0005268002A19DD03F0A4FC026F132A00D83D
:1020B0001422B36B02FB03F3C3EB03139B00844AAC
:1020C000A2FB0323DB0813E04EF66023DEE706EBFA
:1020D000840149680029DFDAE5E706EB84025268EB
:1020E000002A40F392800121A21D06EB820251607A
:1020F00006F580504FF00008CDF800802A46E1B286
:10210000D0F8800702F0D2FC074606EB8404C4F83E
:10211000048006F5975808F1140806F58053D3F8A3
:10212000803793F80C34002B72D04FF47F41404637
:102130000CF0B5FB06F59D55143506F58053D3F824
:10214000803793F80D34002B65D04FF47F4128463B
:102150000CF0A5FB06F5A350143006F5805393F858
:10216000F435002B5AD0FF210CF099FB06F5805373
:10217000D3F8803793F85223002A54D006F5A9509B
:10218000143093F8E333002B4BD04FF47F410CF025
:1021900086FB06F5AF50183006F58053D3F880372C
:1021A00093F87033022B4BD04A490CF034FB06F500
:1021B0008053D3F8802792F87033052B42D00BB1AF
:1021C000092B4CD1444906F5B55018300CF023FBCF
:1021D00006F58053D3F8800726F0FEFC48B106F5DB
:1021E0008053D3F8803793F87033012B3ED0032B04
:1021F0003CD006F58053D3F87807FFF7A1FA06F62E
:10220000CC400CF010FC002453E04FF0FF316BE7A2
:102210006FF07F418BE76FF07F4198E76FF07F4170
:10222000A2E7FF21B3E706F5A950143093F8E33392
:102230001BB1FF210CF033FBABE76FF07F41F9E7F7
:102240002649B2E706F5B550183092F8F1334F2B16
:1022500003D023490CF0DFFABAE71F49FAE7214916
:1022600006F5B55018300CF0D6FAB1E706F6CC40BA
:102270000CF0C0FB002409E004EB4400800100F6F0
:102280004800304404300CF0B5FB0134052CF3D980
:1022900040460CF0AFFB28460CF0ACFB11E004EB21
:1022A0004400800100F64800304404300CF0BBFBD1
:1022B0000134052CF3D940460CF0B5FB28460CF050
:1022C000B2FB384603B0BDE8F08F00BF80F52000B8
:1022D000CDCCCCCC54940308589403084C940308F8
:1022E00060940308689403082DE9F04F8DB082468E
:1022F00000F58053D3F87C37D3F888200692D3F8C2
:102300008C4007F01DFE0368DB68984700EB8002F5
:102310000592C2EBC2032433E31A03EBD3735910C3
:102320000A9102EB630B0BF10C0309934FF00009C8
:10233000CDF82CB0E7E0994580F0F080059B0433A0
:10234000099909FB031107914FEAC90509EBC90473
:10235000640104F5C47454440434069FA7F10806CC
:10236000B6005FFA89FB594626F026FCA04981FB9E
:10237000062381FB0721029008220192059A009210
:10238000A3EBE673079A0697A1EBE7712046FFF7E8
:10239000F5FAFF2204212046FFF7BDFB07F0D0FD30
:1023A000014602222046FFF710FD00212046FFF7DC
:1023B000BEFB0AF580585946D8F8800726F02AFC5B
:1023C000064607F0BDFD0346032231462046FFF7CF
:1023D00011FD25F05FFD014600231A462046FFF758
:1023E00038FD4D440AEB4515D5F88C319B6C012125
:1023F0002046984709F10106F0000490C6EBC60795
:102400000AEBC70704375946D8F8800701F02FFBBD
:10241000804607F0DBFC01906FF07F4300930023C0
:102420001A464146384609F040FF022138460AF074
:1024300086F80498871B0AEBC7070437831B0AEB4F
:10244000C3035B68DB690893D5F88C31DB6A2046EF
:10245000984700EBD0704FEA600B0498831B0AEB9F
:10246000C3035B68DB6B3846984700EBD070ABEB7F
:10247000600BD5F88C311B6B204698478046D5F809
:102480008C311B6C2046984700EBD07008EB60083D
:102490000498831B0AEBC3035B681B6C38469847A0
:1024A00000EBD0700023A8EB600259463846089F25
:1024B000B84709EB4907BF0107F6480757440437F7
:1024C000D5F88C315B6B204698478046D5F88C3127
:1024D0005B6B204698470699081A012302930599D9
:1024E000019108380090079B08F1040241493846E1
:1024F0000CF09CF825F0CEFC014600231A46384625
:102500000CF0B8FAB1460AF58053D3F88007D0F83A
:102510001034052B7FF60FAF06230CE7DDF82CB047
:102520000AF6CC450AF5C678DAF88C311B6B4046C2
:1025300098470646DAF88C31DB6A404698470446ED
:10254000DAF88C311B6C404698472B4F01230293DD
:102550000190083C009433460422394628460CF08A
:1025600065F825F097FC014600231A4628460CF032
:1025700081FADAF88C31DB6A404698470446DAF88B
:102580008C311B6B40469847054607F0D9FC0190FB
:102590006FF07F43009305F1080304F10802394608
:1025A0000AF68C5009F081FE069BA3F11406B608CA
:1025B0000AF58053D3F88037D3F81034052B00D9AF
:1025C0000623013B03EBC300400100F5C4705044F7
:1025D00003EBC3030AEB4313D3F88C319B6B04303A
:1025E000984700F108070025B946059F36E000BF6F
:1025F000ABAAAA2A709403088896030805EB450441
:10260000A40104F55C645444043405EB45018900DD
:1026100001F586515144321D05FB02F2012302935C
:10262000019700964B460432043120460BF0FEFF22
:1026300025F030FC014600231A4620460CF01AFA19
:10264000032120460CF0A3F9002120460CF006FAE5
:102650006FF07F4120460CF022F90135032DCDD9D2
:1026600001210AF5805004300CF0F8F9DAF88C31C9
:102670005B6B40469847069B1D1AA5F108080AF5B2
:102680008857043701240294059B0193CDF80080FC
:10269000DDF828904B460422804938460BF0C6FFEF
:1026A00025F0F8FB014600231A4638460CF0E2F903
:1026B0000AF58E570437069A043A02940599019157
:1026C000CDF800804B46A2EB0802754938460BF066
:1026D000ADFF25F0DFFB014600231A4638460CF01B
:1026E000C9F907F073FB0368DB6898470599A1EB0C
:1026F000000809EB580807F069FB01906FF07F476D
:10270000009743462A1D67490AF59450043009F0A2
:10271000CCFD07F05BFB03689B68984700EB8000EB
:10272000054407F00DFC03689B6898470544043591
:1027300007F006FC0368DB689847ABEB0003A3F1E6
:10274000020807F0FDFB0190009743462A465649D0
:102750000AF595501C3009F0A8FDDAF8C43D9B6BD2
:102760000AF6C4509847051D0AF597571437029486
:102770000599019100962B4604224C4938460BF0EE
:1027800055FF25F087FB014600231A4638460CF01A
:1027900071F90AF59D571437029405990191009635
:1027A0002B4606F10802424938460BF03FFF25F060
:1027B00071FB014600231A4638460CF05BF90AF516
:1027C000A3571437B21D02940599019100962B4628
:1027D000A240384938460BF029FF25F05BFB014643
:1027E00000231A4638460CF045F90AF5A957143764
:1027F000321D02EB42020294059B019300962B4688
:1028000004322D4938460BF011FF25F043FB0146F9
:1028100000231A4638460CF02DF90236A640059BD7
:102820001D442F1D0AF5AF551835029401930096EB
:102830003B460422214928460BF0F8FE07F0C6FA71
:10284000014628460CF03DF825F024FB0146002304
:102850001A4628460CF00EF90AF5B55518350294BB
:10286000059B019300963B4606F108021449284651
:102870000BF0DCFE07F0AAFA014628460CF021F81E
:1028800025F008FB014600231A4628460CF0F2F812
:102890004FF000000DB0BDE8F08F00BF7494030846
:1028A000789403087C9403088896030884940308AA
:1028B0008894030890940308C09303085494030871
:1028C0006894030870B50646002510E005EB450442
:1028D000A40104F55C6434440434002120460CF067
:1028E000BDF86FF07F4120460BF0D9FF0135032D75
:1028F000ECD970BD2DE9F04F85B0064600251BE0F0
:1029000005EB450306EB83030B440A21995405EBC1
:102910004500800100F55C60304405EB450406EBA2
:102920008414D4F8C43DDB6864210430984794F8DB
:10293000F83D002B40D10135032D4FD805EB450361
:102940009B0003F58653334403F1040800245C60C4
:102950009C60DC60234B03EB8503D3F8249005F2E5
:102960003C4306EB8303C3F8049006F5805BDBF879
:1029700080A72146504626F03DF907462146DBF860
:10298000800726F047F90294019000974B460C22ED
:102990004146504601F030FB21460B29B7D805EBE4
:1029A000450306EB83030B4441F2C4029B5C202BDE
:1029B000A6D00131C9B2F0E705EB4500800100F572
:1029C0005C6030444FF47F4104300BF068FF05F247
:1029D0003C4306EB83035B68B363ACE705B0BDE83B
:1029E000F08F00BF34F3020870B582B00546FDF7E2
:1029F00021FFFEF7B3F8642105F5885004300AF092
:102A00006BF9642105F58E5004300AF065F96521F3
:102A100005F5945004300AF05FF9652105F59550ED
:102A20001C300AF059F92846FFF764FF00242CE017
:102A30009C4234D204EBC400400100F5C470284429
:102A400004EBC40305EB4313D3F88C31DB6864213A
:102A500004309847661CC6EBC60005EBC00043680F
:102A6000DB6864210430984704EB4400800100F6E1
:102A70004800284404EB440405EB8414D4F84C3893
:102A8000DB68642104309847344605F58053D3F859
:102A90008037D3F81034052BCAD90623C8E706239C
:102AA00085F8343000240AE004EBC400400100F54E
:102AB000C470284400210430FFF7B5F90134052C17
:102AC000F2D9642105F5975014300AF005F9642114
:102AD00005F59D5014300AF0FFF805F5A3541434A1
:102AE0001A4920460BF097FE6FF07F4120460BF00D
:102AF000D6FE05F58053002683F8F4656421204650
:102B00000AF0EAF8642105F5A95014300AF0E4F857
:102B1000642105F5AF5018300AF0DEF8642105F5A0
:102B2000B55018300AF0D8F802F063FF044625F0DB
:102B3000B1F9014605F5BC53043300932B46044A12
:102B4000204602F0E3FF304602B070BD90940308C7
:102B50005D1E00082DE9F04F89B000F5885304335D
:102B60008B423ED004460D4600F58E5304338B4213
:102B700040D000F5A95314338B4240D000F5AF5339
:102B800018338B4248D000F5B55318338B4253D0DD
:102B900000F5A35314338B4200F0858000F5805379
:102BA000D3F878378B4200F0D28000F59753143376
:102BB0008B4200F0DA8000F59D5314338B4200F015
:102BC000DC800027032F00F2F28007EB4706B601F6
:102BD00006F55C6626440436AE4200F0D680013726
:102BE000F0E7FDF727FEFEF703F94FF0000009B00C
:102BF000BDE8F08FFDF71EFEFEF7ECF8F5E700F5F7
:102C00008054D4F8800790F8523313B101F018F9CA
:102C1000EBE701F0CAF8E8E700F58054D4F8800744
:102C200090F87033022B03D0812101F0AFF8DCE77C
:102C3000822101F0ABF8D8E700F58054D4F8800782
:102C400090F87033052B0FD00BB1092B20D1002346
:102C500080F8F13380F85533D0F86833C0F86C331E
:102C6000182101F093F8C0E790F8F1334F2B02D010
:102C700025F04EFBB9E7002380F8F13380F8553397
:102C8000D0F86833C0F86C33182101F07FF8ACE756
:102C9000002380F85533D0F86833C0F86C3319211D
:102CA00001F074F8A1E700F58053D3F8800790F89D
:102CB000526366B30023079304F5805393F8F43509
:102CC00043BB04F58055A021D5F8800701F05EF8DC
:102CD000A121D5F8800701F059F807AF3A467549A8
:102CE000D5F8800701F00FFE3A467349D5F8800702
:102CF00001F009FE012385F8F435002E7FF475AF4D
:102D000004F58054D4F8800701F09AF86DE701F0DB
:102D10004CF8CFE704F5805507AF3A466749D5F838
:102D2000800701F0F0FD3A466549D5F8800701F0CB
:102D3000EAFDA021D5F8800701F028F8A121D5F8F7
:102D4000800701F023F8002385F8F435D5E71A7CD5
:102D5000002A3FF44AAF00F58054D3F82021197BB4
:102D6000D4F8800702F0A8F83FE700F58054A021CE
:102D7000D4F8800701F00AF837E700F58054A12164
:102D8000D4F8800701F002F82FE72046FFF79AFDFC
:102D9000012130460BF062FE4FF47F4130460BF0CC
:102DA0007EFD07F23C4304EB83035B68A363042FBF
:102DB0007FF41BAF00260BE0AF425AD006EB460370
:102DC0009B0103F6480323440433AB426AD0013627
:102DD000052E3FF60AAF06EBC6077F0107F5C4775D
:102DE00027440437AF42E7D106EBC60304EB431395
:102DF00093F8B831002BDFD004F58057D7F87897D7
:102E00005FFA86F84146D7F8800700F030FE05905B
:102E1000D7F8800790F81C242A4B53F822A006EB21
:102E2000C60304EB4313D3F8D8B1414625F0C4FEE2
:102E3000022303930290244B0193244B00935B469F
:102E4000524605994846FEF731FAD7F8788725F0BB
:102E500021F8014600231A464046FEF7F8F9D7F854
:102E60007837DE6042F21071D7F87807FEF72CFC55
:102E7000ADE70025052D0BD805EBC500400100F599
:102E8000C470204400210430FEF7CDFF0135F1E786
:102E900001213846FEF7C7FF84F834602046FFF76B
:102EA00029FDA2E604F58053F1B2D3F8800701F0C2
:102EB000D5FF8CE798940308A0940308A89403080E
:102EC000AC940308ACFC020880969800806967FF08
:102ED0002DE9F04F87B00446BF4B03600246BF4B5D
:102EE00042F8043B0023436053609360D360136156
:102EF0005361C361036243628362C3620363062357
:102F000080F834300123836300F13C0300931E46B4
:102F1000052501E0013D3836002D03DB304624F065
:102F2000FDFFF7E704F5C67301931E46052502E091
:102F3000013D06F59076002D03DB304625F050F874
:102F4000F6E704F64C0302931E46052501E0013D19
:102F5000C036002D03DB304625F014F8F7E704F601
:102F6000CC430493184625F00DF804F68C5024F059
:102F7000D5FF04F6C45303931E46032501E0013D2B
:102F8000C036002D03DB304624F0FCFFF7E704F5E4
:102F900080553022002105F1C40029F0A9FF00234B
:102FA000C5F8F430C5F8F830C5F8FC30C5F8003184
:102FB00004F5885304330593184624F0E3FF04F521
:102FC0008E550435284624F0DDFF04F59450043076
:102FD00024F0A4FF04F595501C3024F09FFF04F565
:102FE00097561436304624F0CDFF04F59D5714371C
:102FF000384624F0C7FF04F5A35808F114084046EA
:1030000024F0C0FF04F5A95909F11409484624F039
:10301000B9FF04F58053002283F8F42504F5AF5A74
:103020000AF1180A504624F0ADFF04F5B55B0BF128
:10303000180B584624F0A6FFFDF7FCFB00F5D9500D
:10304000143004F58053C3F8780706F09DFA04F5B0
:103050008053C3F87C0700F0DBFCC3E0009B002B2F
:1030600000F0B680C5F105053823009A03FB05255D
:10307000009B9D4200F0AC80594B45F8383D2846F6
:1030800009F05AFEF4E7019B002B00F09580C5F192
:1030900005054FF49073019A03FB0525019B9D42A2
:1030A00000F08A80A5F59075284625F047F9F5E7E8
:1030B000029B002B75D0C5F10505C023029A03FBC6
:1030C0000525029B9D426CD0C03D284624F0F8FFA8
:1030D000F7E7039B002B4ED0C5F10305C023039AED
:1030E00003FB0525039B9D4245D0C03D284624F0A7
:1030F000E7FFF7E7584624F0E3FF504624F0E0FFEF
:10310000484624F0DDFF404624F0DAFF384624F03C
:10311000D7FF304624F0D4FF04F58053304AC3F87B
:10312000BC2204F595501C3009F006FE04F58053CE
:103130002B4AC3F8842204F59450043009F0FCFDB6
:10314000284624F0BDFF059824F0BAFF04F5865503
:103150000435039B9D420ED0C03D284624F0B0FFAD
:10316000F7E7CAE7CCE7CEE7D0E7D2E7D4E7DDE779
:10317000E6E7E8E7EAE71A4BC4F88C3D04F68C5022
:1031800009F0DAFD049824F09BFF04F6CC45029B7D
:103190009D4206D0C03D284624F092FFF7E7F1E7B4
:1031A000F3E704F64C05019B9D4205D0A5F590750B
:1031B000284625F0C3F8F6E704F5C675009B9D4246
:1031C00006D0074B45F8383D284609F0B5FDF5E730
:1031D000014B236027F0E8F858A203083CF30208EB
:1031E000E88D030804F58053C3F880070022C3F874
:1031F0008427C3F88827C3F88C2783F89027C3F85F
:103200009427C3F89827204607B0BDE8F08F08B58B
:103210000F4B1B68BFF35B8F13F0010F01D00D48FC
:1032200008BD0B4827F013FC0028F8D00948FFF729
:103230004FFE094A0949074827F03BF8044827F0A0
:1032400015FCECE7024827F00EFC27F0ADF800BFB4
:103250002C2600203026002044010020358C020856
:1032600010B40D4B1C21198059804FF0080C83F8C5
:1032700004C00A4A9A600A48D860D0F85C431C61CE
:103280009982D98283F818C002F54472DA61186213
:103290005C625DF8044B7047CC3D002088F3020867
:1032A000447F030808B50321C06C06F0A7FB4FF06C
:1032B000000008BD79B908B590F8313083F00103FA
:1032C00080F831301BB1044907F080FB08BD034989
:1032D00007F07CFBFAE77047CC3D0020E03D002082
:1032E000114B9B6ABFF35B8F13F0010F01D00F48A6
:1032F000704710B50E4827F0AAFB08B90B4810BD5F
:103300000A4825F0E7FE084C0A4A0B4904F12C0054
:1033100026F0CFFF04F1280027F0A8FBEEE70448D1
:1033200027F0A1FB27F040F8CC3D0020F83D00201D
:10333000F43D0020440100206590020838B50546A0
:103340000160002303714371837106F01DF9A860C9
:1033500028F07EFD0D4C84FB0023A3EBE07303EB10
:103360004303A0EB430301332B7128F071FD84FB71
:103370000023A3EBE07303EB4303A0EB4303013310
:103380006B710123AB71284638BD00BFABAAAA2AD6
:1033900070B50646006803685B6B98470546306861
:1033A0000368DB6A9847284400EBD070451030680A
:1033B00003689B6B98470446306803681B6B98470B
:1033C000231803EBD3735B1096F90420551905D429
:1033D0001146B068D0F88800854203DBD2B2524271
:1033E0003271002196F905000246C31804D4B4686E
:1033F000D4F88C40A34203DBC0B24042707100227B
:1034000030680368DC690123A04770BD38B5044605
:103410001D460D4B07F0A8FA0C4B2360002384F8DF
:10342000313084F831501DB101232374204638BD5A
:103430000549204607F0CAFAF6E7054B2360204607
:1034400009F07AFC26F0B0FFCC3D0020D8F9020844
:103450008C7E030830B5ADF5177D054689AC012398
:10346000002211462046FFF7D1FFEB6CD3F88810FD
:10347000BDF93022891AD3F88C20BDF93232D21A24
:1034800002EBD27201EBD171002352104910204699
:1034900009F07AFC4FF40041204609F01DFC00239E
:1034A0000293012301934FF0FF1300931E239622F2
:1034B00078217FA808F08BFC28217FA809F00CFC5C
:1034C0000023029301934FF47F0300931E2378227D
:1034D000962175A808F07BFC322175A809F0FCFB49
:1034E0004FF47F43019378230093602322222E21FF
:1034F0006CA808F01BFC1E216CA809F0EDFBBF4B6B
:1035000001934C2300936E2322222E2163A808F0FE
:103510000DFC1E2163A809F0DFFB06F095FC01906D
:103520004FF0FF1300930A230022B54955A808F075
:103530000CFF462155A809F0CFFB06F0C3FC019013
:10354000AE4B009314230022AD4947A808F0FDFEBE
:10355000502147A809F0C0FB06F02EFD01904FF660
:10356000FF7300931E230022A54939A808F0EDFE41
:103570005A2139A809F0B0FB06F0A4FC02904FF0E4
:10358000FF1301934FF47F430093322300229C49A1
:103590002BA808F053FF64212BA809F09DFB06F02F
:1035A000D7FB0190FF2300934623002294491DA8D6
:1035B00008F0CBFE6E211DA809F08EFB01230293BB
:1035C000FF2301930A23009364230022114611A8CC
:1035D00008F0B2FA0A2111A809F07EFB0123029338
:1035E0004FF6FF7301930A230093142346226421AC
:1035F0000DEB030008F0A0FA14210DEB010009F017
:103600006BFB0C2005F030FE04467FA9FFF796FE09
:103610007C4BDC670C2005F027FE044675A9FFF7FC
:103620008DFE784BC3F880400C2005F01DFE04464B
:103630006CA9FFF783FE734BC3F884400C2005F0A0
:1036400013FE044663A9FFF779FE6E4BC3F888406A
:103650000C2005F009FE044655A9FFF76FFE694BE3
:10366000C3F88C400C2005F0FFFD044647A9FFF786
:1036700065FE644BC3F890400C2005F0F5FD044650
:1036800039A9FFF75BFE5F4BC3F894400C2005F0AF
:10369000EBFD04462BA9FFF751FE5A4BC3F89840A7
:1036A0000C2005F0E1FD04461DA9FFF747FE554B30
:1036B000C3F89C400C2005F0D7FD044611A9FFF784
:1036C0003DFE504BC3F8A0400C2005F0CDFD044654
:1036D00005A9FFF733FE4B4BC3F8A44001E0C0B28D
:1036E00090B1E86C4FF0FF3100F5C35014300AF090
:1036F0009AFAF4E701340A2C08D8424B03EB84030E
:10370000D86FFFF745FEF5E70024F4E7E86C00F515
:10371000C35014300AF09AFAE86C00F5C150043036
:103720000AF0E3FA01200AF02DFBDAE70C2120462B
:1037300026F038FE05A8344B036009F0FDFA11A805
:10374000314B036009F0F8FA1DA8304B036009F013
:10375000F3FA2BA82D4B036009F0EEFA39A82B4B96
:10376000036009F0E9FA47A8284B036009F0E4FA7E
:1037700055A8264B036009F0DFFA254B639363A835
:1037800009F0DAFA224B6C936CA809F0D5FA214BB8
:10379000759375A809F0D0FA1E4B7F937FA809F0A6
:1037A000CBFA1D4B89931D4B899389A809F0C4FA64
:1037B00026F0FAFD0C21204626F0F4FDBAE70C2194
:1037C000204626F0EFFDB5E70C21204626F0EAFD65
:1037D000B0E70C21204626F0E5FDABE70C212046A2
:1037E00026F0E0FDA6E70C21204626F0DBFDA1E750
:1037F0000C21204626F0D6FD9CE700BF00FFFF000D
:10380000C0940308CC3D0020248D0308E88D0308F4
:10381000748C03081C8C0308D8F902088C7E0308FA
:103820000C21204626F0BEFD84E70C21204626F020
:10383000B9FD7FE70C21204626F0B4FD7AE779E751
:103840007DE781E785E789E78DE791E795E799E7E8
:103850009DE7A1E7A5E708B5FFF702FD08BD00BF9A
:1038600010B582B0044641F2883020F0C9FDE06C0A
:1038700003689B68984700238DF80730E06C036865
:103880001B690DF107019847C0B20028F6D04FF030
:10389000000002B010BD70B504464FF00705C06CC3
:1038A00003681B6A984740B3D4F82434002B48D1EE
:1038B00094F850303F2B29D03F2B2ED004F15005E7
:1038C0004FF4807204F58561284629F038FBE66CD8
:1038D000284624F0A7F802463368DB6929463046BB
:1038E0009847054604F15006304624F09BF80246FE
:1038F000314646481DF072F9F8B1EDB2072D6AD095
:10390000242D68D04FF00005284670BD94F854234C
:10391000002AD1D14FF00005E4E70AF04DFAC4F8CF
:103920005803002384F85433E06C0368DB690122F8
:1039300004F1500198470546D4E734481DF068F972
:10394000DBE7204625F048F90028D6D094F8553317
:10395000002BD2D194F8F13333B1D4F82434C4F825
:103960006C334FF00005C8E704F595654FF0FF3163
:10397000284609F093FF0AF01FFAC4F860030123F8
:1039800084F85533D4F82434C4F86C33284609F04D
:10399000ADFF04F150064FF4807204F585613046A6
:1039A00029F0CDFAE56C304624F03CF802462B684D
:1039B000DB693146284698470546304624F032F800
:1039C0000246314611481DF009F9002895D10F48EB
:1039D0001DF01EF991E7D4F8243453B1204625F0A8
:1039E000FBF830B9D4F82434C4F86C334FF0000538
:1039F0008AE70023012204F22441204609F06FFEE9
:103A0000054601200AF0C7F97EE700BFAC7301202C
:103A1000104B1B68BFF35B8F13F0010F01D00E48F2
:103A2000704710B50B4827F012F808B90A4810BDC6
:103A3000094825F08DFB074C084A0949201D26F04E
:103A400038FC204627F012F8F0E7024827F00BF880
:103A500026F0AAFC383F00203C3F00204401002013
:103A60001991020808B5C16409F072FD08BDD0F8CB
:103A70001034994200DB062101F5157100EB41007D
:103A80000430704702290BD9D0F81034994209DA72
:103A90000339C9B290F81404C84000F0010070471F
:103AA00000207047002070470A2900D9002101F545
:103AB000977100EB810040687047572900D9582161
:103AC00001F5A77150F82100704770B52DED028BFC
:103AD000D0F81034994204DB00242046BDEC028B60
:103AE00070BD04460D4600F595664FF0FF31304637
:103AF00009F0D4FE94F8E033FBB105F1DC0304EBEC
:103B0000830393ED018A05F1E20304EB8303D3ED14
:103B1000017A38EE278A2946204625F06BF807EE11
:103B2000900AF8EEE77A67EE887AFDEEE77A17EE0C
:103B3000904A304609F0DAFECFE705F1DC0304EBEA
:103B4000830393ED018A2946204625F053F807EEBA
:103B5000900AF8EEE77A67EE887AFDEEE77A17EEDC
:103B6000904AE6E770B52DED028BD0F810349942FB
:103B700004DB00242046BDEC028B70BD04460D46DC
:103B800000F595664FF0FF31304609F087FE94F856
:103B9000E033BBB105F1DC0304EB830393ED018A51
:103BA0002946204625F026F807EE900AF8EEE77A37
:103BB00067EE887AFDEEE77A17EE904A304609F014
:103BC00095FED7E705F1DC0304EB830393ED018A4F
:103BD00005F1E20304EB8303D3ED017A38EE678A43
:103BE0002946204625F006F807EE900AF8EEE77A17
:103BF00067EE887AFDEEE77A17EE904ADEE770B559
:103C00002DED028BD0F81034994204DB00242046BD
:103C1000BDEC028B70BD04460D4600F595664FF075
:103C2000FF31304609F03AFE94F8E033FBB105F17C
:103C3000E80304EB830393ED018A05F1E20304EB4F
:103C40008303D3ED017A38EE278A2946204624F0F3
:103C5000D1FF07EE900AF8EEE77A67EE887AFDEE7C
:103C6000E77A17EE904A304609F040FECFE705F1BB
:103C7000E80304EB830393ED018A2946204624F0F0
:103C8000B9FF07EE900AF8EEE77A67EE887AFDEE64
:103C9000E77A17EE904AE6E770B52DED028BD0F883
:103CA0001034994204DB00242046BDEC028B70BD29
:103CB00004460D4600F595664FF0FF31304609F099
:103CC000EDFD94F8E033BBB105F1E80304EB8303A9
:103CD00093ED018A2946204624F08CFF07EE900AD6
:103CE000F8EEE77A67EE887AFDEEE77A17EE904A0B
:103CF000304609F0FBFDD7E705F1E80304EB830349
:103D000093ED018A05F1E20304EB8303D3ED017A1D
:103D100038EE678A2946204624F06CFF07EE900AA9
:103D2000F8EEE77A67EE887AFDEEE77A17EE904ACA
:103D3000DEE790F855331BB9D0F86C338B4205D0D1
:103D4000D0F86C338B4204D85520704790F8F103BB
:103D500070475420704710B50446FFF7EAFF38B9A2
:103D6000D4F86423D4F85C339A4204D2012002E0F0
:103D7000542801D0002010BDD4F86023D4F85C335F
:103D80009A4201D30020F6E70120F4E700B5A3B082
:103D9000002301938DF808108DF80930012201A944
:103DA00009F09DFC23B05DF804FB10B5044602F059
:103DB000D1FB037A93B900224FF400511F480BF056
:103DC00080FE94F8EC3323F0010384F8EC330123F4
:103DD00084F85233872384F8533310BD02F0BAFBC2
:103DE000037A012B0FD194F85233002BE9D18B21A8
:103DF0002046FFF7CBFF09F0DFFFC4F8580300238C
:103E000084F85433DDE702F0A5FB037A022BD8D106
:103E100000224FF4005109480BF053FE94F852333E
:103E2000002BCED18B212046FFF7B0FF09F0C4FF55
:103E3000C4F85803002384F85433C2E70008024052
:103E400010B5044602F086FB037AD3B901224FF481
:103E5000005124480BF035FE002384F8523394F8C7
:103E600052336BB984F85533D4F86823C4F86C2303
:103E700084F8F13394F8EC2363F3000284F8EC2324
:103E800010BD02F067FB037A012B0ED194F8523378
:103E900013B194F8E3331BB9002384F85233DEE7FF
:103EA0008B212046FFF772FFF6E702F053FB037AFF
:103EB000022B02D002F04EFBD1E701224FF4005159
:103EC00008480BF0FEFD94F8523313B194F8E33335
:103ED0001BB9002384F85233C1E78B212046FFF73A
:103EE00055FFF6E70008024038B5044602E001201D
:103EF00009F051FF94F85433002BF8D0D4F85C53F8
:103F00003F212046FFF742FF02E0012009F043FF76
:103F1000D4F85C33AB42F8D038BD30B583B00D4631
:103F20001146069C83EAE370A0EBE37042F2107C3A
:103F300064450FD0B4F57A7F1ED0642C2CD00A2CA7
:103F40003AD0002B48DB254B0090254A284628F024
:103F500019FF0CE0002B0DDB204B90FBF4F204FB6F
:103F60001204019400921F4A284628F00BFF2846AD
:103F700003B030BD1C4BF0E7002B0BDB174B90FB65
:103F8000F4F204FB120401940092184A284628F027
:103F9000F9FEECE7144BF2E7002B0BDB0F4B90FB29
:103FA000F4F204FB120401940092114A284628F00E
:103FB000E9FEDCE70C4BF2E7002B0BDB074B90FB39
:103FC000F4F204FB1204019400920A4A284628F0F5
:103FD000D9FECCE7044BF2E7034BB5E7889603081C
:103FE0000C950308DC94030880940308E894030804
:103FF000F4940308009503082DE9F04182B00C46C3
:104000001546089F099E9DF828800097FFF785FFB9
:10401000B8F1000F12D0012F10DD204623F002FD71
:10402000431E03E000208CF80000013B33B104EB99
:10403000030CE05C3028F5D02E28F3D04EB120469A
:1040400023F0F0FC0096054B054A291A204428F07D
:1040500099FE204602B0BDE8F08100BF1495030828
:1040600018950308F8B505460E463A21304628F063
:1040700047FF30B3002300F8013B27F0B3FEC7B27F
:10408000002401E00134E4B20A2C09D804F5977346
:1040900005EB83035968304623F0BAFC0028F1D1C0
:1040A0000A2C00D9002495F87033A3420BD013B921
:1040B000012385F80E3485F8704385F8717301206B
:1040C000F8BD0027DCE795F87123BA42EFD1002054
:1040D000F6E710B50C46104627F081FE51EC100BA8
:1040E00023F056FB07EE900A94ED007AB4EE677A5F
:1040F000F1EE10FA14BF0120002001D0C4ED007AC7
:1041000010BD10B50C46104627F06CFE0346226821
:10411000824214BF0120002000D0236010BD70B582
:1041200006460C463D21204628F0EAFE30B30546FF
:10413000002305F8013B601C27F054FE202813DC07
:104140000A281BDBA0F10A03162B17D8DFE803F0BF
:1041500017161627161616161616161637161616CC
:104160001616161647576700B0F5BC7F06D196F8AD
:104170001444284627F036FE844260D170BDD6F83C
:104180001844284627F032FE8442F7D0284627F00C
:104190002DFEC6F81804012386F80F34EEE796F8D2
:1041A0001C44284627F01EFE8442E7D0284627F00C
:1041B00019FE86F81C04012386F80F34DEE7B6F8F2
:1041C0001E44284627F00EFE8442D7D0284627F00A
:1041D00009FEA6F81E04012386F80F34CEE7B6F8D0
:1041E0002044284627F002FE8442C7D0284627F004
:1041F000FDFDA6F82004012386F80F34BEE7B6F8CB
:104200002244284627F0F2FD8442B7D0284627F002
:10421000EDFDA6F82204012386F80F34AEE796F8E8
:104220001D44284627F0DEFD8442A7D0284627F00B
:10423000D9FD86F81D04012386F80F349EE7284631
:1042400027F0D0FD86F81404012386F80F3495E793
:104250002DE9F04106460C4617460025A84607E022
:104260002C21204628F04CFE044678B1013401355B
:10427000D6F81034AB4209DD224607EB8501304603
:10428000FFF727FF0028EBD08046E9E74046BDE86E
:10429000F08110B5044600F56372FFF7D9FF94F87A
:1042A000E83360F3C30384F8E83394F8E123DBB226
:1042B00062F3451384F8E83310BD70B504460E462A
:1042C0002C21304628F01CFE0546002305F8013B52
:1042D000324604F575712046FFF713FF28B194F8B4
:1042E000EA3343F0010384F8EA332C21284628F00E
:1042F00007FE0646002306F8013B2A4604F57671C0
:104300002046FFF7FEFE28B194F8EA3343F002039B
:1043100084F8EA33324604F581612046FFF7F1FE66
:1043200028B194F8EA3343F0040384F8EA3370BD0B
:1043300070B504460E462C21304628F0E1FD0546B6
:10434000002305F8013B324604F577712046FFF75C
:10435000C0FE28B194F8E93343F0020384F8E9334E
:104360002C21284628F0CCFD0646F0B1002306F8A3
:10437000013B2A4604F57F712046FFF7AAFE28B1CB
:1043800094F8E93343F0040384F8E93366B1324624
:1043900004F580612046FFF79CFE28B194F8E933CC
:1043A00043F0040384F8E93370BD04F58063002210
:1043B0001A60DEE770B5044600F5A875C5492846C1
:1043C00023F026FB20B394F850313C2B2AD05B2BF2
:1043D00000F0B781242B00F008820622BE4928464F
:1043E00028F09BFD002800F005820622BB492846E4
:1043F00028F093FDA8B904F5AB7027F0F3FC84F81E
:10440000F00394F8E93343F0080384F8E93308E053
:1044100009F0D2FCC4F86403002384F8553384F80F
:10442000F13370BD012384F8543309F0C5FCC4F89E
:104430005C03AB4904F2511028F094FD0546F8B135
:1044400001462046FFF70EFE28B194F8E83343F00A
:10445000020384F8E83394F8F03363B194F87033CE
:10446000052B08D0002284F8F02394F8E93362F396
:10447000C30384F8E9339A49002028F073FD054608
:10448000002610E004F55D72691D2046FFF7E0FE8E
:1044900094F8E83360F3820384F8E833904900200D
:1044A00028F060FD0546002D00F0338105228D497E
:1044B000284628F032FD68B994F8E033002BE1D1AA
:1044C000012384F8E03394F8E83343F0080384F8D8
:1044D000E833D7E705228449284628F01EFDC0B9F5
:1044E00094F8E03343B1002384F8E03394F8E833E0
:1044F00043F0080384F8E83304F55D72691D204633
:10450000FFF7A6FE94F8E83360F3820384F8E833FB
:10451000C4E703227549284628F0FFFC08B30422AB
:104520007349284628F0F9FC00B303227149284654
:1045300028F0F3FC002841D002226F49284628F0D9
:10454000ECFC002844D1AB78312B14BF00230123AD
:1045500084F8E43394F8E93343F0200384F8E93332
:104560009CE7E91C2046FFF7E3FE97E7291D20465C
:10457000FFF78FFE92E701260133092B21D8E218BD
:1045800092F8F203DA1CA918AA5C904205D094F8BC
:10459000E92342F0400284F8E923E218002082F87F
:1045A000F2030A786AB13E2A0BD0E11881F8F223AF
:1045B000502AE0D0702ADFD10126DDE700231E4615
:1045C000DBE7002384F8FB3384F8E563012665E725
:1045D00002224A49284628F0A0FC48B30322484951
:1045E000284628F09AFC002800F08E8004224549D5
:1045F000284628F092FC00287FF450AF94F8E3237B
:104600002B79312B14BF002301239A4209D082F069
:10461000010284F8E32394F8E83343F0010384F8BB
:10462000E83394F8EC3343F0010384F8EC3335E7D6
:104630000235002384F80D3484F80C3484F80434F3
:1046400094F8E83343F0400384F8E83315F8013B6D
:10465000002B3FF423AF433B102BF7D801A252F8B5
:1046600023F000BFC74600084D4600084D4600082D
:10467000B14600084D4600084D4600084D4600086A
:104680004D4600084D4600084D460008A946000862
:104690004D4600084D4600084D4600084D460008AE
:1046A0004D460008B9460008012384F80D34CDE7D3
:1046B000012384F80C34C9E7002384F8053401236E
:1046C00084F80434C2E7012384F8053484F8043400
:1046D000BCE700BF20950308749503087C95030888
:1046E0002495030828950308309503083895030896
:1046F0003C95030844950308489503084C95030826
:104700005095030854950308E91C2046FFF7D5FD92
:10471000C4E67EB994F8F233002B14BF01220022C4
:1047200094F8E93362F3861384F8E93302D0002366
:1047300084F8F233002E7FF474AE002384F8E5335E
:104740006FE604F2511504223249284628F0E5FBB1
:1047500010B304223049284628F0DFFB50B304226E
:104760002E49284628F0D9FB054600287FF459AE8B
:1047700004F25516324604F582612046FFF7C1FC6B
:10478000D4F81034052B02DD0523C4F810343A2187
:10479000304628F0B5FB23E004F5697204F25511A8
:1047A0002046FFF755FD94F8EA3360F3C30384F81D
:1047B000EA33D4E704F56F7204F255112046FFF78F
:1047C00047FD94F8EA3360F3041384F8EA33C6E74C
:1047D00043195A7805F5157304EB43031A71013533
:1047E000D4F81034AB42F3DC1BE629462046FFF731
:1047F00096FC16E604F5AB7027F0F4FA84F8F103A2
:1048000094F8E93343F0100384F8E933002384F883
:10481000553306E65C950308649503086C95030818
:1048200070B582B0044600258DF8075004E00023DF
:10483000A4F850331F2D32D9E06C03681B690DF1C9
:1048400007019847C0B298BB9DF80730182BEED0EF
:10485000B4F85023B2F5FE7FE9D80A2B08D00D2B0F
:1048600006D0511CA4F85013224482F85031E1E7DD
:104870001AB90023A4F85033DCE72244002382F85D
:10488000503104F595664FF0FF31304609F006F8D7
:104890002046FFF78FFD304609F028F8E9E76A1C4B
:1048A0000A4B2B449DF8071083F8A01695B2C3E776
:1048B0000DB902B070BD2A46054906481CF08EF9B4
:1048C0000028F6D103481CF0A3F9F2E7383F002096
:1048D000D8450020AC73012070B5044600F59566FC
:1048E0004FF0FF31304608F0D9FFD4F868536B1C05
:1048F000C4F8683313B9AB1CC4F86833304608F009
:10490000F5FF284670BD2DE9F041A2B006460D46E0
:1049100090464FF00D0724F05FF910B196F8703310
:104920001BB9384622B0BDE8F0813046FFF7D4FF0E
:10493000019000237F2B0BD8EC5C03F188020DEB78
:10494000020101F8804C0CB10133F3E74FF000078E
:10495000FBB2002BE5D11A4601A9304608F0BFFE94
:104960000746019BC8F80030DBE710B50446FFF7A7
:1049700057FF09F021FAD4F85C33C01AB0F5967FDE
:1049800005D9002384F87033012384F8543320467A
:1049900024F022F910B194F8703363B994F85533C8
:1049A0004BB1002384F85533D4F86833C4F86C3322
:1049B000562384F8F13301F0CDFD037A012B13D196
:1049C00094F85233B3B9204624F006F910B194F8A4
:1049D0000E349BBB204624F0FFF810B194F85433FA
:1049E000B3BB4FF0000010BD01F0B4FD037A022B01
:1049F000E9D1E5E7204624F0EFF80028E3D194F868
:104A0000EC3313F0010F07D109F0D6F9D4F858337D
:104A1000C01AB0F5967FD6D98B212046FFF7B6F99C
:104A200009F0CAF9C4F85803002284F8542394F812
:104A3000EC3362F3000384F8EC33C4E7204624F03F
:104A40000BFC204624F016FC002384F80E34C1E74A
:104A500009F0B2F9D4F85833C01A6428C1D9E06C0F
:104A600003681B6A98470028BBD009F0A5F9C4F871
:104A70005803002384F85433E06C0368DB69012297
:104A800004F2533198473F2384F8533301220549F8
:104A900005481CF0A3F80028A3D103481CF0B8F87F
:104AA0009FE700BF84950308AC7301202DE9F04116
:104AB000AEB004460D469DF8D0804FF00300D4F808
:104AC00010148D4202DB2EB0BDE8F08117461E4661
:104AD000204624F081F828B194F87033012B04D0DB
:104AE000032B02D04FF00D00EDE72046FFF7F4FE58
:104AF0000D902946204624F07DF800903B46102278
:104B000005A92046FFF709FA6423009333461022D3
:104B100009A92046FFF701FA94F81C34DBB9104BC1
:104B2000B8F1000F19D00F4A05F5157504EB4505CE
:104B3000043509A9039105A90291019500920A4A39
:104B400080210EA828F01EF900231A460DA9204640
:104B500008F0C5FDB7E7054BE2E7054AE4E700BF0B
:104B60008895030890950308989503088C95030889
:104B700094950308F0B5ABB004460D464FF0030022
:104B8000D4F810148D4201DB2BB0F0BD17461E4641
:104B9000204624F021F828B194F87033012B04D07A
:104BA000032B02D04FF00D00EEE72046FFF794FEF6
:104BB00009902946204624F01DF800903B4610221B
:104BC00005A92046FFF7A9F994F81C34ABB90C4BA2
:104BD00005F5157504EB45050435029605AA019205
:104BE0000095084A80210AA828F0CCF800231A462C
:104BF00009A9204608F073FDC6E7034BE8E700BFAC
:104C000088950308A89503088C9503082DE9F043BF
:104C1000BBB004460F4616461D469DF80C9123F086
:104C2000DBFF28B194F87033012B06D0032B04D09E
:104C30004FF00D003BB0BDE8F0832046FFF74CFE7F
:104C4000199094F81C34DFF8C48008EB8303D3F880
:104C5000183200933B46102209A92046FFF75DF960
:104C600094F81C3408EB8303D3F8183200933346CE
:104C700010220DA92046FFF750F994F81C3408EBD8
:104C80008308D8F8183200932B46102211A9204629
:104C9000FFF743F964230093429B102215A9204695
:104CA000FFF73BF994F81C3413BB134BB9F1000F19
:104CB00020D0124A04F2AC4104F2AE4004F59665ED
:104CC00015AE079611AE069605950DAD04950390A9
:104CD00009A8029001910092094A80211AA828F09F
:104CE00051F800231A4619A9204608F0F8FCA1E75C
:104CF000044BDBE7044ADDE7889503089095030839
:104D0000C09503088C9503089495030860FA02087F
:104D10002DE9F047BAB004460D4616461F469DF8E9
:104D20000C819DF81091444BD3F8C0368B4215D0BE
:104D3000414BC3F8C056C3F8C466204623F04CFF6D
:104D400038B194F87033012B13D0032B11D0022B00
:104D50000FD04FF00D003AB0BDE8F087364BD3F8D6
:104D6000C4369342E4D1344BC3F8C016C3F8C4260A
:104D7000DEE72046FFF7B0FD199094F81C34DFF809
:104D8000D8A00AEB8303D3F8183200932B461022E5
:104D900009A92046FFF7C1F894F81C340AEB8303F5
:104DA000D3F818320093334610220DA92046FFF79E
:104DB000B4F894F81C340AEB830ADAF8183200933A
:104DC0003B46102211A92046FFF7A7F86423009361
:104DD000429B102215A92046FFF79FF894F81C3437
:104DE00023BB164BB9F1000F22D0154AB8F1000FC2
:104DF00020D0144904F2AC4004F2AE4515AE07963B
:104E000011AE06960DAE0596049509AD0395029078
:104E1000019100920C4A80211AA827F0B3FF0023C9
:104E20001A4619A9204608F05AFC94E7074BD9E71F
:104E3000074ADBE70749DDE7383F0020889503088C
:104E400090950308D8950308E09503088C9503080E
:104E500094950308DC95030860FA020830B5A3B006
:104E600004464FF00300D4F81034994201DB23B01C
:104E700030BD0D46204623F0AFFE18B194F87033D4
:104E8000012B02D04FF00D00F1E72046FFF724FD83
:104E9000019005F5157304EB43030433054A8021A3
:104EA00002A827F06FFF00231A4601A9204608F048
:104EB00016FCDCE7FC95030870B5A8B004460D4667
:104EC0004FF00300D4F810148D4201DB28B070BD00
:104ED0001646204623F080FE18B194F87033012B5B
:104EE00002D04FF00D00F1E72046FFF7F5FC0790E8
:104EF0002946204623F07EFE00903346102203A967
:104F00002046FFF70AF894F81C34A3B90B4B05F5BB
:104F1000157204EB4202043203A901910092084A7F
:104F2000802108A827F02EFF00231A4607A9204653
:104F300008F0D5FBCAE7034BE9E700BF88950308F3
:104F40000C9603088C9503082DE9F041AEB0044699
:104F50000D469DF8D4804FF00300D4F810148D4214
:104F600002DB2EB0BDE8F08117461E46204623F036
:104F700033FE18B194F87033012B02D04FF00D00BE
:104F8000EFE72046FFF7A8FC0D902946204623F0C6
:104F900031FE00903B46102205A92046FEF7BDFFDA
:104FA000642300933346102209A92046FEF7B5FF7B
:104FB000BEB9B8F1000F3AD01F4B94F81C24002A58
:104FC00037D11E4905F5157204EB4202043205A8DB
:104FD0000290019200911A4A80210EA827F0D2FE79
:104FE00017E0B8F1000F1ED0134B94F81C24E2B95F
:104FF000124905F5157204EB4202043209A8039028
:1050000005A80290019200910E4A80210EA827F077
:10501000B9FE00231A460DA9204608F060FB0D9A40
:10502000349B1A609DE7084BDFE70849E1E7064B30
:10503000C3E70649C6E700BF9095030888950308B3
:105040003096030820960308949503088C9503086E
:105050002DE9F041AAB004460D469DF8C4804FF0FA
:105060000300D4F810148D4202DB2AB0BDE8F081B1
:1050700017461E46204623F0AFFD18B194F8703352
:10508000012B02D04FF00D00EFE72046FFF724FC84
:1050900009902946204623F0ADFD00903B461022A2
:1050A00005A92046FEF739FFB8F1000F13D194F897
:1050B0001C34002B2DD1184B05F5157204EB420260
:1050C0000432029605A901910092144A80210AA88F
:1050D00027F058FE11E094F81C34C3B90E4B05F5C7
:1050E000157204EB42020432029605A90191009266
:1050F0000B4A80210AA827F045FE00231A4609A979
:10510000204608F0ECFA099A309B1A60ADE7054B8F
:10511000E5E7044BD0E700BF8895030850960308E5
:105120003C9603088C950308F0B5ABB004460D46D9
:105130004FF00300D4F810148D4201DB2BB0F0BD0A
:1051400017461E46204623F047FD18B194F87033E9
:10515000012B02D04FF00D00F0E72046FFF7BCFB1B
:1051600009902946204623F045FD00903B46102239
:1051700005A92046FEF7D1FE94F81C34C3B90D4BA7
:1051800005F5157204EB42020432029605A901915D
:105190000092094A80210AA827F0F4FD00231A464C
:1051A00009A9204608F09BFA099A309B1A60C5E7C6
:1051B000024BE5E788950308649603088C9503087D
:1051C00030B5A9B004460D4623F006FD18B194F899
:1051D0007033012B03D04FF00D0029B030BD2046B5
:1051E000FFF77AFB079094F81C24104B03EB820323
:1051F000D3F8183200932B46102203A92046FEF75D
:105200008CFE94F81C3473B9094B03AA0092094A26
:10521000802108A827F0B6FD00231A4607A92046DA
:1052200008F05DFAD9E7044BEFE700BF60FA020827
:1052300088950308789603088C95030810B5A2B0EA
:10524000044623F0C9FC18B194F87033012B03D045
:105250004FF00D0022B010BD2046FFF73DFB01903E
:10526000064B93E8030002908DF80C1000231A46B9
:1052700001A9204608F033FAECE700BF8496030842
:1052800070B5A4B006460C46154623F0A5FC18B12F
:1052900096F87033012B03D04FF00D0024B070BD91
:1052A0003046FFF719FB03906DB1084B0094084A94
:1052B000802104A827F066FD00231A4603A9304682
:1052C00008F00DFAEAE7034BF0E700BF8C960308FD
:1052D000949603089096030870B504460D4623F093
:1052E0007BFC28B14FF0030694F87033012B03D0F8
:1052F0004FF00D06304670BD94F8043413B984F8AD
:105300000554F7E7D4EDFF7AFCEEE77A2A4617EE6C
:10531000903A99B22046FFF7B3FF0646EAE710B588
:10532000A2B0044623F058FC18B194F87033012B56
:1053300003D04FF00D0022B010BD2046FFF7CCFA8D
:105340000190044B029300231A4601A9204608F05D
:10535000C6F9F0E74D350D0070477047F8B50546C2
:105360000E4607F0B9FC0746314605F6941007F0E3
:10537000B3FC741C214605F6B81007F0ADFC2146BD
:1053800005F6782007F0A8FC00241CE0342304FB79
:1053900003F303F1300028442B445B6BDB68314698
:1053A00004309847C4EBC400C00000F5E8702844FE
:1053B000C4EBC40305EBC303D3F8D431DB68314637
:1053C0000430984701342B6BA3421DD9EB6AA342EA
:1053D000DCD0342304FB03F303F1300028442B44D6
:1053E0005B6B1B6904309847C4EBC400C00000F538
:1053F000E8702844C4EBC40305EBC303D3F8D431ED
:105400001B6904309847DDE73846F8BD70B505469E
:1054100007F071FC064605F6941007F06CFC05F6E3
:10542000B81007F068FC05F6782007F064FCEB6A1A
:10543000342202FB03F303F1300028442B445B6B5E
:105440001B6904309847EB6AC3EBC300C00000F54A
:10545000E8702844C3EBC30305EBC303D3F8D4318E
:105460001B690430984705F6383007F044FC0024E7
:105470000FE004EB4400800100F56470284404EB65
:10548000440305EB8313D3F894331B690430984726
:1054900001342B6BA342ECD8304670BD012900D0FB
:1054A000704738B50446B0F90430B0F90E100B441B
:1054B000934204DAB0F908305B1A934200DC38BD3D
:1054C00000F63835284607F0D9FB48B123681B6938
:1054D000204698472368DB68618A20469847EEE7B4
:1054E000618A284607F0F8FB002511E005EB45002E
:1054F000800100F564702044618A05EB450304EBEC
:105500008313D3F89433DB680131043098470135B5
:10551000236BAB42EAD8D2E7F8B503464FF002005E
:105520004BB30E461C46DF6A03F6B8138B4205D018
:1055300004F678238B421FD000252AE00FB17B1E92
:10554000E36204F6383007F099FB18B123681B6951
:10555000204698472368DB68618A20469847E36ABB
:10556000BB4206D0206A20B12346A26A616A08F0D5
:1055700083F84FF00000F8BD236B013BBB42E0D93C
:105580007B1CE362DDE7E56223681B6920469847E0
:105590000135236BAB42D4D905EB45039B0103F5E1
:1055A000647323440433B342F2D1ECE703464FF073
:1055B00002003BB370B582B01C460B88ADF80430D6
:1055C0009DF80430022B05D0042B18D04FF00000BA
:1055D00002B070BD04F6B81504F6683007F04EFB53
:1055E0000028F3D19DF805603146284609F036FAC7
:1055F000002EEBD129462046FFF78EFFE6E704F6A2
:105600007825E9E77047072900D970472DE9F04F61
:1056100085B005460C464FF0340808FB01F808F148
:10562000300707443B1D1E461146184605F0CEF9CB
:10563000A844D8F83430DA690292B5F90EB0B5F959
:105640000C20A2EB4B010F46DB6B019630469847CE
:105650008146E3000393C4EBC406F60006F5E87642
:105660002E440436C4EBC40A05EBCA0ADAF8D43176
:10567000DB6B304698478144304623F08BFA8144F7
:10568000A7EB09000BEB500BB5F90E90D8F83430AE
:105690001B6C019F38469847A9EB000909EBD979A3
:1056A00000234FEA69025946BB463846029FB84775
:1056B000DAF8D431D3F81C90D8F834305B6B584604
:1056C00098470746304623F065FA0744039B1B1BA7
:1056D00005EBC305D5F8D4311B6B3046984702461D
:1056E000002339463046C84705B0BDE8F08F07298A
:1056F00070D82DE9F04F87B005460C461646002AB3
:1057000065D04FEAC10AC1EBC1084FEAC80808F5E5
:10571000E878804408F10408059301936FF07F4313
:10572000009300231A463146404606F0BEFDAAEB20
:10573000040A05EBCA0ADAF8D431DA691746B5F972
:105740000EB0B5F90C90A9EB4B09DB6B40469847BE
:10575000A9EB000909EBD9790BEB690BB5F90E90B0
:10576000DAF8D4311B6C40469847A9EB000909EBE5
:10577000D97900234FEA690259464046B84704EBFD
:1057800044084FEA881808F56478A84408F104082A
:10579000B5F90E2004FB0223B5F90C10A1EB420170
:1057A000A2F10800012402940190009104333146D3
:1057B000404608F03BFF0599404609F082F822F088
:1057C00069FB01462B46044A404609F053F907B0ED
:1057D000BDE8F08F704700BF195500087047C36AD5
:1057E0008B420FD010B50446036B8B4209D9C162BE
:1057F00003685B69984720B12368DB68618A2046AB
:10580000984710BD70472DE9F04F87B004460E460B
:1058100090461D46DDF84090119F03689B6C012166
:1058200098470596BDF91410A180A4F806806B1E58
:105830001BB2238109F1FF3212B26281A581A4F863
:105840000E906FF07F400190009204F6941006F0E5
:1058500037FA04F6B81AB4F90E305A1E0126029629
:1058600001920093B4F90630B4F904203749504648
:1058700008F0DCFE04F0AAFA0146504609F021F8CF
:1058800022F008FB0146DFF8D4B023465A465046C2
:1058900009F0F0F804F6782AB4F90810B4F90E20EB
:1058A000531E029601930092B4F906308A1A2849D1
:1058B000504608F0BBFE04F089FA0146504609F054
:1058C00000F822F0E7FA014623465A46504609F00E
:1058D000D1F800F08EF8824622F0DCFA014604F698
:1058E000883301931423009323461A4A504600F04C
:1058F000D5F8B4F90A20D4F8A03BD3F88C30B4F929
:105900000E100296144801905B1A0093B4F90C3003
:105910003244B4F9041004F6383006F0D6F8CDF865
:1059200000902B464246059904F6683006F085F94A
:1059300084F8786B082F00D90827276300212046B8
:10594000FFF74DFF07B0BDE8F08F00BF7494030868
:1059500078940308AD5500084040400019550008F0
:105960000162426283627047F0B583B00546B0F9C8
:10597000466B036BB6FBF3F6002417E0B5F90E1087
:10598000B5F93E2B04FB0622B5F90C3004EB4400BC
:10599000800100F564702844A6F108070097A3EB86
:1059A00041030432043008F0E1FE01342B6BA342C2
:1059B000E4D803B0F0BD00BF034BD3F81C23034B66
:1059C0001A615A62704700BF448703080000002034
:1059D00008B5FFF7F1FF08BD10B50446C06C10B163
:1059E000216D15F0C7FE08F0AEF9E0654FF000003C
:1059F00010BD114B1B68BFF35B8F13F0010F01D07B
:105A00000E48704710B50C4825F021F808B90B482E
:105A100010BD0A4823F054FC074C094A0949201DCF
:105A200024F047FC204625F021F8F0E7024825F055
:105A30001AF824F0B9FC00BF0046002004460020FC
:105A4000440100209192020808B5C164026507F084
:105A50007FFD08BD10B50C46898820680AF02AF839
:105A6000A379834214BF00200120237A834213D0FC
:105A7000637A834205D0834209D060720020E071CE
:105A800010BDE279082AF6D120720120F8E7E37907
:105A90000133E3710020F3E70020F1E710B4029C2A
:105AA00021606260A3609DF804302373426D2AB1C7
:105AB000134643B1A34206D01B69FAE700232361D2
:105AC0006361446507E0A34205D05461436D2361DF
:105AD0000023636144655DF8044B7047436D8B425E
