:020000040800F2
:100000000000022051EC0208E5A60208E7A602085B
:10001000E9A60208EBA60208EDA60208000000000F
:10002000000000000000000000000000CD69020890
:10003000EFA6020800000000896A0208F1A6020883
:10004000A1EC0208A1EC0208A1EC0208A1EC020854
:10005000A1EC0208A1EC0208A1EC0208A1EC020844
:10006000A1EC0208A1EC0208A1EC0208A1EC020834
:10007000A1EC0208A1EC0208A1EC0208A1EC020824
:10008000A1EC0208A1EC0208A1EC020800000000AB
:10009000000000000000000000000000A1EC0208C9
:1000A000A1EC0208A1EC0208A1EC0208A1EC0208F4
:1000B000A1EC0208A1EC0208A1EC0208A1EC0208E4
:1000C000A1EC0208A1EC0208A1EC0208A1EC0208D4
:1000D000A1EC020807A70208A1EC0208000000003A
:1000E000A1EC0208A1EC0208A1EC0208000000004B
:1000F000000000000000000000000000A1EC020869
:100100000000000015A70208A1EC0208A1EC0208FB
:1001100000000000000000000000000000000000DF
:10012000A1EC0208A1EC020825A7020835A70208E5
:10013000A1EC020800000000000000000000000028
:1001400000000000000000000000000045A70208B9
:1001500055A70208A1EC020865A70208A1EC020855
:10016000A1EC0208A1EC0208000000000000000061
:10017000000000000000000000000000000000007F
:1001800000000000A1EC02080000000000000000D8
:08019000A1EC0208A1EC020839
:1001A0002DE9F84F914CDFF89892C4F800904FF089
:1001B000010A84F804A000256571DFF88882C4F87C
:1001C0000080DFF884B2C4F808B01023E360884EE2
:1001D000884F3246394620462EF063FDC4F8109011
:1001E00084F814A06575C4F81080834BA361C4F82B
:1001F0001CA03246394604F110002EF052FDC4F81E
:10020000209084F824A084F82550C4F82080C4F8F5
:1002100028B00823E3623246394604F120002EF06C
:1002200040FDC4F8309084F8345084F83550C4F858
:100230003080714BA3634FF48063E36332463946E9
:1002400004F130002EF02DFDC4F8409084F84450A5
:1002500084F84550C4F84080674BA3640223E364EC
:100260003246394604F140002EF01BFDC4F8509090
:1002700084F8545084F85550C4F85080C4F858B0ED
:10028000C4F85CA03246394604F150002EF009FD56
:10029000C4F8609084F864A084F86550C4F8608065
:1002A000C4F868B04FF48073E3663246394604F10F
:1002B00060002EF0F6FC514B23676423A4F87430E1
:1002C000A4F876304E4B23674E4BA36704F1700BB6
:1002D00032464D4958462EF0E4FC04F17C074B4968
:1002E00038462BF0BBFF3246494938462EF0D9FC40
:1002F000484BC4F88C30484BC4F88C30474BC4F89A
:100300001031A4F814513246454904F18C002EF006
:10031000C8FC444BC4F818310323C4F81C314FF413
:10032000F078C4F820814FF4A079C4F82491C4F87F
:100330002881C4F82C9184F830513B4BC4F8183113
:10034000C4F834B1C4F8384104F11003C4F83C31A6
:100350001033C4F840313246344904F58C702EF025
:10036000A0FC334BC4F8443184F8485184F8495117
:10037000A4F84A51A4F84C512E4BC4F84431C4F8A7
:10038000507184F85451C4F85651C4F85A51C4F805
:100390005E5184F848A1A4F84A91A4F84C814FF02A
:1003A000030384F849313246234904F5A2702EF044
:1003B00078FC4FF40043C4F864314023C4F868313A
:1003C00084F86C51C4F87051C4F87471C4F8785151
:1003D00042200AF024F8C4F870013246174904F5A7
:1003E000B2702EF05EFCBDE8F88F00BF180300204D
:1003F00044010020B9C102080004024018E10308CA
:100400008CDA0308A88D0120C1C002086C8C012081
:100410001DC20208B0E10308F4DA03083C8F012092
:10042000CDC10208FCE10308C4C70308E1C102080A
:100430004CE2030888610308F5C1020809C20208FA
:10044000DCE10308E8D903080000024070B5144C51
:10045000236800255D62294620461BF0DFFD294602
:10046000204619F0B9FF0E4B1B681B6913F0020FF1
:10047000F9D000210A4819F0AFFF0446084B1B6869
:100480001B6913F0020FF9D0054E0021304619F018
:10049000A3FF0546002130461BF046FE281B70BD19
:1004A000AC8E0120174B1B6813F4003FFAD0154A9D
:1004B000936823F0030343F001039360124B00227F
:1004C0001A66104B1B6813F0007FFAD10D4A53686F
:1004D00023F4800318435060536823F03F0319430B
:1004E0005160094B01221A66064B1B6813F0007F0E
:1004F000FAD0044A936823F0030343F002039360A5
:10050000704700BF003802400000474200B587B086
:1005100010210020FFF7C6FFFFF798FF144B1B6860
:1005200003EB4303134AA2FB0323B0EBD34F07D8DB
:1005300019214FF48000FFF7B5FF07B05DF804FB09
:100540006846002300930193029303930493059359
:1005500002230093084B049315F082FF28B9074B40
:100560000122C3F83C2E0821E3E729F06DFDF6E7F0
:10057000DC00002083DE1B4300030800000047422C
:1005800010B510210020FFF78DFF002423460CE05A
:1005900081421ED91E2B1CD801330F490A6822F054
:1005A000F80242EAC3020A6001341E2C11D8FFF798
:1005B0004DFF094B1B68C3F3C403084A126808497E
:1005C000A1FB0212910CB0EB924FE1D90BB1013BB0
:1005D000E3E7184610BD00BF00380240DC000020F1
:1005E00083DE1B4310B582B0FFF7CAFF044616F046
:1005F000B1F80FF05FFB114A136823F0F80343EAE8
:10060000C40313604FF0E02300221A615A619A611B
:100610000B4B0193019B596862B60A4B1A6822F092
:1006200003021A601A6842F001021A60019B1B68FB
:1006300083F30888884702B010BD00BF003802402D
:100640000000FF1F0038014038B5FFF75FFF254C61
:10065000236D1B6904F15000984794F85530003B16
:1006600018BF0123984234D005F0A0FF1D4C04F5BB
:10067000B27105F0BBFF0AF05FF804F5A27204F551
:100680008C7109F0DFFE0EF0A4FE03681D6A04F110
:10069000600300221449A84705F0D7F90022134946
:1006A00005F0FEF9236B1B6904F13000984794F8BC
:1006B0003530003B18BF012398420DD003F0D4F928
:1006C0000B4903F0FBF900F0F8F803681B68984742
:1006D00038BDFFF787FFC7E709F006F803681B6816
:1006E0009847F5E718030020F48E0120648E01205E
:1006F000A403002000BEFEE7704708B5FFF750FDD9
:1007000008BD00BF00F5005090F86C3113B94FF0F0
:10071000000070474FF00400704770B5064600F5C2
:100720000054D4F8640190F8701303F0E9F901461D
:10073000002206F628500DF017F8D4F8640190F85E
:10074000F11303F0E6F90146002206F556600DF0BC
:100750000BF8D4F8641191F8E923134623F0400311
:1007600081F8E933C2F3801201F2F23106F69850B3
:100770000CF0FAFF002511E005EBC504640104F557
:100780005D64344406F50053E9B2D3F8640103F024
:1007900015FA0146204601F0F6F90135052DEBD991
:1007A00006F50053D3F8643193F852336BB306F671
:1007B0003844012120460FF029FA06F50053D3F8FA
:1007C000643193F8E333F3B14FF47F4120460FF0E7
:1007D0003EF906F50055D5F86431002483F80F443E
:1007E000D6F89030123306EB8306706803685B69B5
:1007F00014219847D5F85C0100F5C15004300EF083
:100800004CFB204670BDFF21E0E706F6384400218E
:1008100020460FF0FBF906F50053D3F8643193F846
:10082000E33323B1FF2120460FF011F9D1E76FF038
:100830007F41F8E703464FF00200002B3CD0F0B5B3
:1008400083B01E460B88ADF804309DF80450E5B91E
:1008500006F5B154183423685B6920469847B0B157
:1008600023685B6C2046984788B19DF8057039462F
:1008700020460FF0CBF957B923685B6C20469847A8
:1008800028B120460FF0D2F901E0012D05D0062D48
:1008900007D04FF0000003B0F0BD06F5BD5418348A
:1008A000D9E79DF80530002BF3D033689B6906F635
:1008B000384130469847ECE7704708B50F4B1B6846
:1008C000BFF35B8F13F0010F01D00D4808BD0B483B
:1008D0002EF0B5FD0028F8D009482CF07FFA094A1F
:1008E000094907482EF0DDF904482EF0B7FDECE782
:1008F00002482EF0B0FD2EF04FFA00BF9404002005
:100900009804002044010020E5CC02082DE9F041C4
:1009100084B004460F46002960D000F50053D3F898
:100920005C31D3F88830083B424D85FB0325A5EBAD
:10093000E37504F5B156183604F50053D3F85C316D
:10094000D3F88C800AF0D4FB0368DB68984700EB8F
:100950004000A8EB00080AF0CBFB0368DB6898476F
:1009600000EB4000012302930190009543460022D2
:10097000314930460EF032FF2BF00CFD01460023CA
:100980001A4630460FF04EF930460FF00BF987BB90
:1009900004F5BD56183604F50053D3F85C31D3F88E
:1009A000882004F58054B4F9463601210291019360
:1009B0000095B4F93E36521B1F4930460EF00EFF2B
:1009C0002BF0E8FC014600231A4630460FF02AF9C6
:1009D00030460FF0E7F804B0BDE8F08100F50053B1
:1009E000D3F85C31D3F8885005EBD5756D10043D14
:1009F0009FE704F5B756183604F58053B3F940263F
:100A0000B3F946160120029001910095B3F93E36E4
:100A10000532094930460EF0E1FE2BF0BBFC0146E1
:100A200000231A4630460FF0FDF830460FF0BAF8B2
:100A3000AEE700BF56555555ACE5030808B500F5BF
:100A40000053D3F8643193F87033022B06D0074972
:100A500000F5B15018300EF0B6FF08BD044900F59E
:100A6000B15018300EF0AFFFF7E700BF84E2030883
:100A70007CE2030808B500F50053D3F8643193F81D
:100A80007033012B00D033B929B100F5B1501830C3
:100A90000EF099FF01E0FFF7D1FF08BD08B500F5A2
:100AA0000053D3F8642192F87033052B09D00BB1B1
:100AB000092B18D10F4900F5BD5018300EF083FFF7
:100AC00008BD92F8F1334F2B06D00B4900F5BD500D
:100AD00018300EF078FFF3E7064900F5BD501830E6
:100AE0000EF071FFECE7054900F5BD5018300EF02F
:100AF0006AFFE5E72CED030888E2030890E20308AB
:100B000008B500F50053D3F8643193F87033012B26
:100B100006D129B100F5BD5018300EF054FF01E0A8
:100B2000FFF7BCFF08BD38B5054600240F2C21D8BF
:100B300004F1120305EB83035B688B4201D001349F
:100B4000F4E7D5F89030123305EB83035868036857
:100B50001B699847C5F89040214605F1940004F0C0
:100B60006AFED5F89030123305EB83056868036898
:100B7000DB68984738BD70B58AB0044603A826F0F4
:100B8000B8F904F5B0551835049B154A20212846BC
:100B900030F0FAFD04F5AF560122294630460CF03C
:100BA000E3FD04F50053D3F85C31D3F8882002EB61
:100BB000D27204F58054B4F9EC3503EBD3735C10B6
:100BC000C4EB62040AF056FA01906FF07F43009381
:100BD0001E232246294630460CF03FFC0AB070BD69
:100BE00098E2030810B50446943004F03BFC04F688
:100BF000F8400DF058F904F628500DF054F904F5BA
:100C000056600DF050F904F698500DF04CF904F6CA
:100C100038400DF048F904F5B15018300DF043F9A3
:100C200004F5BD5018300DF03EF910BD10B5044666
:100C30004FF4FA61943004F0BDFB4FF47A7104F67E
:100C4000F8400DF021F940F2E93104F628500DF09A
:100C50001BF940F2EA3104F556600DF015F940F247
:100C6000EB3104F698500DF00FF94FF47A7104F659
:100C700038400DF009F9662104F5B15018300DF037
:100C800003F9662104F5BD5018300DF0FDF810BDD4
:100C900038B504460D46D0F89030123300EB83038C
:100CA000586803681B699847C4F89050294604F1B6
:100CB000940004F0C0FDD4F89030123304EB8304A8
:100CC00060680368DB68984738BD70B504460D4618
:100CD0004FF0000600F638438B4214D004F1940321
:100CE000AB4221D0D4F89030123304EB8303586820
:100CF00003689B69294698470646F6B2092E19D023
:100D00004FF0000070BD90F8483C002BE6D000F595
:100D10000053D3F8640190F8523313B903F071F81B
:100D2000EBE703F0B9F8E8E794F8C0102046FFF7C6
:100D3000AFFFE2E704F5B1531833AB421CD004F522
:100D4000BD531833AB42DBD104F50054D4F8640131
:100D500090F87033052B1FD00BB1092B30D1002335
:100D600080F8F13380F85533D0F86833C0F86C332D
:100D7000182103F037F8C3E704F50054D4F86401F0
:100D800090F87033022B03D0812103F02BF8B7E7E2
:100D9000822103F027F8B3E790F8F1334F2B02D00C
:100DA0002BF036FDACE7002380F8F13380F85533A3
:100DB000D0F86833C0F86C33182103F013F89FE7BC
:100DC000002380F85533D0F86833C0F86C3319210C
:100DD00003F008F894E708B5D0F890100131D0F886
:100DE0008C30B1FBF3F203FB1211C9B2FFF750FFD5
:100DF00008BD08B5D0F89010D0F88C3019440139EE
:100E0000B1FBF3F203FB1211C9B2FFF741FF08BDBA
:100E10002DE9F04383B0044600F19405284604F020
:100E200021FB04F50058D8F85C31D3F8883008224B
:100E300001922827009700221146284604F00FFD52
:100E40000026C4F88C600AF099F80346334A31460C
:100E5000284604F078FC02F006FAD4F88C3003F14E
:100E60000109C4F88C90123304EB830358600AF034
:100E700085F803462A4A4946284604F064FC06F0F1
:100E8000D7FAD4F88C3003F10109C4F88C901233EE
:100E900004EB830358600AF071F80346214A49467F
:100EA000284604F050FC06F067FFD4F88C3003F1BC
:100EB0000109C4F88C90123304EB830358600AF0E4
:100EC0005DF80346184A4946284604F03CFC07F002
:100ED000E9FFD4F88C305A1CC4F88C20123304EB90
:100EE00083035860D8F85C31D3F8883001920097BA
:100EF00032463146284604F0B2FC284604F060FD34
:100F0000334632462146284604F056FD4FF4FA6136
:100F1000284604F04FFA03B0BDE8F083B0E20308BE
:100F2000BCE20308C8E20308D8E203082DE9F04F49
:100F300089B0044605F03AFB05F05CFB8DF81F0014
:100F400004F50056D6F85C5105F030FBC168003955
:100F500018BF0121284609F096FA96F85811D6F8DC
:100F60005C0109F023FED6F85C31B94AC3F8802051
:100F7000D6F85C31D3F88C700AF0BAF80368DB68F5
:100F8000984700EB40003F1A09F0F8FF0368DB6860
:100F90009847A7EB4007023FD6F85C31D3F888505A
:100FA00009F0ECFF03689B68984700EB4000A5EB55
:100FB000400809F0E3FF0368DB689847400004F647
:100FC000F84900250295A34B0193009043463A4609
:100FD000294648460BF051FE4FF47A7148460CF012
:100FE00053FF04F5C35909F118099B4F02233A46F0
:100FF0003946484605F00EF92B462A462146484612
:1010000005F004F9D6F8640102F046FF04F6384A08
:10101000D6F85C31D3F8888009F0B0FF03689B688C
:10102000984700EB4000A8EB400808F1FF38B4F9FE
:10103000FEBC09F0A3FF03689B68984700EB4000E3
:101040004000B4F9063D01220292019300905B46F4
:101050004246824950460EF0C1FB2B462A462146A5
:1010600050460EF0DFFD294650460EF0CFFD4FF4FE
:101070007A7150460CF008FFB4F9FE8CB4F9063DC5
:1010800003EBD37308EB630809F078FF0368DB68B0
:101090009847A8EB500809F071FF04F6285B01900F
:1010A0006FF07F43009343460422394658460CF0C4
:1010B000D4F9B4F92CAD09F061FF03689B68984737
:1010C00000EB800082440AF013F803689B6898479D
:1010D0000AEB00020592B4F9028D0AF009F80368E0
:1010E000DB689847A8EB0008A8F102080AF000F8AE
:1010F00004F5566A01906FF07F4300934346059ACA
:10110000394650460CF0A9F9B4F93C8C0AF02CF899
:1011100003689B68984700EB800300EB4300A8EB53
:1011200000030593B4F9FE1C06910AF01DF804F6BD
:1011300098580190FF23009306990B1D059A394694
:1011400040460CF08AF940F2E93158460CF09CFE1A
:1011500040F2EA3150460CF097FE40F2EB31404647
:101160000CF092FE04F505533433019343230093AE
:1011700023463B4A2146D6F8600104F0BBFC2946D1
:101180002046FFF7C3FB2046FFF742FE09E005EBD0
:10119000C500400100F55D600021204400F0F3FC33
:1011A0000135052DF3D904F5B055183509F062FF66
:1011B00001906FF07F43009300231A46294604F5FF
:1011C000AF500CF04AF900250CE005F1120304EBD6
:1011D00083035868B4F9FE2C03689B68283A2821D9
:1011E00098470135D4F88C30AB42EED80023C4F8D0
:1011F00090309DF81F30CBB9D4F8901004F19400D2
:1012000004F019FBD4F89030123304EB83035868D0
:101210000368DB68984704F50054D4F8640102F0D1
:10122000F0FD4FF0000009B0BDE8F08F02230D4A39
:101230000D49484604F0EEFF42F21071484605F0B1
:10124000EFF8D4F88C30013BC4F89030D4E700BFFD
:101250004040400080808000ACE50308E4E20308E1
:1012600035080008E8E2030834E3030838B503460C
:101270004FF00200B3B11C4691B103F1D405D3F88D
:101280002031626901FB0231284600F07CFCA36931
:1012900033B1D4F8202153F82210284600F0C1FCC5
:1012A0004FF0000038BD016042608360704710B5A8
:1012B00004464169012914BF0021012100F5FA709B
:1012C0000EF0A4FC61690A2914BF0021012104F574
:1012D0002D700EF09BFC6169642914BF002101216F
:1012E00004F55D700EF092FC10BD94463AB90120F1
:1012F000704701FB00F001336345FAD3704708469D
:101300000123F9E72DE9F04F89B004460F46069214
:101310001E4600238361D44B1B68BFF35B8F13F021
:10132000010F6CD004F19C0509F028FE01906FF0CC
:101330007F43009300231A46394628460CF08DF867
:101340009DF8541028460CF0D2F9C74F7968B4F9CB
:10135000A830C91A00230822490828460CF0ECFDE1
:1013600004F1200B594628460CF04EFD0121284679
:101370000CF08AFD04F1D405B4F9A6807F68103F13
:1013800009F0B6FE0368DB68984700EB8000149B09
:1013900002930D23019300903B4608F108020821B7
:1013A000284600F017FB4FF47F420421284600F046
:1013B000DEFB09F09DFE01460222284600F031FDC9
:1013C000139A1299284600F025FC3146284600F071
:1013D000DAFB09F08DFE034605220699284600F047
:1013E00035FD002684F8E460594628460CF00CFDD3
:1013F000012128460CF048FDCDF81CB07DE09A484C
:101400002EF01DF800288DD0D4F8F035D3F88830B0
:10141000954843602EF022F884E7B4F9E070083F65
:10142000924BA3FB07377F0802F01EFB054606F12F
:10143000440804EB081806F5867304EB8303D3F81D
:101440000490149A0A212046FFF74FFF00904B4664
:1014500010224146284602F08CFD40462AF062FDEB
:10146000069B834AC0F11001404430F08DF94FEAE9
:10147000460B06EB4605AD0105F5F8752544043528
:10148000B4F9D8303A1D06FB02330593B4F9DEA057
:1014900009F02EFE0368DB68984700EB80004FF0F0
:1014A0000109CDF80890019000970AF10803059A08
:1014B000414628460EF092F92AF06CFF0146234679
:1014C0006C4A28460EF0AEFB002128460EF09EFB2B
:1014D000032128460EF033FB0BEB060704EB8717BE
:1014E000D7F8F4319B68079928469847D7F8F43124
:1014F000DB684946284698474E44022E8DD9DDF8D0
:101500001CB0149B022B01D902231493149A0A21B4
:101510002046FFF7EAFE6061149B03EB4300800165
:1015200000F5F8702044012104300EF06FFB04F147
:101530004C084D4FD7F80490D4F8F4319B6B04F568
:10154000FA70984701260296002501950830009010
:101550004B462A46294640460BF08FFB0421404665
:101560000BF0EAFB4FF6FF7140460BF015FC2946E5
:1015700040460BF027FC594640460CF045FC2946F6
:1015800040460CF081FCD4F8F035D3F88C20B4F947
:101590005A30D21A02EBD27200937B68324129464C
:1015A00058460CF07EFBD4F8F025D2F88830D2F8FB
:1015B0008C2000922A46294604F17C000BF015FC91
:1015C00084F88C6004F58E68D4F8F035D3F88C700C
:1015D00009F08EFD0368DB68984700EB40003F1A76
:1015E000D4F8F035D3F8882002EBD27242FA06F92B
:1015F00009F07EFD0368DB68984700EB4000029627
:101600000190A9F1040200923B462A461A4940463D
:101610000EF0E4F82AF0BEFE0146DFF858902346AB
:101620004A4640460EF0FEFA04F5A667D4F8F035B7
:10163000D3F88810B4F97C24B4F97E34029601936F
:101640000092B4F976348A1A0C4938460EF0C6F87E
:101650002AF0A0FE014623464A4638460EF0E2FA3A
:10166000284609B0BDE8F08F24260020ABAAAAAA1C
:1016700040E30308DB17000844E3030848E30308DA
:101680002DE9F04184B0054616461F46DDF8288056
:101690009DF82C300393002402947B1E0193009448
:1016A00043461E4AFFF72EFEAE61EF6156F8281042
:1016B00005F1D40000F0B5FA0FE004EB440080011E
:1016C00000F5F870284404EB440305EB8313D3F8CA
:1016D000F4311B69043098470134022CEDD905F12F
:1016E0004C06B5F9DE300122029200240194083341
:1016F0000093B5F958302246214630460BF0BDFA2A
:10170000042130460BF018FB4FF6FF7130460BF00A
:1017100043FB204604B0BDE8F08100BFACE5030800
:1017200030B583B004460D467C300CF0ADFB691C2F
:1017300004F120000CF0A8FBA91C04F58E600CF04D
:10174000A3FBE91C04F5A6600CF09EFB04F07DF9F8
:1017500005462AF01FFE014604F2F4530093234687
:101760000B4A284604F0FEF904F06FF905462AF00A
:1017700011FE014604F20C6301937F23009323467C
:10178000044A284604F0B6F94FF0000003B030BD1B
:101790006D120008DB17000810B5044604F055F977
:1017A00004F2F45104F0FBF904F04FF904F20C6177
:1017B00004F0C0F904F120000CF075FB04F17C008A
:1017C0000CF071FB04F58E600CF06DFB04F5A66067
:1017D0000CF069FB4FF0000010BD03464FF0020013
:1017E000002B5ED070B582B01C4603F58E658D422D
:1017F00024D003F5A6668E4220D003F5FA738B42FF
:1018000039D004F52D738B4238D004F55D738B42CB
:1018100037D00B88ADF804309DF80430002B33D05E
:10182000012B1AD19DF80550294630460EF0EEF9ED
:101830009DB931462046FFF7D0FF0EE08D4214BF20
:101840000021012121742046FFF7A6FF206858B12E
:101850002346A26861680CF0E7FF2046FFF727FDEA
:101860004FF0000002B070BD6368002BF5D0214638
:10187000A0689847F1E701236361EEE70A236361FB
:10188000EBE764236361E8E79DF80560314628468D
:101890000EF0BCF9002EE0D129462046FFF79DFF4F
:1018A000DBE770472DE9F04182B004460E4617464B
:1018B0001D46DDF82080B0F90630B0F90400A8EB31
:1018C00000000090EB1A04F150000AF039FFB4F95F
:1018D0000630B4F90420A8EB02020092EB1A3A4653
:1018E000314604F1B8000BF0E3FC94F8183113B959
:1018F00002B0BDE8F081B4F90630B4F90420A8EBD9
:1019000002020092EB1A3A46314604F180000BF0D5
:10191000CFFCEDE72DE9F04182B004460E461746B4
:101920001D46DDF82080B0F90430B0F90600A8EBC0
:1019300000000090EB1A04F150000AF05AFFB4F9CD
:101940000430B4F90620A8EB02020092EB1A3A46E2
:10195000314604F1B8000BF020FD94F8183113B9AA
:1019600002B0BDE8F081B4F90430B4F90620A8EB68
:1019700002020092EB1A3A46314604F180000BF065
:101980000CFDEDE710B5044605290DD8DFE801F0A0
:10199000030D0C0C03140E4950300BF013FA23689E
:1019A000DB6C00212046984710BD006A20B1234619
:1019B000A26A616A0CF038FF002104F150000BF0BC
:1019C00001FA2368DB6C002120469847ECE700BF52
:1019D000808080002DE9F04184B004461F460A9EB5
:1019E0000B9DDDF830804FF0FF33C3648180C280EF
:1019F000CB199BB2013B038193199BB2013B4381FD
:101A00008781C681A5EB08038363C0F83C8001226F
:101A10000264002105E0226C02EB82025200226483
:101A200001318845F7DCB8F1000F14D0CDF8008003
:101A3000394A102104F584702FF0A6FEB8F1000F8A
:101A400000D0013504F1F00840462AF06BFAA842B4
:101A500013D000220BE0314A102104F584702FF0DE
:101A600093FEEBE70021A31883F8F0100132172A48
:101A700003D89542F6D92021F5E7012302930025EA
:101A8000019500963B462A46294604F150000BF08A
:101A9000F4F804F1B80709F02BFB01906FF07F43D5
:101AA00000932B462A46414638460BF0D6FC94F864
:101AB0003850E36B73B30122154453FA85F5EDB248
:101AC0000135EDB2B4F90C8038462BF0E3FA00FB97
:101AD0001581B4F9C630F61A06EBD67600237210DB
:101AE000490804F1B8000CF027FA09F001FB019055
:101AF0006FF07F43009300231A46094904F18000E8
:101B00000BF0ABFC2368DB6C00212046984704B047
:101B1000BDE8F0810022CFE750E3030864E3030847
:101B2000ACE50308C36F994200D1704710B5044675
:101B300050300BF001F92368DB6C002120469847F8
:101B400010BD10B5044601634263036F90F82C008A
:101B500000B11146994200D110BD04F150000BF0C4
:101B60001BF92368DB6C002120469847F4E738B561
:101B700004461546FFF7D6FF4FF47F42294620461C
:101B8000FFF7DFFF38BD10B582B00446426C8A42D1
:101B900000DC0A46A36C934200DB1346E26C9A42D7
:101BA00036D0E364E26B8AB9009304F5847318229B
:101BB00004F1F00104F1B8000BF009FE2368DB6CBE
:101BC000002120469847012002B010BD216C93FBF4
:101BD000F1F201FB1233002BB8BF5B42019300927C
:101BE00004F58473182204F1F00104F1B8000BF03D
:101BF000EEFDE36C002BE1DA226C93FBF2F3002B99
:101C0000DCD1A36B023B23442D2283F8F020D5E7DF
:101C10000020D9E708B541648264C16CFFF7B3FFC7
:101C200008BD30B583B0044600F1B80500910D4BF6
:101C3000182200F1F00128460BF0C9FDB4F90C1090
:101C4000B4F9C430C91AB4F90E20B4F9C630D21AA6
:101C500002EBD27200235210490828460CF06CF9AE
:101C600003B030BD6CE30308F8B50446836BC56B65
:101C70006DB101210B441D4494F81831013B042B34
:101C800000F2B480DFE803F0383205638B000021F6
:101C9000F0E7B4F90C6004F1B80738462BF0FAF914
:101CA00094F8E43000FB03F303FB1561B4F98C30C6
:101CB000C91A0239B4F90E20B4F9C630D21A02EBAF
:101CC000D27200235210490838460CF035F9B4F9A5
:101CD000C060B4F9C27004F1800528462BF0E3F926
:101CE00000233A1AB11C28460CF026F92368DB6C55
:101CF000002120469847F8BDB4F90C10B4F98C3097
:101D0000C91AB4F90E20B4F9C630D21AB4F98E301B
:101D1000D21A02EBD27200235210490804F180005B
:101D20000CF00AF9B4F90C6004F1B80738462BF04E
:101D3000B1F994F8E43000FB03F303FB15610023D1
:101D4000B4F98A20490838460CF0F6F8CEE7B4F921
:101D50000C6004F1B80738462BF09CF994F8E43095
:101D600000FB03F303FB1561B4F90E20B4F9C63090
:101D7000D21A02EBD27200235210490838460CF0F6
:101D8000DBF8B4F90C10B4F98C30C91A0023B4F99B
:101D9000C220490804F180000CF0CEF8A6E7B4F99F
:101DA0000C6004F1B80738462BF074F994F8E4306D
:101DB00000FB03F303FB1561B4F90E20B4F9C63040
:101DC000D21A02EBD27200235210490838460CF0A6
:101DD000B3F8B4F9C000B4F98C100023B4F9C220F0
:101DE000411A04F180000CF0A7F87FE7B4F90C6009
:101DF00004F1B80738462BF04DF994F8E43000FBB5
:101E000003F303FB1561B4F90E20B4F9C630D21AFE
:101E100002EBD27200235210490838460CF08CF8BD
:101E200064E770B50446154600F1B80630460BF07D
:101E30001EFCE9B230460BF05AFC2046FFF714FFB7
:101E40002368DB6C00212046984770BD70B50446BE
:101E50000D4680F8182100F18006194630460BF037
:101E600006FC0022294630460BF07EFC2046FFF798
:101E7000FBFE2368DB6C00212046984770BD90F87C
:101E80002C308B4210D010B5044680F82C10503006
:101E900041B1616B0AF080FF2368DB6C00212046B2
:101EA000984710BD216BF5E770470162426283627B
:101EB000704700BF02464FF00200134652B192F83D
:101EC0003420052A04D803EB82035A681144596070
:101ED0004FF00000704770B5054603F0B6FD05F5FC
:101EE000BC51043103F05BFE05F58053D3F878074D
:101EF000FFF752FC05F5885004300BF0D4FF05F5D0
:101F00008E5004300BF0CFFF05F5945004300BF0E9
:101F1000CAFF05F595501C300BF0C5FF002427E0E3
:101F200004EBC400400100F5C470284404EBC40372
:101F300005EB4313D3F88C311B6904309847661CBA
:101F4000C6EBC60005EBC00043681B690430984728
:101F500004EB4400800100F64800284404EB4404EC
:101F600005EB8414D4F84C381B6904309847344688
:101F7000052CD5D900240FE004EB4400800100F5C6
:101F80005C60284404EB440305EB8313D3F8C43DA1
:101F90001B69043098470134032CEDD905F6CC4079
:101FA0000BF081FF05F68C500BF07DFF05F5975087
:101FB00014300BF078FF05F59D5014300BF073FFD3
:101FC00005F5A35014300BF06EFF05F5A950143041
:101FD0000BF069FF05F5AF5018300BF064FF05F505
:101FE000B55018300BF05FFFFEF767FCFEF71EFEE2
:101FF0004FF0000070BD2DE9F04F83B0064600257C
:102000002F4600F58058D8F8800790F8701301F03B
:1020100077FD014606F5945B0BF1040B2A46584602
:102020000BF0A2FBD8F8800790F8F11301F071FDD6
:10203000014606F5955A0AF11C0A2A4650460BF04D
:1020400093FBB8F90C9109F10409B8F9C841043CB3
:10205000A4EB0904B8F99012611A01EBD1712B4677
:10206000B8F98A2209EB610158460BF065FFB8F90F
:10207000C832E41A04EBD4742B46B8F9C22209EB37
:10208000640150460BF058FF10E09D4218D205EB5A
:10209000C504640104F5C47434440434E9B201F0A5
:1020A0008DFD01462046FFF76EFD013506F5805394
:1020B000D3F88007D0F81034052BE6D90623E4E7DF
:1020C0000024052C51D806EB84035D680DB901345A
:1020D000F7E7B26B02FB05F596F8341001F0FEFC51
:1020E000F0B1904BA21D06EB82025268002A1ADB67
:1020F000002A1EDD06EB84025268002A19DD03F077
:10210000A4FC026F132A00D81422B36B02FB03F362
:10211000C3EB03139B00844AA2FB0323DB0813E0F9
:102120004EF66023DEE706EB840149680029DFDA1A
:10213000E5E706EB84025268002A40F39280012111
:10214000A21D06EB8202516006F580504FF0000898
:10215000CDF800802A46E1B2D0F8800702F0D2FC28
:10216000074606EB8404C4F8048006F5975808F186
:10217000140806F58053D3F8803793F80C34002BFD
:1021800072D04FF47F4140460DF061FC06F59D553D
:10219000143506F58053D3F8803793F80D34002BAF
:1021A00065D04FF47F4128460DF051FC06F5A35051
:1021B000143006F5805393F8F435002B5AD0FF21E4
:1021C0000DF045FC06F58053D3F8803793F8522381
:1021D000002A54D006F5A950143093F8E333002BAD
:1021E0004BD04FF47F410DF032FC06F5AF50183064
:1021F00006F58053D3F8803793F87033022B4BD019
:102200004A490DF0E0FB06F58053D3F8802792F899
:102210007033052B42D00BB1092B4CD1444906F544
:10222000B55018300DF0CFFB06F58053D3F880077A
:102230002AF052FF48B106F58053D3F8803793F85F
:102240007033012B3ED0032B3CD006F58053D3F8DE
:102250007807FFF7A1FA06F6CC400DF0BCFC00248D
:1022600053E04FF0FF316BE76FF07F418BE76FF08A
:102270007F4198E76FF07F41A2E7FF21B3E706F5C2
:10228000A950143093F8E3331BB1FF210DF0DFFBAD
:10229000ABE76FF07F41F9E72649B2E706F5B550A5
:1022A000183092F8F1334F2B03D023490DF08BFBFC
:1022B000BAE71F49FAE7214906F5B55018300DF085
:1022C00082FBB1E706F6CC400DF06CFC002409E07F
:1022D00004EB4400800100F64800304404300DF067
:1022E00061FC0134052CF3D940460DF05BFC284617
:1022F0000DF058FC11E004EB4400800100F64800AA
:10230000304404300DF067FC0134052CF3D940460D
:102310000DF061FC28460DF05EFC384603B0BDE8C8
:10232000F08F00BF80F52000CDCCCCCC78E3030843
:102330007CE3030870E3030884E303088CE30308E9
:102340002DE9F04F8DB0824600F58053D3F87C37ED
:10235000D3F888200692D3F88C4008F0C9FE0368B1
:10236000DB68984700EB80020592C2EBC20324337E
:10237000E31A03EBD37359100A9102EB630B0BF1D1
:102380000C0309934FF00009CDF82CB0E7E0994514
:1023900080F0F080059B0433099909FB0311079134
:1023A0004FEAC90509EBC904640104F5C474544437
:1023B0000434069FA7F10806B6005FFA89FB594668
:1023C0002AF07AFEA04981FB062381FB07210290B7
:1023D00008220192059A0092A3EBE673079A0697EA
:1023E000A1EBE7712046FFF7F5FAFF220421204612
:1023F000FFF7BDFB08F07CFE014602222046FFF7F6
:1024000010FD00212046FFF7BEFB0AF58058594613
:10241000D8F880072AF07EFE064608F069FE0346DB
:10242000032231462046FFF711FD29F0B3FF014694
:1024300000231A462046FFF738FD4D440AEB4515A8
:10244000D5F88C319B6C01212046984709F1010693
:10245000F0000490C6EBC6070AEBC70704375946DD
:10246000D8F8800701F02FFB804608F087FD019027
:102470006FF07F43009300231A46414638460AF026
:10248000ECFF022138460BF032F90498871B0AEB67
:10249000C7070437831B0AEBC3035B68DB69089338
:1024A000D5F88C31DB6A2046984700EBD0704FEAB4
:1024B000600B0498831B0AEBC3035B68DB6B384635
:1024C000984700EBD070ABEB600BD5F88C311B6BF1
:1024D000204698478046D5F88C311B6C204698479B
:1024E00000EBD07008EB60080498831B0AEBC30371
:1024F0005B681B6C3846984700EBD0700023A8EB54
:10250000600259463846089FB84709EB4907BF01A2
:1025100007F6480757440437D5F88C315B6B2046E3
:1025200098478046D5F88C315B6B204698470699D2
:10253000081A012302930599019108380090079B1E
:1025400008F10402414938460DF048F929F022FF0C
:10255000014600231A4638460DF064FBB1460AF5E1
:102560008053D3F88007D0F81034052B7FF60FAFD7
:1025700006230CE7DDF82CB00AF6CC450AF5C67840
:10258000DAF88C311B6B404698470646DAF88C31F6
:10259000DB6A404698470446DAF88C311B6C4046AB
:1025A00098472B4F012302930190083C0094334637
:1025B0000422394628460DF011F929F0EBFE0146B8
:1025C00000231A4628460DF02DFBDAF88C31DB6A21
:1025D000404698470446DAF88C311B6B40469847D2
:1025E000054608F085FD01906FF07F43009305F1EB
:1025F000080304F1080239460AF68C500AF02DFF50
:10260000069BA3F11406B6080AF58053D3F8803769
:10261000D3F81034052B00D90623013B03EBC3008C
:10262000400100F5C470504403EBC3030AEB4313AD
:10263000D3F88C319B6B0430984700F108070025D4
:10264000B946059F36E000BFABAAAA2A94E3030867
:10265000ACE5030805EB4504A40104F55C645444AF
:10266000043405EB4501890001F586515144321DC2
:1026700005FB02F201230293019700964B460432B8
:10268000043120460DF0AAF829F084FE014600230B
:102690001A4620460DF0C6FA032120460DF04FFAE7
:1026A000002120460DF0B2FA6FF07F4120460DF078
:1026B000CEF90135032DCDD901210AF58050043022
:1026C0000DF0A4FADAF88C315B6B40469847069B14
:1026D0001D1AA5F108080AF5885704370124029449
:1026E000059B0193CDF80080DDF828904B4604222D
:1026F000804938460DF072F829F04CFE014600235F
:102700001A4638460DF08EFA0AF58E570437069AA7
:10271000043A029405990191CDF800804B46A2EB52
:102720000802754938460DF059F829F033FE014684
:1027300000231A4638460DF075FA08F01FFC0368AE
:10274000DB6898470599A1EB000809EB580808F0E9
:1027500015FC01906FF07F47009743462A1D67499B
:102760000AF5945004300AF078FE08F007FC03687C
:102770009B68984700EB8000054408F0B9FC0368AB
:102780009B6898470544043508F0B2FC0368DB6891
:102790009847ABEB0003A3F1020808F0A9FC0190F5
:1027A000009743462A4656490AF595501C300AF0D0
:1027B00054FEDAF8C43D9B6B0AF6C4509847051DD9
:1027C0000AF59757143702940599019100962B4604
:1027D00004224C4938460DF001F829F0DBFD014692
:1027E00000231A4638460DF01DFA0AF59D57143796
:1027F00002940599019100962B4606F10802424980
:1028000038460CF0EBFF29F0C5FD014600231A46BF
:1028100038460DF007FA0AF5A3571437B21D029493
:102820000599019100962B46A240384938460CF094
:10283000D5FF29F0AFFD014600231A4638460DF0BA
:10284000F1F90AF5A9571437321D02EB420202943E
:10285000059B019300962B4604322D4938460CF017
:10286000BDFF29F097FD014600231A4638460DF0BA
:10287000D9F90236A640059B1D442F1D0AF5AF5518
:1028800018350294019300963B46042221492846BC
:102890000CF0A4FF08F072FB014628460DF0E9F8A1
:1028A00029F078FD014600231A4628460DF0BAF9B2
:1028B0000AF5B55518350294059B019300963B46E1
:1028C00006F10802144928460CF088FF08F056FB70
:1028D000014628460DF0CDF829F05CFD01460023A5
:1028E0001A4628460DF09EF94FF000000DB0BDE8E5
:1028F000F08F00BF98E303089CE30308A0E30308FC
:10290000ACE50308A8E30308ACE30308B4E3030859
:10291000E4E2030878E303088CE3030870B5064695
:10292000002510E005EB4504A40104F55C64344483
:102930000434002120460DF069F96FF07F412046F4
:102940000DF085F80135032DECD970BD2DE9F04F60
:1029500085B0064600251BE005EB450306EB830327
:102960000B440A21995405EB4500800100F55C6099
:10297000304405EB450406EB8414D4F8C43DDB6811
:1029800064210430984794F8F83D002B40D101357C
:10299000032D4FD805EB45039B0003F586533344C5
:1029A00003F1040800245C609C60DC60234B03EBB3
:1029B0008503D3F8249005F23C4306EB8303C3F868
:1029C000049006F5805BDBF880A7214650462AF08C
:1029D00091FB07462146DBF880072AF09BFB029417
:1029E000019000974B460C224146504601F030FBC7
:1029F00021460B29B7D805EB450306EB83030B44AF
:102A000041F2C4029B5C202BA6D00131C9B2F0E791
:102A100005EB4500800100F55C6030444FF47F41D8
:102A200004300DF014F805F23C4306EB83035B68B9
:102A3000B363ACE705B0BDE8F08F00BF343D0308D9
:102A400070B582B00546FDF738FFFEF7CBF864217C
:102A500005F5885004300BF017FA642105F58E5007
:102A600004300BF011FA652105F5945004300BF099
:102A70000BFA652105F595501C300BF005FA284638
:102A8000FFF764FF00242CE09C4234D204EBC40026
:102A9000400100F5C470284404EBC40305EB431364
:102AA000D3F88C31DB68642104309847661CC6EB90
:102AB000C60005EBC0004368DB686421043098471A
:102AC00004EB4400800100F64800284404EB440471
:102AD00005EB8414D4F84C38DB6864210430984743
:102AE000344605F58053D3F88037D3F81034052BDE
:102AF000CAD90623C8E7062385F8343000240AE043
:102B000004EBC400400100F5C470284400210430E7
:102B1000FFF7B5F90134052CF2D9642105F597507A
:102B200014300BF0B1F9642105F59D5014300BF011
:102B3000ABF905F5A35414341A4920460CF043FFB1
:102B40006FF07F4120460CF082FF05F58053002690
:102B500083F8F465642120460BF096F9642105F5AD
:102B6000A95014300BF090F9642105F5AF501830DE
:102B70000BF08AF9642105F5B55018300BF084F993
:102B800002F063FF044629F005FC014605F5BC533D
:102B9000043300932B46044A204602F0E3FF3046FC
:102BA00002B070BDB4E30308B51E00082DE9F04F74
:102BB00089B000F5885304338B423ED004460D465D
:102BC00000F58E5304338B4240D000F5A9531433E3
:102BD0008B4240D000F5AF5318338B4248D000F5FC
:102BE000B55318338B4253D000F5A35314338B42A3
:102BF00000F0858000F58053D3F878378B4200F0E1
:102C0000D28000F5975314338B4200F0DA8000F540
:102C10009D5314338B4200F0DC800027032F00F219
:102C2000F28007EB4706B60106F55C6626440436DB
:102C3000AE4200F0D6800137F0E7FDF73EFEFEF72A
:102C4000D8F84FF0000009B0BDE8F08FFDF735FE71
:102C5000FEF7C1F8F5E700F58054D4F8800790F846
:102C6000523313B101F018F9EBE701F0CAF8E8E7C5
:102C700000F58054D4F8800790F87033022B03D00D
:102C8000812101F0AFF8DCE7822101F0ABF8D8E751
:102C900000F58054D4F8800790F87033052B0FD0DE
:102CA0000BB1092B20D1002380F8F13380F8553384
:102CB000D0F86833C0F86C33182101F093F8C0E7FE
:102CC00090F8F1334F2B02D029F0A2FDB9E7002391
:102CD00080F8F13380F85533D0F86833C0F86C339E
:102CE000182101F07FF8ACE7002380F85533D0F8C5
:102CF0006833C0F86C33192101F074F8A1E700F5CE
:102D00008053D3F8800790F8526366B3002307938B
:102D100004F5805393F8F43543BB04F58055A021A6
:102D2000D5F8800701F05EF8A121D5F8800701F001
:102D300059F807AF3A467549D5F8800701F00FFEFC
:102D40003A467349D5F8800701F009FE012385F85A
:102D5000F435002E7FF475AF04F58054D4F8800765
:102D600001F09AF86DE701F04CF8CFE704F58055D3
:102D700007AF3A466749D5F8800701F0F0FD3A46BB
:102D80006549D5F8800701F0EAFDA021D5F8800754
:102D900001F028F8A121D5F8800701F023F80023DD
:102DA00085F8F435D5E71A7C002A3FF44AAF00F5E0
:102DB0008054D3F82021197BD4F8800702F0A8F8BA
:102DC0003FE700F58054A021D4F8800701F00AF80D
:102DD00037E700F58054A121D4F8800701F002F80C
:102DE0002FE72046FFF79AFD012130460CF00EFF39
:102DF0004FF47F4130460CF02AFE07F23C4304EBCF
:102E000083035B68A363042F7FF41BAF00260BE0F2
:102E1000AF425AD006EB46039B0103F64803234416
:102E20000433AB426AD00136052E3FF60AAF06EBFB
:102E3000C6077F0107F5C47727440437AF42E7D1BF
:102E400006EBC60304EB431393F8B831002BDFD035
:102E500004F58057D7F878975FFA86F84146D7F897
:102E6000800700F030FE0590D7F8800790F81C240A
:102E70002A4B53F822A006EBC60304EB4313D3F806
:102E8000D8B141462AF018F9022303930290244B4B
:102E90000193244B00935B46524605994846FEF742
:102EA00031FAD7F8788729F075FA014600231A46D7
:102EB0004046FEF7F8F9D7F87837DE6042F2107135
:102EC000D7F87807FEF72CFCADE70025052D0BD8C9
:102ED00005EBC500400100F5C4702044002104301A
:102EE000FEF7CDFF0135F1E701213846FEF7C7FFB8
:102EF00084F834602046FFF729FDA2E604F58053EC
:102F0000F1B2D3F8800701F0D5FF8CE7BCE30308EA
:102F1000C4E30308CCE30308D0E30308AC4603088A
:102F200080969800806967FF2DE9F04F87B00446CE
:102F3000BF4B03600246BF4B42F8043B0023436093
:102F400053609360D36013615361C3610362436252
:102F50008362C3620363062380F8343001238363F2
:102F600000F13C0300931E46052501E0013D383683
:102F7000002D03DB304629F051FAF7E704F5C6735C
:102F800001931E46052502E0013D06F59076002DD1
:102F900003DB304629F0A4FAF6E704F64C0302936B
:102FA0001E46052501E0013DC036002D03DB3046FD
:102FB00029F068FAF7E704F6CC430493184629F0A1
:102FC00061FA04F68C5029F029FA04F6C4530393ED
:102FD0001E46032501E0013DC036002D03DB3046CF
:102FE00029F050FAF7E704F580553022002105F169
:102FF000C4002EF07FFC0023C5F8F430C5F8F8308B
:10300000C5F8FC30C5F8003104F588530433059346
:10301000184629F037FA04F58E550435284629F06C
:1030200031FA04F59450043029F0F8F904F595507C
:103030001C3029F0F3F904F597561436304629F080
:1030400021FA04F59D571437384629F01BFA04F588
:10305000A35808F11408404629F014FA04F5A959B8
:1030600009F11409484629F00DFA04F580530022AD
:1030700083F8F42504F5AF5A0AF1180A504629F0EE
:1030800001FA04F5B55B0BF1180B584629F0FAF973
:10309000FDF713FC00F5D950143004F58053C3F844
:1030A000780707F049FB04F58053C3F87C0700F06C
:1030B000DBFCC3E0009B002B00F0B680C5F10505EA
:1030C0003823009A03FB0525009B9D4200F0AC804D
:1030D000594B45F8383D28460AF006FFF4E7019BB6
:1030E000002B00F09580C5F105054FF49073019A0F
:1030F00003FB0525019B9D4200F08A80A5F5907594
:10310000284629F09BFBF5E7029B002B75D0C5F103
:103110000505C023029A03FB0525029B9D426CD046
:10312000C03D284629F04CFAF7E7039B002B4ED010
:10313000C5F10305C023039A03FB0525039B9D42AC
:1031400045D0C03D284629F03BFAF7E7584629F01C
:1031500037FA504629F034FA484629F031FA404609
:1031600029F02EFA384629F02BFA304629F028FAB1
:1031700004F58053304AC3F8BC2204F595501C3046
:103180000AF0B2FE04F580532B4AC3F8842204F5FA
:10319000945004300AF0A8FE284629F011FA059848
:1031A00029F00EFA04F586550435039B9D420ED096
:1031B000C03D284629F004FAF7E7CAE7CCE7CEE796
:1031C000D0E7D2E7D4E7DDE7E6E7E8E7EAE71A4B3E
:1031D000C4F88C3D04F68C500AF086FE049829F061
:1031E000EFF904F6CC45029B9D4206D0C03D28462F
:1031F00029F0E6F9F7E7F1E7F3E704F64C05019B60
:103200009D4205D0A5F59075284629F017FBF6E7F5
:1032100004F5C675009B9D4206D0074B45F8383D26
:1032200028460AF061FEF5E7014B23602BF0B4FD60
:1032300018F203083C3D03089CD8030804F58053AA
:10324000C3F880070022C3F88427C3F88827C3F88F
:103250008C2783F89027C3F89427C3F89827204633
:1032600007B0BDE8F08F08B50F4B1B68BFF35B8F4D
:1032700013F0010F01D00D4808BD0B482CF0DFF80A
:103280000028F8D00948FFF74FFE094A09490748C6
:103290002BF007FD04482CF0E1F8ECE702482CF095
:1032A000DAF82BF079FD00BF2C2600203026002014
:1032B0004401002035D1020810B40D4B1C211980A7
:1032C00059804FF0080C83F804C00A4A9A600A48F3
:1032D000D860D0F85C431C619982D98283F818C009
:1032E00002F54472DA6118625C625DF8044B704763
:1032F000CC3D0020883D0308F8C9030808B5032128
:10330000C06C07F053FC4FF0000008BD79B908B558
:1033100090F8313083F0010380F831301BB104495B
:1033200008F02CFC08BD034908F028FCFAE77047B8
:10333000CC3D0020E03D0020114B9B6ABFF35B8F2A
:1033400013F0010F01D00F48704710B50E482CF054
:1033500076F808B90B4810BD0A482AF099F9084CCC
:103360000A4A0B4904F12C002BF09BFC04F12800C5
:103370002CF074F8EEE704482CF06DF82BF00CFDFF
:10338000CC3D0020F83D0020F43D00204401002009
:1033900021D6020838B50546016000230371437148
:1033A000837107F0C9F9A8602DF04AFA0D4C84FB2F
:1033B0000023A3EBE07303EB4303A0EB43030133D0
:1033C0002B712DF03DFA84FB0023A3EBE07303EB9C
:1033D0004303A0EB430301336B710123AB71284618
:1033E00038BD00BFABAAAA2A70B5064600680368BC
:1033F0005B6B9847054630680368DB6A984728444A
:1034000000EBD0704510306803689B6B984704460A
:10341000306803681B6B9847231803EBD3735B106A
:1034200096F90420551905D41146B068D0F88800E3
:10343000854203DBD2B252423271002196F9050077
:103440000246C31804D4B468D4F88C40A34203DB0A
:10345000C0B240427071002230680368DC69012309
:10346000A04770BD38B504461D460D4B08F054FB0F
:103470000C4B2360002384F8313084F831501DB1A7
:1034800001232374204638BD0549204608F076FB09
:10349000F6E7054B236020460AF026FD2BF07CFC66
:1034A000CC3D0020D843030840C9030830B5ADF532
:1034B000177D054689AC0123002211462046FFF7FF
:1034C000D1FFEB6CD3F88810BDF93022891AD3F8FC
:1034D0008C20BDF93232D21A02EBD27201EBD171DB
:1034E00000235210491020460AF026FD4FF40041F7
:1034F00020460AF0C9FC00230293012301934FF0F8
:10350000FF1300931E23962278217FA809F037FD30
:1035100028217FA80AF0B8FC0023029301934FF4FE
:103520007F0300931E237822962175A809F027FDBA
:10353000322175A80AF0A8FC4FF47F430193782349
:103540000093602322222E216CA809F0C7FC1E21C3
:103550006CA80AF099FCBF4B01934C2300936E2397
:1035600022222E2163A809F0B9FC1E2163A80AF0CB
:103570008BFC07F041FD01904FF0FF1300930A23ED
:103580000022B54955A809F0B8FF462155A80AF010
:103590007BFC07F06FFD0190AE4B009314230022DB
:1035A000AD4947A809F0A9FF502147A80AF06CFCD3
:1035B00007F0DAFD01904FF6FF7300931E230022FF
:1035C000A54939A809F099FF5A2139A80AF05CFCED
:1035D00007F050FD02904FF0FF1301934FF47F432B
:1035E0000093322300229C492BA809F0FFFF64219D
:1035F0002BA80AF049FC07F083FC0190FF230093FD
:103600004623002294491DA809F077FF6E211DA8CA
:103610000AF03AFC01230293FF2301930A2300934B
:1036200064230022114611A809F05EFB0A2111A8AB
:103630000AF02AFC012302934FF6FF7301930A2339
:1036400000931423462264210DEB030009F04CFB88
:1036500014210DEB01000AF017FC0C2006F0DBFE34
:1036600004467FA9FFF796FE7C4BDC670C2006F032
:10367000D2FE044675A9FFF78DFE784BC3F8804053
:103680000C2006F0C8FE04466CA9FFF783FE734BBE
:10369000C3F884400C2006F0BEFE044663A9FFF781
:1036A00079FE6E4BC3F888400C2006F0B4FE044649
:1036B00055A9FFF76FFE694BC3F88C400C2006F04C
:1036C000AAFE044647A9FFF765FE644BC3F8904085
:1036D0000C2006F0A0FE044639A9FFF75BFE5F4B05
:1036E000C3F894400C2006F096FE04462BA9FFF781
:1036F00051FE5A4BC3F898400C2006F08CFE04464D
:103700001DA9FFF747FE554BC3F89C400C2006F05F
:1037100082FE044611A9FFF73DFE504BC3F8A040BE
:103720000C2006F078FE044605A9FFF733FE4B4B4C
:10373000C3F8A44001E0C0B290B1E86C4FF0FF3193
:1037400000F5C35014300BF046FBF4E701340A2CAB
:1037500008D8424B03EB8403D86FFFF745FEF5E72B
:103760000024F4E7E86C00F5C35014300BF046FB7E
:10377000E86C00F5C15004300BF08FFB01200BF01A
:10378000D9FBDAE70C2120462BF004FB05A8344BCB
:1037900003600AF0A9FB11A8314B03600AF0A4FBF7
:1037A0001DA8304B03600AF09FFB2BA82D4B036034
:1037B0000AF09AFB39A82B4B03600AF095FB47A847
:1037C000284B03600AF090FB55A8264B03600AF0D3
:1037D0008BFB254B639363A80AF086FB224B6C930B
:1037E0006CA80AF081FB214B759375A80AF07CFB4D
:1037F0001E4B7F937FA80AF077FB1D4B89931D4BCF
:10380000899389A80AF070FB2BF0C6FA0C21204698
:103810002BF0C0FABAE70C2120462BF0BBFAB5E733
:103820000C2120462BF0B6FAB0E70C2120462BF0F5
:10383000B1FAABE70C2120462BF0ACFAA6E70C213D
:1038400020462BF0A7FAA1E70C2120462BF0A2FA84
:103850009CE700BF00FFFF00E4E30308CC3D00202D
:10386000D8D703089CD8030828D70308D0D6030864
:10387000D843030840C903080C2120462BF08AFADC
:1038800084E70C2120462BF085FA7FE70C212046A7
:103890002BF080FA7AE779E77DE781E785E789E72A
:1038A0008DE791E795E799E79DE7A1E7A5E708B5DB
:1038B000FFF702FD08BD00BF10B582B0044641F21B
:1038C000883025F01DF8E06C03689B68984700235A
:1038D0008DF80730E06C03681B690DF1070198470C
:1038E000C0B20028F6D04FF0000002B010BD70B595
:1038F00004464FF00705C06C03681B6A984740B345
:10390000D4F82434002B48D194F850303F2B29D0E0
:103910003F2B2ED004F150054FF4807204F58561E1
:1039200028462EF00EF8E66C284628F0FBFA0246F0
:103930003368DB69294630469847054604F150064E
:10394000304628F0EFFA0246314646481EF01EFA8D
:10395000F8B1EDB2072D6AD0242D68D04FF00005E4
:10396000284670BD94F85423002AD1D14FF00005A9
:10397000E4E70BF0F9FAC4F85803002384F8543351
:10398000E06C0368DB69012204F1500198470546A9
:10399000D4E734481EF014FADBE7204629F09CFBFC
:1039A0000028D6D094F85533002BD2D194F8F133B7
:1039B00033B1D4F82434C4F86C334FF00005C8E7B1
:1039C00004F595654FF0FF3128460BF03FF80BF0FA
:1039D000CBFAC4F86003012384F85533D4F82434B7
:1039E000C4F86C3328460BF059F804F150064FF434
:1039F000807204F5856130462DF0A3FFE56C3046FA
:103A000028F090FA02462B68DB6931462846984731
:103A10000546304628F086FA0246314611481EF027
:103A2000B5F9002895D10F481EF0CAF991E7D4F8EE
:103A3000243453B1204629F04FFB30B9D4F8243454
:103A4000C4F86C334FF000058AE70023012204F22A
:103A5000244120460AF01BFF054601200BF073FAB3
:103A60007EE700BF44900120104B1B68BFF35B8FC3
:103A700013F0010F01D00E48704710B50B482BF022
:103A8000DEFC08B90A4810BD094829F03FFE074C82
:103A9000084A0949201D2BF004F920462BF0DEFCD2
:103AA000F0E702482BF0D7FC2BF076F9383F0020E6
:103AB0003C3F002044010020D5D6020808B5C1646F
:103AC0000AF01EFE08BDD0F81034994200DB062132
:103AD00001F5157100EB41000430704702290BD944
:103AE000D0F81034994209DA0339C9B290F81404B5
:103AF000C84000F001007047002070470020704768
:103B00000A2900D9002101F5977100EB8100406876
:103B10007047572900D9582101F5A77150F82100A5
:103B2000704770B52DED028BD0F81034994204DB4C
:103B300000242046BDEC028B70BD04460D4600F506
:103B400095664FF0FF3130460AF080FF94F8E0337D
:103B5000FBB105F1DC0304EB830393ED018A05F16E
:103B6000E20304EB8303D3ED017A38EE278A29467A
:103B7000204629F0BFFA07EE900AF8EEE77A67EEE2
:103B8000887AFDEEE77A17EE904A30460AF086FF13
:103B9000CFE705F1DC0304EB830393ED018A2946AB
:103BA000204629F0A7FA07EE900AF8EEE77A67EECA
:103BB000887AFDEEE77A17EE904AE6E770B52DEDCC
:103BC000028BD0F81034994204DB00242046BDEC6F
:103BD000028B70BD04460D4600F595664FF0FF312F
:103BE00030460AF033FF94F8E033BBB105F1DC0353
:103BF00004EB830393ED018A2946204629F07AFAE3
:103C000007EE900AF8EEE77A67EE887AFDEEE77A3B
:103C100017EE904A30460AF041FFD7E705F1DC0382
:103C200004EB830393ED018A05F1E20304EB8303C4
:103C3000D3ED017A38EE678A2946204629F05AFAF0
:103C400007EE900AF8EEE77A67EE887AFDEEE77AFB
:103C500017EE904ADEE770B52DED028BD0F81034E8
:103C6000994204DB00242046BDEC028B70BD044663
:103C70000D4600F595664FF0FF3130460AF0E6FE3E
:103C800094F8E033FBB105F1E80304EB830393ED13
:103C9000018A05F1E20304EB8303D3ED017A38EEE8
:103CA000278A2946204629F025FA07EE900AF8EEE1
:103CB000E77A67EE887AFDEEE77A17EE904A3046AB
:103CC0000AF0ECFECFE705F1E80304EB830393ED84
:103CD000018A2946204629F00DFA07EE900AF8EEEF
:103CE000E77A67EE887AFDEEE77A17EE904AE6E724
:103CF00070B52DED028BD0F81034994204DB00240E
:103D00002046BDEC028B70BD04460D4600F595665D
:103D10004FF0FF3130460AF099FE94F8E033BBB122
:103D200005F1E80304EB830393ED018A294620465D
:103D300029F0E0F907EE900AF8EEE77A67EE887A64
:103D4000FDEEE77A17EE904A30460AF0A7FED7E775
:103D500005F1E80304EB830393ED018A05F1E20327
:103D600004EB8303D3ED017A38EE678A29462046B7
:103D700029F0C0F907EE900AF8EEE77A67EE887A44
:103D8000FDEEE77A17EE904ADEE790F855331BB95F
:103D9000D0F86C338B4205D0D0F86C338B4204D80A
:103DA0005520704790F8F10370475420704710B5C4
:103DB0000446FFF7EAFF38B9D4F86423D4F85C333B
:103DC0009A4204D2012002E0542801D0002010BD04
:103DD000D4F86023D4F85C339A4201D30020F6E78C
:103DE0000120F4E700B5A3B0002301938DF808107B
:103DF0008DF80930012201A90AF049FD23B05DF8D0
:103E000004FB10B5044602F0D1FB037A93B90022FB
:103E10004FF400511F480CF02CFF94F8EC3323F0C2
:103E2000010384F8EC33012384F85233872384F8A8
:103E3000533310BD02F0BAFB037A012B0FD194F873
:103E40005233002BE9D18B212046FFF7CBFF0BF03B
:103E50008BF8C4F85803002384F85433DDE702F0EC
:103E6000A5FB037A022BD8D100224FF40051094858
:103E70000CF0FFFE94F85233002BCED18B2120465C
:103E8000FFF7B0FF0BF070F8C4F85803002384F874
:103E90005433C2E70008024010B5044602F086FB26
:103EA000037AD3B901224FF4005124480CF0E1FE0B
:103EB000002384F8523394F852336BB984F85533A5
:103EC000D4F86823C4F86C2384F8F13394F8EC2315
:103ED00063F3000284F8EC2310BD02F067FB037A61
:103EE000012B0ED194F8523313B194F8E3331BB97C
:103EF000002384F85233DEE78B212046FFF772FF60
:103F0000F6E702F053FB037A022B02D002F04EFBDD
:103F1000D1E701224FF4005108480CF0AAFE94F8B2
:103F2000523313B194F8E3331BB9002384F85233AE
:103F3000C1E78B212046FFF755FFF6E70008024056
:103F400038B5044602E001200AF0FDFF94F854332E
:103F5000002BF8D0D4F85C533F212046FFF742FFF6
:103F600002E001200AF0EFFFD4F85C33AB42F8D056
:103F700038BD30B583B00D461146069C83EAE37028
:103F8000A0EBE37042F2107C64450FD0B4F57A7F69
:103F90001ED0642C2CD00A2C3AD0002B48DB254BA9
:103FA0000090254A28462DF0EFFB0CE0002B0DDB9E
:103FB000204B90FBF4F204FB1204019400921F4A80
:103FC00028462DF0E1FB284603B030BD1C4BF0E73E
:103FD000002B0BDB174B90FBF4F204FB1204019453
:103FE0000092184A28462DF0CFFBECE7144BF2E77D
:103FF000002B0BDB0F4B90FBF4F204FB120401943B
:104000000092114A28462DF0BFFBDCE70C4BF2E78B
:10401000002B0BDB074B90FBF4F204FB1204019422
:1040200000920A4A28462DF0AFFBCCE7044BF2E79A
:10403000034BB5E7ACE5030830E4030800E40308EC
:10404000A4E303080CE4030818E4030824E40308C9
:104050002DE9F04182B00C461546089F099E9DF857
:1040600028800097FFF785FFB8F1000F12D0012FCD
:1040700010DD204627F056FF431E03E000208CF899
:104080000000013B33B104EB030CE05C3028F5D0B9
:104090002E28F3D04EB1204627F044FF0096054B62
:1040A000054A291A20442DF06FFB204602B0BDE8D6
:1040B000F08100BF38E403083CE40308F8B5054686
:1040C0000E463A2130462DF01DFC30B3002300F897
:1040D000013B2CF07FFBC7B2002401E00134E4B2C5
:1040E0000A2C09D804F5977305EB83035968304609
:1040F00027F00EFF0028F1D10A2C00D9002495F8F2
:104100007033A3420BD013B9012385F80E3485F820
:10411000704385F871730120F8BD0027DCE795F83E
:104120007123BA42EFD10020F6E710B50C461046D5
:104130002CF04DFB51EC100B27F0AAFD07EE900A76
:1041400094ED007AB4EE677AF1EE10FA14BF012014
:10415000002001D0C4ED007A10BD10B50C46104609
:104160002CF038FB03462268824214BF0120002055
:1041700000D0236010BD70B506460C463D21204698
:104180002DF0C0FB30B30546002305F8013B601C51
:104190002CF020FB202813DC0A281BDBA0F10A03EB
:1041A000162B17D8DFE803F0171616271616161663
:1041B00016161616371616161616161647576700D1
:1041C000B0F5BC7F06D196F8144428462CF002FBCB
:1041D000844260D170BDD6F8184428462CF0FEFA0F
:1041E0008442F7D028462CF0F9FAC6F818040123C7
:1041F00086F80F34EEE796F81C4428462CF0EAFACD
:104200008442E7D028462CF0E5FA86F81C04012306
:1042100086F80F34DEE7B6F81E4428462CF0DAFAAA
:104220008442D7D028462CF0D5FAA6F81E040123E4
:1042300086F80F34CEE7B6F8204428462CF0CEFAA4
:104240008442C7D028462CF0C9FAA6F820040123DE
:1042500086F80F34BEE7B6F8224428462CF0BEFAA2
:104260008442B7D028462CF0B9FAA6F822040123DC
:1042700086F80F34AEE796F81D4428462CF0AAFACB
:104280008442A7D028462CF0A5FA86F81D04012305
:1042900086F80F349EE728462CF09CFA86F8140422
:1042A000012386F80F3495E72DE9F04106460C46C8
:1042B00017460025A84607E02C2120462DF022FBBA
:1042C000044678B101340135D6F81034AB4209DD2B
:1042D000224607EB85013046FFF727FF0028EBD089
:1042E0008046E9E74046BDE8F08110B5044600F598
:1042F0006372FFF7D9FF94F8E83360F3C30384F8DF
:10430000E83394F8E123DBB262F3451384F8E83331
:1043100010BD70B504460E462C2130462DF0F2FA41
:104320000546002305F8013B324604F57571204629
:10433000FFF713FF28B194F8EA3343F0010384F840
:10434000EA332C2128462DF0DDFA0646002306F834
:10435000013B2A4604F576712046FFF7FEFE28B1A0
:1043600094F8EA3343F0020384F8EA33324604F562
:1043700081612046FFF7F1FE28B194F8EA3343F05B
:10438000040384F8EA3370BD70B504460E462C2150
:1043900030462DF0B7FA0546002305F8013B3246BA
:1043A00004F577712046FFF7C0FE28B194F8E93391
:1043B00043F0020384F8E9332C2128462DF0A2FAB9
:1043C0000646F0B1002306F8013B2A4604F57F714A
:1043D0002046FFF7AAFE28B194F8E93343F004031E
:1043E00084F8E93366B1324604F580612046FFF770
:1043F0009CFE28B194F8E93343F0040384F8E933D0
:1044000070BD04F5806300221A60DEE770B50446D3
:1044100000F5A875C549284627F07AFD20B394F821
:1044200050313C2B2AD05B2B00F0B781242B00F0BD
:1044300008820622BE4928462DF071FA002800F0B5
:1044400005820622BB4928462DF069FAA8B904F571
:10445000AB702CF0BFF984F8F00394F8E93343F023
:10446000080384F8E93308E00AF07EFDC4F8640329
:10447000002384F8553384F8F13370BD012384F8A8
:1044800054330AF071FDC4F85C03AB4904F25110D7
:104490002DF06AFA0546F8B101462046FFF70EFEF8
:1044A00028B194F8E83343F0020384F8E83394F831
:1044B000F03363B194F87033052B08D0002284F8F0
:1044C000F02394F8E93362F3C30384F8E9339A499B
:1044D00000202DF049FA0546002610E004F55D7233
:1044E000691D2046FFF7E0FE94F8E83360F382038D
:1044F00084F8E833904900202DF036FA0546002D67
:1045000000F0338105228D4928462DF008FA68B95C
:1045100094F8E033002BE1D1012384F8E03394F8E0
:10452000E83343F0080384F8E833D7E705228449E9
:1045300028462DF0F4F9C0B994F8E03343B10023D4
:1045400084F8E03394F8E83343F0080384F8E83360
:1045500004F55D72691D2046FFF7A6FE94F8E83366
:1045600060F3820384F8E833C4E7032275492846E0
:104570002DF0D5F908B30422734928462DF0CFF960
:1045800000B30322714928462DF0C9F9002841D013
:1045900002226F4928462DF0C2F9002844D1AB7899
:1045A000312B14BF0023012384F8E43394F8E9335A
:1045B00043F0200384F8E9339CE7E91C2046FFF729
:1045C000E3FE97E7291D2046FFF78FFE92E70126BD
:1045D0000133092B21D8E21892F8F203DA1CA9184A
:1045E000AA5C904205D094F8E92342F0400284F896
:1045F000E923E218002082F8F2030A786AB13E2A21
:104600000BD0E11881F8F223502AE0D0702ADFD1D4
:104610000126DDE700231E46DBE7002384F8FB3399
:1046200084F8E563012665E702224A4928462DF011
:1046300076F948B30322484928462DF070F900283E
:1046400000F08E800422454928462DF068F90028A4
:104650007FF450AF94F8E3232B79312B14BF002360
:1046600001239A4209D082F0010284F8E32394F8EE
:10467000E83343F0010384F8E83394F8EC3343F073
:10468000010384F8EC3335E70235002384F80D3458
:1046900084F80C3484F8043494F8E83343F040038D
:1046A00084F8E83315F8013B002B3FF423AF433B7C
:1046B000102BF7D801A252F823F000BF1F470008C3
:1046C000A5460008A546000809470008A5460008B9
:1046D000A5460008A5460008A5460008A54600080E
:1046E000A546000801470008A5460008A5460008A1
:1046F000A5460008A5460008A54600081147000881
:10470000012384F80D34CDE7012384F80C34C9E784
:10471000002384F80534012384F80434C2E701231C
:1047200084F8053484F80434BCE700BF44E403088B
:1047300098E40308A0E4030848E403084CE40308F1
:1047400054E403085CE4030860E4030868E4030835
:104750006CE4030870E4030874E4030878E40308D5
:10476000E91C2046FFF7D5FDC4E67EB994F8F23384
:10477000002B14BF0122002294F8E93362F3861360
:1047800084F8E93302D0002384F8F233002E7FF45A
:1047900074AE002384F8E5336FE604F25115042269
:1047A000324928462DF0BBF810B304223049284680
:1047B0002DF0B5F850B304222E4928462DF0AFF85D
:1047C000054600287FF459AE04F25516324604F52A
:1047D00082612046FFF7C1FCD4F81034052B02DDBE
:1047E0000523C4F810343A2130462DF08BF823E02D
:1047F00004F5697204F255112046FFF755FD94F84F
:10480000EA3360F3C30384F8EA33D4E704F56F7244
:1048100004F255112046FFF747FD94F8EA3360F3A0
:10482000041384F8EA33C6E743195A7805F515737B
:1048300004EB43031A710135D4F81034AB42F3DCB6
:104840001BE629462046FFF796FC16E604F5AB70FA
:104850002BF0C0FF84F8F10394F8E93343F0100320
:1048600084F8E933002384F8553306E680E403082E
:1048700088E4030890E4030870B582B0044600257C
:104880008DF8075004E00023A4F850331F2D32D9CF
:10489000E06C03681B690DF107019847C0B298BB33
:1048A0009DF80730182BEED0B4F85023B2F5FE7FF8
:1048B000E9D80A2B08D00D2B06D0511CA4F85013B0
:1048C000224482F85031E1E71AB90023A4F85033AA
:1048D000DCE72244002382F8503104F595664FF05E
:1048E000FF3130460AF0B2F82046FFF78FFD304620
:1048F0000AF0D4F8E9E76A1C0A4B2B449DF807102C
:1049000083F8A01695B2C3E70DB902B070BD2A4670
:10491000054906481DF03AFA0028F6D103481DF073
:104920004FFAF2E7383F0020D8450020449001209C
:1049300070B5044600F595664FF0FF3130460AF039
:1049400085F8D4F868536B1CC4F8683313B9AB1CF2
:10495000C4F8683330460AF0A1F8284670BD2DE946
:10496000F041A2B006460D4690464FF00D0728F0E4
:10497000B3FB10B196F870331BB9384622B0BDE8CE
:10498000F0813046FFF7D4FF019000237F2B0BD836
:10499000EC5C03F188020DEB020101F8804C0CB1D4
:1049A0000133F3E74FF00007FBB2002BE5D11A46C5
:1049B00001A9304609F06BFF0746019BC8F800309B
:1049C000DBE710B50446FFF757FF0AF0CDFAD4F83D
:1049D0005C33C01AB0F5967F05D9002384F8703394
:1049E000012384F85433204628F076FB10B194F864
:1049F000703363B994F855334BB1002384F85533C1
:104A0000D4F86833C4F86C33562384F8F13301F0DA
:104A1000CDFD037A012B13D194F85233B3B920465C
:104A200028F05AFB10B194F80E349BBB204628F0B6
:104A300053FB10B194F85433B3BB4FF0000010BDDA
:104A400001F0B4FD037A022BE9D1E5E7204628F016
:104A500043FB0028E3D194F8EC3313F0010F07D1A6
:104A60000AF082FAD4F85833C01AB0F5967FD6D936
:104A70008B212046FFF7B6F90AF076FAC4F85803FE
:104A8000002284F8542394F8EC3362F3000384F892
:104A9000EC33C4E7204628F0BDFE204628F0C8FECF
:104AA000002384F80E34C1E70AF05EFAD4F85833D4
:104AB000C01A6428C1D9E06C03681B6A98470028B3
:104AC000BBD00AF051FAC4F85803002384F85433D9
:104AD000E06C0368DB69012204F2533198473F23FD
:104AE00084F853330122054905481DF04FF9002889
:104AF000A3D103481DF064F99FE700BFA8E40308B1
:104B0000449001202DE9F041AEB004460D469DF8D9
:104B1000D0804FF00300D4F810148D4202DB2EB089
:104B2000BDE8F08117461E46204628F0D5FA28B188
:104B300094F87033012B04D0032B02D04FF00D00FA
:104B4000EDE72046FFF7F4FE0D902946204628F0B9
:104B5000D1FA00903B46102205A92046FFF709FA3A
:104B6000642300933346102209A92046FFF701FA77
:104B700094F81C34DBB9104BB8F1000F19D00F4A70
:104B800005F5157504EB4505043509A9039105A93B
:104B90000291019500920A4A80210EA82CF0F4FDA2
:104BA00000231A460DA9204609F071FEB7E7054B10
:104BB000E2E7054AE4E700BFACE40308B4E4030815
:104BC000BCE40308B0E40308B8E40308F0B5ABB0F4
:104BD00004460D464FF00300D4F810148D4201DB5B
:104BE0002BB0F0BD17461E46204628F075FA28B1B6
:104BF00094F87033012B04D0032B02D04FF00D003A
:104C0000EEE72046FFF794FE09902946204628F05B
:104C100071FA00903B46102205A92046FFF7A9F93A
:104C200094F81C34ABB90C4B05F5157504EB450530
:104C30000435029605AA01920095084A80210AA827
:104C40002CF0A2FD00231A4609A9204609F01FFEF8
:104C5000C6E7034BE8E700BFACE40308CCE4030875
:104C6000B0E403082DE9F043BBB004460F461646F6
:104C70001D469DF80C9128F02FFA28B194F8703356
:104C8000012B06D0032B04D04FF00D003BB0BDE844
:104C9000F0832046FFF74CFE199094F81C34DFF89F
:104CA000C48008EB8303D3F8183200933B461022EC
:104CB00009A92046FFF75DF994F81C3408EB83033B
:104CC000D3F818320093334610220DA92046FFF77F
:104CD00050F994F81C3408EB8308D8F81832009384
:104CE0002B46102211A92046FFF743F964230093B5
:104CF000429B102215A92046FFF73BF994F81C347B
:104D000013BB134BB9F1000F20D0124A04F2AC418F
:104D100004F2AE4004F5966515AE079611AE069600
:104D200005950DAD0495039009A80290019100929C
:104D3000094A80211AA82CF027FD00231A4619A938
:104D4000204609F0A4FDA1E7044BDBE7044ADDE7B8
:104D5000ACE40308B4E40308E4E40308B0E40308A3
:104D6000B8E40308604403082DE9F047BAB00446EC
:104D70000D4616461F469DF80C819DF81091444B38
:104D8000D3F8C0368B4215D0414BC3F8C056C3F898
:104D9000C466204628F0A0F938B194F87033012B8E
:104DA00013D0032B11D0022B0FD04FF00D003AB0CF
:104DB000BDE8F087364BD3F8C4369342E4D1344B88
:104DC000C3F8C016C3F8C426DEE72046FFF7B0FDDF
:104DD000199094F81C34DFF8D8A00AEB8303D3F8B9
:104DE000183200932B46102209A92046FFF7C1F87C
:104DF00094F81C340AEB8303D3F81832009333463B
:104E000010220DA92046FFF7B4F894F81C340AEBE1
:104E1000830ADAF8183200933B46102211A9204683
:104E2000FFF7A7F864230093429B102215A92046A0
:104E3000FFF79FF894F81C3423BB164BB9F1000F11
:104E400022D0154AB8F1000F20D0144904F2AC402A
:104E500004F2AE4515AE079611AE06960DAE059658
:104E6000049509AD03950290019100920C4A8021AE
:104E70001AA82CF089FC00231A4619A9204609F02B
:104E800006FD94E7074BD9E7074ADBE70749DDE76B
:104E9000383F0020ACE40308B4E40308FCE4030852
:104EA00004E50308B0E40308B8E4030800E50308D8
:104EB0006044030830B5A3B004464FF00300D4F8B3
:104EC0001034994201DB23B030BD0D46204628F056
:104ED00003F918B194F87033012B02D04FF00D0094
:104EE000F1E72046FFF724FD019005F5157304EB6B
:104EF00043030433054A802102A82CF045FC00231B
:104F00001A4601A9204609F0C2FCDCE720E50308A7
:104F100070B5A8B004460D464FF00300D4F8101445
:104F20008D4201DB28B070BD1646204628F0D4F82B
:104F300018B194F87033012B02D04FF00D00F1E757
:104F40002046FFF7F5FC07902946204628F0D2F8C6
:104F500000903346102203A92046FFF70AF894F880
:104F60001C34A3B90B4B05F5157204EB4202043255
:104F700003A901910092084A802108A82CF004FCA2
:104F800000231A4607A9204609F081FCCAE7034B13
:104F9000E9E700BFACE4030830E50308B0E4030828
:104FA0002DE9F041AEB004460D469DF8D4804FF097
:104FB0000300D4F810148D4202DB2EB0BDE8F0815E
:104FC00017461E46204628F087F818B194F870332B
:104FD000012B02D04FF00D00EFE72046FFF7A8FCB1
:104FE0000D902946204628F085F800903B46102277
:104FF00005A92046FEF7BDFF642300933346102227
:1050000009A92046FEF7B5FFBEB9B8F1000F3AD0A6
:105010001F4B94F81C24002A37D11E4905F5157240
:1050200004EB4202043205A80290019200911A4A50
:1050300080210EA82CF0A8FB17E0B8F1000F1ED0BD
:10504000134B94F81C24E2B9124905F5157204EBD0
:105050004202043209A8039005A80290019200912F
:105060000E4A80210EA82CF08FFB00231A460DA9B2
:10507000204609F00CFC0D9A349B1A609DE7084B02
:10508000DFE70849E1E7064BC3E70649C6E700BF8B
:10509000B4E40308ACE4030854E5030844E503085A
:1050A000B8E40308B0E403082DE9F041AAB00446CF
:1050B0000D469DF8C4804FF00300D4F810148D42C3
:1050C00002DB2AB0BDE8F08117461E46204628F0D4
:1050D00003F818B194F87033012B02D04FF00D0093
:1050E000EFE72046FFF724FC09902946204628F0E8
:1050F00001F800903B46102205A92046FEF739FF33
:10510000B8F1000F13D194F81C34002B2DD1184B9B
:1051100005F5157204EB42020432029605A90191CD
:105120000092144A80210AA82CF02EFB11E094F87A
:105130001C34C3B90E4B05F5157204EB4202043260
:10514000029605A9019100920B4A80210AA82CF031
:105150001BFB00231A4609A9204609F098FB099A6F
:10516000309B1A60ADE7054BE5E7044BD0E700BF85
:10517000ACE4030874E5030860E50308B0E4030841
:10518000F0B5ABB004460D464FF00300D4F8101450
:105190008D4201DB2BB0F0BD17461E46204627F09E
:1051A0009BFF18B194F87033012B02D04FF00D0023
:1051B000F0E72046FFF7BCFB09902946204627F080
:1051C00099FF00903B46102205A92046FEF7D1FE2C
:1051D00094F81C34C3B90D4B05F5157204EB42026B
:1051E0000432029605A901910092094A80210AA879
:1051F0002CF0CAFA00231A4609A9204609F047FBF9
:10520000099A309B1A60C5E7024BE5E7ACE4030856
:1052100088E50308B0E4030830B5A9B004460D469C
:1052200027F05AFF18B194F87033012B03D04FF0D8
:105230000D0029B030BD2046FFF77AFB079094F8A7
:105240001C24104B03EB8203D3F8183200932B4637
:10525000102203A92046FEF78CFE94F81C3473B983
:10526000094B03AA0092094A802108A82CF08CFA65
:1052700000231A4607A9204609F009FBD9E7044B89
:10528000EFE700BF60440308ACE403089CE50308B3
:10529000B0E4030810B5A2B0044627F01DFF18B112
:1052A00094F87033012B03D04FF00D0022B010BDE5
:1052B0002046FFF73DFB0190064B93E80300029068
:1052C0008DF80C1000231A4601A9204609F0DFFAD8
:1052D000ECE700BFA8E5030870B5A4B006460C468D
:1052E000154627F0F9FE18B196F87033012B03D05C
:1052F0004FF00D0024B070BD3046FFF719FB03904E
:105300006DB1084B0094084A802104A82CF03CFAA7
:1053100000231A4603A9304609F0B9FAEAE7034B1D
:10532000F0E700BFB0E50308B8E50308B4E50308FB
:1053300070B504460D4627F0CFFE28B14FF00306A6
:1053400094F87033012B03D04FF00D06304670BD3A
:1053500094F8043413B984F80554F7E7D4EDFF7AD0
:10536000FCEEE77A2A4617EE903A99B22046FFF70C
:10537000B3FF0646EAE710B5A2B0044627F0ACFE3C
:1053800018B194F87033012B03D04FF00D0022B008
:1053900010BD2046FFF7CCFA0190044B0293002386
:1053A0001A4601A9204609F072FAF0E74D350D00C2
:1053B00070477047F8B505460E4608F065FD07468C
:1053C000314605F6941008F05FFD741C214605F681
:1053D000B81008F059FD214605F6782008F054FD74
:1053E00000241CE0342304FB03F303F130002844C1
:1053F0002B445B6BDB68314604309847C4EBC40038
:10540000C00000F5E8702844C4EBC40305EBC303F7
:10541000D3F8D431DB6831460430984701342B6B24
:10542000A3421DD9EB6AA342DCD0342304FB03F36F
:1054300003F1300028442B445B6B1B690430984710
:10544000C4EBC400C00000F5E8702844C4EBC403FA
:1054500005EBC303D3F8D4311B6904309847DDE76B
:105460003846F8BD70B5054608F01DFD064605F640
:10547000941008F018FD05F6B81008F014FD05F6B4
:10548000782008F010FDEB6A342202FB03F303F1ED
:10549000300028442B445B6B1B6904309847EB6A4F
:1054A000C3EBC300C00000F5E8702844C3EBC3039E
:1054B00005EBC303D3F8D4311B690430984705F6D4
:1054C000383008F0F0FC00240FE004EB44008001C9
:1054D00000F56470284404EB440305EB8313D3F810
:1054E00094331B690430984701342B6BA342ECD8EA
:1054F000304670BD012900D0704738B50446B0F978
:105500000430B0F90E100B44934204DAB0F90830BD
:105510005B1A934200DC38BD00F63835284608F0A7
:1055200085FC48B123681B69204698472368DB68DF
:10553000618A20469847EEE7618A284608F0A4FC75
:10554000002511E005EB4500800100F56470204462
:10555000618A05EB450304EB8313D3F89433DB68CE
:105560000131043098470135236BAB42EAD8D2E7CA
:10557000F8B503464FF002004BB30E461C46DF6AF7
:1055800003F6B8138B4205D004F678238B421FD064
:1055900000252AE00FB17B1EE36204F6383008F0E4
:1055A00045FC18B123681B69204698472368DB68CF
:1055B000618A20469847E36ABB4206D0206A20B140
:1055C0002346A26A616A09F02FF94FF00000F8BD86
:1055D000236B013BBB42E0D97B1CE362DDE7E56264
:1055E00023681B69204698470135236BAB42D4D909
:1055F00005EB45039B0103F5647323440433B34275
:10560000F2D1ECE703464FF002003BB370B582B035
:105610001C460B88ADF804309DF80430022B05D0F1
:10562000042B18D04FF0000002B070BD04F6B8157E
:1056300004F6683008F0FAFB0028F3D19DF8056005
:10564000314628460AF0E2FA002EEBD129462046E0
:10565000FFF78EFFE6E704F67825E9E770470729AC
:1056600000D970472DE9F04F85B005460C464FF044
:10567000340808FB01F808F1300707443B1D1E46BB
:105680001146184606F07AFAA844D8F83430DA6998
:105690000292B5F90EB0B5F90C20A2EB4B010F4602
:1056A000DB6B0196304698478146E3000393C4EBD9
:1056B000C406F60006F5E8762E440436C4EBC40AA8
:1056C00005EBCA0ADAF8D431DB6B304698478144DF
:1056D000304627F0DFFC8144A7EB09000BEB500BB1
:1056E000B5F90E90D8F834301B6C019F38469847B6
:1056F000A9EB000909EBD97900234FEA6902594661
:10570000BB463846029FB847DAF8D431D3F81C902C
:10571000D8F834305B6B584698470746304627F038
:10572000B9FC0744039B1B1B05EBC305D5F8D4311B
:105730001B6B304698470246002339463046C8471F
:1057400005B0BDE8F08F072970D82DE9F04F87B07C
:1057500005460C461646002A65D04FEAC10AC1EB41
:10576000C1084FEAC80808F5E878804408F1040841
:10577000059301936FF07F43009300231A4631464F
:10578000404607F06AFEAAEB040A05EBCA0ADAF8FB
:10579000D431DA691746B5F90EB0B5F90C90A9EB1A
:1057A0004B09DB6B40469847A9EB000909EBD97917
:1057B0000BEB690BB5F90E90DAF8D4311B6C40464F
:1057C0009847A9EB000909EBD97900234FEA690250
:1057D00059464046B84704EB44084FEA881808F594
:1057E0006478A84408F10408B5F90E2004FB0223EC
:1057F000B5F90C10A1EB4201A2F1080001240294BA
:105800000190009104333146404609F0E7FF0599C5
:1058100040460AF02EF926F0BDFD01462B46044A0B
:1058200040460AF0FFF907B0BDE8F08F704700BFAF
:10583000715500087047C36A8B420FD010B50446FB
:10584000036B8B4209D9C16203685B69984720B139
:105850002368DB68618A2046984710BD70472DE9B0
:10586000F04F87B004460E4690461D46DDF8409046
:10587000119F03689B6C012198470596BDF9141090
:10588000A180A4F806806B1E1BB2238109F1FF32B0
:1058900012B26281A581A4F80E906FF07F40019052
:1058A000009204F6941007F0E3FA04F6B81AB4F97B
:1058B0000E305A1E0126029601920093B4F906306A
:1058C000B4F904203749504609F088FF05F056FB2B
:1058D000014650460AF0CDF826F05CFD0146DFF89F
:1058E000D4B023465A4650460AF09CF904F6782A6A
:1058F000B4F90810B4F90E20531E029601930092D9
:10590000B4F906308A1A2849504609F067FF05F0B5
:1059100035FB014650460AF0ACF826F03BFD014647
:1059200023465A4650460AF07DF900F08EF882462A
:1059300026F030FD014604F68833019314230093CA
:1059400023461A4A504600F0D5F8B4F90A20D4F894
:10595000A03BD3F88C30B4F90E1002961448019095
:105960005B1A0093B4F90C303244B4F9041004F615
:10597000383007F082F9CDF800902B464246059961
:1059800004F6683007F031FA84F8786B082F00D9F4
:105990000827276300212046FFF74DFF07B0BDE829
:1059A000F08F00BF98E303089CE303080556000846
:1059B00040404000715500080162426283627047B6
:1059C000F0B583B00546B0F9466B036BB6FBF3F652
:1059D000002417E0B5F90E10B5F93E2B04FB0622A2
:1059E000B5F90C3004EB4400800100F564702844E4
:1059F000A6F108070097A3EB41030432043009F035
:105A00008DFF01342B6BA342E4D803B0F0BD00BF7F
:105A1000034BD3F81C23034B1A615A62704700BF33
:105A2000F8D103080000002008B5FFF7F1FF08BD1A
:105A300010B50446C06C10B1216D16F073FF09F06B
:105A40005AFAE0654FF0000010BD114B1B68BFF320
:105A50005B8F13F0010F01D00E48704710B50C4852
:105A600029F0EDFC08B90B4810BD0A4827F006FFE5
:105A7000074C094A0949201D29F013F9204629F04D
:105A8000EDFCF0E7024829F0E6FC29F085F900BFBB
:105A90000046002004460020440100204DD80208A2
:105AA00008B5C164026508F02BFE08BD10B50C46B0
:105AB000898820680BF0D6F8A379834214BF0020B0
:105AC0000120237A834213D0637A834205D0834234
:105AD00009D060720020E07110BDE279082AF6D189
